:020000040800F2
:1000000000000220B9020008C1020008C502000871
:10001000C9020008CD020008D1020008000000005B
:10002000000000000000000000000000D5020008F1
:10003000D902000800000000DD020008E10200080B
:10004000E5020008E5020008E5020008E5020008F4
:10005000E5020008E5020008E5020008E5020008E4
:10006000E5020008E5020008E5020008E5020008D4
:10007000E5020008E5020008E5020008E5020008C4
:10008000E5020008E5020008E5020008E5020008B4
:10009000E5020008E5020008E5020008E5020008A4
:1000A000E5020008E5020008E5020008E502000894
:1000B000E5020008E5020008E5020008E502000884
:1000C000E5020008E5020008E5020008E502000874
:1000D000E5020008E5020008E5020008E502000864
:1000E000E5020008E5020008E5020008E502000854
:1000F000E5020008E5020008E5020008E502000844
:10010000E5020008E5020008E5020008E502000833
:10011000E5020008E5020008E5020008E502000823
:10012000E5020008E5020008E5020008E502000813
:10013000E5020008E5020008E5020008E502000803
:10014000E5020008E5020008E5020008E5020008F3
:10015000E5020008E5020008E5020008E5020008E3
:10016000E5020008E5020008E5020008E5020008D3
:10017000E5020008E5020008E502000800000000B2
:10018000E5020008E502000800B583B001F028FC94
:10019000384B394A1360394A136039490CE00A6810
:1001A0004B6801F10C04886803E01168196004339E
:1001B00004329842F9D82146324B9942EFD32E4B64
:1001C0001A68314B9A4204D12C4B1A682F4B9A4231
:1001D00000D0FEE7274B2E4A13602E4A13602E4BA9
:1001E0000AE0194651F8082B5B6802E00020106015
:1001F00004329A42FAD30B46284A9342F1D3244B55
:100200001B6813B9234B1B6803B1FEE701F040FCE8
:1002100001A8694601F0D8FB214C224B1C1BA410FD
:10022000002504E01E4B53F8253098470135AC42B9
:10023000F8DC1D4C1D4B1C1BA410002504E01A4BC0
:1002400053F8253098470135AC42F8DC0198009905
:1002500001F014FD0546164C164B1C1BA41004E0BF
:10026000013C134B53F824309847002CF8DC284607
:1002700001F082FBBABADECA000000208C00002028
:10028000E8020008000300087856341232547698C9
:1002900090000020EC00002000030008100300087C
:1002A00010030008100300081003000810030008E2
:1002B000100300081003000808B5FFF765FF00BF32
:1002C000FEE700BFFEE700BFFEE700BFFEE700BF9E
:1002D000FEE700BFFEE700BFFEE700BFFEE700BF8E
:0802E000704700BFFEE700BFFC
:1002E800C42000080000002090000020C42000085E
:1002F800000000100000001090000020F000002016
:080308000000001000000010CD
:1003100010B5044601F0FCFA064BA3FB003080093F
:1003200000F09EF84FF0FF302146002200F04AF81E
:10033000002010BDD34D621008B50B4B1A6842F473
:1003400000721A601A6842F480621A601A6842F4F5
:1003500080721A60032000F017F80F20FFF7D8FF13
:1003600000F08EFE002008BD003C0240014B1868E2
:10037000704700BF94000020024A136823F0020374
:100380001360704710E000E010B50446C31E042B54
:1003900003D90A48A42101F01FFB04F00700084A12
:1003A000D36823F4E0631B041B0C43EA002040F0F5
:1003B000BF6040F40030D06010BD00BFE41F0008F3
:1003C00000ED00E070B504460E4615460F2A03D92D
:1003D0001A48BC2101F000FB0F2E03D91748BD219C
:1003E00001F0FAFA164BDB68C3F30223C3F10702EC
:1003F000042A28BF0422191D062901D9D81E00E0AD
:100400000020012303FA02F2013A324002FA00F11D
:1004100083405A1E2A400A43002C06DA04F00F04D7
:100420001201D2B2074B1A5570BD1201D2B204F1BB
:10043000604404F5614484F8002370BDE41F0008A3
:1004400000ED00E014ED00E0410900F01F00012381
:100450008340024A42F82130704700BF00E100E0CB
:100460000138B0F1807F0AD2064B5860F021064A6D
:1004700082F823100020986007221A60704701203C
:10048000704700BF10E000E000ED00E02DE9F84FFC
:1004900080460F460B881BB9AC48C32101F09CFA7B
:1004A0007B68012B22D9112B20D0022B1ED0122BBE
:1004B0001CD0A74A934219D002F58012934215D05E
:1004C00002F58012934211D0A2F5F81293420DD09A
:1004D00002F58012934209D002F58012934205D0B2
:1004E000032B03D09948C42101F076FABB68022B94
:1004F00003D99648C52101F06FFA002420E1A146F6
:100500000125A5403B6803EA050AAA4540F017818A
:100510007B68022B01D0122B4AD13B69C3B3092B54
:1005200036D0ABB3A3B39BB393B3012B30D02FD052
:10053000022B2DD02CD02BD0032B29D0042B27D04D
:1005400026D025D0052B23D022D0092B20D0062B56
:100550001ED0092B1CD0072B1AD019D018D0082B6D
:1005600016D015D014D0092B12D011D00A2B0FD0D1
:100570000ED00B2B0CD00C2B0AD009D00D2B07D092
:100580000C2B05D00F2B03D07048D62101F024FA94
:10059000E608083658F8261004F0070080000F23FC
:1005A000834021EA03023B698340134348F8263025
:1005B000D8F800304FEA440B032606FA0BF6F64350
:1005C00006EA03027B6803F0030303FA0BF3134309
:1005D000C8F800307B685A1E012A03D9112B01D0BC
:1005E000122B1CD1FB68032B03D95848E92101F0D9
:1005F000F3F9D8F8083006EA0302FB6803FA0BF3B4
:100600001343C8F80830D8F8043023EA05037D689E
:10061000C5F3001505FA09F51D43C8F80450D8F8CC
:100620000C303340BE6806FA0BF61E43C8F80C6067
:100630007B6813F0805F00F08280464A536C43F47D
:1006400080435364A308991CA2F5803252F821100C
:1006500004F0030080000F22824021EA02013E4A9A
:10066000904537D002F58062904531D002F5806226
:1006700090452BD002F58062904525D002F580622E
:1006800090451FD002F58062904519D002F5806236
:10069000904513D002F5806290450DD002F580623E
:1006A000904507D002F58062904501D1092212E001
:1006B0000A2210E008220EE007220CE006220AE0DF
:1006C000052208E0042206E0032204E0022202E000
:1006D000012200E0002282400A4302331F4941F810
:1006E00023201F4B1A686FEA0A0303EA02017868A5
:1006F00010F4803F01D04AEA0201194A11605268A1
:1007000003EA0201786810F4003F01D04AEA0201CE
:10071000134A5160926803EA0201786810F4801F5E
:1007200001D04AEA02010E4A9160D268134079680A
:1007300011F4001F01D04AEA0203094AD3600134D0
:100740000F2C7FF6DCAEBDE8F88F00BF1820000844
:100750000000111000380240000002400038014043
:10076000003C0140F0B5002342E001229A4001EA3A
:10077000020595423BD106685F000324BC40E44378
:1007800026400660DF08083750F827E003F0070C22
:100790004FEA8C0C0F2606FA0CFC2EEA0C0E40F8E1
:1007A00027E0876827408760476827EA020242609F
:1007B000C2681440C46003F00302920096409A0895
:1007C0000D4F023257F8224024EA060647F822600D
:1007D0000A4C2668EA4306EA02052560656815406A
:1007E0006560A5681540A560E5682A40E2600133B0
:1007F0000F2BBAD9F0BD00BF00380140003C0140CA
:1008000038B505460C4621B9054840F2851101F07E
:10081000E3F82B69234201D0012038BD002038BD08
:100820001820000870B5054614460E4621B9084840
:100830004FF4D37101F0D0F8012C04D9044840F2F0
:10084000A71101F0C9F80CB12E8370BD6E8370BD85
:1008500018200008F8B504460D461646FFF786FD39
:10086000074627E023685A6912F4806F11D01A688E
:1008700042F400721A6023686FF480625A610423A4
:1008800084F83630012084F83500002384F83430B1
:10089000F8BDB6F1FF3F0DD026B1FFF767FDC01BD5
:1008A000B04207D9012384F83530002384F834306E
:1008B0000320F8BDC5F30743012B08D123685B690A
:1008C00025EA03039BB2003318BF012307E0236826
:1008D0009B6925EA03039BB2003318BF0123002B59
:1008E000C0D10020F8BD00BF2DE9F04106460C46FE
:1008F00090461D46FFF73AFD0746B8F1000F12D0AB
:100900003DE0B5F1FF3F0ED025B1FFF72FFDC01B35
:10091000A84208D9012386F83530002386F8343000
:100920000320BDE8F081C4F30743012B08D13368ED
:100930005B6924EA03039BB2003318BF012307E07D
:1009400033689B6924EA03039BB2003318BF012379
:10095000002BD6D10020BDE8F081B5F1FF3F0ED0CD
:1009600025B1FFF703FDC01BA84208D9012386F873
:100970003530002386F834300320BDE8F081C4F31D
:100980000743012B08D133685B6924EA03039BB258
:10099000B3FA83F35B0907E033689B6924EA030336
:1009A0009BB2B3FA83F35B09002BD6D10020BDE8DC
:1009B000F08100BF70B504460E4615460268136804
:1009C00043F4807313604FF0011100222B46FFF7B0
:1009D0008BFF68BB2369B3F5804F04D1236806F011
:1009E000FE061E6116E0226806F44073DB1143F038
:1009F000F0031361204612492A46FFF72BFF30B15E
:100A000094F83630DBB2042B14D1012315E02368AF
:100A1000F6B21E6120460B492A46FFF71BFF03462C
:100A200058B194F83630DBB2042B05D1012304E031
:100A3000032302E0032300E00323184670BD00BF38
:100A40000800010002000100F8B504460E461546F4
:100A50000268136843F4806313600268136843F408
:100A6000807313604FF0011100222B46FFF73CFF0B
:100A700000284ED12369B3F5804F05D1236846F095
:100A80000106F6B21E6136E0236806F44077FF09DE
:100A900047F0F0021A61204623492A46FFF7DAFEA2
:100AA00030B194F83630DBB2042B34D1012339E075
:100AB0002368F6B21E6120461C492A46FFF7CAFE8B
:100AC00030B194F83630DBB2042B26D1012329E073
:100AD00023685A699A691A6842F480721A6020463B
:100AE0004FF0011100222B46FFF7FEFEB8B9236834
:100AF00047F0F1071F6120460C492A46FFF7AAFE7E
:100B0000034678B194F83630DBB2042B09D10123C7
:100B100008E0032306E0032304E0032302E00323A9
:100B200000E003231846F8BD0800010002000100A0
:100B3000002800F0DE8038B5044603686E4A934210
:100B40000CD002F58062934208D002F58062934295
:100B500004D06A4840F2211100F03EFF6368013B77
:100B6000674A934204D965484FF4917100F034FF0D
:100B7000A3683BB1B3F5804F04D0604840F2231125
:100B800000F02AFFE36823F47F7323F0030323B10B
:100B90005A484FF4927100F01FFF2369B3F5804F5C
:100BA00007D0B3F5404F04D0544840F2251100F06F
:100BB00013FF6369012B04D950484FF4937100F07F
:100BC0000BFFA36933F0FE0304D04C4840F2271119
:100BD00000F002FFE36933B1402B04D047484FF4E3
:100BE000947100F0F9FE236A33B1802B04D043489E
:100BF00040F2291100F0F0FE94F8353013F0FF0FA9
:100C000002D1204601F0E6F8022384F8353022684C
:100C1000136823F00103136000F096FE394BA3FB29
:100C200000239B0C2268536021686568364A954210
:100C300001D8013308E04FF4967202FB03F3334A04
:100C4000A2FB03239B0901330B62216863682E4AD0
:100C5000934208D85B00B0FBF3F0C0F30B03032B07
:100C60002BD8042029E0A5684DB903EB4302B0FB63
:100C7000F2F2C2F30B02B2FA82F252090AE003EB7B
:100C8000830202EB8202B0FBF2F2C2F30B02B2FA71
:100C900082F2520982B935B903EB4303B0FBF3F09A
:100CA00040F4004009E003EB830303EB8303B0FB54
:100CB000F3F040F4404000E00120C8612268E1699F
:100CC000236A0B43136022682169E3680B43936036
:100CD00022686169A3690B43D3602268136843F0FB
:100CE00001031360002084F83600012384F83530B6
:100CF00038BD0120704700BF005400404820000864
:100D00007F1A060083DE1B43A0860100D34D6210CC
:100D100028B310B504460368124A93420CD002F57A
:100D20008062934208D002F58062934204D00E485C
:100D30004FF4B67100F050FE022384F8353022687B
:100D4000136823F001031360204601F071F80020BE
:100D500084F8360084F8350084F8340010BD012092
:100D6000704700BF005400404820000870B504469A
:100D70001D4690F83530DBB2012B64D11646002AAF
:100D800063D0002D63D003689B6913F0020F60D11C
:100D900090F83430012B5ED0012380F834301223D8
:100DA00080F83530002380F83630049AFFF702FED1
:100DB00070B194F83630DBB2042B04D1002384F8F0
:100DC000343001234EE0002384F83430032349E01B
:100DD00023685A699B6919E0204623490022049B35
:100DE000FFF782FD002838D12268731C3178116129
:100DF000013DADB22268516911F0040F05D025B153
:100E0000B31C71781161013DADB21E46002DE3D1D6
:100E1000204615490022049BFFF766FDF8B92268B9
:100E2000136843F400731360204610490122049BA9
:100E3000FFF75AFD0346A0B9012284F835200022AD
:100E400084F834200EE002230CE001230AE00123A1
:100E500008E0022306E0022304E0032302E0032368
:100E600000E00323184670BD80000100020010005E
:100E700070B504461D4690F83530DBB2012B40F0CA
:100E8000DE801646002A00F0DC80002D00F0DB80BA
:100E900003689B6913F0020F40F0D78090F834305C
:100EA000012B00F0D480012380F83430222380F815
:100EB0003530002380F83630049AFFF7C5FD70B155
:100EC00094F83630DBB2042B04D1002384F834309C
:100ED0000123C9E0002384F834300323C4E0012D4A
:100EE0000CD12268136823F48063136023685A6965
:100EF0009A691A6842F400721A608AE0022D0DD1D4
:100F00002268136823F4806313602268136843F433
:100F10000063136023685A699B697AE0226813684A
:100F200043F48063136023685A699B6971E0032D61
:100F300055D8012D0FD120464C490022049BFFF7C4
:100F4000D3FC002840F0858023681B693370013D85
:100F5000ADB201365DE0022D18D120464449002291
:100F6000049BFFF7C1FC002875D12268136843F485
:100F70000073136023681A69334603F8022B226852
:100F800012697270023DADB21E4642E020463849F9
:100F90000022049BFFF7A8FC00285ED1226813689A
:100FA00023F48063136023681B693370013DADB285
:100FB00020462F490022049BFFF796FC00284ED1C3
:100FC0002268136843F40073136023681B6973700D
:100FD00023681B69B370023DADB2033619E02046A9
:100FE00022490022049BFFF77FFC002839D1711CA5
:100FF00023681B693370013DADB223685A6912F052
:10100000040F05D01B697370013DADB2023600E0DC
:101010000E46002D8BD12268136823F40063136001
:10102000204614490122049BFFF75EFC0346D0B919
:10103000012284F83520002284F8342014E00223B1
:1010400012E0012310E001230EE002230CE0022352
:101050000AE0032308E0032306E0032304E003235C
:1010600002E0032300E00323184670BD40000100A6
:10107000040001000200100090F83600704700BF25
:10108000704700BF38B5044603680F2B03D9B34837
:10109000FD2100F0A1FC236813F0010F61D063680B
:1010A000012B06D9052B04D0AC484FF4817100F018
:1010B00093FCAB4B9B6803F00C03042B0AD0A84BAA
:1010C0009B6803F00C03082B0ED1A54B5B6813F44F
:1010D000800F09D0A24B1B6813F4003F41D0636816
:1010E000012B40F0FE813CE000229E4B1A70FFF77E
:1010F0003DF9054607E0FFF739F9401B41F2883317
:10110000984200F2F081964B1B6813F4003FF2D135
:101110002279944B1A706368012B11D1FFF726F9DD
:10112000054607E0FFF722F9401B41F28833984259
:1011300000F2DB818A4B1B6813F4003FF2D010E011
:10114000FFF714F9054607E0FFF710F9401B41F2DD
:101150008833984200F2CB81814B1B6813F4003F27
:10116000F2D1236813F0020F6DD0E368012B04D98C
:101170007A484FF4A17100F02FFC23691F2B04D98A
:10118000764840F2431100F027FC754B9B6813F042
:101190000C0F0AD0724B9B6803F00C03082B1CD178
:1011A0006F4B5B6813F4800F17D16D4B1B6813F006
:1011B000020F03D0E368012B40F09B81684802686E
:1011C00022F0F8012269F82393FAA3F3B3FA83F328
:1011D000DBB29A400A43026035E0E3680BB30122B8
:1011E000614B1A60FFF7C2F8054605E0FFF7BEF84D
:1011F000401B642800F27F81594B1B6813F0020FDB
:10120000F4D05748036823F0F8012269F82393FAD1
:10121000A3F3B3FA83F3DBB29A4041EA020303601B
:1012200011E00022504B1A60FFF7A0F8054605E0D8
:10123000FFF79CF8401B642800F25F81484B1B6855
:1012400013F0020FF4D1236813F0080F2ED0636956
:10125000012B04D941484FF4C17100F0BDFB636913
:1012600093B10122414B1A60FFF780F8054605E073
:10127000FFF77CF8401B642800F24181384B5B6F1C
:1012800013F0020FF4D011E00022384B1A60FFF780
:101290006DF8054605E0FFF769F8401B642800F289
:1012A00030812F4B5B6F13F0020FF4D1236813F0E2
:1012B000040F6ED0A368012B06D9052B04D0274854
:1012C0004FF4D67100F088FB254A136C43F080532D
:1012D0001364A2F5E432136843F480731360FFF7DC
:1012E00045F8054605E0FFF741F8401B642800F289
:1012F0000A811F4B1B6813F4807FF4D000221D4B22
:101300001A70FFF733F8054607E0FFF72FF8401B88
:1013100041F28833984200F2F880114B1B6F13F0B2
:10132000020FF2D1227A134B1A70A368012B11D14C
:10133000FFF71CF8054607E0FFF718F8401B41F2DD
:101340008833984200F2E380054B1B6F13F0020FC5
:10135000F2D01EE0FFF70AF8054615E088200008E5
:10136000003802400238024000004742800E4742E7
:101370000070004070380240FEF7F8FF401B41F259
:101380008833984200F2C580684B1B6F13F0020F40
:10139000F2D1A369022B04D965484FF4F87100F02B
:1013A0001BFBA369002B00F0B680604A926802F034
:1013B0000C02082A00F0B180022B7FD1E3693BB117
:1013C000B3F5800F04D05A4840F2F91100F004FB45
:1013D000236A3F2B04D956484FF4FD7100F0FCFA04
:1013E000636AC03BF02B04D9514840F2FB1100F076
:1013F000F3FAA36A022B0AD0042B08D0062B06D0DE
:10140000082B04D04A484FF4FE7100F0E5FAE36A75
:10141000043B0B2B04D9464840F2FD1100F0DCFAE6
:101420000022444B1A60FEF7A1FF054604E0FEF7D8
:101430009DFF401B642872D83C4B1B6813F0007F53
:10144000F5D1216A626A47F6C07393FAA3F3B3FA3F
:1014500083F3DBB29A401143A36A5B08013B4FF46C
:10146000403292FAA2F2B2FA82F2D2B293400B4325
:10147000E26943EA0201E36A4FF0706292FAA2F273
:10148000B2FA82F2D2B203FA02F241EA020343F064
:101490000053264A53600122264B1A60FEF766FF6E
:1014A000044604E0FEF762FF001B642839D81F4B96
:1014B0001B6813F0007FF5D0002038BD00221D4BC3
:1014C0001A60FEF753FF044604E0FEF74FFF001BCF
:1014D000642828D8154B1B6813F0007FF5D1002035
:1014E00038BD012038BD032038BD032038BD03209E
:1014F00038BD012038BD032038BD032038BD03208E
:1015000038BD032038BD032038BD032038BD03207B
:1015100038BD032038BD002038BD012038BD032070
:1015200038BD032038BD032038BD00BF003802405D
:10153000882000086000474270B504460D460368E5
:10154000013B0E2B04D988484FF4187100F044FA7F
:10155000072D04D9844840F2612100F03DFA834B05
:101560001B6803F00F03AB4280F08B80EAB27F4B25
:101570001A701B6803F00F03AB4240F051812368DF
:1015800013F0020F1DD0A368A3B1802B12D0902BB3
:1015900010D0A02B0ED0B02B0CD0C02B0AD0D02B4B
:1015A00008D0E02B06D0F02B04D06F4840F2772112
:1015B00000F012FA6E498B6823F0F002A36813431F
:1015C0008B60236813F0010F00F0E8806368022B42
:1015D00004D9654840F27E2100F0FEF96268012AD4
:1015E00005D1634B1B6813F4003F0ED11AE1022AA8
:1015F00005D15F4B1B6813F0007F06D114E15C4BF3
:101600001B6813F0020F00F0118159498B6823F019
:10161000030313438B60FEF7A9FE05466368012BA5
:101620000FD107E0FEF7A2FE401B41F2883398423B
:1016300000F2FE804E4B9B6803F00C03042BF1D1AB
:10164000ACE0022B17D107E0FEF790FE401B41F201
:101650008833984200F2EE80454B9B6803F00C0300
:10166000082BF1D19AE0FEF781FE401B41F288334E
:10167000984200F2E1803E4B9B6813F00C0FF2D1D0
:101680008CE0236813F0020F1DD0A368A3B1802B58
:1016900012D0902B10D0A02B0ED0B02B0CD0C02B82
:1016A0000AD0D02B08D0E02B06D0F02B04D02E4847
:1016B00040F2C62100F090F92D498B6823F0F0022A
:1016C000A36813438B60236813F0010F5ED0636837
:1016D000022B04D9244840F2CD2100F07DF9626844
:1016E000012A05D1224B1B6813F4003F0ED1A5E05F
:1016F000022A05D11E4B1B6813F0007F06D19FE024
:101700001B4B1B6813F0020F00F09C8018498B687C
:1017100023F0030313438B60FEF728FE064663683D
:10172000012B0FD107E0FEF721FE801B41F2883329
:10173000984200F289800E4B9B6803F00C03042B47
:10174000F1D123E0022B1CD106E0FEF70FFE801B37
:1017500041F28833984279D8054B9B6803F00C031B
:10176000082BF2D112E000BF88200008003C0240A4
:1017700000380240FEF7FAFD801B41F288339842A0
:1017800066D8354B9B6813F00C0FF3D1EAB2334B9C
:101790001A701B6803F00F03AB425BD1236813F090
:1017A000040F19D0E36883B1B3F5805F0DD0B3F5B2
:1017B000A05F0AD0B3F5C05F07D0B3F5E05F04D0F7
:1017C000274840F21D3100F007F923498B6823F4C4
:1017D000E052E36813438B60236813F0080F1AD0BC
:1017E000236983B1B3F5805F0DD0B3F5A05F0AD054
:1017F000B3F5C05F07D0B3F5E05F04D018484FF4ED
:10180000497100F0E9F8144A936823F460432169B0
:1018100043EAC10393600F20FEF77AFD002070BDFC
:10182000012070BD012070BD012070BD012070BD80
:10183000032070BD032070BD032070BD012070BD6A
:10184000012070BD012070BD032070BD032070BD5C
:10185000032070BD012070BD00380240003C0240F2
:1018600088200008274B9B6803F00C03042B46D00C
:10187000082B01D024487047224B586800F03F00E5
:10188000596801F480014FF4800292FAA2F2B2FA90
:1018900082F2D2B231FA02F310D01C4BB3FBF0F358
:1018A000184A506847F6C072104092FAA2F2B2FA93
:1018B00082F2D2B2D04000FB03F30FE0124BB3FB35
:1018C000F0F3104A506847F6C072104092FAA2F244
:1018D000B2FA82F2D2B2D04000FB03F3094A506858
:1018E00000F440304FF4403292FAA2F2B2FA82F29F
:1018F000D2B2D04001304000B3FBF0F07047034853
:10190000704700BF003802400024F40000127A0043
:1019100008B5FFF7A7FF094B9B6803F0F002F0231F
:1019200093FAA3F3B3FA83F3DBB222FA03F3044A84
:10193000D35CD840034B186008BD00BF003802409C
:10194000782000080C00002008B5FFF7E1FF084BE5
:101950009B6803F4E0524FF4E05393FAA3F3B3FA15
:1019600083F3DBB222FA03F3024AD35CD84008BD0A
:101970000038024078200008FEE700BF08B50120CB
:10198000FFF7FAFF08B50D4B1B6813B90C4A0B4B58
:101990001A600A4B1A68C31C23F003031344094955
:1019A0008B4206D900F05EFA0C2303604FF0FF3043
:1019B00008BD02490B60104608BD00BF980000201A
:1019C000F000002000FC012001230360014B0B60AC
:1019D000704700BF0400002008B5FFF7CFFF00BF2D
:1019E00008B500F001F808BD0C4B1A6842F001027E
:1019F0001A60002199601A6822F0847222F4803201
:101A00001A60074A5A601A6822F480221A60D96064
:101A10004FF00062034B9A60704700BF00380240ED
:101A20001030002400ED00E010B592B0174A136C9E
:101A300043F080531364A2F5E432136843F4404347
:101A40001360012301930293022407944FF480034F
:101A50000893082309934FF4A8730A930B94072360
:101A60000C9301A8FFF70EFB0F230D930E94002398
:101A70000F934FF4A05310934FF4805311930DA87C
:101A80000521FFF759FD12B010BD00BF003802401C
:101A900008B5FFF7A9FFFEF74FFCFEF76DFCFFF757
:101AA000C3FF08BD014B1878704700BF100000202D
:101AB00008B5012000F02CF9002000F029F90220DF
:101AC00000F026F9032000F023F90022064B1A70DB
:101AD0000648FFF71DF9064B186800F0D1F9054BD1
:101AE000186800F0CDF908BD10000020B4000020F7
:101AF000AC000020B000002030B593B0304A136C29
:101B000043F080531364A2F5E432136843F4404376
:101B10001360012301930293022407944FF480037E
:101B20000893082309934FF4A8730A930B9407238F
:101B30000C9301A8FFF7A6FA0F250D950E9400242B
:101B40000F944FF4A05310934FF4805311930DA8AA
:101B50000521FFF7F1FC1B481B4B03604FF480434A
:101B600003611A4A426044618360C4610462C560D3
:101B7000FE238361FEF7DCFF08B1FFF799FF002029
:101B8000014600F0E5F8012000F086F8002000F0A2
:101B900083F8022000F080F8032000F07DF8012097
:101BA00000F066F90A4C2060012000F061F9094A52
:101BB0001060216800230B701268137013B030BDE1
:101BC00000380240B400002000540040801A060093
:101BD000B0000020AC00002010B582B0002000F062
:101BE000EFF80128FAD1002000F0EAF80028FAD135
:101BF0000AE01F48FFF740FA042805D01C48FFF709
:101C00003BFA08B1FFF754FF1A4B1A6842F21073FF
:101C1000009317480F210123FFF7A8F80028E8D107
:101C20000AE01348FFF728FA042805D01048FFF708
:101C300023FA08B1FFF73CFF0F4B1A6842F210730A
:101C400000930B480F210123FFF712F90028E8D178
:101C5000084C2368187800F06BF82368064A12686D
:101C600012781A702368187800F052F802B010BD8C
:101C7000B4000020B0000020AC00002008B5FFF741
:101C80003BFF01E0FFF7A8FFFFF70CFF0028F9D1A9
:101C9000FFF70EFF08BD00BF70B586B0044628B937
:101CA000184A136B43F00803136314E0012805D1AD
:101CB000144A136B43F0080313630CE0022805D1A8
:101CC000104A136B43F00803136304E00D4A136BCF
:101CD00043F0080313630C4B33F8145001950123B0
:101CE0000293039302230493084E56F8240001A99B
:101CF000FEF7CCFB56F8240029460022FEF792FDA1
:101D000006B070BD00380240B82000081400002062
:101D100008B50346044A52F82000044A32F813106A
:101D20000122FEF77FFD08BD14000020B820000846
:101D300008B50346044A52F82000044A32F813104A
:101D40000022FEF76FFD08BD14000020B820000837
:101D500030B587B00546174A136B43F00103136390
:101D60000C4661B9012301930023029303930223DC
:101D70000493114B53F8200001A9FEF787FB012CB7
:101D800015D10123019300240394022304930B4BE8
:101D90000293094B53F8250001A9FEF777FB0620B3
:101DA0000F212246FEF70EFB0620FEF74DFB07B083
:101DB00030BD00BF00380240240000200000111098
:101DC00008B5034B53F820000121FEF719FD08BDAB
:101DD0002400002070B586B0134C236B43F002033F
:101DE0002363236B43F002032363402301931223F5
:101DF00002930123039302230493042605960B4DBB
:101E000028460DEB0601FEF741FB4FF400730193EA
:101E1000059628460DEB0601FEF738FB236C43F4CC
:101E20000013236406B070BD003802400004024075
:101E300010B50A4B1A6A42F400121A621A6A22F4A6
:101E400000121A62064C20464021FEF78BFC204609
:101E50004FF40071FEF786FC10BD00BF0038024051
:101E600000040240014B1868704700BF8800002042
:101E7000024B0146186800F04FB800BF88000020F0
:101E8000024B0146186800F003B800BF880000202C
:101E900030B500293DD051F8042C0B1F1D49002AF4
:101EA000B8BF9B180A680C4612B95A600B6030BD67
:101EB00093420DD219685818904201BF5A585218CF
:101EC0001A6042685A60236030BD994203D80A46BE
:101ED00051680029F9D1146815199D420AD11B686F
:101EE0002344D0188842136013D108680344136058
:101EF0004B680DE002D90C23036030BD1C68181933
:101F0000884204BF08684968596004BF0019186016
:101F1000536030BDA400002070B5CC1C24F0030435
:101F200008340C2C38BF0C24002C064603DA0C2392
:101F30003360002070BD8C42F9D3204A13681046EC
:101F40001946A1B10A68121B0ED40B2A03D90A60E4
:101F50008B188C501FE08B420DBF5A684A685A603C
:101F6000026018BF0B4616E00B464968E9E7144DBE
:101F70002B681BB9304600F025F828603046214612
:101F800000F020F8421C0346D1D0C51C25F0030503
:101F900085420AD11C6003F10B001A1D20F00700D6
:101FA000821A0AD05142995070BD3046E91A00F0A9
:101FB00009F80130BBD02B46ECE770BDA40000202F
:101FC000A000002038B5064C0023054608462360D3
:101FD000FFF7D8FC431C02D1236803B12B6038BD46
:101FE000A80000202E2E2F73797374656D2F7372E5
:101FF000632F73746D333266342D68616C2F737484
:102000006D3332663478785F68616C5F636F7274C9
:1020100065782E63000000002E2E2F73797374658F
:102020006D2F7372632F73746D333266342D686154
:102030006C2F73746D3332663478785F68616C5FCF
:102040006770696F2E6300002E2E2F73797374658D
:102050006D2F7372632F73746D333266342D686124
:102060006C2F73746D3332663478785F68616C5F9F
:102070006932632E630000000000000001020304C7
:1020800001020304060708092E2E2F737973746565
:102090006D2F7372632F73746D333266342D6861E4
:1020A0006C2F73746D3332663478785F68616C5F5F
:1020B0007263632E63000000001000200040008067
:0220C0004300DB
:1020C400785634129C000020000000000024F40024
:1020D40001000000000C0240000C0240000C024011
:1020E400000C02400000024000000000000000005C
:1020F40000000000000000000000000000000000DC
:102104000000000000000000C020000800000000E3
:1021140000000000000000000000000000000000BB
:1021240000000000000000000000000000000000AB
:10213400000000000000000000000000000000009B
:1021440000000000000000002800002032547698AF
:040000050800018965
:00000001FF
