:020000040800F2
:1000000000000220B9020008A91E0008AD1E000869
:10001000B11E0008B51E0008B91E0008000000004F
:10002000000000000000000000000000BD1E0008ED
:10003000C11E000800000000C51E0008C91E0008FF
:10004000E5020008E5020008E5020008E5020008F4
:10005000E5020008E5020008E5020008E5020008E4
:10006000E5020008E5020008E5020008E5020008D4
:10007000E5020008E5020008E5020008E5020008C4
:10008000E5020008E5020008E5020008E5020008B4
:10009000E5020008E5020008E5020008E5020008A4
:1000A000E5020008E5020008E5020008E502000894
:1000B000E5020008E5020008E5020008E502000884
:1000C000E5020008E5020008E5020008D11E00086C
:1000D000E11E0008E5020008E5020008E50200084C
:1000E000E5020008E5020008E5020008E502000854
:1000F000E5020008E5020008E5020008E502000844
:10010000E5020008E5020008E5020008E502000833
:10011000E5020008E5020008E5020008E502000823
:10012000E5020008E5020008E5020008E502000813
:10013000E5020008E5020008E5020008E502000803
:10014000E5020008E5020008E5020008E5020008F3
:10015000E5020008E5020008E5020008E5020008E3
:10016000E5020008E5020008E5020008E5020008D3
:10017000E5020008E5020008E502000800000000B2
:10018000E5020008E502000800B583B001F0C8FBF5
:10019000384B394A1360394A136039490CE00A6810
:1001A0004B6801F10C04886803E01168196004339E
:1001B00004329842F9D82146324B9942EFD32E4B64
:1001C0001A68314B9A4204D12C4B1A682F4B9A4231
:1001D00000D0FEE7274B2E4A13602E4A13602E4BA9
:1001E0000AE0194651F8082B5B6802E00020106015
:1001F00004329A42FAD30B46284A9342F1D3244B55
:100200001B6813B9234B1B6803B1FEE701F0E0FB49
:1002100001A8694601F078FB214C224B1C1BA4105D
:10022000002504E01E4B53F8253098470135AC42B9
:10023000F8DC1D4C1D4B1C1BA410002504E01A4BC0
:1002400053F8253098470135AC42F8DC0198009905
:1002500001F0EEFC0546164C164B1C1BA41004E0E6
:10026000013C134B53F824309847002CF8DC284607
:1002700001F022FBBABADECA000000208C00002088
:10028000E8020008000300087856341232547698C9
:1002900090000020680100200003000810030008FF
:1002A00010030008100300081003000810030008E2
:1002B000100300081003000808B5FFF765FF00BF32
:1002C000FEE700BFFEE700BFFEE700BFFEE700BF9E
:1002D000FEE700BFFEE700BFFEE700BFFEE700BF8E
:0802E000704700BFFEE700BFFC
:1002E8005021000800000020900000205021000844
:1002F8000000001000000010900000206C01002099
:080308000000001000000010CD
:1003100010B5044600F0A0FE064BA3FB0030800998
:1003200000F0A6F84FF0FF302146002200F052F80E
:10033000002010BDD34D621008B50B4B1A6842F473
:1003400000721A601A6842F480621A601A6842F4F5
:1003500080721A60032000F01FF80F20FFF7D8FF0B
:1003600000F032FA002008BD003C0240024A136847
:1003700001331360704700BF94000020014B1868E0
:10038000704700BF94000020024A136823F0020364
:100390001360704710E000E010B50446C31E042B44
:1003A00003D90A48A42101F0B7FA04F00700084A6B
:1003B000D36823F4E0631B041B0C43EA002040F0E5
:1003C000BF6040F40030D06010BD00BF7020000856
:1003D00000ED00E070B504460E4615460F2A03D91D
:1003E0001A48BC2101F098FA0F2E03D91748BD21F5
:1003F00001F092FA164BDB68C3F30223C3F1070244
:10040000042A28BF0422191D062901D9D81E00E09C
:100410000020012303FA02F2013A324002FA00F10D
:1004200083405A1E2A400A43002C06DA04F00F04C7
:100430001201D2B2074B1A5570BD1201D2B204F1AB
:10044000604404F5614484F8002370BD7020000806
:1004500000ED00E014ED00E0410900F01F00012371
:100460008340024A42F82130704700BF00E100E0BB
:100470000138B0F1807F0AD2064B5860F021064A5D
:1004800082F823100020986007221A60704701202C
:10049000704700BF10E000E000ED00E02DE9F84FEC
:1004A00080460F460B881BB9AC48C32101F034FAD3
:1004B0007B68012B22D9112B20D0022B1ED0122BAE
:1004C0001CD0A74A934219D002F58012934215D04E
:1004D00002F58012934211D0A2F5F81293420DD08A
:1004E00002F58012934209D002F58012934205D0A2
:1004F000032B03D09948C42101F00EFABB68022BEC
:1005000003D99648C52101F007FA002420E1A1464D
:100510000125A5403B6803EA050AAA4540F017817A
:100520007B68022B01D0122B4AD13B69C3B3092B44
:1005300036D0ABB3A3B39BB393B3012B30D02FD042
:10054000022B2DD02CD02BD0032B29D0042B27D03D
:1005500026D025D0052B23D022D0092B20D0062B46
:100560001ED0092B1CD0072B1AD019D018D0082B5D
:1005700016D015D014D0092B12D011D00A2B0FD0C1
:100580000ED00B2B0CD00C2B0AD009D00D2B07D082
:100590000C2B05D00F2B03D07048D62101F0BCF9ED
:1005A000E608083658F8261004F0070080000F23EC
:1005B000834021EA03023B698340134348F8263015
:1005C000D8F800304FEA440B032606FA0BF6F64340
:1005D00006EA03027B6803F0030303FA0BF31343F9
:1005E000C8F800307B685A1E012A03D9112B01D0AC
:1005F000122B1CD1FB68032B03D95848E92101F0C9
:100600008BF9D8F8083006EA0302FB6803FA0BF30B
:100610001343C8F80830D8F8043023EA05037D688E
:10062000C5F3001505FA09F51D43C8F80450D8F8BC
:100630000C303340BE6806FA0BF61E43C8F80C6057
:100640007B6813F0805F00F08280464A536C43F46D
:1006500080435364A308991CA2F5803252F82110FC
:1006600004F0030080000F22824021EA02013E4A8A
:10067000904537D002F58062904531D002F5806216
:1006800090452BD002F58062904525D002F580621E
:1006900090451FD002F58062904519D002F5806226
:1006A000904513D002F5806290450DD002F580622E
:1006B000904507D002F58062904501D1092212E0F1
:1006C0000A2210E008220EE007220CE006220AE0CF
:1006D000052208E0042206E0032204E0022202E0F0
:1006E000012200E0002282400A4302331F4941F800
:1006F00023201F4B1A686FEA0A0303EA0201786895
:1007000010F4803F01D04AEA0201194A1160526890
:1007100003EA0201786810F4003F01D04AEA0201BE
:10072000134A5160926803EA0201786810F4801F4E
:1007300001D04AEA02010E4A9160D26813407968FA
:1007400011F4001F01D04AEA0203094AD3600134C0
:100750000F2C7FF6DCAEBDE8F88F00BFA4200008A8
:100760000000111000380240000002400038014033
:10077000003C014038B505460C4621B9054840F219
:10078000851101F0C9F82B69234201D0012038BD41
:10079000002038BDA420000870B5054614460E465A
:1007A00021B908484FF4D37101F0B6F8012C04D9EF
:1007B000044840F2A71101F0AFF80CB12E8370BDD0
:1007C0006E8370BDA4200008704700BF38B5044692
:1007D00003680F2B03D9B348FD2101F09DF823686E
:1007E00013F0010F61D06368012B06D9052B04D0EB
:1007F000AC484FF4817101F08FF8AB4B9B6803F06C
:100800000C03042B0AD0A84B9B6803F00C03082BA5
:100810000ED1A54B5B6813F4800F09D0A24B1B6867
:1008200013F4003F41D06368012B40F0FE813CE0AF
:1008300000229E4B1A70FFF7A1FD054607E0FFF767
:100840009DFD401B41F28833984200F2F081964BA7
:100850001B6813F4003FF2D12279944B1A7063683D
:10086000012B11D1FFF78AFD054607E0FFF786FD52
:10087000401B41F28833984200F2DB818A4B1B68AF
:1008800013F4003FF2D010E0FFF778FD054607E0D3
:10089000FFF774FD401B41F28833984200F2CB8190
:1008A000814B1B6813F4003FF2D1236813F0020F51
:1008B0006DD0E368012B04D97A484FF4A17101F09F
:1008C0002BF823691F2B04D9764840F2431101F01D
:1008D00023F8754B9B6813F00C0F0AD0724B9B6882
:1008E00003F00C03082B1CD16F4B5B6813F4800FD3
:1008F00017D16D4B1B6813F0020F03D0E368012B77
:1009000040F09B816848026822F0F8012269F823D0
:1009100093FAA3F3B3FA83F3DBB29A400A4302607B
:1009200035E0E3680BB30122614B1A60FFF726FD47
:10093000054605E0FFF722FD401B642800F27F8199
:10094000594B1B6813F0020FF4D05748036823F08B
:10095000F8012269F82393FAA3F3B3FA83F3DBB225
:100960009A4041EA0203036011E00022504B1A60F2
:10097000FFF704FD054605E0FFF700FD401B642876
:1009800000F25F81484B1B6813F0020FF4D123681B
:1009900013F0080F2ED06369012B04D941484FF49E
:1009A000C17100F0B9FF636993B10122414B1A6034
:1009B000FFF7E4FC054605E0FFF7E0FC401B642878
:1009C00000F24181384B5B6F13F0020FF4D011E05D
:1009D0000022384B1A60FFF7D1FC054605E0FFF70F
:1009E000CDFC401B642800F230812F4B5B6F13F06D
:1009F000020FF4D1236813F0040F6ED0A368012B0B
:100A000006D9052B04D027484FF4D67100F084FF97
:100A1000254A136C43F080531364A2F5E432136843
:100A200043F480731360FFF7A9FC054605E0FFF768
:100A3000A5FC401B642800F20A811F4B1B6813F4BD
:100A4000807FF4D000221D4B1A70FFF797FC0546FB
:100A500007E0FFF793FC401B41F28833984200F215
:100A6000F880114B1B6F13F0020FF2D1227A134B57
:100A70001A70A368012B11D1FFF780FC054607E02F
:100A8000FFF77CFC401B41F28833984200F2E38080
:100A9000054B1B6F13F0020FF2D01EE0FFF76EFC48
:100AA000054615E0E4200008003802400238024004
:100AB00000004742800E47420070004070380240FC
:100AC000FFF75CFC401B41F28833984200F2C5807E
:100AD000684B1B6F13F0020FF2D1A369022B04D9EC
:100AE00065484FF4F87100F017FFA369002B00F080
:100AF000B680604A926802F00C02082A00F0B180C9
:100B0000022B7FD1E3693BB1B3F5800F04D05A4883
:100B100040F2F91100F000FF236A3F2B04D9564838
:100B20004FF4FD7100F0F8FE636AC03BF02B04D96E
:100B3000514840F2FB1100F0EFFEA36A022B0AD0ED
:100B4000042B08D0062B06D0082B04D04A484FF4BB
:100B5000FE7100F0E1FEE36A043B0B2B04D946482A
:100B600040F2FD1100F0D8FE0022444B1A60FFF75E
:100B700005FC054604E0FFF701FC401B642872D821
:100B80003C4B1B6813F0007FF5D1216A626A47F67F
:100B9000C07393FAA3F3B3FA83F3DBB29A40114321
:100BA000A36A5B08013B4FF4403292FAA2F2B2FA18
:100BB00082F2D2B293400B43E26943EA0201E36A54
:100BC0004FF0706292FAA2F2B2FA82F2D2B203FA53
:100BD00002F241EA020343F00053264A5360012225
:100BE000264B1A60FFF7CAFB044604E0FFF7C6FB7A
:100BF000001B642839D81F4B1B6813F0007FF5D009
:100C0000002038BD00221D4B1A60FFF7B7FB0446D9
:100C100004E0FFF7B3FB001B642828D8154B1B68C2
:100C200013F0007FF5D1002038BD012038BD03202E
:100C300038BD032038BD032038BD012038BD032056
:100C400038BD032038BD032038BD032038BD032044
:100C500038BD032038BD032038BD032038BD002037
:100C600038BD012038BD032038BD032038BD032026
:100C700038BD00BF00380240E42000086000474251
:100C800070B504460D460368013B0E2B04D9884815
:100C90004FF4187100F040FE072D04D9844840F24B
:100CA000612100F039FE834B1B6803F00F03AB4258
:100CB00080F08B80EAB27F4B1A701B6803F00F0341
:100CC000AB4240F05181236813F0020F1DD0A3689E
:100CD000A3B1802B12D0902B10D0A02B0ED0B02B14
:100CE0000CD0C02B0AD0D02B08D0E02B06D0F02B94
:100CF00004D06F4840F2772100F00EFE6E498B68F9
:100D000023F0F002A36813438B60236813F0010FF4
:100D100000F0E8806368022B04D9654840F27E2128
:100D200000F0FAFD6268012A05D1634B1B6813F4D9
:100D3000003F0ED11AE1022A05D15F4B1B6813F068
:100D4000007F06D114E15C4B1B6813F0020F00F02A
:100D5000118159498B6823F0030313438B60FFF71C
:100D60000DFB05466368012B0FD107E0FFF706FB7B
:100D7000401B41F28833984200F2FE804E4B9B6844
:100D800003F00C03042BF1D1ACE0022B17D107E0E8
:100D9000FFF7F4FA401B41F28833984200F2EE80EC
:100DA000454B9B6803F00C03082BF1D19AE0FFF749
:100DB000E5FA401B41F28833984200F2E1803E4B55
:100DC0009B6813F00C0FF2D18CE0236813F0020F34
:100DD0001DD0A368A3B1802B12D0902B10D0A02BD4
:100DE0000ED0B02B0CD0C02B0AD0D02B08D0E02BCB
:100DF00006D0F02B04D02E4840F2C62100F08CFD26
:100E00002D498B6823F0F002A36813438B6023689D
:100E100013F0010F5ED06368022B04D9244840F21E
:100E2000CD2100F079FD6268012A05D1224B1B68B3
:100E300013F4003F0ED1A5E0022A05D11E4B1B681A
:100E400013F0007F06D19FE01B4B1B6813F0020FCD
:100E500000F09C8018498B6823F0030313438B60D8
:100E6000FFF78CFA06466368012B0FD107E0FFF706
:100E700085FA801B41F28833984200F289800E4B3C
:100E80009B6803F00C03042BF1D123E0022B1CD14F
:100E900006E0FFF773FA801B41F28833984279D855
:100EA000054B9B6803F00C03082BF2D112E000BF46
:100EB000E4200008003C024000380240FFF75EFAE0
:100EC000801B41F28833984266D8354B9B6813F0FB
:100ED0000C0FF3D1EAB2334B1A701B6803F00F0307
:100EE000AB425BD1236813F0040F19D0E36883B1E0
:100EF000B3F5805F0DD0B3F5A05F0AD0B3F5C05F46
:100F000007D0B3F5E05F04D0274840F21D3100F070
:100F100003FD23498B6823F4E052E36813438B609D
:100F2000236813F0080F1AD0236983B1B3F5805FEB
:100F30000DD0B3F5A05F0AD0B3F5C05F07D0B3F50D
:100F4000E05F04D018484FF4497100F0E5FC144A02
:100F5000936823F46043216943EAC10393600F203F
:100F6000FFF7D6F9002070BD012070BD012070BDD3
:100F7000012070BD012070BD032070BD032070BD35
:100F8000032070BD012070BD012070BD012070BD27
:100F9000032070BD032070BD032070BD012070BD13
:100FA00000380240003C0240E4200008274B9B68C8
:100FB00003F00C03042B46D0082B01D024487047C3
:100FC000224B586800F03F00596801F480014FF44B
:100FD000800292FAA2F2B2FA82F2D2B231FA02F3AB
:100FE00010D01C4BB3FBF0F3184A506847F6C072A0
:100FF000104092FAA2F2B2FA82F2D2B2D04000FBD2
:1010000003F30FE0124BB3FBF0F3104A506847F6BE
:10101000C072104092FAA2F2B2FA82F2D2B2D0407A
:1010200000FB03F3094A506800F440304FF44032AB
:1010300092FAA2F2B2FA82F2D2B2D040013040006B
:10104000B3FBF0F070470348704700BF0038024020
:101050000024F40000127A0008B5FFF7A7FF094B3F
:101060009B6803F0F002F02393FAA3F3B3FA83F33F
:10107000DBB222FA03F3044AD35CD840034B186076
:1010800008BD00BF00380240D42000080C0000203A
:101090002DE9F04106460C4690461D46FFF76EF9D5
:1010A0000746B8F1000F2AD05BE0B5F1FF3F26D02C
:1010B00025B1FFF763F9C01BA84220D932685368F5
:1010C00023F0E00353603268136823F04003136099
:1010D000B36AB3F5005F09D13268136823F4005393
:1010E00013603268136843F400531360012386F8D9
:1010F0005130002386F850300320BDE8F08133687A
:101100009B682340A342D0D10020BDE8F081B5F117
:10111000FF3F26D025B1FFF731F9C01BA84220D9E7
:101120003268536823F0E00353603268136823F099
:1011300040031360B36AB3F5005F09D132681368E6
:1011400023F4005313603268136843F400531360B0
:10115000012386F85130002386F850300320BDE883
:10116000F08133689B682340A342D0D00020BDE8C3
:10117000F08100BF002800F0AD8010B50446436840
:1011800033B1B3F5827F03D05348B32100F0C4FBE1
:10119000A3684BB1B3F5806F06D0B3F5004F03D011
:1011A0004D48B42100F0B8FBE368B3F5006F04D0FC
:1011B0001BB14948B52100F0AFFB23692BB1022BCD
:1011C00003D04548B62100F0A7FB6369012B03D982
:1011D0004148B72100F0A0FBA369B3F5007F07D019
:1011E00033B1B3F5802F03D03B48B82100F094FB16
:1011F000E3698BB1082B0FD0102B0DD0182B0BD01F
:10120000202B09D0282B07D0302B05D0382B03D02A
:101210003148B92100F080FB236A2BB1802B03D029
:101220002D48BA2100F078FB636A2BB1102B03D054
:101230002948BB2100F070FBA36A33B1B3F5005F0E
:1012400003D02548BC2100F067FBE36A013B4FF661
:10125000FE72934203D92048BD2100F05DFB94F853
:10126000513013F0FF0F02D1204600F099FD022308
:1012700084F851302268136823F04003136021681A
:101280006268A3681A43E3681A4323691A436369CF
:101290001A43A36903F400731343E2691343226AF8
:1012A0001343A26A1A430A602168638B03F00402A5
:1012B000636A13434B602368E26A1A612268D36948
:1012C00023F40063D361002084F85200012384F8E2
:1012D000513010BD0120704714210008704700BF35
:1012E00080B110B504460268136823F04003136010
:1012F000FFF7F4FF002084F8520084F8510084F8CE
:10130000500010BD0120704770B5044690F8513070
:10131000DBB2012B56D10E461546002954D0002AC7
:1013200054D083683BB1B3F5004F04D02A484FF442
:10133000717100F0F1FA94F85030012B48D001237C
:1013400084F85030122384F85130002384F852304E
:10135000224AE2642663A586E586A364A387E38721
:10136000A368B3F5004F04D12268136843F48043A7
:101370001360A36AB3F5005F09D12268136823F4F0
:10138000005313602268136843F400531360A3688A
:101390002BB92268536843F08003536004E022684D
:1013A000536843F0A0035360002384F8503023684F
:1013B0001A6812F0400F0DD11A6842F040021A600C
:1013C000002070BD022070BD012070BD012070BDE5
:1013D000022070BD002070BD1421000839160008DD
:1013E000F8B504460E4617461D4690F85130DBB25C
:1013F000012B08D04268B2F5827F4ED18268002A64
:101400004DD1222B4DD1002E4DD0002F4DD0002D8F
:101410004DD0A36823B1294840F2634100F07CFA23
:1014200094F85030012B44D0012384F8503094F8C4
:101430005130DBB2222B02D0322384F8513000230A
:1014400084F852301E4BE3642663A586E5861D4B67
:10145000A364A763A587E587A36AB3F5005F09D1F5
:101460002268136823F4005313602268136843F45E
:10147000005313602268536843F0E0035360002375
:1014800084F8503023681A6812F0400F13D11A689C
:1014900042F040021A600020F8BD0220F8BD022090
:1014A000F8BD0220F8BD0120F8BD0120F8BD0120E3
:1014B000F8BD0220F8BD0020F8BD00BF14210008CF
:1014C00039160008B9170008134690F85120D2B217
:1014D000012A52D110B50C46002950D0002B50D013
:1014E00090F85020012A4ED0012280F8502022226C
:1014F00080F85120002280F85220254981648463BD
:101500008387C387C2648286C2868268B2F5004F31
:1015100005D10268136823F4804313600CE05AB9C4
:101520004268B2F5827F07D1002280F85020214620
:101530002246FFF755FF10BD836AB3F5005F09D15E
:101540000268136823F4005313600268136843F4BD
:10155000005313600268536843F060035360002334
:1015600080F8503003681A6812F0400F0DD11A68E5
:1015700042F040021A60002010BD02207047012096
:1015800010BD012010BD022010BD002010BD00BF05
:101590006D170008704700BF704700BF10B50446C4
:1015A000022100220A23FFF773FD28B194F852307C
:1015B00043F0200384F852302268536823F08003FC
:1015C000536023685A6812F0400F33D15A6822F0F2
:1015D00020025A602046802101220A23FFF758FD8D
:1015E00028B194F8523043F0200384F85230A368B5
:1015F00013B92368DA689B6894F8523013F0FF0F30
:1016000012D194F85130DBB2322B06D1012384F889
:1016100051302046FFF7BEFF10BD012384F8513042
:10162000204600F013FB10BD012384F85130204602
:10163000FFF7B2FF10BD00BF08B5C36833B9026839
:10164000036B591C01631B78D36006E00368026BCF
:101650001288DA60036B02330363C38E013B9BB2D3
:10166000C38653B9836AB3F5005F04D10268136877
:1016700043F480531360FFF791FF08BD10B582B0AB
:101680000446836AB3F5005F31D1012100220A23A9
:10169000FFF7FEFC28B194F8523043F0200384F8A1
:1016A00052302368DB689BB2ADF80630204601213A
:1016B0000A460A23FFF7ECFC28B194F8523043F0B5
:1016C000200384F8523023689A6812F0100F0ED06D
:1016D00094F8522042F0020284F852201A6822F450
:1016E00000521A602268136843F4005313602268A2
:1016F000536823F04003536023685A6812F0800F48
:1017000031D15A6822F020025A606368B3F5827FB3
:101710000BD1A368B3F5004F02D0B3F5806F04D1AD
:101720002268136823F04003136094F8523013F0DA
:10173000FF0F12D194F85130DBB2322B06D10123C6
:1017400084F851302046FFF725FF0CE0012384F890
:101750005130204600F080FA05E0012384F8513032
:101760002046FFF719FF02B010BD00BF08B5C368DF
:1017700033B9836B5A1C82630268D2681A7006E020
:10178000836B0268D2681A80836B02338363C38FD2
:10179000013B9BB2C387012B08D1836AB3F5005F7D
:1017A00004D10268136843F480531360C38F0BB9EC
:1017B000FFF764FF08BD00BF08B5C36833B9836B8A
:1017C0005A1C82630268D2681A7006E0836B026852
:1017D000D2681A80836B02338363C38F013B9BB251
:1017E000C3870BB9FFF74AFF08BD00BF10B50368F8
:1017F0009C685A6802F04002996801F0400114F0B8
:10180000010F04D01AB111B9836C984710BD9968C3
:101810005A6802F0800211F0020F03D012B1C36CBB
:10182000984710BD5A6812F0200F43D09A6812F002
:10183000100F08D090F8522042F0020280F8522097
:101840006FF010029A6003689A6812F0200F0AD0B5
:1018500090F8522042F0010280F852209A681A68EB
:1018600022F040021A6003689A6812F0400F0CD010
:1018700090F85120D2B2122A07D090F8522042F0AC
:10188000040280F85220DA689A689A6812F4807F1D
:1018900006D090F8522042F0080280F852209B684F
:1018A00090F8523013F0FF0F04D0012380F851302C
:1018B000FFF772FE10BD00BFFEE700BF08B50120B4
:1018C000FFF7FAFF08B50D4B1B6813B90C4A0B4B19
:1018D0001A600A4B1A68C31C23F003031344094916
:1018E0008B4206D900F004FB0C2303604FF0FF305D
:1018F00008BD02490B60104608BD00BF98000020DB
:101900006C01002000FC012001230360014B0B60EF
:10191000704700BF0400002008B5FFF7CFFF00BFED
:1019200008B500F001F808BD0C4B1A6842F001023E
:101930001A60002199601A6822F0847222F48032C1
:101940001A60074A5A601A6822F480221A60D96025
:101950004FF00062034B9A60704700BF00380240AE
:101960001030002400ED00E010B592B0174A136C5F
:1019700043F080531364A2F5E432136843F4404308
:101980001360012301930293022407944FF4800310
:101990000893082309934FF4A8730A930B94072321
:1019A0000C9301A8FEF712FF0F230D930E94002352
:1019B0000F934FF4A05310934FF4805311930DA83D
:1019C0000521FFF75DF912B010BD00BF00380240DD
:1019D00008B5FFF7A9FFFEF7AFFCFEF7D5FCFFF750
:1019E000C3FF08BD08B5002000F0D0F90128FAD1E6
:1019F000002000F0CBF90028FAD1012000F07EF998
:101A0000002000F07BF9022000F078F9032000F0BC
:101A100075F91148114B19680122FFF775FC104840
:101A2000104B19680122FFF74FFD0F4B1B78DBB2FB
:101A3000012B04D00D4B1B78DBB2012BF5D1094BE8
:101A40001B68187800F04AF9044B1A6813780133C0
:101A500003F00303137008BDB00000205C010020F8
:101A60000801002004010020A0000020A1000020A7
:101A7000014B1878704700BF1000002008B5012006
:101A800000F02CF9002000F029F9022000F026F9DE
:101A9000032000F023F900220C4B1A700C48FFF7CA
:101AA0001FFC0C48FFF71CFC0B4B186800F02EFACB
:101AB0000A4B186800F02AFA094B186800F026FA59
:101AC000084B186800F022FA08BD00BF1000002083
:101AD000B000002008010020600100205C0100200F
:101AE000040100206401002070B592B0474A136CD5
:101AF00043F080531364A2F5E432136843F4404387
:101B00001360012301930293022507954FF480038C
:101B10000893082309934FF4A8730A930B9507269B
:101B20000C9601A8FEF752FE0F230D930E9500248C
:101B30000F944FF4A05310934FF4805311930DA8BA
:101B40000521FFF79DF83248324B03601823C3612B
:101B50008460446105618462C662C46004624FF4BB
:101B60000073836144624460FFF704FB08B1FFF730
:101B700085FF2948294B03601823C3610023836034
:101B800043610222026183620722C262C360036270
:101B90004FF40072826143624FF482734360FFF737
:101BA000E9FA08B1FFF76AFF0020014600F0B6F835
:101BB000012000F057F8002000F054F8022000F057
:101BC00051F8032000F04EF8012000F097F9144E70
:101BD0003060012000F092F9124D2860012000F0E1
:101BE0008DF9114C2060012000F088F90F4A106037
:101BF000336803211970296800230B7021680220C3
:101C000008701268137012B070BD00BF0038024037
:101C10000801002000380040B000002000300140E2
:101C20005C0100206001002064010020040100200C
:101C300008B5FFF759FF01E0FFF7D4FEFFF718FFE3
:101C40000028F9D1FFF71AFF08BD00BF0122014BA0
:101C50001A707047A00000200122014B1A707047D3
:101C6000A100002070B586B0044628B9184A136B4D
:101C700043F00803136314E0012805D1144A136BE1
:101C800043F0080313630CE0022805D1104A136BDC
:101C900043F00803136304E00D4A136B43F0080399
:101CA00013630C4B33F814500195012302930393F3
:101CB00002230493084E56F8240001A9FEF7EEFB18
:101CC00056F8240029460022FEF766FD06B070BDD6
:101CD00000380240442100081400002008B50346E3
:101CE000044A52F82000044A32F813100122FEF789
:101CF00053FD08BD140000204421000808B5034628
:101D0000044A52F82000044A32F813100022FEF769
:101D100043FD08BD140000204421000830B587B001
:101D20000546174A136B43F0010313630C4661B970
:101D30000123019300230293039302230493114B85
:101D400053F8200001A9FEF7A9FB012C15D10123AE
:101D5000019300240394022304930B4B0293094B39
:101D600053F8250001A9FEF799FB06200F21224612
:101D7000FEF730FB0620FEF76FFB07B030BD00BF5B
:101D800000380240240000200000111008B5034B69
:101D900053F820000121FEF7EDFC08BD24000020CF
:101DA0002DE9F04387B03D4C236B43F001032363DF
:101DB000236B43F001032363236B43F0010323638D
:101DC000236B43F002032363236B43F0020323637B
:101DD000236B43F0020323634FF400530193022566
:101DE000029501270397049505260596DFF8B09024
:101DF000484601A9FEF752FB202301930295039761
:101E000004950596DFF89C80404601A9FEF746FB45
:101E10004FF4804301930295039704950596484635
:101E200001A9FEF73BFB402301930295039704951C
:101E30000596404601A9FEF731FB4FF4004301939C
:101E40000295039704950596484601A9FEF726FBDF
:101E5000802301930295039704950596404601A9B6
:101E6000FEF71CFB232029460022FEF7B3FA2320AD
:101E7000FEF7F2FA242029460022FEF7ABFA2420CE
:101E8000FEF7EAFA636C43F480536364236C43F413
:101E90008043236407B0BDE8F08300BF00380240F0
:101EA0000004024000000240704700BFFEE700BF90
:101EB000FEE700BFFEE700BFFEE700BF704700BFC0
:101EC000704700BF704700BF08B5FEF74FFA08BD66
:101ED00008B50248FFF78AFC08BD00BFB00000202B
:101EE00008B50248FFF782FC08BD00BF08010020CA
:101EF000014B1868704700BF88000020024B014664
:101F0000186800F04FB800BF88000020024B01465F
:101F1000186800F003B800BF8800002030B5002921
:101F20003DD051F8042C0B1F1D49002AB8BF9B1847
:101F30000A680C4612B95A600B6030BD93420DD24C
:101F400019685818904201BF5A5852181A604268CE
:101F50005A60236030BD994203D80A46516800296F
:101F6000F9D1146815199D420AD11B682344D01871
:101F70008842136013D10868034413604B680DE076
:101F800002D90C23036030BD1C681819884204BFB5
:101F900008684968596004BF00191860536030BD73
:101FA000A800002070B5CC1C24F0030408340C2CCD
:101FB00038BF0C24002C064603DA0C2333600020C3
:101FC00070BD8C42F9D3204A136810461946A1B15E
:101FD0000A68121B0ED40B2A03D90A608B188C5086
:101FE0001FE08B420DBF5A684A685A60026018BFF2
:101FF0000B4616E00B464968E9E7144D2B681BB900
:10200000304600F025F828603046214600F020F8E0
:10201000421C0346D1D0C51C25F0030585420AD1D8
:102020001C6003F10B001A1D20F00700821A0AD071
:102030005142995070BD3046E91A00F009F801305C
:10204000BBD02B46ECE770BDA8000020A400002008
:1020500038B5064C0023054608462360FFF732FCDE
:10206000431C02D1236803B12B6038BDAC000020B3
:102070002E2E2F73797374656D2F7372632F7374A3
:102080006D333266342D68616C2F73746D33326634
:102090003478785F68616C5F636F727465782E6303
:1020A000000000002E2E2F73797374656D2F7372EC
:1020B000632F73746D333266342D68616C2F7374C3
:1020C0006D3332663478785F68616C5F6770696F12
:1020D0002E6300000000000001020304010203045B
:1020E000060708092E2E2F73797374656D2F73728E
:1020F000632F73746D333266342D68616C2F737483
:102100006D3332663478785F68616C5F7263632E1A
:10211000630000002E2E2F73797374656D2F737218
:10212000632F73746D333266342D68616C2F737452
:102130006D3332663478785F68616C5F7370692ED6
:0E2140006300000000100020004000804300FB
:10215000785634129C000020000000000024F40097
:1021600001000000000C0240000C0240000C024084
:10217000000C0240000002400000000000000000CF
:10218000000000000000000000000000000000004F
:1021900000000000000000004C21000800000000CA
:1021A000000000000000000000000000000000002F
:1021B000000000000000000000000000000000001F
:1021C000000000000000000000000000000000000F
:1021D0000000000000000000280000203254769823
:040000050800018965
:00000001FF
