:020000040800F2
:1000000000000220B9020008C1020008C502000871
:10001000C9020008CD020008D1020008000000005B
:10002000000000000000000000000000D5020008F1
:10003000D902000800000000DD020008E10200080B
:10004000E5020008E5020008E5020008E5020008F4
:10005000E5020008E5020008E5020008E5020008E4
:10006000E5020008E5020008E5020008E5020008D4
:10007000E5020008E5020008E5020008E5020008C4
:10008000E5020008E5020008E5020008E5020008B4
:10009000E5020008E5020008E5020008E5020008A4
:1000A000E5020008E5020008E5020008E502000894
:1000B000E5020008E5020008E5020008E502000884
:1000C000E5020008E5020008E5020008E502000874
:1000D000E5020008E5020008E5020008E502000864
:1000E000E5020008E5020008E5020008E502000854
:1000F000E5020008E5020008E5020008E502000844
:10010000E5020008E5020008E5020008E502000833
:10011000E5020008E5020008E5020008E502000823
:10012000E5020008E5020008E5020008E502000813
:10013000E5020008E5020008E5020008E502000803
:10014000E5020008E5020008E5020008E5020008F3
:10015000E5020008E5020008E5020008E5020008E3
:10016000E5020008E5020008E5020008E5020008D3
:10017000E5020008E5020008E502000800000000B2
:10018000E5020008E502000800B583B001F0D0F9EF
:10019000384B394A1360394A136039490CE00A6810
:1001A0004B6801F10C04886803E01168196004339E
:1001B00004329842F9D82146324B9942EFD32E4B64
:1001C0001A68314B9A4204D12C4B1A682F4B9A4231
:1001D00000D0FEE7274B2E4A13602E4A13602E4BA9
:1001E0000AE0194651F8082B5B6802E00020106015
:1001F00004329A42FAD30B46284A9342F1D3244B55
:100200001B6813B9234B1B6803B1FEE701F0E8F943
:1002100001A8694601F080F9214C224B1C1BA41057
:10022000002504E01E4B53F8253098470135AC42B9
:10023000F8DC1D4C1D4B1C1BA410002504E01A4BC0
:1002400053F8253098470135AC42F8DC0198009905
:1002500001F0E8FB0546164C164B1C1BA41004E0ED
:10026000013C134B53F824309847002CF8DC284607
:1002700001F02AF9BABADECA000000208C00002082
:10028000E8020008000300087856341232547698C9
:100290009000002064010020000300081003000803
:1002A00010030008100300081003000810030008E2
:1002B000100300081003000808B5FFF765FF00BF32
:1002C000FEE700BFFEE700BFFEE700BFFEE700BF9E
:1002D000FEE700BFFEE700BFFEE700BFFEE700BF8E
:0802E000704700BFFEE700BFFC
:1002E800C41E00080000002090000020C41E000862
:1002F800000000100000001090000020680100209D
:080308000000001000000010CD
:1003100010B5044600F098FE064BA3FB00308009A0
:1003200000F09EF84FF0FF302146002200F04AF81E
:10033000002010BDD34D621008B50B4B1A6842F473
:1003400000721A601A6842F480621A601A6842F4F5
:1003500080721A60032000F017F80F20FFF7D8FF13
:1003600000F02AFA002008BD003C0240014B18684A
:10037000704700BF94000020024A136823F0020374
:100380001360704710E000E010B50446C31E042B54
:1003900003D90A48A42101F0C7F804F00700084A6D
:1003A000D36823F4E0631B041B0C43EA002040F0F5
:1003B000BF6040F40030D06010BD00BFE41D0008F5
:1003C00000ED00E070B504460E4615460F2A03D92D
:1003D0001A48BC2101F0A8F80F2E03D91748BD21F7
:1003E00001F0A2F8164BDB68C3F30223C3F1070246
:1003F000042A28BF0422191D062901D9D81E00E0AD
:100400000020012303FA02F2013A324002FA00F11D
:1004100083405A1E2A400A43002C06DA04F00F04D7
:100420001201D2B2074B1A5570BD1201D2B204F1BB
:10043000604404F5614484F8002370BDE41D0008A5
:1004400000ED00E014ED00E0410900F01F00012381
:100450008340024A42F82130704700BF00E100E0CB
:100460000138B0F1807F0AD2064B5860F021064A6D
:1004700082F823100020986007221A60704701203C
:10048000704700BF10E000E000ED00E02DE9F84FFC
:1004900080460F460B881BB9AC48C32101F044F8D5
:1004A0007B68012B22D9112B20D0022B1ED0122BBE
:1004B0001CD0A74A934219D002F58012934215D05E
:1004C00002F58012934211D0A2F5F81293420DD09A
:1004D00002F58012934209D002F58012934205D0B2
:1004E000032B03D09948C42101F01EF8BB68022BEE
:1004F00003D99648C52101F017F8002420E1A14650
:100500000125A5403B6803EA050AAA4540F017818A
:100510007B68022B01D0122B4AD13B69C3B3092B54
:1005200036D0ABB3A3B39BB393B3012B30D02FD052
:10053000022B2DD02CD02BD0032B29D0042B27D04D
:1005400026D025D0052B23D022D0092B20D0062B56
:100550001ED0092B1CD0072B1AD019D018D0082B6D
:1005600016D015D014D0092B12D011D00A2B0FD0D1
:100570000ED00B2B0CD00C2B0AD009D00D2B07D092
:100580000C2B05D00F2B03D07048D62100F0CCFFE8
:10059000E608083658F8261004F0070080000F23FC
:1005A000834021EA03023B698340134348F8263025
:1005B000D8F800304FEA440B032606FA0BF6F64350
:1005C00006EA03027B6803F0030303FA0BF3134309
:1005D000C8F800307B685A1E012A03D9112B01D0BC
:1005E000122B1CD1FB68032B03D95848E92100F0DA
:1005F0009BFFD8F8083006EA0302FB6803FA0BF306
:100600001343C8F80830D8F8043023EA05037D689E
:10061000C5F3001505FA09F51D43C8F80450D8F8CC
:100620000C303340BE6806FA0BF61E43C8F80C6067
:100630007B6813F0805F00F08280464A536C43F47D
:1006400080435364A308991CA2F5803252F821100C
:1006500004F0030080000F22824021EA02013E4A9A
:10066000904537D002F58062904531D002F5806226
:1006700090452BD002F58062904525D002F580622E
:1006800090451FD002F58062904519D002F5806236
:10069000904513D002F5806290450DD002F580623E
:1006A000904507D002F58062904501D1092212E001
:1006B0000A2210E008220EE007220CE006220AE0DF
:1006C000052208E0042206E0032204E0022202E000
:1006D000012200E0002282400A4302331F4941F810
:1006E00023201F4B1A686FEA0A0303EA02017868A5
:1006F00010F4803F01D04AEA0201194A11605268A1
:1007000003EA0201786810F4003F01D04AEA0201CE
:10071000134A5160926803EA0201786810F4801F5E
:1007200001D04AEA02010E4A9160D268134079680A
:1007300011F4001F01D04AEA0203094AD3600134D0
:100740000F2C7FF6DCAEBDE8F88F00BF181E000846
:100750000000111000380240000002400038014043
:10076000003C014038B505460C4621B9054840F229
:10077000851100F0D9FE2B69234201D0012038BD3C
:10078000002038BD181E000870B5054614460E46F8
:1007900021B908484FF4D37100F0C6FE012C04D9EA
:1007A000044840F2A71100F0BFFE0CB12E8370BDCB
:1007B0006E8370BD181E0008704700BF38B5044630
:1007C00003680F2B03D9B348FD2100F0ADFE236869
:1007D00013F0010F61D06368012B06D9052B04D0FB
:1007E000AC484FF4817100F09FFEAB4B9B6803F067
:1007F0000C03042B0AD0A84B9B6803F00C03082BB6
:100800000ED1A54B5B6813F4800F09D0A24B1B6877
:1008100013F4003F41D06368012B40F0FE813CE0BF
:1008200000229E4B1A70FFF7A1FD054607E0FFF777
:100830009DFD401B41F28833984200F2F081964BB7
:100840001B6813F4003FF2D12279944B1A7063684D
:10085000012B11D1FFF78AFD054607E0FFF786FD62
:10086000401B41F28833984200F2DB818A4B1B68BF
:1008700013F4003FF2D010E0FFF778FD054607E0E3
:10088000FFF774FD401B41F28833984200F2CB81A0
:10089000814B1B6813F4003FF2D1236813F0020F61
:1008A0006DD0E368012B04D97A484FF4A17100F0B0
:1008B0003BFE23691F2B04D9764840F2431100F018
:1008C00033FE754B9B6813F00C0F0AD0724B9B687C
:1008D00003F00C03082B1CD16F4B5B6813F4800FE3
:1008E00017D16D4B1B6813F0020F03D0E368012B87
:1008F00040F09B816848026822F0F8012269F823E1
:1009000093FAA3F3B3FA83F3DBB29A400A4302608B
:1009100035E0E3680BB30122614B1A60FFF726FD57
:10092000054605E0FFF722FD401B642800F27F81A9
:10093000594B1B6813F0020FF4D05748036823F09B
:10094000F8012269F82393FAA3F3B3FA83F3DBB235
:100950009A4041EA0203036011E00022504B1A6002
:10096000FFF704FD054605E0FFF700FD401B642886
:1009700000F25F81484B1B6813F0020FF4D123682B
:1009800013F0080F2ED06369012B04D941484FF4AE
:10099000C17100F0C9FD636993B10122414B1A6036
:1009A000FFF7E4FC054605E0FFF7E0FC401B642888
:1009B00000F24181384B5B6F13F0020FF4D011E06D
:1009C0000022384B1A60FFF7D1FC054605E0FFF71F
:1009D000CDFC401B642800F230812F4B5B6F13F07D
:1009E000020FF4D1236813F0040F6ED0A368012B1B
:1009F00006D9052B04D027484FF4D67100F094FD9A
:100A0000254A136C43F080531364A2F5E432136853
:100A100043F480731360FFF7A9FC054605E0FFF778
:100A2000A5FC401B642800F20A811F4B1B6813F4CD
:100A3000807FF4D000221D4B1A70FFF797FC05460B
:100A400007E0FFF793FC401B41F28833984200F225
:100A5000F880114B1B6F13F0020FF2D1227A134B67
:100A60001A70A368012B11D1FFF780FC054607E03F
:100A7000FFF77CFC401B41F28833984200F2E38090
:100A8000054B1B6F13F0020FF2D01EE0FFF76EFC58
:100A9000054615E0581E00080038024002380240A2
:100AA00000004742800E474200700040703802400C
:100AB000FFF75CFC401B41F28833984200F2C5808E
:100AC000684B1B6F13F0020FF2D1A369022B04D9FC
:100AD00065484FF4F87100F027FDA369002B00F082
:100AE000B680604A926802F00C02082A00F0B180D9
:100AF000022B7FD1E3693BB1B3F5800F04D05A4894
:100B000040F2F91100F010FD236A3F2B04D956483A
:100B10004FF4FD7100F008FD636AC03BF02B04D96F
:100B2000514840F2FB1100F0FFFCA36A022B0AD0EF
:100B3000042B08D0062B06D0082B04D04A484FF4CB
:100B4000FE7100F0F1FCE36A043B0B2B04D946482C
:100B500040F2FD1100F0E8FC0022444B1A60FFF760
:100B600005FC054604E0FFF701FC401B642872D831
:100B70003C4B1B6813F0007FF5D1216A626A47F68F
:100B8000C07393FAA3F3B3FA83F3DBB29A40114331
:100B9000A36A5B08013B4FF4403292FAA2F2B2FA28
:100BA00082F2D2B293400B43E26943EA0201E36A64
:100BB0004FF0706292FAA2F2B2FA82F2D2B203FA63
:100BC00002F241EA020343F00053264A5360012235
:100BD000264B1A60FFF7CAFB044604E0FFF7C6FB8A
:100BE000001B642839D81F4B1B6813F0007FF5D019
:100BF000002038BD00221D4B1A60FFF7B7FB0446EA
:100C000004E0FFF7B3FB001B642828D8154B1B68D2
:100C100013F0007FF5D1002038BD012038BD03203E
:100C200038BD032038BD032038BD012038BD032066
:100C300038BD032038BD032038BD032038BD032054
:100C400038BD032038BD032038BD032038BD002047
:100C500038BD012038BD032038BD032038BD032036
:100C600038BD00BF00380240581E000860004742EF
:100C700070B504460D460368013B0E2B04D9884825
:100C80004FF4187100F050FC072D04D9844840F24D
:100C9000612100F049FC834B1B6803F00F03AB425A
:100CA00080F08B80EAB27F4B1A701B6803F00F0351
:100CB000AB4240F05181236813F0020F1DD0A368AE
:100CC000A3B1802B12D0902B10D0A02B0ED0B02B24
:100CD0000CD0C02B0AD0D02B08D0E02B06D0F02BA4
:100CE00004D06F4840F2772100F01EFC6E498B68FB
:100CF00023F0F002A36813438B60236813F0010F05
:100D000000F0E8806368022B04D9654840F27E2138
:100D100000F00AFC6268012A05D1634B1B6813F4DA
:100D2000003F0ED11AE1022A05D15F4B1B6813F078
:100D3000007F06D114E15C4B1B6813F0020F00F03A
:100D4000118159498B6823F0030313438B60FFF72C
:100D50000DFB05466368012B0FD107E0FFF706FB8B
:100D6000401B41F28833984200F2FE804E4B9B6854
:100D700003F00C03042BF1D1ACE0022B17D107E0F8
:100D8000FFF7F4FA401B41F28833984200F2EE80FC
:100D9000454B9B6803F00C03082BF1D19AE0FFF759
:100DA000E5FA401B41F28833984200F2E1803E4B65
:100DB0009B6813F00C0FF2D18CE0236813F0020F44
:100DC0001DD0A368A3B1802B12D0902B10D0A02BE4
:100DD0000ED0B02B0CD0C02B0AD0D02B08D0E02BDB
:100DE00006D0F02B04D02E4840F2C62100F09CFB28
:100DF0002D498B6823F0F002A36813438B602368AE
:100E000013F0010F5ED06368022B04D9244840F22E
:100E1000CD2100F089FB6268012A05D1224B1B68B5
:100E200013F4003F0ED1A5E0022A05D11E4B1B682A
:100E300013F0007F06D19FE01B4B1B6813F0020FDD
:100E400000F09C8018498B6823F0030313438B60E8
:100E5000FFF78CFA06466368012B0FD107E0FFF716
:100E600085FA801B41F28833984200F289800E4B4C
:100E70009B6803F00C03042BF1D123E0022B1CD15F
:100E800006E0FFF773FA801B41F28833984279D865
:100E9000054B9B6803F00C03082BF2D112E000BF56
:100EA000581E0008003C024000380240FFF75EFA7E
:100EB000801B41F28833984266D8354B9B6813F00B
:100EC0000C0FF3D1EAB2334B1A701B6803F00F0317
:100ED000AB425BD1236813F0040F19D0E36883B1F0
:100EE000B3F5805F0DD0B3F5A05F0AD0B3F5C05F56
:100EF00007D0B3F5E05F04D0274840F21D3100F081
:100F000013FB23498B6823F4E052E36813438B609F
:100F1000236813F0080F1AD0236983B1B3F5805FFB
:100F20000DD0B3F5A05F0AD0B3F5C05F07D0B3F51D
:100F3000E05F04D018484FF4497100F0F5FA144A04
:100F4000936823F46043216943EAC10393600F204F
:100F5000FFF7DEF9002070BD012070BD012070BDDB
:100F6000012070BD012070BD032070BD032070BD45
:100F7000032070BD012070BD012070BD012070BD37
:100F8000032070BD032070BD032070BD012070BD23
:100F900000380240003C0240581E0008274B9B6866
:100FA00003F00C03042B46D0082B01D024487047D3
:100FB000224B586800F03F00596801F480014FF45B
:100FC000800292FAA2F2B2FA82F2D2B231FA02F3BB
:100FD00010D01C4BB3FBF0F3184A506847F6C072B0
:100FE000104092FAA2F2B2FA82F2D2B2D04000FBE2
:100FF00003F30FE0124BB3FBF0F3104A506847F6CF
:10100000C072104092FAA2F2B2FA82F2D2B2D0408A
:1010100000FB03F3094A506800F440304FF44032BB
:1010200092FAA2F2B2FA82F2D2B2D040013040007B
:10103000B3FBF0F070470348704700BF0038024030
:101040000024F40000127A0008B5FFF7A7FF094B4F
:101050009B6803F0F002F02393FAA3F3B3FA83F34F
:10106000DBB222FA03F3044AD35CD840034B186086
:1010700008BD00BF00380240481E00080C000020D8
:101080002DE9F04106460C4690461D46FFF76EF9E5
:101090000746B8F1000F2AD05BE0B5F1FF3F26D03C
:1010A00025B1FFF763F9C01BA84220D93268536805
:1010B00023F0E00353603268136823F040031360A9
:1010C000B36AB3F5005F09D13268136823F40053A3
:1010D00013603268136843F400531360012386F8E9
:1010E0005130002386F850300320BDE8F08133688A
:1010F0009B682340A342D0D10020BDE8F081B5F128
:10110000FF3F26D025B1FFF731F9C01BA84220D9F7
:101110003268536823F0E00353603268136823F0A9
:1011200040031360B36AB3F5005F09D132681368F6
:1011300023F4005313603268136843F400531360C0
:10114000012386F85130002386F850300320BDE893
:10115000F08133689B682340A342D0D00020BDE8D3
:10116000F08100BF002800F0AD8010B50446436850
:1011700033B1B3F5827F03D05348B32100F0D4F9E3
:10118000A3684BB1B3F5806F06D0B3F5004F03D021
:101190004D48B42100F0C8F9E368B3F5006F04D0FE
:1011A0001BB14948B52100F0BFF923692BB1022BCF
:1011B00003D04548B62100F0B7F96369012B03D984
:1011C0004148B72100F0B0F9A369B3F5007F07D01B
:1011D00033B1B3F5802F03D03B48B82100F0A4F918
:1011E000E3698BB1082B0FD0102B0DD0182B0BD02F
:1011F000202B09D0282B07D0302B05D0382B03D03B
:101200003148B92100F090F9236A2BB1802B03D02B
:101210002D48BA2100F088F9636A2BB1102B03D056
:101220002948BB2100F080F9A36A33B1B3F5005F10
:1012300003D02548BC2100F077F9E36A013B4FF663
:10124000FE72934203D92048BD2100F06DF994F855
:10125000513013F0FF0F02D1204600F08FFC022323
:1012600084F851302268136823F04003136021682A
:101270006268A3681A43E3681A4323691A436369DF
:101280001A43A36903F400731343E2691343226A08
:101290001343A26A1A430A602168638B03F00402B5
:1012A000636A13434B602368E26A1A612268D36958
:1012B00023F40063D361002084F85200012384F8F2
:1012C000513010BD01207047881E0008704700BFD4
:1012D00080B110B504460268136823F04003136020
:1012E000FFF7F4FF002084F8520084F8510084F8DE
:1012F000500010BD01207047F8B504461D4690F817
:101300005130DBB2012B40F0D0800F461646002949
:1013100000F0CD80002A00F0CC8083683BB1B3F5AB
:10132000004F04D067484FF4B77100F0FDF894F80F
:101330005030012B00F0BF80012384F8503012237D
:1013400084F85130002384F852302763A686E6865D
:10135000E364A364A387E387A36AB3F5005F09D1BD
:101360002268136823F4005313602268136843F45F
:1013700000531360A368B3F5004F04D122681368CB
:1013800043F48043136023681A6812F0400F03D1BE
:101390001A6842F040021A60E368002B2CD163689F
:1013A00013B1E38E012B1AD12268236B591C2163E0
:1013B0001B78D360E38E013BE38610E020460221D8
:1013C00000222B46FFF75CFE002876D12268236BB3
:1013D000591C21631B78D360E38E013BE386E38EC7
:1013E000002BEBD1A36AB3F5005F33D122681368F9
:1013F00043F4805313602DE0636813B1E38E012B37
:101400001CD12368226B1288DA60236B02332363BA
:10141000E38E013BE38611E02046022100222B46A9
:10142000FFF72EFE00284AD12368226B1288DA606B
:10143000236B02332363E38E013BE386E38E002BB1
:10144000EAD1A36AB3F5005F04D12268136843F4BC
:10145000805313602046022100222B46FFF710FE26
:1014600038B194F8523043F0200384F8523003230B
:1014700026E02046802101222B46FFF701FE03468D
:1014800038B194F8523043F0200384F852300323EB
:1014900016E0A26812B92268D1689268012284F825
:1014A0005120002284F850200AE0022308E00123A2
:1014B00006E0012304E0022302E0032300E003230B
:1014C0001846F8BD881E0008FEE700BF08B50120D9
:1014D000FFF7FAFF08B50D4B1B6813B90C4A0B4B0D
:1014E0001A600A4B1A68C31C23F00303134409490A
:1014F0008B4206D900F0B6FB0C2303604FF0FF309F
:1015000008BD02490B60104608BD00BF98000020CE
:101510006801002000FC012001230360014B0B60E7
:10152000704700BF0400002008B5FFF7CFFF00BFE1
:1015300008B500F001F808BD0C4B1A6842F0010232
:101540001A60002199601A6822F0847222F48032B5
:101550001A60074A5A601A6822F480221A60D96019
:101560004FF00062034B9A60704700BF00380240A2
:101570001030002400ED00E010B592B0174A136C53
:1015800043F080531364A2F5E432136843F44043FC
:101590001360012301930293022407944FF4800304
:1015A0000893082309934FF4A8730A930B94072315
:1015B0000C9301A8FFF702F90F230D930E9400235B
:1015C0000F934FF4A05310934FF4805311930DA831
:1015D0000521FFF74DFB12B010BD00BF00380240DF
:1015E00008B5FFF7A9FFFEF7A7FEFEF7C5FEFFF758
:1015F000C3FF08BD014B1878704700BF10000020E2
:1016000008B5012000F058FA002000F055FA022039
:1016100000F052FA032000F04FFA00220C4B1A702F
:101620000C48FFF755FE0C48FFF752FE0B4B1868AD
:1016300000F026FB0A4B186800F022FB094B1868E3
:1016400000F01EFB084B186800F01AFB08BD00BF35
:1016500010000020AC000020040100205C010020EC
:1016600058010020000100206001002070B592B0F8
:10167000474A136C43F080531364A2F5E4321368B5
:1016800043F440431360012301930293022507951D
:101690004FF480030893082309934FF4A8730A9327
:1016A0000B9507260C9601A8FFF788F80F230D93DA
:1016B0000E9500240F944FF4A05310934FF48053D1
:1016C00011930DA80521FFF7D3FA3248324B03607E
:1016D0001823C3618460446105618462C662C4608A
:1016E00004624FF40073836144624460FFF73AFD83
:1016F00008B1FFF785FF2948294B03601823C36110
:101700000023836043610222026183620722C26276
:10171000C36003624FF40072826143624FF48273CC
:101720004360FFF71FFD08B1FFF76AFF0020014685
:1017300000F0E2F9012000F083F9002000F080F9C8
:10174000022000F07DF9032000F07AF9012000F07A
:101750008FFA144E3060012000F08AFA124D286092
:10176000012000F085FA114C2060012000F080FA81
:101770000F4A1060336803211970296800230B7029
:101780002168022008701268137012B070BD00BF8B
:10179000003802400401002000380040AC00002066
:1017A00000300140580100205C0100206001002051
:1017B000000100202DE9F04106460C4690461D46EA
:1017C000FEF7D4FD0746B8F1000F2AD05BE0B5F173
:1017D000FF3F26D025B1FEF7C9FDC01BA84220D986
:1017E0003268536823F0E00353603268136823F0D3
:1017F00040031360B36AB3F5005F09D13268136820
:1018000023F4005313603268136843F400531360E9
:10181000012386F85130002386F850300320BDE8BC
:10182000F08133689B682340A342D0D10020BDE8FB
:10183000F081B5F1FF3F26D025B1FEF797FDC01B23
:10184000A84220D93268536823F0E003536032681D
:10185000136823F040031360B36AB3F5005F09D146
:101860003268136823F4005313603268136843F43A
:1018700000531360012386F85130002386F850305E
:101880000320BDE8F08133689B682340A342D0D099
:101890000020BDE8F08100BF38B5BDF8105091F8C8
:1018A0005140E4B2012C74D1002B74D0002D74D0BF
:1018B00091F85040012C72D0012481F8504022242C
:1018C00081F85140002481F852408B638D87CD8789
:1018D0008C64CC648C86CC868B68B3F5004F04D1C5
:1018E0000C68236823F4804323608B6AB3F5005FA0
:1018F00009D10C68236823F4005323600C68236823
:1019000043F4005323600B681C6814F0400F03D1AC
:101910001C6844F040041C600C461146012242F24F
:101920001073FFF7E9FC204601210022059BFFF719
:1019300041FF0346002834D1A26B511CA1632168EA
:10194000C9681170E28F013AE287012284F85120C0
:1019500021688A6802F01002A06AB0F5005F14D115
:101960009AB194F8523043F0020384F852300B6875
:1019700023F400530B602268136843F40053136090
:10198000002384F8503001230CE0002284F850201A
:1019900008E0022306E0012304E0012302E0022321
:1019A00000E00323184638BD00B583B0002000F0E6
:1019B000DBF80128FAD1002000F0D6F80028FAD18F
:1019C000012000F089F8002000F086F8022000F0E5
:1019D00083F8032000F080F80E4B1A680E4B1B684A
:1019E0000121009142F2107101910C480C49FFF75E
:1019F00053FF0028F0D1084B1B68187800F05CF802
:101A0000044B1A681378013303F00303137003B017
:101A10005DF804FB5801002000010020AC0000200C
:101A20000401002008B5FFF721FE01E0FFF7BCFF2D
:101A3000FFF7E0FD0028F9D1FFF7E2FD08BD00BF88
:101A400070B586B0044628B9184A136B43F00803F2
:101A5000136314E0012805D1144A136B43F0080303
:101A600013630CE0022805D1104A136B43F00803FE
:101A7000136304E00D4A136B43F0080313630C4B2C
:101A800033F8145001950123029303930223049326
:101A9000084E56F8240001A9FEF7F8FC56F8240079
:101AA00029460022FEF770FE06B070BD00380240E5
:101AB000B81E00081400002008B50346044A52F876
:101AC0002000044A32F813100122FEF75DFE08BD23
:101AD00014000020B81E000808B50346044A52F856
:101AE0002000044A32F813100022FEF74DFE08BD14
:101AF00014000020B81E000830B587B00546174A0C
:101B0000136B43F0010313630C4661B90123019386
:101B100000230293039302230493114B53F82000F4
:101B200001A9FEF7B3FC012C15D101230193002478
:101B30000394022304930B4B0293094B53F82500A3
:101B400001A9FEF7A3FC06200F212246FEF73AFC6E
:101B50000620FEF779FC07B030BD00BF0038024018
:101B6000240000200000111008B5034B53F820009A
:101B70000121FEF7F7FD08BD240000202DE9F04308
:101B800087B0354C236B43F001032363236B43F091
:101B900001032363236B43F001032363236B43F0AF
:101BA00002032363236B43F002032363236B43F09D
:101BB000020323634FF4005301930225029501278A
:101BC0000397049505260596DFF89090484601A9ED
:101BD000FEF75CFC2023019302950397049505967C
:101BE000DFF87C80404601A9FEF750FC4FF48043AB
:101BF00001930295039704950596484601A9FEF7BF
:101C000045FC4023019302950397049505964046B1
:101C100001A9FEF73BFC4FF40043019302950397A3
:101C200004950596484601A9FEF730FC80230193F0
:101C30000295039704950596404601A9FEF726FCF8
:101C4000636C43F480536364236C43F480432364E4
:101C500007B0BDE8F08300BF003802400004024036
:101C600000000240014B1868704700BF8800002048
:101C7000024B0146186800F04FB800BF88000020F2
:101C8000024B0146186800F003B800BF880000202E
:101C900030B500293DD051F8042C0B1F1D49002AF6
:101CA000B8BF9B180A680C4612B95A600B6030BD69
:101CB00093420DD219685818904201BF5A585218D1
:101CC0001A6042685A60236030BD994203D80A46C0
:101CD00051680029F9D1146815199D420AD11B6871
:101CE0002344D0188842136013D10868034413605A
:101CF0004B680DE002D90C23036030BD1C68181935
:101D0000884204BF08684968596004BF0019186018
:101D1000536030BDA400002070B5CC1C24F0030437
:101D200008340C2C38BF0C24002C064603DA0C2394
:101D30003360002070BD8C42F9D3204A13681046EE
:101D40001946A1B10A68121B0ED40B2A03D90A60E6
:101D50008B188C501FE08B420DBF5A684A685A603E
:101D6000026018BF0B4616E00B464968E9E7144DC0
:101D70002B681BB9304600F025F828603046214614
:101D800000F020F8421C0346D1D0C51C25F0030505
:101D900085420AD11C6003F10B001A1D20F00700D8
:101DA000821A0AD05142995070BD3046E91A00F0AB
:101DB00009F80130BBD02B46ECE770BDA400002031
:101DC000A000002038B5064C0023054608462360D5
:101DD000FFF780FB431C02D1236803B12B6038BDA1
:101DE000A80000202E2E2F73797374656D2F7372E7
:101DF000632F73746D333266342D68616C2F737486
:101E00006D3332663478785F68616C5F636F7274CB
:101E100065782E63000000002E2E2F737973746591
:101E20006D2F7372632F73746D333266342D686156
:101E30006C2F73746D3332663478785F68616C5FD1
:101E40006770696F2E630000000000000102030448
:101E500001020304060708092E2E2F737973746597
:101E60006D2F7372632F73746D333266342D686116
:101E70006C2F73746D3332663478785F68616C5F91
:101E80007263632E630000002E2E2F7379737465C6
:101E90006D2F7372632F73746D333266342D6861E6
:101EA0006C2F73746D3332663478785F68616C5F61
:101EB0007370692E63000000001000200040008055
:021EC0004300DD
:101EC400785634129C000020000000000024F40026
:101ED40001000000000C0240000C0240000C024013
:101EE400000C02400000024000000000000000005E
:101EF40000000000000000000000000000000000DE
:101F04000000000000000000C01E000800000000E7
:101F140000000000000000000000000000000000BD
:101F240000000000000000000000000000000000AD
:101F3400000000000000000000000000000000009D
:101F440000000000000000002800002032547698B1
:040000050800018965
:00000001FF
