:020000040800F2
:1000000000000220B9020008C1020008C502000871
:10001000C9020008CD020008D1020008000000005B
:10002000000000000000000000000000D5020008F1
:10003000D902000800000000DD020008E10200080B
:10004000E5020008E5020008E5020008E5020008F4
:10005000E5020008E5020008E5020008E5020008E4
:10006000E5020008E5020008E5020008E5020008D4
:10007000E5020008E5020008E5020008E5020008C4
:10008000E5020008E5020008E5020008E5020008B4
:10009000E5020008E5020008E5020008E5020008A4
:1000A000E5020008E5020008E5020008E502000894
:1000B000E5020008E5020008E5020008E502000884
:1000C000E5020008E5020008E5020008E502000874
:1000D000E5020008E5020008E5020008E502000864
:1000E000E5020008E5020008E5020008E502000854
:1000F000E5020008E5020008E5020008E502000844
:10010000E5020008E5020008E5020008E502000833
:10011000E5020008E5020008E5020008E502000823
:10012000E5020008E5020008E5020008E502000813
:10013000E5020008E5020008E5020008E502000803
:10014000E5020008E5020008E5020008E5020008F3
:10015000E5020008E5020008E5020008E5020008E3
:10016000E5020008E5020008E5020008E5020008D3
:10017000E5020008E5020008E502000800000000B2
:10018000E5020008E502000800B583B001F09AFB23
:10019000384B394A1360394A136039490CE00A6810
:1001A0004B6801F10C04886803E01168196004339E
:1001B00004329842F9D82146324B9942EFD32E4B64
:1001C0001A68314B9A4204D12C4B1A682F4B9A4231
:1001D00000D0FEE7274B2E4A13602E4A13602E4BA9
:1001E0000AE0194651F8082B5B6802E00020106015
:1001F00004329A42FAD30B46284A9342F1D3244B55
:100200001B6813B9234B1B6803B1FEE701F0B2FB77
:1002100001A8694601F04AFB214C224B1C1BA4108B
:10022000002504E01E4B53F8253098470135AC42B9
:10023000F8DC1D4C1D4B1C1BA410002504E01A4BC0
:1002400053F8253098470135AC42F8DC0198009905
:1002500001F060FC0546164C164B1C1BA41004E074
:10026000013C134B53F824309847002CF8DC284607
:1002700001F0F4FABABADECA000000208C000020B7
:10028000E8020008000300087856341232547698C9
:10029000900000200801002000030008100300085F
:1002A00010030008100300081003000810030008E2
:1002B000100300081003000808B5FFF765FF00BF32
:1002C000FEE700BFFEE700BFFEE700BFFEE700BF9E
:1002D000FEE700BFFEE700BFFEE700BFFEE700BF8E
:0802E000704700BFFEE700BFFC
:1002E800401F00080000002090000020401F000868
:1002F8000000001000000010900000200C010020F9
:080308000000001000000010CD
:1003100010B5044600F086FE064BA3FB00308009B2
:1003200000F09EF84FF0FF302146002200F04AF81E
:10033000002010BDD34D621008B50B4B1A6842F473
:1003400000721A601A6842F480621A601A6842F4F5
:1003500080721A60032000F017F80F20FFF7D8FF13
:1003600000F018FA002008BD003C0240014B18685C
:10037000704700BF94000020024A136823F0020374
:100380001360704710E000E010B50446C31E042B54
:1003900003D90A48A42101F091FA04F00700084AA1
:1003A000D36823F4E0631B041B0C43EA002040F0F5
:1003B000BF6040F40030D06010BD00BF601E000878
:1003C00000ED00E070B504460E4615460F2A03D92D
:1003D0001A48BC2101F072FA0F2E03D91748BD212B
:1003E00001F06CFA164BDB68C3F30223C3F107027A
:1003F000042A28BF0422191D062901D9D81E00E0AD
:100400000020012303FA02F2013A324002FA00F11D
:1004100083405A1E2A400A43002C06DA04F00F04D7
:100420001201D2B2074B1A5570BD1201D2B204F1BB
:10043000604404F5614484F8002370BD601E000828
:1004400000ED00E014ED00E0410900F01F00012381
:100450008340024A42F82130704700BF00E100E0CB
:100460000138B0F1807F0AD2064B5860F021064A6D
:1004700082F823100020986007221A60704701203C
:10048000704700BF10E000E000ED00E02DE9F84FFC
:1004900080460F460B881BB9AC48C32101F00EFA09
:1004A0007B68012B22D9112B20D0022B1ED0122BBE
:1004B0001CD0A74A934219D002F58012934215D05E
:1004C00002F58012934211D0A2F5F81293420DD09A
:1004D00002F58012934209D002F58012934205D0B2
:1004E000032B03D09948C42101F0E8F9BB68022B23
:1004F00003D99648C52101F0E1F9002420E1A14685
:100500000125A5403B6803EA050AAA4540F017818A
:100510007B68022B01D0122B4AD13B69C3B3092B54
:1005200036D0ABB3A3B39BB393B3012B30D02FD052
:10053000022B2DD02CD02BD0032B29D0042B27D04D
:1005400026D025D0052B23D022D0092B20D0062B56
:100550001ED0092B1CD0072B1AD019D018D0082B6D
:1005600016D015D014D0092B12D011D00A2B0FD0D1
:100570000ED00B2B0CD00C2B0AD009D00D2B07D092
:100580000C2B05D00F2B03D07048D62101F096F923
:10059000E608083658F8261004F0070080000F23FC
:1005A000834021EA03023B698340134348F8263025
:1005B000D8F800304FEA440B032606FA0BF6F64350
:1005C00006EA03027B6803F0030303FA0BF3134309
:1005D000C8F800307B685A1E012A03D9112B01D0BC
:1005E000122B1CD1FB68032B03D95848E92101F0D9
:1005F00065F9D8F8083006EA0302FB6803FA0BF342
:100600001343C8F80830D8F8043023EA05037D689E
:10061000C5F3001505FA09F51D43C8F80450D8F8CC
:100620000C303340BE6806FA0BF61E43C8F80C6067
:100630007B6813F0805F00F08280464A536C43F47D
:1006400080435364A308991CA2F5803252F821100C
:1006500004F0030080000F22824021EA02013E4A9A
:10066000904537D002F58062904531D002F5806226
:1006700090452BD002F58062904525D002F580622E
:1006800090451FD002F58062904519D002F5806236
:10069000904513D002F5806290450DD002F580623E
:1006A000904507D002F58062904501D1092212E001
:1006B0000A2210E008220EE007220CE006220AE0DF
:1006C000052208E0042206E0032204E0022202E000
:1006D000012200E0002282400A4302331F4941F810
:1006E00023201F4B1A686FEA0A0303EA02017868A5
:1006F00010F4803F01D04AEA0201194A11605268A1
:1007000003EA0201786810F4003F01D04AEA0201CE
:10071000134A5160926803EA0201786810F4801F5E
:1007200001D04AEA02010E4A9160D268134079680A
:1007300011F4001F01D04AEA0203094AD3600134D0
:100740000F2C7FF6DCAEBDE8F88F00BF941E0008CA
:100750000000111000380240000002400038014043
:10076000003C014070B5054614460E4621B90848C4
:100770004FF4D37101F0A2F8012C04D9044840F2DF
:10078000A71101F09BF80CB12E8370BD6E8370BD74
:10079000941E0008704700BF38B5044603680F2B4D
:1007A00003D9B348FD2101F089F8236813F0010F44
:1007B00061D06368012B06D9052B04D0AC484FF4F7
:1007C000817101F07BF8AB4B9B6803F00C03042BA9
:1007D0000AD0A84B9B6803F00C03082B0ED1A54B45
:1007E0005B6813F4800F09D0A24B1B6813F4003F21
:1007F00041D06368012B40F0FE813CE000229E4B1B
:100800001A70FFF7B3FD054607E0FFF7AFFD401B89
:1008100041F28833984200F2F081964B1B6813F442
:10082000003FF2D12279944B1A706368012B11D1E9
:10083000FFF79CFD054607E0FFF798FD401B41F2DE
:100840008833984200F2DB818A4B1B6813F4003F27
:10085000F2D010E0FFF78AFD054607E0FFF786FDBE
:10086000401B41F28833984200F2CB81814B1B68D8
:1008700013F4003FF2D1236813F0020F6DD0E36848
:10088000012B04D97A484FF4A17101F017F82369BC
:100890001F2B04D9764840F2431101F00FF8754B35
:1008A0009B6813F00C0F0AD0724B9B6803F00C038B
:1008B000082B1CD16F4B5B6813F4800F17D16D4B65
:1008C0001B6813F0020F03D0E368012B40F09B81FB
:1008D0006848026822F0F8012269F82393FAA3F32A
:1008E000B3FA83F3DBB29A400A43026035E0E3686F
:1008F0000BB30122614B1A60FFF738FD054605E096
:10090000FFF734FD401B642800F27F81594B1B68C0
:1009100013F0020FF4D05748036823F0F80122695E
:10092000F82393FAA3F3B3FA83F3DBB29A4041EAD4
:100930000203036011E00022504B1A60FFF716FD1E
:10094000054605E0FFF712FD401B642800F25F81B9
:10095000484B1B6813F0020FF4D1236813F0080F03
:100960002ED06369012B04D941484FF4C17100F0C6
:10097000A5FF636993B10122414B1A60FFF7F6FCB2
:10098000054605E0FFF7F2FC401B642800F24181B8
:10099000384B5B6F13F0020FF4D011E00022384B9C
:1009A0001A60FFF7E3FC054605E0FFF7DFFC401B9C
:1009B000642800F230812F4B5B6F13F0020FF4D1EB
:1009C000236813F0040F6ED0A368012B06D9052B02
:1009D00004D027484FF4D67100F070FF254A136CFD
:1009E00043F080531364A2F5E432136843F4807338
:1009F0001360FFF7BBFC054605E0FFF7B7FC401BA3
:100A0000642800F20A811F4B1B6813F4807FF4D026
:100A100000221D4B1A70FFF7A9FC054607E0FFF7FF
:100A2000A5FC401B41F28833984200F2F880114B3C
:100A30001B6F13F0020FF2D1227A134B1A70A368C6
:100A4000012B11D1FFF792FC054607E0FFF78EFC62
:100A5000401B41F28833984200F2E380054B1B6F44
:100A600013F0020FF2D01EE0FFF780FC054615E000
:100A7000D41E0008003802400238024000004742FD
:100A8000800E47420070004070380240FFF76EFC55
:100A9000401B41F28833984200F2C580684B1B6FBF
:100AA00013F0020FF2D1A369022B04D965484FF469
:100AB000F87100F003FFA369002B00F0B680604AD4
:100AC000926802F00C02082A00F0B180022B7FD15C
:100AD000E3693BB1B3F5800F04D05A4840F2F911F5
:100AE00000F0ECFE236A3F2B04D956484FF4FD7109
:100AF00000F0E4FE636AC03BF02B04D9514840F299
:100B0000FB1100F0DBFEA36A022B0AD0042B08D0F5
:100B1000062B06D0082B04D04A484FF4FE7100F093
:100B2000CDFEE36A043B0B2B04D9464840F2FD118D
:100B300000F0C4FE0022444B1A60FFF717FC054684
:100B400004E0FFF713FC401B642872D83C4B1B6881
:100B500013F0007FF5D1216A626A47F6C07393FAF9
:100B6000A3F3B3FA83F3DBB29A401143A36A5B08A1
:100B7000013B4FF4403292FAA2F2B2FA82F2D2B2C0
:100B800093400B43E26943EA0201E36A4FF070626B
:100B900092FAA2F2B2FA82F2D2B203FA02F241EA75
:100BA000020343F00053264A53600122264B1A6089
:100BB000FFF7DCFB044604E0FFF7D8FB001B6428CA
:100BC00039D81F4B1B6813F0007FF5D0002038BDCB
:100BD00000221D4B1A60FFF7C9FB044604E0FFF733
:100BE000C5FB001B642828D8154B1B6813F0007F39
:100BF000F5D1002038BD012038BD032038BD0320C9
:100C000038BD032038BD012038BD032038BD032086
:100C100038BD032038BD032038BD032038BD032074
:100C200038BD032038BD032038BD002038BD012069
:100C300038BD032038BD032038BD032038BD00BFB8
:100C400000380240D41E00086000474270B50446D8
:100C50000D460368013B0E2B04D988484FF41871E8
:100C600000F02CFE072D04D9844840F2612100F0E9
:100C700025FE834B1B6803F00F03AB4280F08B8093
:100C8000EAB27F4B1A701B6803F00F03AB4240F0CF
:100C90005181236813F0020F1DD0A368A3B1802BEC
:100CA00012D0902B10D0A02B0ED0B02B0CD0C02B7C
:100CB0000AD0D02B08D0E02B06D0F02B04D06F4800
:100CC00040F2772100F0FAFD6E498B6823F0F002C4
:100CD000A36813438B60236813F0010F00F0E880D2
:100CE0006368022B04D9654840F27E2100F0E6FDDE
:100CF0006268012A05D1634B1B6813F4003F0ED1D3
:100D00001AE1022A05D15F4B1B6813F0007F06D160
:100D100014E15C4B1B6813F0020F00F0118159497C
:100D20008B6823F0030313438B60FFF71FFB05461B
:100D30006368012B0FD107E0FFF718FB401B41F25E
:100D40008833984200F2FE804E4B9B6803F00C0300
:100D5000042BF1D1ACE0022B17D107E0FFF706FB23
:100D6000401B41F28833984200F2EE80454B9B686D
:100D700003F00C03082BF1D19AE0FFF7F7FA401BC0
:100D800041F28833984200F2E1803E4B9B6813F0B9
:100D90000C0FF2D18CE0236813F0020F1DD0A36872
:100DA000A3B1802B12D0902B10D0A02B0ED0B02B43
:100DB0000CD0C02B0AD0D02B08D0E02B06D0F02BC3
:100DC00004D02E4840F2C62100F078FD2D498B68F2
:100DD00023F0F002A36813438B60236813F0010F24
:100DE0005ED06368022B04D9244840F2CD2100F084
:100DF00065FD6268012A05D1224B1B6813F4003F90
:100E00000ED1A5E0022A05D11E4B1B6813F0007F0E
:100E100006D19FE01B4B1B6813F0020F00F09C8073
:100E200018498B6823F0030313438B60FFF79EFA86
:100E300006466368012B0FD107E0FFF797FA801B86
:100E400041F28833984200F289800E4B9B6803F090
:100E50000C03042BF1D123E0022B1CD106E0FFF799
:100E600085FA801B41F28833984279D8054B9B68FC
:100E700003F00C03082BF2D112E000BFD41E0008CF
:100E8000003C024000380240FFF770FA801B41F23C
:100E90008833984266D8354B9B6813F00C0FF3D11A
:100EA000EAB2334B1A701B6803F00F03AB425BD1FD
:100EB000236813F0040F19D0E36883B1B3F5805FA2
:100EC0000DD0B3F5A05F0AD0B3F5C05F07D0B3F57E
:100ED000E05F04D0274840F21D3100F0EFFC2349C9
:100EE0008B6823F4E052E36813438B60236813F0AC
:100EF000080F1AD0236983B1B3F5805F0DD0B3F525
:100F0000A05F0AD0B3F5C05F07D0B3F5E05F04D0AF
:100F100018484FF4497100F0D1FC144A936823F447
:100F20006043216943EAC10393600F20FFF7F0F9A2
:100F3000002070BD012070BD012070BD012070BD7A
:100F4000012070BD032070BD032070BD032070BD63
:100F5000012070BD012070BD012070BD032070BD57
:100F6000032070BD032070BD012070BD0038024019
:100F7000003C0240D41E0008274B9B6803F00C0382
:100F8000042B46D0082B01D024487047224B5868C8
:100F900000F03F00596801F480014FF4800292FA9A
:100FA000A2F2B2FA82F2D2B231FA02F310D01C4BA2
:100FB000B3FBF0F3184A506847F6C072104092FA3B
:100FC000A2F2B2FA82F2D2B2D04000FB03F30FE0F9
:100FD000124BB3FBF0F3104A506847F6C072104052
:100FE00092FAA2F2B2FA82F2D2B2D04000FB03F33C
:100FF000094A506800F440304FF4403292FAA2F2AD
:10100000B2FA82F2D2B2D04001304000B3FBF0F02D
:1010100070470348704700BF003802400024F400C6
:1010200000127A0008B5FFF7A7FF094B9B6803F091
:10103000F002F02393FAA3F3B3FA83F3DBB222FABC
:1010400003F3044AD35CD840034B186008BD00BFCB
:1010500000380240C41E00080C0000202DE9F041B9
:1010600006460C4690461D46FFF780F90746B8F144
:10107000000F2AD05BE0B5F1FF3F26D025B1FFF786
:1010800075F9C01BA84220D93268536823F0E003E9
:1010900053603268136823F040031360B36AB3F5FA
:1010A000005F09D13268136823F40053136032687B
:1010B000136843F400531360012386F85130002372
:1010C00086F850300320BDE8F08133689B682340E8
:1010D000A342D0D10020BDE8F081B5F1FF3F26D07A
:1010E00025B1FFF743F9C01BA84220D932685368E5
:1010F00023F0E00353603268136823F04003136069
:10110000B36AB3F5005F09D13268136823F4005362
:1011100013603268136843F400531360012386F8A8
:101120005130002386F850300320BDE8F081336849
:101130009B682340A342D0D00020BDE8F08100BFCF
:10114000002800F0AD8010B50446436833B1B3F514
:10115000827F03D05348B32100F0B0FBA3684BB1AA
:10116000B3F5806F06D0B3F5004F03D04D48B421DE
:1011700000F0A4FBE368B3F5006F04D01BB149484D
:10118000B52100F09BFB23692BB1022B03D045480E
:10119000B62100F093FB6369012B03D94148B721C5
:1011A00000F08CFBA369B3F5007F07D033B1B3F532
:1011B000802F03D03B48B82100F080FBE3698BB15E
:1011C000082B0FD0102B0DD0182B0BD0202B09D0B3
:1011D000282B07D0302B05D0382B03D03148B9212C
:1011E00000F06CFB236A2BB1802B03D02D48BA2171
:1011F00000F064FB636A2BB1102B03D02948BB219C
:1012000000F05CFBA36A33B1B3F5005F03D025485F
:10121000BC2100F053FBE36A013B4FF6FE729342A0
:1012200003D92048BD2100F049FB94F8513013F058
:10123000FF0F02D1204600F00FFD022384F8513049
:101240002268136823F04003136021686268A36872
:101250001A43E3681A4323691A4363691A43A3696B
:1012600003F400731343E2691343226A1343A26A2F
:101270001A430A602168638B03F00402636A134314
:101280004B602368E26A1A612268D36923F4006321
:10129000D361002084F85200012384F8513010BD3E
:1012A00001207047041F0008704700BF80B110B5CF
:1012B00004460268136823F040031360FFF7F4FF4D
:1012C000002084F8520084F8510084F8500010BDCA
:1012D00001207047F0B583B004460E4617461D4600
:1012E00090F85130DBB2012B02D0222B40F08881E4
:1012F000002E00F08781002F00F08681002D00F085
:101300008581A36823B19F484FF4327100F0D6FA6B
:1013100094F85030012B00F07B81012384F8503089
:1013200094F85130DBB2012B02D1322384F85130D2
:10133000002384F85230A763A587E5872663A58636
:10134000E586A364E364A36AB3F5005F09D122686C
:10135000136823F4005313602268136843F40053A6
:10136000136023681A6812F0400F03D11A6842F024
:1013700040021A60E368B3F5006F7DD163682BB15A
:10138000B3F5827F0CD1E38E012B09D12368226B48
:101390001288DA60236B02332363E38E013BE3861A
:1013A000E38E002B4DD1A36AB3F5005F04D1226810
:1013B000136843F480531360204601210022089BE8
:1013C000FFF74CFE002840F02581A36B2268D2680D
:1013D0001A80A36B0233A363E38F013BE387BEE074
:1013E000204602210022089BFFF738FE002840F02B
:1013F00013812368226B1288DA60236B0233236324
:10140000E38E013B9BB2E38643B9A36AB3F5005F69
:1014100004D12268136843F48053136020460121ED
:101420000022089BFFF71AFE002840F0F780A36B0C
:101430002268D2681A80A36B0233A363E38F013B57
:10144000E387E38E002BCBD16368002B40F08780CD
:10145000204601210022089BFFF700FE002840F0F3
:10146000DF80A36B2268D2681A80A36B0233A36368
:10147000E38F013BE38772E063682BB1B3F5827FB2
:101480000BD1E38E012B08D12268236B591C2163F9
:101490001B78D360E38E013BE386E38E002B48D1BB
:1014A000A36AB3F5005F04D12268136843F4805344
:1014B0001360204601210022089BFFF7CFFD002882
:1014C00040F0B080A36B2268D2681A70E38F013BB2
:1014D000E38744E0204602210022089BFFF7BEFD7F
:1014E000002840F0A1802268236B591C21631B78DF
:1014F000D360E38E013B9BB2E38643B9A36AB3F5A5
:10150000005F04D12268136843F4805313602046BF
:1015100001210022089BFFF7A1FD002840F08680F2
:10152000A36B5A1CA2632268D2681A70E38F013B36
:10153000E387E38E002BCDD1636883B92046012178
:101540000022089BFFF78AFD002871D1A36B5A1C6B
:10155000A2632268D2681A70E38F013BE387A36A13
:10156000B3F5005F15D1204601210022089BFFF74B
:1015700075FD48B194F8523043F0020384F85230BC
:10158000032356E0041F00082368DB689BB2ADF814
:101590000630204680210122089BFFF75FFD0346AD
:1015A00038B194F8523043F0200384F852300323CA
:1015B0003FE0012284F8512021688A6802F010027D
:1015C000A06AB0F5005F17D1B2B194F8523043F081
:1015D000020384F85230B0F5005F08D10B6823F4A1
:1015E00000530B602268136843F400531360002318
:1015F00084F8503001231CE0002284F8502018E0C9
:10160000022316E0012314E0012312E0012310E07D
:1016100002230EE003230CE003230AE0032308E087
:10162000032306E0032304E0032302E0032300E096
:101630000323184603B0F0BDF0B585B004461E463E
:1016400090F85130DBB2012B40F0F7800F46154681
:10165000002900F0F480002A00F0F38090F8503068
:10166000012B00F0F080012380F85030222380F815
:101670005130002380F85230A163A287E28783644F
:10168000C3648386C3868368B3F5004F04D10268C0
:10169000136823F480431360A36AB3F5005F09D194
:1016A0002268136823F4005313602268136843F41C
:1016B000005313606368B3F5827F0CD1A36853B9FC
:1016C00084F850300096204639463A462B46FFF7BC
:1016D00001FE0546BEE023681A6812F0400F03D1F0
:1016E0001A6842F040021A60E36893B131E0204684
:1016F000012100223346FFF7B1FC002840F0A5800D
:10170000A36B5A1CA2632268D2681A70E38F013B54
:10171000E387E38F012BEAD8A36AB3F5005F24D1F6
:101720002268136843F4805313601EE020460121B1
:1017300000223346FFF792FC002840F08880A36B1C
:101740002268D2681A80A36B0233A363E38F013B44
:10175000E387E38F012BE9D8A36AB3F5005F04D1D7
:101760002268136843F4805313602046012100224D
:101770003346FFF773FC054600286AD1E36833B9A6
:10178000A36B5A1CA2632268D2681A7006E0A36B8E
:101790002268D2681A80A36B0233A363E38F013BF4
:1017A000E387A36AB3F5005F13D12046012100222D
:1017B0003346FFF753FC38B194F8523043F002033C
:1017C00084F85230032545E02368DB689BB2ADF80E
:1017D0000E306368B3F5827F0BD1A368B3F5004F79
:1017E00002D0B3F5806F04D12268136823F0400360
:1017F0001360012384F851302268936803F01003CA
:10180000A16AB1F5005F14D19BB194F8523043F056
:10181000020384F85230136823F4005313602268E3
:10182000136843F400531360002384F850300125FB
:1018300010E0002384F850300CE002250AE0012576
:1018400008E0012506E0022504E0032502E0032567
:1018500000E00325284605B0F0BD00BFFEE700BF4D
:1018600008B50120FFF7FAFF08B50D4B1B6813B947
:101870000C4A0B4B1A600A4B1A68C31C23F0030373
:10188000134409498B4206D900F02AFA0C2303605D
:101890004FF0FF3008BD02490B60104608BD00BF85
:1018A000980000200C01002000FC012001230360AF
:1018B000014B0B60704700BF0400002008B5FFF724
:1018C000CFFF00BF08B500F001F808BD0C4B1A6847
:1018D00042F001021A60002199601A6822F08472B5
:1018E00022F480321A60074A5A601A6822F4802271
:1018F0001A60D9604FF00062034B9A60704700BFD6
:10190000003802401030002400ED00E010B592B025
:10191000174A136C43F080531364A2F5E432136842
:1019200043F440431360012301930293022407947C
:101930004FF480030893082309934FF4A8730A9384
:101940000B9407230C9301A8FEF726FF0F230D939A
:101950000E9400230F934FF4A05310934FF4805331
:1019600011930DA80521FFF771F912B010BD00BF4A
:101970000038024008B5FFF7A9FFFEF7DDFCFEF7CF
:10198000FBFCFFF7C3FF08BD08B51148114B1968F0
:10199000012242F21073FFF74FFE0028F5D101201B
:1019A00000F012F9002000F00FF9022000F00CF90D
:1019B000032000F009F9074B1B68187800F0F4F8D1
:1019C000054B1A681378013303F00303137008BD45
:1019D000B0000020AC00002004010020014B18786A
:1019E000704700BF1000002008B5012000F0DCF8AF
:1019F000002000F0D9F8022000F0D6F8032000F013
:101A0000D3F80022064B1A700648FFF74FFC064B2E
:101A1000186800F073F9054B186800F06FF908BDFD
:101A200010000020B0000020AC00002004010020C5
:101A300070B592B0324A136C43F080531364A2F530
:101A4000E432136843F4404313600123019302938B
:101A5000022507954FF480030893082309934FF458
:101A6000A8730A930B9507260C9601A8FEF794FE1F
:101A70000F230D930E9500240F944FF4A053109351
:101A80004FF4805311930DA80521FFF7DFF81D488F
:101A90001D4B03601823C361846044610561846247
:101AA000C662C46004624FF40073836144624460A0
:101AB000FFF746FB08B1FFF797FF0020014600F053
:101AC00093F8012000F034F8002000F031F80220F3
:101AD00000F02EF8032000F02BF8012000F006F9AA
:101AE0000A4C2060012000F001F9094B18602268BF
:101AF000022111701B6800221A7012B070BD00BF65
:101B000000380240B00000200038004004010020EE
:101B1000AC00002008B5FFF78BFF01E0FFF734FFB2
:101B2000FFF75CFF0028F9D1FFF75EFF08BD00BF9B
:101B300070B586B0044628B9184A136B43F0080301
:101B4000136314E0012805D1144A136B43F0080312
:101B500013630CE0022805D1104A136B43F008030D
:101B6000136304E00D4A136B43F0080313630C4B3B
:101B700033F8145001950123029303930223049335
:101B8000084E56F8240001A9FEF780FC56F8240000
:101B900029460022FEF7E6FD06B070BD003802407F
:101BA000341F00081400002008B50346044A52F808
:101BB0002000044A32F813100122FEF7D3FD08BDBD
:101BC00014000020341F000808B50346044A52F8E8
:101BD0002000044A32F813100022FEF7C3FD08BDAE
:101BE00014000020341F000830B587B00546174A9E
:101BF000136B43F0010313630C4661B90123019396
:101C000000230293039302230493114B53F8200003
:101C100001A9FEF73BFC012C15D1012301930024FF
:101C20000394022304930B4B0293094B53F82500B2
:101C300001A9FEF72BFC06200F212246FEF7C2FB6E
:101C40000620FEF701FC07B030BD00BF003802409F
:101C500024000020000011102DE9F04186B01E4C38
:101C6000236B43F002032363236B43F002032363DC
:101C7000236B43F0020323634FF4005301930225C7
:101C800002954FF00108CDF80C80049505270597C3
:101C9000124E304601A9FEF7F9FB4FF48043019341
:101CA0000295CDF80C8004950597304601A9FEF702
:101CB000EDFB4FF4004301930295CDF80C800495A1
:101CC0000597304601A9FEF7E1FB236C43F48043FE
:101CD000236406B0BDE8F0810038024000040240F1
:101CE000014B1868704700BF88000020024B014676
:101CF000186800F04FB800BF88000020024B014672
:101D0000186800F003B800BF8800002030B5002933
:101D10003DD051F8042C0B1F1D49002AB8BF9B1859
:101D20000A680C4612B95A600B6030BD93420DD25E
:101D300019685818904201BF5A5852181A604268E0
:101D40005A60236030BD994203D80A465168002981
:101D5000F9D1146815199D420AD11B682344D01883
:101D60008842136013D10868034413604B680DE088
:101D700002D90C23036030BD1C681819884204BFC7
:101D800008684968596004BF00191860536030BD85
:101D9000A400002070B5CC1C24F0030408340C2CE3
:101DA00038BF0C24002C064603DA0C2333600020D5
:101DB00070BD8C42F9D3204A136810461946A1B170
:101DC0000A68121B0ED40B2A03D90A608B188C5098
:101DD0001FE08B420DBF5A684A685A60026018BF04
:101DE0000B4616E00B464968E9E7144D2B681BB912
:101DF000304600F025F828603046214600F020F8F3
:101E0000421C0346D1D0C51C25F0030585420AD1EA
:101E10001C6003F10B001A1D20F00700821A0AD083
:101E20005142995070BD3046E91A00F009F801306E
:101E3000BBD02B46ECE770BDA4000020A000002022
:101E400038B5064C0023054608462360FFF70CFD15
:101E5000431C02D1236803B12B6038BDA8000020C9
:101E60002E2E2F73797374656D2F7372632F7374B5
:101E70006D333266342D68616C2F73746D33326646
:101E80003478785F68616C5F636F727465782E6315
:101E9000000000002E2E2F73797374656D2F7372FE
:101EA000632F73746D333266342D68616C2F7374D5
:101EB0006D3332663478785F68616C5F6770696F24
:101EC0002E6300000000000001020304010203046D
:101ED000060708092E2E2F73797374656D2F7372A0
:101EE000632F73746D333266342D68616C2F737495
:101EF0006D3332663478785F68616C5F7263632E2D
:101F0000630000002E2E2F73797374656D2F73722A
:101F1000632F73746D333266342D68616C2F737464
:101F20006D3332663478785F68616C5F7370692EE8
:0E1F300063000000001000200040008043000D
:101F4000785634129C000020000000000024F400A9
:101F500001000000000C0240000C0240000C024096
:101F6000000C0240000002400000000000000000E1
:101F70000000000000000000000000000000000061
:101F800000000000000000003C1F000800000000EE
:101F90000000000000000000000000000000000041
:101FA0000000000000000000000000000000000031
:101FB0000000000000000000000000000000000021
:101FC0000000000000000000280000203254769835
:040000050800018965
:00000001FF
