:020000040800F2
:1000000000000220B9020008592000085D20000805
:100010006120000865200008692000080000000039
:100020000000000000000000000000006D2000083B
:1000300071200008000000007520000879200008E9
:10004000BD030008BD030008BD030008BD03000890
:10005000BD030008BD030008BD030008BD03000880
:10006000BD030008BD030008BD030008BD03000870
:10007000BD030008BD030008BD030008BD03000860
:10008000BD030008BD030008BD030008BD03000850
:10009000BD030008BD030008BD030008BD03000840
:1000A000BD030008BD030008BD030008BD03000830
:1000B000BD030008BD030008BD030008BD03000820
:1000C000BD030008BD030008BD030008BD03000810
:1000D000BD030008BD03000881200008BD0300081F
:1000E000BD030008BD030008BD030008BD030008F0
:1000F000BD030008BD030008BD030008BD030008E0
:10010000BD030008BD030008BD030008BD030008CF
:10011000BD030008BD030008BD030008BD030008BF
:10012000BD030008BD030008BD030008BD030008AF
:10013000BD030008BD030008BD030008BD0300089F
:10014000BD030008BD030008BD030008BD0300088F
:10015000BD030008BD030008BD030008BD0300087F
:10016000BD030008BD030008BD030008BD0300086F
:10017000BD030008BD030008BD0300080000000027
:10018000BD030008BD03000800B583B001F0B2FC58
:10019000384B394A1360394A136039490CE00A6810
:1001A0004B6801F10C04886803E01168196004339E
:1001B00004329842F9D82146324B9942EFD32E4B64
:1001C0001A68314B9A4204D12C4B1A682F4B9A4231
:1001D00000D0FEE7274B2E4A13602E4A13602E4BA9
:1001E0000AE0194651F8082B5B6802E00020106015
:1001F00004329A42FAD30B46284A9342F1D3244B55
:100200001B6813B9234B1B6803B1FEE701F042FDE5
:1002100001A8694601F008FC214C224B1C1BA410CC
:10022000002504E01E4B53F8253098470135AC42B9
:10023000F8DC1D4C1D4B1C1BA410002504E01A4BC0
:1002400053F8253098470135AC42F8DC0198009905
:1002500001F0DEFD0546164C164B1C1BA41004E0F5
:10026000013C134B53F824309847002CF8DC284607
:1002700001F0ACFBBABADECA000000208C000020FE
:10028000C0030008D8030008785634123254769818
:100290009000002078010020D8030008E80300083F
:1002A000E8030008E8030008E8030008E803000882
:1002B000E8030008E803000808B5FFF765FF00BF82
:1002C000FEE700BF1EF0040F0CBFEFF30880EFF352
:1002D00009807146364A10472DE9F04182B0074641
:1002E0008846084B5D6B9C6B9E6A074801F0B0FB2B
:1002F000CDF80080384631462A46234601F0FEFB01
:10030000FEE700BF00ED00E0C02B0008FEE700BFE5
:100310001EF0040F0CBFEFF30880EFF30980714665
:10032000244A10472DE9F04182B007468846084B21
:100330005D6B9C6B9E6A074801F08AFBCDF80080DC
:10034000384631462A46234601F0D8FBFEE700BF77
:1003500000ED00E0D02B00081EF0040F0CBFEFF3FF
:100360000880EFF309807146134A10472DE9F041E8
:1003700082B007468846084B5D6B9C6B9E6A0748B7
:1003800001F066FBCDF80080384631462A46234608
:1003900001F0B4FBFEE700BF00ED00E0DC2B00083D
:1003A000FEE700BFFEE700BFFEE700BF70470000AA
:1003B000D9020008250300086D030008FEE700BF0E
:1003C0002C2C000800000020900000202C2C00089D
:1003D0000000001000000010900000207C010020B0
:0803E0000000001000000010F5
:1003E800704700BF10B5044600F046FF064BA3FB5C
:1003F8000030800900F0CAF84FF0FF302146002293
:1004080000F058F8002010BDD34D621008B50B4B12
:100418001A6842F400721A601A6842F480621A601C
:100428001A6842F480721A60032000F025F80F2041
:10043800FFF7D8FFFFF7D4FF002008BD003C0240BB
:10044800024A136801331360704700BF940000200C
:10045800014B1868704700BF94000020024A1368D7
:1004680023F002031360704710E000E0014B1868A6
:10047800000C7047002004E010B50446C31E042B8E
:1004880003D90A48A42101F0D3FA04F00700084A66
:10049800D36823F4E0631B041B0C43EA002040F0FC
:1004A800BF6040F40030D06010BD00BF24290008B0
:1004B80000ED00E070B504460E4615460F2A03D934
:1004C8001A48BC2101F0B4FA0F2E03D91748BD21F0
:1004D80001F0AEFA164BDB68C3F30223C3F107023F
:1004E800042A28BF0422191D062901D9D81E00E0B4
:1004F8000020012303FA02F2013A324002FA00F125
:1005080083405A1E2A400A43002C06DA04F00F04DE
:100518001201D2B2074B1A5570BD1201D2B204F1C2
:10052800604404F5614484F8002370BD2429000860
:1005380000ED00E014ED00E010B5041E03DA0648F3
:10054800D02101F075FA610904F01F040123A340CA
:10055800024A42F8213010BD2429000800E100E0D9
:1005680010B5041E03DA0748E02101F061FA6309B7
:1005780004F01F040122A2402033034941F823203C
:1005880010BD00BF2429000800E100E00138B0F1E7
:10059800807F0AD2064B5860F021064A82F8231061
:1005A8000020986007221A6070470120704700BF3A
:1005B80010E000E000ED00E02DE9F84F80460F461E
:1005C800A04B984223D003F5806398421FD003F5CF
:1005D800806398421BD003F58063984217D003F5D7
:1005E8008063984213D003F5806398420FD003F5D7
:1005F800806398420BD003F58063984207D003F5D7
:100608008063984203D09048C52101F011FA3B88D5
:100618001BB98D48C62101F00BFA7B68012B22D942
:10062800112B20D0022B1ED0122B1CD0874A9342AC
:1006380019D002F58012934215D002F58012934228
:1006480011D0A2F5F81293420DD002F58012934210
:1006580009D002F58012934205D0032B03D07A48C3
:10066800C72101F0E5F9BB68022B03D97648C821F8
:1006780001F0DEF9002423E1A1460125A5403B68ED
:1006880003EA050AAA4540F01A817B68022B01D0CB
:10069800122B4AD13B69C3B3092B36D0ABB3A3B3F2
:1006A8009BB393B3012B30D02FD0022B2DD02CD05D
:1006B8002BD0032B29D0042B27D026D025D0052BCF
:1006C80023D022D0092B20D0062B1ED0092B1CD0DA
:1006D800072B1AD019D018D0082B16D015D014D043
:1006E800092B12D011D00A2B0FD00ED00B2B0CD007
:1006F8000C2B0AD009D00D2B07D00C2B05D00F2BB3
:1007080003D05148D92101F093F9E608083658F882
:10071800261004F0070080000F23834021EA03021B
:100728003B698340134348F82630D8F800304FEA35
:10073800440B032606FA0BF6F64306EA03027B6827
:1007480003F0030303FA0BF31343C8F800307B6884
:100758005A1E012A03D9112B01D0122B1CD1FB6878
:10076800032B03D93848EC2101F062F9D8F8083096
:1007780006EA0302FB6803FA0BF31343C8F80830D0
:10078800D8F8043023EA05037D68C5F3001505FA97
:1007980009F51D43C8F80450D8F80C303340BE683A
:1007A80006FA0BF61E43C8F80C607B6813F0805FEE
:1007B80000F08580264A536C43F480435364A308B1
:1007C800991CA2F5803252F8211004F00300800031
:1007D8000F22824021EA02011A4A90453AD002F5D6
:1007E800806290452BD002F58062904525D002F5B5
:1007F800806290451FD002F58062904519D002F5BD
:100808008062904513D002F5806290450DD002F5C4
:100818008062904507D002F58062904501D1082298
:1008280019E0092217E0072215E0062213E0052245
:1008380011E004220FE003220DE002220BE0012266
:1008480009E000BF0000024058290008000011100C
:1008580000380240002282400A4302331B4941F813
:1008680023201B4B1A686FEA0A0303EA020178681F
:1008780010F4803F01D04AEA0201154A116052681B
:1008880003EA0201786810F4003F01D04AEA020145
:100898000F4A5160926803EA0201786810F4801FD9
:1008A80001D04AEA02010A4A9160D2681340796885
:1008B80011F4001F01D04AEA0203054AD36001344B
:1008C8000F2C7FF6D9AEBDE8F88F00BF0038014085
:1008D800003C0140F8B504460D46384B984224D0F8
:1008E80003F58063984220D003F5806398421CD0BA
:1008F80003F58063984218D003F58063984214D0BA
:1009080003F58063984210D003F5806398420CD0B9
:1009180003F58063984208D003F58063984204D0B9
:1009280027484FF4A17101F083F8002342E0012227
:100938009A4005EA020090423BD126685F000321F5
:10094800B940C9430E402660DF08083754F827E04D
:1009580003F0070C4FEA8C0C0F2606FA0CFC2EEA63
:100968000C0E44F827E0A7680F40A760676827EADD
:1009780002026260E2681140E16003F00302920043
:1009880096409A080F4F023257F8221021EA0606BD
:1009980047F822600C490E68C24306EA0200086064
:1009A800486810404860886810408860C8680240FD
:1009B800CA6001330F2BBAD9F8BD00BF000002404E
:1009C8005829000800380140003C014070B506462F
:1009D80015460C4621B909484FF4D67101F028F89C
:1009E800012D04D9054840F2AD1101F021F80DB1EF
:1009F800B46170BD2404B46170BD00BF58290008FB
:100A080038B5044603680F2B04D9B34840F21B11CC
:100A180001F00EF8236813F0010F5FD06368012B13
:100A280006D9052B04D0AC484FF4907101F000F8BA
:100A3800AA4B9B6803F00C03042B0AD0A74B9B68B6
:100A480003F00C03082B0DD1A44B5B6813F4800F43
:100A580008D0A24B1B6813F4003F3FD06368002BFB
:100A68003CD1FCE100229E4B1A70FFF7F1FC0546D1
:100A780007E0FFF7EDFC401B41F28833984200F293
:100A8800F081964B1B6813F4003FF2D12279944B06
:100A98001A7063688BB1FFF7DBFC054607E0FFF7C8
:100AA800D7FC401B41F28833984200F2DC818B4B23
:100AB8001B6813F4003FF2D010E0FFF7C9FC0546AD
:100AC80007E0FFF7C5FC401B41F28833984200F26B
:100AD800CC81824B1B6813F4003FF2D1236813F0DA
:100AE800020F6DD0E368012B04D97B484FF4B07135
:100AF80000F09EFF23691F2B04D9774840F261114B
:100B080000F096FF754B9B6813F00C0F0AD0734BDF
:100B18009B6803F00C03082B1CD1704B5B6813F423
:100B2800800F17D16D4B1B6813F0020F03D0E368D9
:100B3800012B40F09C816948026822F0F801226983
:100B4800F82393FAA3F3B3FA83F3DBB29A400A4388
:100B5800026035E0E3680BB30122624B1A60FFF7CD
:100B680077FC054605E0FFF773FC401B642800F29C
:100B780080815A4B1B6813F0020FF4D05748036862
:100B880023F0F8012269F82393FAA3F3B3FA83F365
:100B9800DBB29A4041EA0203036011E00022514BA4
:100BA8001A60FFF755FC054605E0FFF751FC401BAE
:100BB800642800F26081494B1B6813F0020FF4D1DE
:100BC800236813F0080F2ED06369012B04D942481B
:100BD8004FF4D07100F02CFF636993B10122424BAE
:100BE8001A60FFF735FC054605E0FFF731FC401BAE
:100BF800642800F24281394B5B6F13F0020FF4D086
:100C080011E00022384B1A60FFF722FC054605E088
:100C1800FFF71EFC401B642800F231812F4B5B6FED
:100C280013F0020FF4D1236813F0040F6FD0A368F8
:100C3800012B06D9052B04D027484FF4E57100F0A5
:100C4800F7FE264A136C43F080531364A2F5E4328E
:100C5800136843F480731360FFF7FAFB054605E059
:100C6800FFF7F6FB401B642800F20B811F4B1B6843
:100C780013F4807FF4D000221D4B1A70FFF7E8FBB5
:100C8800054607E0FFF7E4FB401B41F28833984232
:100C980000F2F980114B1B6F13F0020FF2D1227A88
:100CA800134B1A70A368012B11D1FFF7D1FB05462E
:100CB80007E0FFF7CDFB401B41F28833984200F272
:100CC800E480064B1B6F13F0020FF2D01FE0FFF712
:100CD800BFFB054616E000BF98290008003802400F
:100CE8000238024000004742800E47420070004030
:100CF80070380240FFF7ACFB401B41F28833984242
:100D080000F2C580684B1B6F13F0020FF2D1A36984
:100D1800022B04D9654840F20E2100F089FEA36930
:100D2800002B00F0B680604A926802F00C02082A94
:100D380000F0B180022B7FD1E3693BB1B3F5800F9E
:100D480004D05A4840F2172100F072FE236A3F2B64
:100D580004D956484FF4067100F06AFE636AC03B36
:100D6800F02B04D9514840F2192100F061FEA36A22
:100D7800022B0AD0042B08D0062B06D0082B04D04F
:100D88004A4840F21A2100F053FEE36A043B0B2B59
:100D980004D9464840F21B2100F04AFE0022444B89
:100DA8001A60FFF755FB054604E0FFF751FB401BAF
:100DB800642872D83C4B1B6813F0007FF5D1216A78
:100DC800626A47F6C07393FAA3F3B3FA83F3DBB20C
:100DD8009A401143A36A5B08013B4FF4403292FAF0
:100DE800A2F2B2FA82F2D2B293400B43E26943EA2A
:100DF8000201E36A4FF0706292FAA2F2B2FA82F24A
:100E0800D2B203FA02F241EA020343F00053264A3F
:100E180053600122264B1A60FFF71AFB044604E0D0
:100E2800FFF716FB001B642839D81F4B1B6813F00B
:100E3800007FF5D0002038BD00221D4B1A60FFF757
:100E480007FB044604E0FFF703FB001B642828D8CF
:100E5800154B1B6813F0007FF5D1002038BD012029
:100E680038BD032038BD032038BD032038BD01201C
:100E780038BD032038BD032038BD032038BD03200A
:100E880038BD032038BD032038BD032038BD0320FA
:100E980038BD002038BD012038BD032038BD0320EF
:100EA80038BD032038BD00BF00380240982900082B
:100EB8006000474270B504460D460368013B0E2B9F
:100EC80004D9884840F27E2100F0B2FD072D04D9EC
:100ED800844840F27F2100F0ABFD834B1B6803F090
:100EE8000F03AB4280F08B80EAB27F4B1A701B680D
:100EF80003F00F03AB4240F05181236813F0020F57
:100F08001DD0A368A3B1802B12D0902B10D0A02B9A
:100F18000ED0B02B0CD0C02B0AD0D02B08D0E02B91
:100F280006D0F02B04D06F4840F2952100F080FDE8
:100F38006E498B6823F0F002A36813438B60236823
:100F480013F0010F00F0E8806368022B04D96548AC
:100F58004FF4277100F06CFD6268012A05D1634BDC
:100F68001B6813F4003F0ED11AE1022A05D15F4B2A
:100F78001B6813F0007F06D114E15C4B1B6813F06B
:100F8800020F00F0118159498B6823F003031343C2
:100F98008B60FFF75DFA05466368012B0FD107E008
:100FA800FFF756FA401B41F28833984200F2FE8060
:100FB8004E4B9B6803F00C03042BF1D1ACE0022BE1
:100FC80017D107E0FFF744FA401B41F288339842F3
:100FD80000F2EE80454B9B6803F00C03082BF1D11F
:100FE8009AE0FFF735FA401B41F28833984200F245
:100FF800E1803E4B9B6813F00C0FF2D18CE0236824
:1010080013F0020F1DD0A368A3B1802B12D0902B30
:1010180010D0A02B0ED0B02B0CD0C02B0AD0D02BC8
:1010280008D0E02B06D0F02B04D02E484FF43971AD
:1010380000F0FEFC2D498B6823F0F002A3681343EF
:101048008B60236813F0010F5ED06368022B04D90C
:10105800244840F2EB2100F0EBFC6268012A05D13C
:10106800224B1B6813F4003F0ED1A5E0022A05D1DC
:101078001E4B1B6813F0007F06D19FE01B4B1B68BB
:1010880013F0020F00F09C8018498B6823F00303CB
:1010980013438B60FFF7DCF906466368012B0FD119
:1010A80007E0FFF7D5F9801B41F28833984200F238
:1010B80089800E4B9B6803F00C03042BF1D123E0CD
:1010C800022B1CD106E0FFF7C3F9801B41F28833DD
:1010D800984279D8054B9B6803F00C03082BF2D192
:1010E80012E000BF98290008003C02400038024086
:1010F800FFF7AEF9801B41F28833984266D8354B2A
:101108009B6813F00C0FF3D1EAB2334B1A701B68CB
:1011180003F00F03AB425BD1236813F0040F19D01F
:10112800E36883B1B3F5805F0DD0B3F5A05F0AD053
:10113800B3F5C05F07D0B3F5E05F04D0274840F2AD
:101148003B3100F075FC23498B6823F4E052E368D7
:1011580013438B60236813F0080F1AD0236983B1F7
:10116800B3F5805F0DD0B3F5A05F0AD0B3F5C05FCB
:1011780007D0B3F5E05F04D0184840F2423100F0E0
:1011880057FC144A936823F46043216943EAC10376
:1011980093600F20FFF726F9002070BD012070BD75
:1011A800012070BD012070BD012070BD032070BDFD
:1011B800032070BD032070BD012070BD012070BDEB
:1011C800012070BD032070BD032070BD032070BDD9
:1011D800012070BD00380240003C024098290008F8
:1011E800224B9B6803F00C03042B3DD0082B01D045
:1011F8001F4870471D4B586800F03F005B6813F4A8
:10120800800F10D01B4BB3FBF0F3184A506847F619
:10121800C072104092FAA2F2B2FA82F2D2B2D04070
:1012280000FB03F30FE0124BB3FBF0F30F4A5068D7
:1012380047F6C072104092FAA2F2B2FA82F2D2B223
:10124800D04000FB03F3094A506800F440304FF4E3
:10125800403292FAA2F2B2FA82F2D2B2D04001300F
:101268004000B3FBF0F07047024870470038024076
:101278000024F40000127A0008B5FFF7B1FF094B0B
:101288009B6803F0F002F02393FAA3F3B3FA83F315
:10129800DBB222FA03F3044AD35CD840034B18604C
:1012A80008BD00BF00380240882900080C00002053
:1012B80008B5FFF7E1FF084B9B6803F4E0524FF4D1
:1012C800E05393FAA3F3B3FA83F3DBB222FA03F3FE
:1012D800024AD35CD84008BD00380240882900087B
:1012E80008B5FFF7C9FF084B9B6803F460424FF449
:1012F800604393FAA3F3B3FA83F3DBB222FA03F35E
:10130800024AD35CD84008BD00380240882900084A
:1013180090F83930DBB2122B01D0322B2AD18368F6
:10132800B3F5805F0FD1036A02681B88C3F3080313
:10133800536003691BB9036A0233036209E0036A55
:101348000133036205E00268036A591C01621B78D5
:101358005360C38C013B9BB2C3846BB90268D368EA
:1013680023F08003D3600268D36843F04003D3605E
:101378000020704702207047002070472DE9F04197
:1013880004464268944B9A4204D9944840F2447106
:1013980000F04EFBE3683BB1B3F5005F04D08F4823
:1013A80040F2457100F044FB236953B1B3F5806FF7
:1013B80007D0B3F5C06F04D0884840F2467100F0FA
:1013C80037FB63694FF6F372134200D123B98348A0
:1013D80040F2477100F02CFB2268136923F4405354
:1013E800E1680B4313612068C36823F4164323F0B4
:1013F8000C03A1682269114362691143E2690A4337
:101408001343C3602268536923F44073A1690B43F3
:101418005361E369B3F5004F70D1256803F1804348
:1014280003F510439D4203D003F580639D4232D1FA
:10143800FFF756FF00EB800000EB800063685B005D
:10144800B0FBF3F3664FA7FB03235B091E01FFF70D
:1014580047FF00EB800000EB800063685B00B0FB97
:10146800F3F8FFF73DFF00EB800000EB80006368B6
:101478005B00B0FBF3F3A7FB03235B09642202FBC9
:1014880013831B013233A7FB0323C3F343133343F3
:10149800AB60BDE8F081FFF70BFF00EB800000EBCD
:1014A800800063685B00B0FBF3F34D4FA7FB032399
:1014B8005B091E01FFF7FCFE00EB800000EB8000DB
:1014C80063685B00B0FBF3F8FFF7F2FE00EB800007
:1014D80000EB800063685B00B0FBF3F3A7FB03231A
:1014E8005B09642202FB13831B013233A7FB03232E
:1014F800C3F343133343AB60BDE8F0812568394B30
:101508009D4203D003F580639D4232D1FFF7E8FE88
:1015180000EB800000EB800063689B00B0FBF3F3F6
:101528002F4FA7FB03235B091E01FFF7D9FE00EB32
:10153800800000EB800063689B00B0FBF3F8FFF7C6
:10154800CFFE00EB800000EB800063689B00B0FBDF
:10155800F3F3A7FB03235B09642202FB13831B013C
:101568003233A7FB0323C3F343133343AB60BDE814
:10157800F081FFF79DFE00EB800000EB80006368C0
:101588009B00B0FBF3F3164FA7FB03235B091E0177
:10159800FFF78EFE00EB800000EB800063689B0085
:1015A800B0FBF3F8FFF784FE00EB800000EB80004F
:1015B80063689B00B0FBF3F3A7FB03235A0964237A
:1015C80003FB12831B013233A7FB0323C3F343132B
:1015D8003343AB60BDE8F081A037A000C8290008FC
:1015E8001F85EB5100100140002800F0818010B5E4
:1015F800044683691BB303683E4A93420FD0A2F5A1
:101608004C4293420BD002F58062934207D002F518
:101618004C42934203D03848FC2100F009FAA369F0
:1016280053B3B3F5807F27D0B3F5007F24D0B3F54B
:10163800407F21D03048FD2100F0FAF91CE0036812
:101648002C4A934218D0A2F54C42934214D002F58A
:101658008062934210D002F5806293420CD002F56A
:101668008062934208D002F54442934204D0224853
:1016780040F2011100F0DCF9A3683BB1B3F5805FDB
:1016880004D01D4840F2031100F0D2F9E3693BB1E0
:10169800B3F5004F04D018484FF4827100F0C8F930
:1016A80094F8393013F0FF0F02D1204600F082FC85
:1016B800022384F839302268D36823F40053D360B6
:1016C8002046FFF75BFE2268136923F490431361F9
:1016D8002268536923F02A0353612268D36843F4CC
:1016E8000053D3600020E063012384F8393010BD33
:1016F8000120704700100140C829000858B310B5F0
:1017080004460368154A934218D0A2F54C42934206
:1017180014D002F58062934210D002F580629342A1
:101728000CD002F58062934208D002F544429342FD
:1017380004D00B484FF4F47100F07AF9022384F8CE
:101748003930204600F068FC0020E06384F8390056
:1017580084F8380010BD0120704700BF0010014018
:10176800C829000890F83930DBB2012B01D0222BB0
:101778002FD100292FD0002A2FD090F83830012BF4
:101788002DD0012380F8383001628284C28400237E
:10179800C36390F83930DBB2222B03D1322380F8AF
:1017A800393002E0122380F839300268D36843F4F4
:1017B8008073D3600268536943F0010353610023C7
:1017C80080F838300168CA6842F08002CA6018465A
:1017D800704702207047012070470120704702209F
:1017E800704700BF08B50268D36823F04003D36090
:1017F80090F83930DBB2322B03D1222380F839300C
:101808000CE00268D36823F48073D36002685369DC
:1018180023F001035361012380F8393000F0A0FA66
:10182800002008BD08B590F83930DBB2222B01D072
:10183800322B4CD18368B3F5805F13D1836A026978
:1018480042B902685268C2F308021A80836A0233F6
:10185800836218E002685268D2B21A80836A013340
:10186800836210E0036933B9836A5A1C8262026892
:1018780052681A7007E0826A531C836203685B68C7
:1018880003F07F031370C38D013B9BB2C38503BB79
:101898000268D36823F02003D36090F83930DBB2B4
:1018A800322B03D1122380F839300CE00268D36858
:1018B80023F48073D3600268536923F001035361F2
:1018C800012380F8393000F051FA002008BD0220C9
:1018D80008BD002008BD00BF10B584B004460368E9
:1018E8001968DA6802F4807211F0010F09D042B168
:1018F8001A6800925A680092009AC26B42F001027C
:10190800C26319685A6902F0010211F0020F09D086
:1019180042B11A6801925A680192019AE26B42F048
:101928000402E26319685A6902F0010211F0040F17
:1019380009D042B11A6802925A680292029AE26B7E
:1019480042F00202E26319685A6902F0010211F0DA
:10195800080F09D042B11A6803925A680392039A91
:10196800E26B42F00802E2631A68DB6803F02003C6
:1019780012F0200F03D013B12046FFF753FF23685E
:101988001A68DB6803F0800312F0800F03D013B1EC
:101998002046FFF7BDFC23681A68DB6803F04003A4
:1019A80012F0400F03D013B12046FFF71BFFE36B83
:1019B8002BB1012384F83930204600F0DDF904B05A
:1019C80010BD00BFFEE700BF08B5034800F056F899
:1019D8000120FFF7F7FF00BFF829000808B50D4BF5
:1019E8001B6813B90C4A0B4B1A600A4B1A68C31CC4
:1019F80023F00303134409498B4206D900F044FB42
:101A08000C2303604FF0FF3008BD02490B601046FD
:101A180008BD00BF980000207C01002000FC0120C8
:101A280001230360014B0B60704700BF04000020D6
:101A380008B503460A460348194600F005F8FFF7BB
:101A4800C3FF00BF4C2A00080FB400B583B004AB35
:101A580053F8042B01930848802100F007FC011E6D
:101A680003DD054800F03EF80146084603B05DF87E
:101A780004EB04B0704700BFA000002010B5044676
:101A880000F0C2FB0146204600F02CF80248012174
:101A980000F028F810BD00BF3C2B000810B400224D
:101AA8001AE04FF06043D3F8803E13F0010F06D0E0
:101AB8004FF06043D3F8003E13F0010F01D11046F8
:101AC8000DE04FF060431B68002BFAD004784FF00C
:101AD80060431C70013201308A42E2D308465DF847
:101AE800044B704708B5FFF7D9FF08BD08B500F0EB
:101AF80079F808BDF8B504460D4617461E4626482F
:101B0800FFF7A2FF25482168FFF79EFF2448616878
:101B1800FFF79AFF2348A168FFF796FF2248E1687C
:101B2800FFF792FF21482169FFF78EFF204861697E
:101B3800FFF78AFF1F48A169FFF786FF1E48E16982
:101B4800FFF782FF1D48FFF77FFF1D482946FFF773
:101B58007BFF1C4CE16A1C48FFF776FF216B1B4892
:101B6800FFF772FFE16B1A48FFF76EFF15F0800F61
:101B780003D018483946FFF767FF15F4004F03D024
:101B880015483146FFF760FF1448FFF75DFF14481A
:101B98000699FFF759FFF8BDA42A0008B42A0008DF
:101BA800C42A0008D42A0008E42A0008F42A0008F5
:101BB800042B0008142B0008242B0008342B0008E1
:101BC800402B000800ED00E0502B0008602B0008B7
:101BD800702B0008802B0008902B0008A02B000811
:101BE800A82B00080C4B1A6842F001021A60002169
:101BF80099601A6822F0847222F480321A60074AC7
:101C08005A601A6822F480221A60D9604FF0006284
:101C1800034B9A60704700BF003802401030002420
:101C280000ED00E010B592B0174A136C43F08053F2
:101C38001364A2F5E432136843F4404313600123AC
:101C480001930293022407944FF480030893082316
:101C580009934FF4A8730A930B9407230C9301A8D4
:101C6800FEF7CEFE0F230D930E9400230F934FF42F
:101C7800A05310934FF4805311930DA80521FFF73B
:101C880019F912B010BD00BF0038024008B5FFF7BF
:101C9800A9FFFEF7BBFBFEF7E1FBFFF7C3FF08BD9B
:101CA80010B592B01C4A136C43F080531364A2F52C
:101CB800E432136843F44043136001230193029311
:101CC800022407944FF480030893082309934FF4E0
:101CD800A8730A930B9407230C9301A8FEF790FEB0
:101CE8000F230D930E9400230F934FF4A0531093DA
:101CF8004FF4805311930DA80521FFF7DBF8FEF789
:101D0800B5FB41F20103984204D1044A136843F435
:101D18008073136012B010BD00380240003C0240CE
:101D280008B50C48FFF7EAFC0B4B186800F0BAF945
:101D38000A4B186800F0B6F9012000F0E3F800201B
:101D480000F0E0F8022000F0DDF8032000F0DAF8F7
:101D5800FEE700BF30010020700100207401002060
:101D68000122014B1A707047200100200122014B0B
:101D78001A7070472001002008B5FFF7D1FF00BF97
:101D880010B5FFF78DFF1C481C4B03604FF416532A
:101D9800436000238360C360036183610C22426156
:101DA800C361FFF721FC08B1FFF7BAFF0020014625
:101DB80000F0C8F8012000F067F8002000F064F88F
:101DC800022000F061F8032000F05EF8012000F026
:101DD80061F90B4C2060012000F05CF9094B186098
:101DE8002268012111701B680020187000F08AF821
:101DF800022000F087F810BD3001002000440040A8
:101E0800700100207401002008B5FFF7B9FF29E030
:101E1800013300E00023164A9342F9DD012000F067
:101E280081F8002000F07EF8022000F07BF8032003
:101E380000F078F80F48104B19680122FFF792FC60
:101E48000E4B1B78DBB2012BFAD100220B4B1A7018
:101E58000B4B1B68187800F055F8074A13681B7875
:101E680001331360074B1B78002BD3D108BD00BF8B
:101E78009F86010030010020700100202001002011
:101E8800740100201000002070B586B0044628B9FF
:101E9800194A136B43F00803136316E0012805D1B0
:101EA800154A136B43F0080313630EE0022805D1AB
:101EB800114A136B43F00803136306E0032804D1A7
:101EC8000D4A136B43F0080313630C4B33F814509B
:101ED800019501230293039302230493084E56F8B5
:101EE800240001A9FEF768FB56F8240029460022C1
:101EF800FEF76CFD06B070BD00380240EC2B000800
:101F08001400002008B50346044A52F82000044A89
:101F180032F813100122FEF759FD08BD1400002005
:101F2800EC2B000808B50346044A52F82000044A7E
:101F380032F813100022FEF749FD08BD14000020F6
:101F4800EC2B000830B587B00C46054620B9164A78
:101F5800136B43F00103136364B901230193002356
:101F68000293039302230493104B53F8250001A90D
:101F7800FEF722FB012C15D10123019300240394C1
:101F8800022304930A4B0293084B53F8250001A936
:101F9800FEF712FB06200F212246FEF78BFA0620D9
:101FA800FEF7CAFA07B030BD00380240240000200E
:101FB8000000111070B586B0154B1A6B42F0010283
:101FC8001A631A6B42F001021A631A6C42F4003267
:101FD8001A640423019302230293002403940493B4
:101FE800072605960B4D284601A9FEF7E5FA0823B2
:101FF80001930596284601A9FEF7DEFA2620214618
:102008000122FEF757FA2620FEF796FA06B070BDB1
:10201800003802400000024010B50B4B1A6A42F427
:1020280000321A621A6A22F400321A62074C2046F9
:102038000421FEF74FFC20460821FEF74BFC262022
:10204800FEF78EFA10BD00BF0038024000000240C3
:10205800704700BFFEE700BFFEE700BFFEE700BF16
:10206800FEE700BF704700BF704700BF704700BF62
:1020780008B5FEF7E5F908BD08B50248FFF72CFCDE
:1020880008BD00BF30010020014B1868704700BF31
:1020980088000020024B0146186800F04FB800BFC6
:1020A80088000020024B0146186800F003B800BF02
:1020B8008800002030B500293DD051F8042C0B1FB2
:1020C8001D49002AB8BF9B180A680C4612B95A6005
:1020D8000B6030BD93420DD219685818904201BF69
:1020E8005A5852181A6042685A60236030BD9942A3
:1020F80003D80A4651680029F9D1146815199D4278
:102108000AD11B682344D0188842136013D1086889
:10211800034413604B680DE002D90C23036030BD03
:102128001C681819884204BF08684968596004BFC8
:1021380000191860536030BD2801002070B5CC1C10
:1021480024F0030408340C2C38BF0C24002C064659
:1021580003DA0C233360002070BD8C42F9D3204A87
:10216800136810461946A1B10A68121B0ED40B2A2F
:1021780003D90A608B188C501FE08B420DBF5A6838
:102188004A685A60026018BF0B4616E00B46496859
:10219800E9E7144D2B681BB9304600F025F8286094
:1021A8003046214600F020F8421C0346D1D0C51C19
:1021B80025F0030585420AD11C6003F10B001A1DA6
:1021C80020F00700821A0AD05142995070BD30465B
:1021D800E91A00F009F80130BBD02B46ECE770BDD6
:1021E800280100202401002038B5064C00230546AC
:1021F80008462360FFF7F2FB431C02D1236803B1B2
:102208002B6038BD2C010020034613F8012B002A4F
:10221800FBD1181A0138704730B5141E9BB005461B
:1022280004DA8B2303604FF0FF301CE04FF4027296
:10223800ADF80C2014BF04F1FF3222460292059239
:102248004FF6FF7200910491ADF80E2069461A46C8
:102258001E9B00F075F8431CBCBF8B232B6014B188
:10226800009B00221A701BB030BD000073B50093AC
:10227800054B06460D461446186831462A4623463D
:10228800FFF7CAFF02B070BD880000202DE9F047B3
:102298008E68B34282460C469046994640D38A8956
:1022A80012F4906F3AD0256809696F1A656902239C
:1022B80005EB450595FBF3F57B1C4B449D4238BF68
:1022C8001D4653050FD52946FFF738FF064698B136
:1022D80021693A4600F0CBFAA38923F4906343F0CE
:1022E8008003A38113E02A4600F0E7FA064670B996
:1022F80050462169FFF7DEFE0C23CAF80030A38997
:1023080043F04003A3814FF0FF30BDE8F08726611A
:1023180065613E44ED1B2660A5604E46B14500D27E
:102328004E4632462068414600F0ACFAA3689B1B33
:10233800A36023681E4426600020BDE8F0870000E3
:102348002DE9F0439DB0064603938B891C060D4684
:1023580090460CD50B6953B94021FFF7EFFE286072
:10236800286110B90C233360CCE040236B61002353
:10237800099320238DF8293030238DF82A304346DD
:102388001C4613F8012B1AB9B4EB08090FD002E068
:10239800252AF5D1F8E73046294642464B46FFF74D
:1023A80075FF013000F0A980099B4B4409932378FD
:1023B800002B00F0A28000234FF0FF320493079314
:1023C800059206938DF853301A9304F10108444698
:1023D800DFF8489121784846052200F039FA08F1DB
:1023E8000108049B30B1C9EB00000122824013436D
:1023F8000493ECE7D80644BF20228DF85320190730
:1024080044BF2B228DF8532022782A2A02D007991C
:1024180023460EE0039A111D12680391002ABBBFE0
:10242800524243F0020307920792B8BF0493013463
:102438000AE01C4601332278303A092A03D80A20D8
:1024480000FB0121F5E7079123782E2B1AD1637839
:102458002A2B0AD1039B1A1D1B680392002BB8BFB5
:102468004FF0FF33023405930CE0611C00220C4648
:1024780001312378303B092B03D80A2000FB0232B4
:10248800F5E70592DFF8988021784046032200F0AE
:10249800DFF938B1049AC8EB0000402383401343A6
:1024A8000493013421781A488DF82810062204F183
:1024B800010800F0CDF988B1164B33B9039B0733F7
:1024C80023F007030833039313E003AB009330466C
:1024D80004A92A46104BAFF3008007E003AB009332
:1024E800304604A92A460C4B00F092F8421C0746D5
:1024F80003D0099B3B44099341E7AB895B0601D4B0
:10250800099801E04FF0FF301DB0BDE8F08300BF2F
:10251800002C00080000000095220008F62B000897
:10252800FC2B00082DE9F84391461F468A680B6981
:10253800DDF820809342B8BF1346C9F8003091F8FF
:10254800432006460C4612B10133C9F8003023680F
:10255800990642BFD9F800300233C9F8003025681F
:1025680015F006051CD094F843302268003318BFD4
:10257800012392061FD5E1185A1C302081F8430028
:10258800224494F8451082F84310023313E0304691
:10259800394604F119020123C047013007D001353B
:1025A800E368D9F800209B1A9D42F0DBDBE74FF087
:1025B800FF30BDE8F8833046394604F14302C0478E
:1025C8000130F4D02268D9F80050E36802F006021E
:1025D800042A08BF5D1B2269A3680CBF25EAE575BC
:1025E80000259342C4BF9B1AED184FF00009A94576
:1025F8000ADA3046394604F11A020123C04701308D
:10260800D5D009F10109F2E70020BDE8F883000000
:102618002DE9FF410C461746227E6E2A984606464B
:102628000A9B01F1430100F0AF8012D8632A23D03E
:102638000AD8002A00F0BC80582A40F0CB8084F8E1
:102648004520DFF804E257E0642A1ED0692A1CD02E
:10265800C0E0732A00F0B08009D86F2A2ED0702A03
:1026680040F0B880226842F0200222603FE0752ADC
:1026780024D0782A3BD0ADE01A68111D1960136880
:1026880084F8423004F14205A8E020681A6810F086
:10269800800F02D0101D186008E010F0400F02F102
:1026A8000400186002D0B2F9003000E01368002B73
:1026B8003EDA2D225B4284F8432039E020681A680C
:1026C80010F0800F02D0101D186007E010F0400FC6
:1026D80002F10400186001D0138800E01368227E1C
:1026E800DFF864E16F2A0CBF08220A221CE0782276
:1026F800DFF858E184F845202268186812F0800F46
:1027080000F104051D6003D1550601D5038800E0DA
:102718000368D00744BF42F0200222601BB9226838
:1027280022F0200222601022002084F8430002E0F8
:10273800DFF814E10A226568A560002DA2BF2068B1
:1027480020F00400206003B965B10D46B3FBF2F038
:1027580002FB10331EF8033005F8013D034600283C
:10276800F4D100E00D46082A0BD12368DA0708D512
:10277800236962689A42DEBF302305F8013C05F1FF
:10278800FF35491B21612EE025681A68606915F03C
:10279800800F03D0151D1D60136808E015F0400F69
:1027A80002F104051D60136801D0188000E018606C
:1027B800002323610D4616E01A68111D196015687B
:1027C80062682846002100F043F808B1401B6060A9
:1027D800636804E004F1420584F842200123236180
:1027E800002384F84330CDF800803046214603AA00
:1027F8003B46FFF797FE013002D14FF0FF301FE054
:10280800304639462A462369C0470130F5D0236847
:102818009B0705D4E068039B9842B8BF18460FE0B1
:102828000025E368039A9B1A9D42F3DA304639463D
:1028380004F119020123C0470130DED00135F0E769
:1028480004B0BDE8F08100BF072C0008182C000870
:1028580010B5C9B202449042034606D01C788C4297
:1028680000F10100F7D1184610BD002010BD10B5C9
:10287800431E0A44914204D011F8014B03F8014F5A
:10288800F8E710BD814210B501EB020301D3421EE7
:102898000BE09842FBD28118D21AD34204D013F825
:1028A800014D01F8014DF8E710BD994204D011F827
:1028B800014B02F8014FF8E710BDF8B50746154679
:1028C8000E4621B91146BDE8F840FFF737BC1AB9E2
:1028D800FFF7F0FB2846F8BD00F015F8A8420ED225
:1028E80038462946FFF72AFC044650B131462A46A5
:1028F800FFF7BDFF38463146FFF7DCFB01E0304605
:10290800F8BD2046F8BD51F8040C0028BEBF0918D0
:1029180051F8043CC0180438704700002E2E2F735D
:10292800797374656D2F7372632F73746D333266A8
:10293800342D68616C2F73746D3332663478785F28
:1029480068616C5F636F727465782E6300000000C5
:102958002E2E2F73797374656D2F7372632F7374B2
:102968006D333266342D68616C2F73746D33326643
:102978003478785F68616C5F6770696F2E630000F8
:10298800000000000102030401020304060708090D
:102998002E2E2F73797374656D2F7372632F737472
:1029A8006D333266342D68616C2F73746D33326603
:1029B8003478785F68616C5F7263632E630000002F
:1029C8002E2E2F73797374656D2F7372632F737442
:1029D8006D333266342D68616C2F73746D333266D3
:1029E8003478785F68616C5F756172742E6300007B
:1029F80061626F727428292C2065786974696E6722
:102A08002E2E2E002C2066756E6374696F6E3A2028
:102A180000000000617373657274696F6E2022256F
:102A28007322206661696C65643A2066696C65206A
:102A3800222573222C206C696E6520256425732558
:102A4800730A00006173736572745F706172616DFF
:102A58002829206661696C65643A2066696C65207E
:102A6800222573222C206C696E652025640A0000DB
:102A78006D61696E28617267633D25642C206172FF
:102A880067763D5B000000002C20000022257322A1
:102A9800000000005D293B0A0000000053746163D8
:102AA8006B206672616D653A0A0000002052302082
:102AB8003D2020253038580A0000000020523120DF
:102AC8003D2020253038580A0000000020523220CE
:102AD8003D2020253038580A0000000020523320BD
:102AE8003D2020253038580A00000000205231329D
:102AF800203D20253038580A00000000204C522084
:102B08003D2020253038580A00000000205043207E
:102B18003D2020253038580A00000000205053522C
:102B2800203D20253038580A000000004653522F17
:102B38004641523A0A0000002043465352203D20A5
:102B480020253038580A00002048465352203D209E
:102B580020253038580A00002044465352203D2092
:102B680020253038580A00002041465352203D2085
:102B780020253038580A0000204D4D464152203D4E
:102B880020253038580A00002042464152203D2076
:102B980020253038580A00004D6973630A00000088
:102BA800204C522F4558435F52455455524E3D20B4
:102BB800253038580A0000005B4861726446617528
:102BC8006C745D0A000000005B4275734661756CA9
:102BD800745D0A005B55736167654661756C745D69
:102BE8000A00000000100020004000804300232D50
:102BF800302B2000686C4C006566674546470030FE
:102C0800313233343536373839414243444546004A
:102C1800303132333435363738396162636465664A
:012C280000AB
:102C2C00785634129C000020000000000024F400B0
:102C3C0001000000000C0240000C0240000C02409D
:102C4C00000C0240000002400000000000000000E8
:102C5C000000000000000000000000000000000068
:102C6C000000000000000000F42B00080000000031
:102C7C000000000000000000000000000000000048
:102C8C000000000000000000000000000000000038
:102C9C000000000000000000000000000000000028
:102CAC00000000000000000028000020325476983C
:040000050800018965
:00000001FF
