:020000040800F2
:1000000000000220B9020008C1020008C502000871
:10001000C9020008CD020008D1020008000000005B
:10002000000000000000000000000000D5020008F1
:10003000D902000800000000DD020008E10200080B
:10004000E5020008E5020008E5020008E5020008F4
:10005000E5020008E5020008E5020008E5020008E4
:10006000E5020008E5020008E5020008E5020008D4
:10007000E5020008E5020008E5020008E5020008C4
:10008000E5020008E5020008E5020008E5020008B4
:10009000E5020008E5020008E5020008E5020008A4
:1000A000E5020008E5020008E5020008E502000894
:1000B000E5020008E5020008E5020008E502000884
:1000C000E5020008E5020008E5020008E502000874
:1000D000E5020008E5020008E5020008E502000864
:1000E000E5020008E5020008E5020008E502000854
:1000F000E5020008E5020008E5020008E502000844
:10010000E5020008E5020008E5020008E502000833
:10011000E5020008E5020008E5020008E502000823
:10012000E5020008E5020008E5020008E502000813
:10013000E5020008E5020008E5020008E502000803
:10014000E5020008E5020008E5020008E5020008F3
:10015000E5020008E5020008E5020008E5020008E3
:10016000E5020008E5020008E5020008E5020008D3
:10017000E5020008E5020008E502000800000000B2
:10018000E5020008E502000800B583B001F064FB59
:10019000384B394A1360394A136039490CE00A6810
:1001A0004B6801F10C04886803E01168196004339E
:1001B00004329842F9D82146324B9942EFD32E4B64
:1001C0001A68314B9A4204D12C4B1A682F4B9A4231
:1001D00000D0FEE7274B2E4A13602E4A13602E4BA9
:1001E0000AE0194651F8082B5B6802E00020106015
:1001F00004329342FAD80B46284A9342F1D3244B57
:100200001B6813B9234B1B6803B1FEE701F07CFBAD
:1002100001A8694601F014FB214B224DED1AAD10E7
:10022000002404E01E4B53F8243098470134A542C3
:10023000F8DC1D4B1D4DED1AAD10002404E01A4BE7
:1002400053F8243098470134A542F8DC019800990E
:1002500001F000FC0546164B164CE41AA41004E00D
:10026000013C134B53F824309847002CF8DC284607
:1002700001F0BEFABABADECA000000207800002001
:10028000E8020008000300087856341232547698C9
:100290007C000020D80000200003000810030008A4
:1002A00010030008100300081003000810030008E2
:1002B000100300081003000808B5FFF765FF00BF32
:1002C000FEE700BFFEE700BFFEE700BFFEE700BF9E
:1002D000FEE700BFFEE700BFFEE700BFFEE700BF8E
:0802E000704700BFFEE700BFFC
:1002E800081D0008000000207C000020081D0008F0
:1002F80000000010000000107C000020DC0000203E
:080308000000001000000010CD
:1003100010B5044601F038FA064BA3FB0020800913
:1003200000F09EF84FF0FF302146002200F04AF81E
:10033000002010BDD34D621008B50B4B1A6842F473
:1003400000721A601A6842F480621A601A6842F4F5
:1003500080721A60032000F017F80F20FFF7D8FF13
:1003600000F0D8FD002008BD003C0240014B186899
:10037000704700BF80000020024B1A6822F0020282
:100380001A60704710E000E010B50446C31E042B4D
:1003900003D90A48A42101F05BFA04F00704084BD2
:1003A000D86820F4E0600004000C40EA042040F02B
:1003B000BF6040F40030D86010BD00BF301C0008A2
:1003C00000ED00E070B506460D4614460F2A03D92D
:1003D0001A48BC2101F03CFA0F2D03D91748BD2162
:1003E00001F036FA164BDB68C3F30223C3F10701B1
:1003F000042928BF04211A1D062A8CBF033B0023B1
:10040000012202FA01F101390D409D4002FA03F385
:10041000013B1C402C43002E06DA06F00F06240197
:10042000E4B2084B9C5570BD2401E4B206F1604073
:1004300000F5614080F8004370BD00BF301C00082B
:1004400000ED00E014ED00E0420900F01F00012380
:1004500003FA00F0014B43F82200704700E100E08E
:100460000138B0F1807F0AD2064B5860F021064A6D
:1004700082F823100020986007221A60704701203C
:10048000704700BF10E000E000ED00E02DE9F84FFC
:1004900007460D460B881BB9AA48C32101F0D8F9BD
:1004A0006B68012B22D9112B20D0022B1ED0122BCE
:1004B0001CD0A54A934219D002F58012934215D060
:1004C00002F58012934211D0A2F5F81293420DD09A
:1004D00002F58012934209D002F58012934205D0B2
:1004E000032B03D09748C42101F0B2F9AB68022B6B
:1004F00003D99448C52101F0ABF900241DE1A146C0
:100500000126A6402B6803EA0608B04540F0148196
:100510006B68022B01D0122B4BD12B69C3B3092B73
:1005200036D0ABB3A3B39BB393B3012B30D02FD052
:10053000022B2DD02CD02BD0032B29D0042B27D04D
:1005400026D025D0052B23D022D0092B20D0062B56
:100550001ED0092B1CD0072B1AD019D018D0082B6D
:1005600016D015D014D0092B12D011D00A2B0FD0D1
:100570000ED00B2B0CD00C2B0AD009D00D2B07D092
:100580000C2B05D00F2B03D06E48D62101F060F95B
:10059000E308083357F8231004F0070292000F20F5
:1005A000904021EA0000296901FA02F2024347F86B
:1005B00023203A684FEA440A4FF0030B0BFA0AFB78
:1005C0006FEA0B0B0BEA02026B6803F0030303FAFA
:1005D0000AF313433B606B685A1E012A03D9112B9F
:1005E00001D0122B19D1EB68032B03D95548E9210F
:1005F00001F02EF9BA680BEA0202EB6803FA0AF37B
:100600001343BB607B6823EA06066B68C3F30013E1
:1006100003FA09F949EA06067E60FB680BEA030B58
:10062000AB6803FA0AF343EA0B03FB606B6813F051
:10063000805F00F08180454B5A6C42F480425A64DE
:10064000A308991C424A52F8210004F003029200C8
:100650000F21914020EA01013E48874236D000F543
:100660008060874230D000F5806087422AD000F554
:100670008060874224D000F5806087421ED000F55C
:100680008060874218D000F58060874212D000F564
:10069000806087420CD000F58060874206D000F56C
:1006A0008060874214BF0A20092010E008200EE075
:1006B00007200CE006200AE0052008E0042006E000
:1006C000032004E0022002E0012000E0002000FA04
:1006D00002F20A4302331E4941F823201E4B1A68D6
:1006E0006FEA080303EA0201686810F4803F18BF4C
:1006F00048EA0201184A1160526803EA0201686878
:1007000010F4003F18BF48EA0201134A5160926892
:1007100003EA0201686810F4801F18BF48EA02016A
:100720000D4A9160D2681340696811F4001F18BF28
:1007300048EA0203084AD36001340F2C7FF6DFAE8B
:10074000BDE8F88F641C000800001110003802405A
:100750000038014000000240003C014038B5054629
:100760000C4621B9054840F2851101F071F82B695A
:1007700003EA0400003018BF012038BD641C0008E3
:10078000F8B504460D461646FFF7F0FD074627E08C
:100790002368596911F4806F11D01A6842F400720D
:1007A0001A6023686FF480625A61042384F836303B
:1007B000012084F83500002384F83430F8BDB6F108
:1007C000FF3F0DD026B1FFF7D1FDC01BB04207D9C6
:1007D000012384F83530002384F834300320F8BD39
:1007E000C5F30743012B23680CBF5B699B6925EAAE
:1007F00003039BB2003318BF0123002BC8D1002094
:10080000F8BD00BF2DE9F04106460C4690461D4656
:10081000FFF7ACFD0746B8F1000F12D035E0B5F197
:10082000FF3F0ED025B1FFF7A1FDC01BA84208D99C
:10083000012386F83530002386F834300320BDE8E4
:10084000F081C4F30743012B33680CBF5B699B69DC
:1008500024EA03039BB2003318BF0123002BDED12F
:100860000020BDE8F081B5F1FF3F0ED025B1FFF7C4
:100870007DFDC01BA84208D9012386F8353000232E
:1008800086F834300320BDE8F081C4F30743012B20
:1008900033680CBF5B699B6924EA03039BB2D3F105
:1008A000010338BF0023002BDDD10020BDE8F0811B
:1008B000F8B504460F46164605682B6843F4807366
:1008C0002B604FF0011100223346FFF79BFF0028F9
:1008D0002FD12369B3F5804F04D1236807F0FE07B9
:1008E0001F6117E0236807F44072D21142F0F00252
:1008F0001A61204610493246FFF742FF38B194F89A
:100900003630DBB2042B14BF0323012312E023682B
:10091000FFB21F61204609493246FFF731FF034607
:1009200040B194F83630DBB2042B14BF032301230B
:1009300000E003231846F8BD080001000200010092
:10094000F8B504460F46164605682B6843F48063E5
:100950002B6005682B6843F480732B604FF0011106
:1009600000223346FFF74EFF002851D12369B3F52B
:10097000804F05D1236847F00107FFB21F6138E0BF
:10098000236807F44075ED0945F0F0021A6120462E
:1009900022493246FFF7F4FE38B194F83630DBB224
:1009A000042B14BF0323012335E02368FFB21F612A
:1009B00020461B493246FFF7E3FE38B194F8363043
:1009C000DBB2042B14BF0323012324E023685A69FC
:1009D0009A691A6842F480721A6020464FF0011139
:1009E00000223346FFF70EFFA0B9236845F0F1055A
:1009F0001D6120460A493246FFF7C2FE034650B148
:100A000094F83630DBB2042B14BF0323012302E039
:100A1000032300E003231846F8BD00BF08000100CF
:100A20000200010038B50446002800F0DE800368AB
:100A30006F4A93420CD002F58062934208D002F5CF
:100A40008062934204D06B4840F2211100F000FF15
:100A50006368013B684A934204D966484FF4917138
:100A600000F0F6FEA3683BB1B3F5804F04D06148B7
:100A700040F2231100F0ECFEE36823F47F7323F0CF
:100A8000030323B15B484FF4927100F0E1FE236948
:100A9000B3F5804F07D0B3F5404F04D0554840F22E
:100AA000251100F0D5FE6369012B04D951484FF49C
:100AB000937100F0CDFEA36933F0FE0204D04D48DF
:100AC00040F2271100F0C4FEE36933B1402B04D09B
:100AD00048484FF4947100F0BBFE236A33B1802B79
:100AE00004D0444840F2291100F0B2FE94F83530A9
:100AF00013F0FF0F02D1204600F0FAFF022384F822
:100B0000353023681A6822F001021A6000F058FE9E
:100B10003A4BA3FB00539B0C226853602168626828
:100B2000374DAA4201D8013308E04FF4967202FB18
:100B300003F3344AA2FB03539B0901330B6222687F
:100B400063682F498B4208D85B00B0FBF3F0C0F319
:100B50000B03032B98BF04202BE0A16851B903EBD2
:100B60004305B0FBF5F5C5F30B05D5F1010538BF1D
:100B700000250BE003EB830505EB8505B0FBF5F5E0
:100B8000C5F30B05D5F1010538BF002585B931B98D
:100B900003EB4303B0FBF3F040F4004009E003EB48
:100BA000830303EB8303B0FBF3F040F4404000E029
:100BB0000120D0612368E169226A0A431A60236830
:100BC0002169E2680A439A6023686169A2690A435D
:100BD000DA6023681A6842F001021A60002084F883
:100BE0003600012384F8353038BD012038BD00BF00
:100BF00000540040941C00087F1A060083DE1B434B
:100C0000A0860100D34D621070B5044616461D46FD
:100C100090F83500C0B2012861D1002A61D0002BC4
:100C200061D023689B6913F0020F5ED194F83430D1
:100C3000012B5CD0012384F83430122384F8353042
:100C4000002384F836302046049AFFF731FE58B16D
:100C500094F83630DBB2042B4FF0000384F83430C4
:100C60000CBF0123032349E023685A699B6919E0FB
:100C7000204623490022049BFFF7C4FD002838D1F9
:100C80002268731C31781161013DADB2226851694F
:100C900011F0040F05D025B1B31C71781161013D2D
:100CA000ADB21E46002DE3D1204615490022049B1B
:100CB000FFF7A8FDF8B923681A6842F400721A60B9
:100CC000204610490122049BFFF79CFD0346A0B972
:100CD000012284F83520002284F834200EE002231B
:100CE0000CE001230AE0012308E0022306E00223CE
:100CF00004E0032302E0032300E00323184670BD51
:100D0000800001000200100070B5044616461D4622
:100D100090F83500C0B2012840F0DB80002A00F0D6
:100D2000DA80002B00F0D98023689B6913F0020F52
:100D300040F0D58094F83430012B00F0D2800123AC
:100D400084F83430222384F83530002384F8363098
:100D50002046049AFFF7F4FD58B194F83630DBB220
:100D6000042B4FF0000384F834300CBF012303231D
:100D7000C4E0012D0CD123681A6822F480621A6045
:100D800023685A699A691A6842F400721A608AE004
:100D9000022D0DD123681A6822F480621A6023683C
:100DA0001A6842F400621A6023685A699B697AE003
:100DB00023681A6842F480621A6023685A699B6942
:100DC00071E0032D55D8012D0FD120464C4900224A
:100DD000049BFFF717FD002840F0858023681B69FE
:100DE0003370013DADB201365DE0022D18D12046D1
:100DF00044490022049BFFF705FD002875D12368B4
:100E00001A6842F400721A6023681A69334603F8BC
:100E1000022B226812697270023DADB21E4642E09A
:100E2000204638490022049BFFF7ECFC00285ED1E5
:100E300023681A6822F480621A6023681B69337081
:100E4000013DADB220462F490022049BFFF7DAFC9A
:100E500000284ED123681A6842F400721A60236891
:100E60001B69737023681B69B370023DADB2033612
:100E700019E0204622490022049BFFF7C3FC00280A
:100E800039D1711C23681B693370013DADB22368F1
:100E90005A6912F0040F05D01B697370013DADB2A1
:100EA000023600E00E46002D8BD123681A6822F42A
:100EB00000621A60204614490122049BFFF7A2FC3D
:100EC0000346D0B9012284F83520002284F834206A
:100ED00014E0022312E0012310E001230EE00223BC
:100EE0000CE002230AE0032308E0032306E00323C7
:100EF00004E0032302E0032300E00323184670BD4F
:100F000040000100040001000200100090F83600CB
:100F1000704700BF704700BF38B5044603680F2B09
:100F200003D9B248FD2100F093FC236813F0010FB0
:100F300061D06368012B06D9052B04D0AB484FF470
:100F4000817100F085FCAA4B9B6803F00C03042B15
:100F50000AD0A74B9B6803F00C03082B0ED1A44BBF
:100F60005B6813F4800F09D0A14B1B6813F4003F9A
:100F700041D06368012B40F0FF813CE000229D4B93
:100F80001A70FFF7F3F9054607E0FFF7EFF9401B8A
:100F900041F28833984200F2F181954B1B6813F4BB
:100FA000003FF2D12279934B1A706368012B11D163
:100FB000FFF7DCF9054607E0FFF7D8F9401B41F2DF
:100FC0008833984200F2DC81894B1B6813F4003FA0
:100FD000F2D010E0FFF7CAF9054607E0FFF7C6F9BF
:100FE000401B41F28833984200F2CC81804B1B6851
:100FF00013F4003FF2D1236813F0020F6ED0E368C0
:10100000012B04D979484FF4A17100F021FC236928
:101010001F2B04D9754840F2431100F019FC744BA2
:101020009B6813F00C0F0AD0714B9B6803F00C0304
:10103000082B1DD16E4B5B6813F4800F18D16C4BDD
:101040001B6813F0020F03D0E368012B40F09C8172
:10105000674B1A6822F0F8022369F82191FAA1F18E
:10106000B1FA81F1C9B28B401343614A136035E094
:10107000E3680BB30122604B1A60FFF777F905466E
:1010800005E0FFF773F9401B642800F27F81584B9D
:101090001B6813F0020FF4D0554B1A6822F0F802C7
:1010A0002369F82191FAA1F1B1FA81F1C9B28B401B
:1010B0001A434F4B1A6011E000224F4B1A60FFF7A2
:1010C00055F9054605E0FFF751F9401B642800F289
:1010D0005F81474B1B6813F0020FF4D1236813F0B4
:1010E000080F2ED06369012B04D940484FF4C17119
:1010F00000F0AEFB636993B10122404B1A60FFF729
:1011000035F9054605E0FFF731F9401B642800F288
:101110004181374B5B6F13F0020FF4D011E00022D6
:10112000364B1A60FFF722F9054605E0FFF71EF976
:10113000401B642800F230812D4B5B6F13F0020FCF
:10114000F4D1236813F0040F6FD0A368012B06D9E4
:10115000052B04D025484FF4D67100F079FB244BC1
:101160001A6C42F080521A64A3F5E4331A6842F410
:1011700080721A60FFF7FAF8054605E0FFF7F6F807
:10118000401B642800F20A811D4B1B6813F4807F0A
:10119000F4D000221B4B1A70FFF7E8F8054607E071
:1011A000FFF7E4F8401B41F28833984200F2F880E0
:1011B0000F4B1B6F13F0020FF2D1227A114B1A70F2
:1011C000A368012B20D1FFF7D1F8054607E0FFF710
:1011D000CDF8401B41F28833984200F2E380044B83
:1011E0001B6F13F0020FF2D01FE000BFD41C0008E9
:1011F000003802400238024000004742800E474259
:101200000070004070380240FFF7B0F8054607E074
:10121000FFF7ACF8401B41F28833984200F2C480DB
:10122000674B1B6F13F0020FF2D1A369022B04D995
:1012300064484FF4F87100F00BFBA369002B00F039
:10124000B5805F4A926802F00C02082A00F0B08074
:10125000022B7ED1E3693BB1B3F5800F04D059482E
:1012600040F2F91100F0F4FA236A3F2B04D95548F3
:101270004FF4FD7100F0ECFA636AC03BF02B04D927
:10128000504840F2FB1100F0E3FAA36A022B0AD0A7
:10129000042B08D0062B06D0082B04D049484FF465
:1012A000FE7100F0D5FAE36A043B0B2B04D94548E4
:1012B00040F2FD1100F0CCFA0022434B1A60FFF718
:1012C00055F8054604E0FFF751F8401B642871D833
:1012D0003B4B1B6813F0007FF5D1236A626A47F627
:1012E000C07191FAA1F1B1FA81F1C9B28A4043EA21
:1012F0000201A36A5B085A1E4FF4403393FAA3F32A
:10130000B3FA83F3DBB29A400A43E3691343E16A19
:101310004FF0706292FAA2F2B2FA82F2D2B201FAFD
:1013200002F21A4342F00052254B5A600122264B2A
:101330001A60FFF71BF8044604E0FFF717F8001BDC
:10134000642839D81E4B1B6813F0007FF5D00020AD
:1013500038BD00221C4B1A60FFF708F8044604E071
:10136000FFF704F8001B642828D8154B1B6813F0FE
:10137000007FF5D1002038BD012038BD032038BDE5
:10138000032038BD032038BD012038BD032038BDFF
:10139000032038BD032038BD032038BD032038BDED
:1013A000032038BD032038BD032038BD002038BDE0
:1013B000012038BD032038BD032038BD032038BDCF
:1013C00000380240D41C00086000474270B5044653
:1013D0000D460368013B0E2B04D988484FF4187161
:1013E00000F036FA072D04D9844840F2612100F05C
:1013F0002FFA834B1B6803F00F03AB4280F08B8006
:10140000EAB27F4B1A701B6803F00F03AB4240F047
:101410005181236813F0020F1DD0A368A3B1802B64
:1014200012D0902B10D0A02B0ED0B02B0CD0C02BF4
:101430000AD0D02B08D0E02B06D0F02B04D06F4878
:1014400040F2772100F004FA6E4B996821F0F00128
:10145000A2680A439A60236813F0010F00F0E88045
:101460006368022B04D9654840F27E2100F0F0F950
:101470006368012B05D1634A126812F4003F0ED154
:101480001AE1022B05D15F4A126812F0007F06D1E3
:1014900014E15C4A126812F0020F00F01181594AFF
:1014A000916821F003010B439360FEF75FFF05464F
:1014B0006368012B0FD107E0FEF758FF401B41F294
:1014C0008833984200F2FE804E4B9B6803F00C0379
:1014D000042BF1D1ACE0022B17D107E0FEF746FF59
:1014E000401B41F28833984200F2EE80454B9B68E6
:1014F00003F00C03082BF1D19AE0FEF737FF401BF5
:1015000041F28833984200F2E1803E4B9B6813F031
:101510000C0FF2D18CE0236813F0020F1DD0A368EA
:10152000A3B1802B12D0902B10D0A02B0ED0B02BBB
:101530000CD0C02B0AD0D02B08D0E02B06D0F02B3B
:1015400004D02E4840F2C62100F082F92D4B996854
:1015500021F0F001A2680A439A60236813F0010F9A
:101560005ED06368022B04D9244840F2CD2100F0FC
:101570006FF96368012B05D1224A126812F4003F0B
:101580000ED1A5E0022B05D11E4A126812F0007F91
:1015900006D19FE01B4A126812F0020F00F09C80F7
:1015A000184A916821F003010B439360FEF7DEFEB9
:1015B00006466368012B0FD107E0FEF7D7FE801BBC
:1015C00041F28833984200F289800E4B9B6803F009
:1015D0000C03042BF1D123E0022B1CD106E0FEF713
:1015E000C5FE801B41F28833984279D8054B9B6831
:1015F00003F00C03082BF2D112E000BFD41C00084A
:10160000003C024000380240FEF7B0FE801B41F271
:101610008833984266D8354B9B6813F00C0FF3D192
:10162000EAB2334B1A701B6803F00F03AB425BD175
:10163000236813F0040F19D0E36883B1B3F5805F1A
:101640000DD0B3F5A05F0AD0B3F5C05F07D0B3F5F6
:10165000E05F04D0274840F21D3100F0F9F8234B39
:10166000996821F4E051E2680A439A60236813F014
:10167000080F1AD0236983B1B3F5805F0DD0B3F59D
:10168000A05F0AD0B3F5C05F07D0B3F5E05F04D028
:1016900018484FF4497100F0DBF8144B9A6822F4B3
:1016A0006042216942EAC1029A600F20FEF730FED3
:1016B000002070BD012070BD012070BD012070BDF3
:1016C000012070BD032070BD032070BD032070BDDC
:1016D000012070BD012070BD012070BD032070BDD0
:1016E000032070BD032070BD012070BD0038024092
:1016F000003C0240D41C0008204B9B6803F00C0304
:10170000042B38D0082B01D01D4870471B4B58685C
:1017100000F03F005A6802F480024FF4800393FA0D
:10172000A3F3B3FA83F3DBB232FA03F314BF154B1E
:10173000134BB3FBF0F0114B5A6847F6C0731A40D5
:1017400093FAA3F3B3FA83F3DBB222FA03F303FBB6
:1017500000F00A4B5A6802F440324FF4403393FAD7
:10176000A3F3B3FA83F3DBB222FA03F301335B0092
:10177000B0FBF3F070470348704700BF00380240E9
:101780000024F40000127A0008B5FFF7B5FF094BFA
:101790009A6802F0F002F02393FAA3F3B3FA83F30A
:1017A000DBB222FA03F3044AD35CD840034B18603F
:1017B00008BD00BF00380240C41C00080C00002017
:1017C00008B5FFF7E1FF084B9A6802F4E0524FF4C6
:1017D000E05393FAA3F3B3FA83F3DBB222FA03F3F1
:1017E000024AD35CD84008BD00380240C41C00083F
:1017F000FEE700BF08B50120FFF7FAFF08B50D4B63
:101800001B6813B90C4A0B4B1A600A4B1B68033058
:1018100020F003001844094A904206D900F096F9D6
:101820000C2303604FF0FF3008BD024A10601846D9
:1018300008BD00BF84000020DC00002000FC012067
:1018400001230360014B0B60704700BF04000020C0
:1018500008B5FFF7CFFF00BF08B500F001F808BDDD
:101860000C4B1A6842F001021A60002199601A6854
:1018700022F0847222F480321A60074A5A601A6891
:1018800022F480221A60D9604FF00062034B9A6004
:10189000704700BF003802401030002400ED00E027
:1018A00010B592B0174B1A6C42F080521A64A3F52F
:1018B000E4331A6842F440421A6001230193029310
:1018C000022407944FF480030893082309934FF4EC
:1018D000A8730A930B9407230C9301A8FFF71CFB32
:1018E0000F230D930E9400230F934FF4A0531093E6
:1018F0004FF4805311930DA80521FFF767FD12B037
:1019000010BD00BF0038024008B5FFF7A9FFFEF781
:1019100013FDFEF731FDFFF7C3FF08BDF0B593B02F
:101920002A4B1A6C42F080521A64A3F5E4331A6809
:1019300042F440421A60012601960296022507955C
:101940004FF480030893082309934FF4A8730A9374
:101950000B9507230C9301A8FFF7DEFA0F270D97CD
:101960000E9500240F944FF4A05310934FF480531E
:1019700011930DA80521FFF729FD1548154A0260AE
:101980004FF4804202611449416044618260C46145
:101990000462C760FE228261FFF744F820462146B8
:1019A00000F064F8284600F0D7F80C4F386028465D
:1019B00000F0D2F80A4B18603A6814703A68567012
:1019C0001A6814701B685E7013B0F0BD00380240D6
:1019D0009C00002000540040801A0600D400002023
:1019E0009800002000B583B0002000F077F80128AF
:1019F000FAD1002000F072F80028FAD102E0114874
:101A0000FFF784FA104B1A6842F2107300930D48E6
:101A10000F210223FFF7F8F80028F0D102E009486F
:101A2000FFF774FA094B1A6842F2107300930548E5
:101A30000F210223FFF768F90028F0D103B05DF809
:101A400004FB00BF9C000020D40000209800002070
:101A50000120704708B5FFF761FF01E0FFF7C2FF03
:101A6000FFF7F6FF0028F9D108BD00BF30B587B0F9
:101A70000546174B1A6B42F001021A630C4661B916
:101A80000123019300230293039302230493114B38
:101A900053F8200001A9FEF7F9FC012C15D1012310
:101AA000019300240394022304930B4B0293094BEC
:101AB00053F8250001A9FEF7E9FC06200F21224674
:101AC000FEF780FC0620FEF7BFFC07B030BD00BF6C
:101AD00000380240100000200000111008B5034B30
:101AE00053F820000121FEF739FE08BD1000002048
:101AF00070B586B0134C236B43F002032363236B52
:101B000043F0020323634023019312230293012332
:101B1000039302230493042605960B4D28460DEBF0
:101B20000601FEF7B3FC4FF40073019305962846B7
:101B30000DEB0601FEF7AAFC236C43F400132364AB
:101B400006B070BD0038024000040240014B186826
:101B5000704700BF74000020024B0146186800F077
:101B600003B800BF7400002070B5CD1C25F003053C
:101B700008350C2D38BF0C25002D06463FDB8D4265
:101B80003DD3214B1C6818462146A1B10B685B1B55
:101B90000ED40B2B03D90B60CC18CD501FE08C4218
:101BA00002D1626802601AE04B6863600C4616E07E
:101BB0000C464968E9E7154C23681BB9304600F02C
:101BC00027F820602946304600F022F8431C0146E1
:101BD00015D0C41C24F0030484420AD1256004F10A
:101BE0000B00231D20F00700C31A0BD05A42E2500D
:101BF00070BD3046611A00F00BF80130EED10C23B5
:101C00003360002070BD00BF900000208C000020D9
:101C100038B5064C0023054608462360FFF7EEFD65
:101C2000431C02D1236803B12B6038BD940000200F
:101C30002E2E2F73797374656D2F7372632F7374E7
:101C40006D333266342D68616C2F73746D33326678
:101C50003478785F68616C5F636F727465782E6347
:101C6000000000002E2E2F73797374656D2F737230
:101C7000632F73746D333266342D68616C2F737407
:101C80006D3332663478785F68616C5F6770696F56
:101C90002E6300002E2E2F73797374656D2F73726F
:101CA000632F73746D333266342D68616C2F7374D7
:101CB0006D3332663478785F68616C5F6932632EA9
:101CC000630000000000000001020304010203049D
:101CD000060708092E2E2F73797374656D2F7372A2
:101CE000632F73746D333266342D68616C2F737497
:101CF0006D3332663478785F68616C5F7263632E2F
:061D000063000000430037
:101D08007856341288000020000000000024F400F7
:101D18000000024000000000000000000000000079
:101D280000000000000000000000000000000000AB
:101D380000000000041D0008000000000000000072
:101D4800000000000000000000000000000000008B
:101D5800000000000000000000000000000000007B
:101D6800000000000000000000000000000000006B
:0C1D780000000000140000203254769897
:040000050800018965
:00000001FF
