:020000040800F2
:1000000000000220B9020008C1020008C502000871
:10001000C9020008CD020008D1020008000000005B
:10002000000000000000000000000000D5020008F1
:10003000D902000800000000DD020008E10200080B
:10004000E5020008E5020008E5020008E5020008F4
:10005000E5020008E5020008E5020008E5020008E4
:10006000E5020008E5020008E5020008E5020008D4
:10007000E5020008E5020008E5020008E5020008C4
:10008000E5020008E5020008E5020008E5020008B4
:10009000E5020008E5020008E5020008E5020008A4
:1000A000E5020008E5020008E5020008E502000894
:1000B000E5020008E5020008E5020008E502000884
:1000C000E5020008E5020008E5020008E502000874
:1000D000E5020008E5020008E5020008E502000864
:1000E000E5020008E5020008E5020008E502000854
:1000F000E5020008E5020008E5020008E502000844
:10010000E5020008E5020008E5020008E502000833
:10011000E5020008E5020008E5020008E502000823
:10012000E5020008E5020008E5020008E502000813
:10013000E5020008E5020008E5020008E502000803
:10014000E5020008E5020008E5020008E5020008F3
:10015000E5020008E5020008E5020008E5020008E3
:10016000E5020008E5020008E5020008E5020008D3
:10017000E5020008E5020008E502000800000000B2
:10018000E5020008E502000800B583B001F0A2FA1C
:10019000384B394A1360394A136039490CE00A6810
:1001A0004B6801F10C04886803E01168196004339E
:1001B00004329842F9D82146324B9942EFD32E4B64
:1001C0001A68314B9A4204D12C4B1A682F4B9A4231
:1001D00000D0FEE7274B2E4A13602E4A13602E4BA9
:1001E0000AE0194651F8082B5B6802E00020106015
:1001F00004329A42FAD30B46284A9342F1D3244B55
:100200001B6813B9234B1B6803B1FEE701F0BAFA70
:1002100001A8694601F052FA214C224B1C1BA41084
:10022000002504E01E4B53F8253098470135AC42B9
:10023000F8DC1D4C1D4B1C1BA410002504E01A4BC0
:1002400053F8253098470135AC42F8DC0198009905
:1002500001F090FB0546164C164B1C1BA41004E045
:10026000013C134B53F824309847002CF8DC284607
:1002700001F0FCF9BABADECA0000002088000020B4
:10028000E8020008000300087856341232547698C9
:100290008C000020EC000020000300081003000880
:1002A00010030008100300081003000810030008E2
:1002B000100300081003000808B5FFF765FF00BF32
:1002C000FEE700BFFEE700BFFEE700BFFEE700BF9E
:1002D000FEE700BFFEE700BFFEE700BFFEE700BF8E
:0802E000704700BFFEE700BFFC
:1002E800B41D0008000000208C000020B41D000888
:1002F80000000010000000108C000020F00000201A
:080308000000001000000010CD
:1003100010B5044601F076F9064BA3FB00308009C6
:1003200000F09EF84FF0FF302146002200F04AF81E
:10033000002010BDD34D621008B50B4B1A6842F473
:1003400000721A601A6842F480621A601A6842F4F5
:1003500080721A60032000F017F80F20FFF7D8FF13
:1003600000F008FD002008BD003C0240014B186869
:10037000704700BF90000020024A136823F0020378
:100380001360704710E000E010B50446C31E042B54
:1003900003D90A48A42101F099F904F00700084A9A
:1003A000D36823F4E0631B041B0C43EA002040F0F5
:1003B000BF6040F40030D06010BD00BFD41C000806
:1003C00000ED00E070B504460E4615460F2A03D92D
:1003D0001A48BC2101F07AF90F2E03D91748BD2124
:1003E00001F074F9164BDB68C3F30223C3F1070273
:1003F000042A28BF0422191D062901D9D81E00E0AD
:100400000020012303FA02F2013A324002FA00F11D
:1004100083405A1E2A400A43002C06DA04F00F04D7
:100420001201D2B2074B1A5570BD1201D2B204F1BB
:10043000604404F5614484F8002370BDD41C0008B6
:1004400000ED00E014ED00E0410900F01F00012381
:100450008340024A42F82130704700BF00E100E0CB
:100460000138B0F1807F0AD2064B5860F021064A6D
:1004700082F823100020986007221A60704701203C
:10048000704700BF10E000E000ED00E02DE9F84FFC
:1004900080460F460B881BB9AC48C32101F016F902
:1004A0007B68012B22D9112B20D0022B1ED0122BBE
:1004B0001CD0A74A934219D002F58012934215D05E
:1004C00002F58012934211D0A2F5F81293420DD09A
:1004D00002F58012934209D002F58012934205D0B2
:1004E000032B03D09948C42101F0F0F8BB68022B1C
:1004F00003D99648C52101F0E9F8002420E1A1467E
:100500000125A5403B6803EA050AAA4540F017818A
:100510007B68022B01D0122B4AD13B69C3B3092B54
:1005200036D0ABB3A3B39BB393B3012B30D02FD052
:10053000022B2DD02CD02BD0032B29D0042B27D04D
:1005400026D025D0052B23D022D0092B20D0062B56
:100550001ED0092B1CD0072B1AD019D018D0082B6D
:1005600016D015D014D0092B12D011D00A2B0FD0D1
:100570000ED00B2B0CD00C2B0AD009D00D2B07D092
:100580000C2B05D00F2B03D07048D62101F09EF81C
:10059000E608083658F8261004F0070080000F23FC
:1005A000834021EA03023B698340134348F8263025
:1005B000D8F800304FEA440B032606FA0BF6F64350
:1005C00006EA03027B6803F0030303FA0BF3134309
:1005D000C8F800307B685A1E012A03D9112B01D0BC
:1005E000122B1CD1FB68032B03D95848E92101F0D9
:1005F0006DF8D8F8083006EA0302FB6803FA0BF33B
:100600001343C8F80830D8F8043023EA05037D689E
:10061000C5F3001505FA09F51D43C8F80450D8F8CC
:100620000C303340BE6806FA0BF61E43C8F80C6067
:100630007B6813F0805F00F08280464A536C43F47D
:1006400080435364A308991CA2F5803252F821100C
:1006500004F0030080000F22824021EA02013E4A9A
:10066000904537D002F58062904531D002F5806226
:1006700090452BD002F58062904525D002F580622E
:1006800090451FD002F58062904519D002F5806236
:10069000904513D002F5806290450DD002F580623E
:1006A000904507D002F58062904501D1092212E001
:1006B0000A2210E008220EE007220CE006220AE0DF
:1006C000052208E0042206E0032204E0022202E000
:1006D000012200E0002282400A4302331F4941F810
:1006E00023201F4B1A686FEA0A0303EA02017868A5
:1006F00010F4803F01D04AEA0201194A11605268A1
:1007000003EA0201786810F4003F01D04AEA0201CE
:10071000134A5160926803EA0201786810F4801F5E
:1007200001D04AEA02010E4A9160D268134079680A
:1007300011F4001F01D04AEA0203094AD3600134D0
:100740000F2C7FF6DCAEBDE8F88F00BF081D000857
:100750000000111000380240000002400038014043
:10076000003C0140F0B5002342E001229A4001EA3A
:10077000020595423BD106685F000324BC40E44378
:1007800026400660DF08083750F827E003F0070C22
:100790004FEA8C0C0F2606FA0CFC2EEA0C0E40F8E1
:1007A00027E0876827408760476827EA020242609F
:1007B000C2681440C46003F00302920096409A0895
:1007C0000D4F023257F8224024EA060647F822600D
:1007D0000A4C2668EA4306EA02052560656815406A
:1007E0006560A5681540A560E5682A40E2600133B0
:1007F0000F2BBAD9F0BD00BF00380140003C0140CA
:1008000070B5054614460E4621B908484FF4D37119
:1008100000F05CFF012C04D9044840F2A71100F05D
:1008200055FF0CB12E8370BD6E8370BD081D00088E
:100830002DE9F04106460C4690461D46FFF796FD11
:100840000746B8F1000F12D03DE0B5F1FF3F0ED0E2
:1008500025B1FFF78BFDC01BA84208D9012386F8FC
:100860003530002386F834300320BDE8F081C4F32E
:100870000743012B08D133685B6924EA03039BB269
:10088000003318BF012307E033689B6924EA0303A0
:100890009BB2003318BF0123002BD6D10020BDE846
:1008A000F081B5F1FF3F0ED025B1FFF75FFDC01B12
:1008B000A84208D9012386F83530002386F8343061
:1008C0000320BDE8F081C4F30743012B08D133684E
:1008D0005B6924EA03039BB2B3FA83F35B0907E085
:1008E00033689B6924EA03039BB2B3FA83F35B0981
:1008F000002BD6D10020BDE8F08100BF002800F019
:10090000DE8038B5044603686E4A93420CD002F587
:100910008062934208D002F58062934204D06A4814
:1009200040F2211100F0D2FE6368013B674A934216
:1009300004D965484FF4917100F0C8FEA3683BB13B
:10094000B3F5804F04D0604840F2231100F0BEFEA2
:10095000E36823F47F7323F0030323B15A484FF471
:10096000927100F0B3FE2369B3F5804F07D0B3F561
:10097000404F04D0544840F2251100F0A7FE6369AF
:10098000012B04D950484FF4937100F09FFEA369E6
:1009900033F0FE0304D04C4840F2271100F096FEDD
:1009A000E36933B1402B04D047484FF4947100F011
:1009B0008DFE236A33B1802B04D0434840F22911C5
:1009C00000F084FE94F8353013F0FF0F02D120467A
:1009D00001F078F8022384F835302268136823F098
:1009E0000103136000F02AFE394BA3FB00239B0C8C
:1009F0002268536021686568364A954201D8013300
:100A000008E04FF4967202FB03F3334AA2FB032380
:100A10009B0901330B62216863682E4A934208D810
:100A20005B00B0FBF3F0C0F30B03032B2BD80420C7
:100A300029E0A5684DB903EB4302B0FBF2F2C2F323
:100A40000B02B2FA82F252090AE003EB830202EBD4
:100A50008202B0FBF2F2C2F30B02B2FA82F2520946
:100A600082B935B903EB4303B0FBF3F040F4004027
:100A700009E003EB830303EB8303B0FBF3F040F4E3
:100A8000404000E00120C8612268E169236A0B430D
:100A9000136022682169E3680B43936022686169EF
:100AA000A3690B43D3602268136843F0010313600A
:100AB000002084F83600012384F8353038BD012049
:100AC000704700BF00540040381D00087F1A060020
:100AD00083DE1B43A0860100D34D621028B310B5FE
:100AE00004460368124A93420CD002F58062934296
:100AF00008D002F58062934204D00E484FF4B671DC
:100B000000F0E4FD022384F835302268136823F0F6
:100B100001031360204601F003F8002084F836003A
:100B200084F8350084F8340010BD0120704700BF00
:100B300000540040381D0008F8B504461F4690F8E0
:100B40003530DBB2012B70D10E46154600296ED030
:100B5000002A6ED003689A6912F0020F6BD190F8E8
:100B60003420012A69D0012280F83420122280F832
:100B70003520002280F83620196841F48061196020
:100B800034493B46FFF754FE002858D123685A6980
:100B90009B692369B3F5404F25D120462D4900229A
:100BA0003B46FFF745FE00284BD123685A699B69F5
:100BB00019E02046284900223B46FFF739FE00286D
:100BC00041D12268731C31781161013DADB22268B8
:100BD000516911F0040F05D025B1B31C7178116172
:100BE000013DADB21E46002DE3D120464FF48231C7
:100BF00000223B46FFF71CFE38BB23686FF480627F
:100C00005A612268136823F48063136020461349F5
:100C100001223B46FFF70CFE0346C0B9012284F8CF
:100C20003520002284F8342012E0022310E0012352
:100C30000EE001230CE002230AE0022308E0032374
:100C400006E0032304E0032302E0032300E0032380
:100C50001846F8BD020001008000010002001000EB
:100C6000F8B504461F4690F83530DBB2012B62D14F
:100C70000E461546002960D0002A60D003689A69A4
:100C800012F0020F5DD190F83420012A5BD00122CE
:100C900080F83420222280F83520002280F8362087
:100CA000196841F4806119602C493B46FFF7C0FD8B
:100CB00000284AD123685A699B6919E020462849CF
:100CC00000223B46FFF7B4FD002840D1731C226888
:100CD00012693270013DADB22268516911F0040F02
:100CE00005D025B1B31C12697270013DADB21E462C
:100CF000002DE3D120461B4900223B46FFF798FD1B
:100D000038BB23685A691A6842F001021A602268E7
:100D1000136823F4806313602046134901223B4685
:100D2000FFF786FD0346B0B9012284F83520002282
:100D300084F8342010E002230EE001230CE00123AC
:100D40000AE0022308E0022306E0032304E0032371
:100D500002E0032300E003231846F8BD020001006F
:100D600040000100100001000200100090F8360061
:100D7000704700BF704700BF38B5044603680F2BAB
:100D800003D9B348FD2100F0A1FC236813F0010F43
:100D900061D06368012B06D9052B04D0AC484FF411
:100DA000817100F093FCAB4B9B6803F00C03042BA8
:100DB0000AD0A84B9B6803F00C03082B0ED1A54B5F
:100DC0005B6813F4800F09D0A24B1B6813F4003F3B
:100DD00041D06368012B40F0FE813CE000229E4B35
:100DE0001A70FFF7C3FA054607E0FFF7BFFA401B8A
:100DF00041F28833984200F2F081964B1B6813F45D
:100E0000003FF2D12279944B1A706368012B11D103
:100E1000FFF7ACFA054607E0FFF7A8FA401B41F2DE
:100E20008833984200F2DB818A4B1B6813F4003F41
:100E3000F2D010E0FFF79AFA054607E0FFF796FABE
:100E4000401B41F28833984200F2CB81814B1B68F2
:100E500013F4003FF2D1236813F0020F6DD0E36862
:100E6000012B04D97A484FF4A17100F02FFC2369BB
:100E70001F2B04D9764840F2431100F027FC754B34
:100E80009B6813F00C0F0AD0724B9B6803F00C03A5
:100E9000082B1CD16F4B5B6813F4800F17D16D4B7F
:100EA0001B6813F0020F03D0E368012B40F09B8115
:100EB0006848026822F0F8012269F82393FAA3F344
:100EC000B3FA83F3DBB29A400A43026035E0E36889
:100ED0000BB30122614B1A60FFF748FA054605E0A3
:100EE000FFF744FA401B642800F27F81594B1B68CE
:100EF00013F0020FF4D05748036823F0F801226979
:100F0000F82393FAA3F3B3FA83F3DBB29A4041EAEE
:100F10000203036011E00022504B1A60FFF726FA2B
:100F2000054605E0FFF722FA401B642800F25F81C6
:100F3000484B1B6813F0020FF4D1236813F0080F1D
:100F40002ED06369012B04D941484FF4C17100F0E0
:100F5000BDFB636993B10122414B1A60FFF706FAAA
:100F6000054605E0FFF702FA401B642800F24181C4
:100F7000384B5B6F13F0020FF4D011E00022384BB6
:100F80001A60FFF7F3F9054605E0FFF7EFF9401B9C
:100F9000642800F230812F4B5B6F13F0020FF4D105
:100FA000236813F0040F6ED0A368012B06D9052B1C
:100FB00004D027484FF4D67100F088FB254A136C03
:100FC00043F080531364A2F5E432136843F4807352
:100FD0001360FFF7CBF9054605E0FFF7C7F9401BA3
:100FE000642800F20A811F4B1B6813F4807FF4D041
:100FF00000221D4B1A70FFF7B9F9054607E0FFF70D
:10100000B5F9401B41F28833984200F2F880114B49
:101010001B6F13F0020FF2D1227A134B1A70A368E0
:10102000012B11D1FFF7A2F9054607E0FFF79EF962
:10103000401B41F28833984200F2E380054B1B6F5E
:1010400013F0020FF2D01EE0FFF790F9054615E00D
:10105000781D000800380240023802400000474274
:10106000800E47420070004070380240FFF77EF962
:10107000401B41F28833984200F2C580684B1B6FD9
:1010800013F0020FF2D1A369022B04D965484FF483
:10109000F87100F01BFBA369002B00F0B680604ADA
:1010A000926802F00C02082A00F0B180022B7FD176
:1010B000E3693BB1B3F5800F04D05A4840F2F9110F
:1010C00000F004FB236A3F2B04D956484FF4FD710E
:1010D00000F0FCFA636AC03BF02B04D9514840F29F
:1010E000FB1100F0F3FAA36A022B0AD0042B08D0FC
:1010F000062B06D0082B04D04A484FF4FE7100F0AE
:10110000E5FAE36A043B0B2B04D9464840F2FD1193
:1011100000F0DCFA0022444B1A60FFF727F905467D
:1011200004E0FFF723F9401B642872D83C4B1B688E
:1011300013F0007FF5D1216A626A47F6C07393FA13
:10114000A3F3B3FA83F3DBB29A401143A36A5B08BB
:10115000013B4FF4403292FAA2F2B2FA82F2D2B2DA
:1011600093400B43E26943EA0201E36A4FF0706285
:1011700092FAA2F2B2FA82F2D2B203FA02F241EA8F
:10118000020343F00053264A53600122264B1A60A3
:10119000FFF7ECF8044604E0FFF7E8F8001B6428CA
:1011A00039D81F4B1B6813F0007FF5D0002038BDE5
:1011B00000221D4B1A60FFF7D9F8044604E0FFF740
:1011C000D5F8001B642828D8154B1B6813F0007F46
:1011D000F5D1002038BD012038BD032038BD0320E3
:1011E00038BD032038BD012038BD032038BD0320A1
:1011F00038BD032038BD032038BD032038BD03208F
:1012000038BD032038BD032038BD002038BD012083
:1012100038BD032038BD032038BD032038BD00BFD2
:1012200000380240781D00086000474270B504464F
:101230000D460368013B0E2B04D988484FF4187102
:1012400000F044FA072D04D9844840F2612100F0EF
:101250003DFA834B1B6803F00F03AB4280F08B8099
:10126000EAB27F4B1A701B6803F00F03AB4240F0E9
:101270005181236813F0020F1DD0A368A3B1802B06
:1012800012D0902B10D0A02B0ED0B02B0CD0C02B96
:101290000AD0D02B08D0E02B06D0F02B04D06F481A
:1012A00040F2772100F012FA6E498B6823F0F002C9
:1012B000A36813438B60236813F0010F00F0E880EC
:1012C0006368022B04D9654840F27E2100F0FEF9E4
:1012D0006268012A05D1634B1B6813F4003F0ED1ED
:1012E0001AE1022A05D15F4B1B6813F0007F06D17B
:1012F00014E15C4B1B6813F0020F00F01181594997
:101300008B6823F0030313438B60FFF72FF8054628
:101310006368012B0FD107E0FFF728F8401B41F26B
:101320008833984200F2FE804E4B9B6803F00C031A
:10133000042BF1D1ACE0022B17D107E0FFF716F830
:10134000401B41F28833984200F2EE80454B9B6887
:1013500003F00C03082BF1D19AE0FFF707F8401BCC
:1013600041F28833984200F2E1803E4B9B6813F0D3
:101370000C0FF2D18CE0236813F0020F1DD0A3688C
:10138000A3B1802B12D0902B10D0A02B0ED0B02B5D
:101390000CD0C02B0AD0D02B08D0E02B06D0F02BDD
:1013A00004D02E4840F2C62100F090F92D498B68F8
:1013B00023F0F002A36813438B60236813F0010F3E
:1013C0005ED06368022B04D9244840F2CD2100F09E
:1013D0007DF96268012A05D1224B1B6813F4003F96
:1013E0000ED1A5E0022A05D11E4B1B6813F0007F29
:1013F00006D19FE01B4B1B6813F0020F00F09C808E
:1014000018498B6823F0030313438B60FEF7AEFF8C
:1014100006466368012B0FD107E0FEF7A7FF801B8C
:1014200041F28833984200F289800E4B9B6803F0AA
:101430000C03042BF1D123E0022B1CD106E0FEF7B4
:1014400095FF801B41F28833984279D8054B9B6801
:1014500003F00C03082BF2D112E000BF781D000846
:10146000003C024000380240FEF780FF801B41F242
:101470008833984266D8354B9B6813F00C0FF3D134
:10148000EAB2334B1A701B6803F00F03AB425BD117
:10149000236813F0040F19D0E36883B1B3F5805FBC
:1014A0000DD0B3F5A05F0AD0B3F5C05F07D0B3F598
:1014B000E05F04D0274840F21D3100F007F92349CE
:1014C0008B6823F4E052E36813438B60236813F0C6
:1014D000080F1AD0236983B1B3F5805F0DD0B3F53F
:1014E000A05F0AD0B3F5C05F07D0B3F5E05F04D0CA
:1014F00018484FF4497100F0E9F8144A936823F44E
:101500006043216943EAC10393600F20FEF700FFA7
:10151000002070BD012070BD012070BD012070BD94
:10152000012070BD032070BD032070BD032070BD7D
:10153000012070BD012070BD012070BD032070BD71
:10154000032070BD032070BD012070BD0038024033
:10155000003C0240781D0008274B9B6803F00C03F9
:10156000042B46D0082B01D024487047224B5868E2
:1015700000F03F00596801F480014FF4800292FAB4
:10158000A2F2B2FA82F2D2B231FA02F310D01C4BBC
:10159000B3FBF0F3184A506847F6C072104092FA55
:1015A000A2F2B2FA82F2D2B2D04000FB03F30FE013
:1015B000124BB3FBF0F3104A506847F6C07210406C
:1015C00092FAA2F2B2FA82F2D2B2D04000FB03F356
:1015D000094A506800F440304FF4403292FAA2F2C7
:1015E000B2FA82F2D2B2D04001304000B3FBF0F048
:1015F00070470348704700BF003802400024F400E1
:1016000000127A0008B5FFF7A7FF094B9B6803F0AB
:10161000F002F02393FAA3F3B3FA83F3DBB222FAD6
:1016200003F3044AD35CD840034B186008BD00BFE5
:1016300000380240681D00080C00002008B5FFF7C4
:10164000E1FF084B9B6803F4E0524FF4E05393FA38
:10165000A3F3B3FA83F3DBB222FA03F3024AD35CB7
:10166000D84008BD00380240681D0008FEE700BFF2
:1016700008B50120FFF7FAFF08B50D4B1B6813B939
:101680000C4A0B4B1A600A4B1A68C31C23F0030365
:10169000134409498B4206D900F05CFA0C2303601D
:1016A0004FF0FF3008BD02490B60104608BD00BF77
:1016B00094000020F000002000FC012001230360C2
:1016C000014B0B60704700BF0400002008B5FFF716
:1016D000CFFF00BF08B500F001F808BD0C4B1A6839
:1016E00042F001021A60002199601A6822F08472A7
:1016F00022F480321A60074A5A601A6822F4802263
:101700001A60D9604FF00062034B9A60704700BFC7
:10171000003802401030002400ED00E010B592B017
:10172000174A136C43F080531364A2F5E432136834
:1017300043F440431360012301930293022407946E
:101740004FF480030893082309934FF4A8730A9376
:101750000B9407230C9301A8FFF70EFB0F230D93A7
:101760000E9400230F934FF4A05310934FF4805323
:1017700011930DA80521FFF759FD12B010BD00BF50
:101780000038024008B5FFF7A9FFFEF7D5FDFEF7C8
:10179000F3FDFFF7C3FF08BD30B593B0334A136CB8
:1017A00043F080531364A2F5E432136843F44043DA
:1017B0001360012301930293022407944FF48003E2
:1017C0000893082309934FF4A8730A930B940723F3
:1017D0000C9301A8FFF7D0FA0F250D950E94002465
:1017E0000F944FF4A05310934FF4805311930DA80E
:1017F0000521FFF71BFD1E481E4B03604FF480437D
:1018000003611D4A426044618360C4610462C56033
:10181000FE238361FFF772F830B1184B1B680C226E
:101820001A70174B1C701EE00020014600F012F9E0
:10183000012000F0B3F8002000F0B0F8022000F022
:10184000ADF8032000F0AAF8012000F089F90B4C54
:101850002060012000F084F90A4A1060216800230A
:101860000B701268137013B030BD00BF0038024017
:10187000B400002000540040801A0600AC00002094
:10188000B0000020A800002010B510E02448FFF7A9
:101890006DFA04280BD02248FFF768FA38B1214BC3
:1018A0001B680A221A7000221F4B1A7010BD1C48B8
:1018B0001E4B1968012242F21073FFF7D1F900287C
:1018C000E4D1184C2368187800F0B4F82268174B5C
:1018D0001B681B78013303F0030313702368187827
:1018E00000F098F810E00E48FFF740FA04280BD0FB
:1018F0000B48FFF73BFA38B10A4B1B680B221A70F2
:101900000022094B1A7010BD0548064B19680122C8
:1019100042F21073FFF710F90028E4D110BD00BFA8
:10192000B4000020AC000020B0000020A80000207F
:101930000120704708B5012000F06CF8002000F08D
:1019400069F8022000F066F8032000F063F806480A
:10195000FFF7C4F8054B186800F00AF9044B186843
:1019600000F006F908BD00BFB4000020A800002068
:10197000AC00002008B5FFF7DBFF074B1870FFF73E
:101980000BFF01E0FFF780FF034B1B78002BF9D121
:10199000FFF7D0FF08BD00BFB000002070B586B0D3
:1019A000044628B9184A136B43F00803136314E084
:1019B000012805D1144A136B43F0080313630CE0AC
:1019C000022805D1104A136B43F00803136304E0A7
:1019D0000D4A136B43F0080313630C4B33F8145098
:1019E000019501230293039302230493084E56F8B2
:1019F000240001A9FEF74AFD56F8240029460022DA
:101A0000FEF7FEFE06B070BD00380240A81D0008BB
:101A10001000002008B50346044A52F82000044A8A
:101A200032F813100122FEF7EBFE08BD1000002073
:101A3000A81D000808B50346044A52F82000044ACD
:101A400032F813100022FEF7DBFE08BD1000002064
:101A5000A81D000830B587B00546174A136B43F040
:101A6000010313630C4661B9012301930023029320
:101A7000039302230493114B53F8200001A9FEF7AE
:101A800005FD012C15D101230193002403940223A9
:101A900004930B4B0293094B53F8250001A9FEF761
:101AA000F5FC06200F212246FEF78CFC0620FEF7EF
:101AB000CBFC07B030BD00BF003802402000002042
:101AC0000000111070B586B0134C236B43F0020375
:101AD0002363236B43F00203236340230193122308
:101AE00002930123039302230493042605960B4DCE
:101AF00028460DEB0601FEF7C9FC4FF40073019375
:101B0000059628460DEB0601FEF7C0FC236C43F456
:101B10000013236406B070BD003802400004024088
:101B200010B50A4B1A6A42F400121A621A6A22F4B9
:101B300000121A62064C20464021FEF713FE204692
:101B40004FF40071FEF70EFE10BD00BF00380240DA
:101B500000040240014B1868704700BF8400002059
:101B6000024B0146186800F04FB800BF8400002007
:101B7000024B0146186800F003B800BF8400002043
:101B800030B500293DD051F8042C0B1F1D49002A07
:101B9000B8BF9B180A680C4612B95A600B6030BD7A
:101BA00093420DD219685818904201BF5A585218E2
:101BB0001A6042685A60236030BD994203D80A46D1
:101BC00051680029F9D1146815199D420AD11B6882
:101BD0002344D0188842136013D10868034413606B
:101BE0004B680DE002D90C23036030BD1C68181946
:101BF000884204BF08684968596004BF001918602A
:101C0000536030BDA000002070B5CC1C24F003044C
:101C100008340C2C38BF0C24002C064603DA0C23A5
:101C20003360002070BD8C42F9D3204A13681046FF
:101C30001946A1B10A68121B0ED40B2A03D90A60F7
:101C40008B188C501FE08B420DBF5A684A685A604F
:101C5000026018BF0B4616E00B464968E9E7144DD1
:101C60002B681BB9304600F025F828603046214625
:101C700000F020F8421C0346D1D0C51C25F0030516
:101C800085420AD11C6003F10B001A1D20F00700E9
:101C9000821A0AD05142995070BD3046E91A00F0BC
:101CA00009F80130BBD02B46ECE770BDA000002046
:101CB0009C00002038B5064C0023054608462360EA
:101CC000FFF7DAFC431C02D1236803B12B6038BD57
:101CD000A40000202E2E2F73797374656D2F7372FC
:101CE000632F73746D333266342D68616C2F737497
:101CF0006D3332663478785F68616C5F636F7274DD
:101D000065782E63000000002E2E2F7379737465A2
:101D10006D2F7372632F73746D333266342D686167
:101D20006C2F73746D3332663478785F68616C5FE2
:101D30006770696F2E6300002E2E2F7379737465A0
:101D40006D2F7372632F73746D333266342D686137
:101D50006C2F73746D3332663478785F68616C5FB2
:101D60006932632E630000000000000001020304DA
:101D700001020304060708092E2E2F737973746578
:101D80006D2F7372632F73746D333266342D6861F7
:101D90006C2F73746D3332663478785F68616C5F72
:101DA0007263632E6300000000100020004000807A
:021DB0004300EE
:101DB4007856341298000020000000000024F4003B
:101DC400000C0240000C0240000C0240000C0240D7
:101DD40000000240000000000000000000000000BD
:101DE40000000000000000000000000000000000EF
:101DF40000000000B01D000800000000000000000A
:101E040000000000000000000000000000000000CE
:101E140000000000000000000000000000000000BE
:101E240000000000000000000000000000000000AE
:0C1E3400000000002400002032547698CA
:040000050800018965
:00000001FF
