:020000040800F2
:1000000000000220B9020008F9820008FD82000801
:100010000183000805830008098300080000000030
:100020000000000000000000000000000D83000838
:1000300011830008000000001583000819830008E0
:10004000BD030008BD030008BD030008BD03000890
:10005000BD030008BD030008BD030008BD03000880
:10006000BD030008BD030008BD030008BD03000870
:10007000BD030008BD030008BD030008BD03000860
:10008000BD030008BD030008BD030008BD03000850
:10009000BD030008BD030008BD030008BD03000840
:1000A000BD030008BD030008BD030008BD03000830
:1000B000BD030008BD030008BD030008BD03000820
:1000C000BD030008BD030008BD030008BD03000810
:1000D000BD030008BD030008BD030008BD03000800
:1000E000BD030008BD030008BD030008BD030008F0
:1000F000BD030008BD030008BD03000831830008EC
:10010000BD030008BD030008BD030008BD030008CF
:10011000BD030008BD030008BD030008BD030008BF
:10012000BD030008BD030008BD030008BD030008AF
:10013000BD030008BD030008BD030008BD0300089F
:10014000BD030008BD030008BD03000821830008AB
:10015000BD030008BD030008BD030008BD0300087F
:10016000BD030008BD030008BD030008BD0300086F
:10017000BD030008BD030008BD0300080000000027
:10018000BD030008BD03000800B583B006F070FC95
:10019000384B394A1360394A136039490CE00A6810
:1001A0004B6801F10C04886803E01168196004339E
:1001B00004329842F9D82146324B9942EFD32E4B64
:1001C0001A68314B9A4204D12C4B1A682F4B9A4231
:1001D00000D0FEE7274B2E4A13602E4A13602E4BA9
:1001E0000AE0194651F8082B5B6802E00020106015
:1001F00004329A42FAD30B46284A9342F1D3244B55
:100200001B6813B9234B1B6803B1FEE707F0FEFD23
:1002100001A8694606F0C6FB214C224B1C1BA4100A
:10022000002504E01E4B53F8253098470135AC42B9
:10023000F8DC1D4C1D4B1C1BA410002504E01A4BC0
:1002400053F8253098470135AC42F8DC0198009905
:1002500007F0E4FD0546164C164B1C1BA41004E0E9
:10026000013C134B53F824309847002CF8DC284607
:1002700006F06AFBBABADECA00000020C8010020FE
:10028000C0030008D8030008785634123254769818
:10029000CC0100208C0A0020D8030008E8030008E5
:1002A000E8030008E8030008E8030008E803000882
:1002B000E8030008E803000808B5FFF765FF00BF82
:1002C000FEE700BF1EF0040F0CBFEFF30880EFF352
:1002D00009807146364A10472DE9F04182B0074641
:1002E0008846084B5D6B9C6B9E6A074806F06EFB68
:1002F000CDF80080384631462A46234606F0BCFB3E
:10030000FEE700BF00ED00E0448F0008FEE700BFFD
:100310001EF0040F0CBFEFF30880EFF30980714665
:10032000244A10472DE9F04182B007468846084B21
:100330005D6B9C6B9E6A074806F048FBCDF8008019
:10034000384631462A46234606F096FBFEE700BFB4
:1003500000ED00E0548F00081EF0040F0CBFEFF317
:100360000880EFF309807146134A10472DE9F041E8
:1003700082B007468846084B5D6B9C6B9E6A0748B7
:1003800006F024FBCDF80080384631462A46234645
:1003900006F072FBFEE700BF00ED00E0608F000892
:1003A000FEE700BFFEE700BFFEE700BF70470000AA
:1003B000D9020008250300086D030008FEE700BF0E
:1003C0008490000800000020CC01002084900008E8
:1003D0000000001000000010CC010020900A002056
:0803E0000000001000000010F5
:1003E800704700BF10B5044605F09AFC064BA3FB06
:1003F8000030800900F0B4F84FF0FF3021460022A9
:1004080000F058F8002010BDD34D621008B50B4B12
:100418001A6842F400721A601A6842F480621A601C
:100428001A6842F480721A60032000F025F80F2041
:10043800FFF7D8FFFFF7D4FF002008BD003C0240BB
:10044800024A136801331360704700BFD0010020CF
:10045800014B1868704700BFD001002010B582B06A
:100468000190FFF7F5FF0446FFF7F2FF001B019B21
:100478009842F9D302B010BD10B50446C31E042B30
:1004880003D90A48A42106F091FA04F00700084AA3
:10049800D36823F4E0631B041B0C43EA002040F0FC
:1004A800BF6040F40030D06010BD00BFE48B00088E
:1004B80000ED00E070B504460E4615460F2A03D934
:1004C8001A48BC2106F072FA0F2E03D91748BD212D
:1004D80006F06CFA164BDB68C3F30223C3F107027C
:1004E800042A28BF0422191D062901D9D81E00E0B4
:1004F8000020012303FA02F2013A324002FA00F125
:1005080083405A1E2A400A43002C06DA04F00F04DE
:100518001201D2B2074B1A5570BD1201D2B204F1C2
:10052800604404F5614484F8002370BDE48B00083E
:1005380000ED00E014ED00E010B5041E03DA0648F3
:10054800D02106F033FA610904F01F040123A34007
:10055800024A42F8213010BDE48B000800E100E0B7
:100568000138B0F1807F0AD2064B5860F021064A64
:1005780082F823100020986007221A607047012033
:10058800704700BF10E000E000ED00E030B40568FF
:100598002C6824F480242C60046863608368402BF2
:1005A80004D103689A600368D96003E0036899601E
:1005B8000368DA6030BC7047002800F0008110B58D
:1005C800044603687F4A934231D0183293422ED0B2
:1005D800183293422BD01832934228D018329342C3
:1005E80025D01832934222D0183293421FD01832A5
:1005F80093421CD002F55672934218D01832934297
:1006080015D01832934212D0183293420FD01832B4
:1006180093420CD01832934209D01832934206D034
:100628001832934203D06848BF2106F0BFF96368C7
:10063800C3B1B3F1007F15D0B3F1806F12D0B3F11D
:10064800C06F0FD0B3F1006F0CD0B3F1206F09D099
:10065800B3F1406F06D0B3F1606F03D05A48C021A0
:1006680006F0A4F9A3683BB1402B05D0802B03D03A
:100678005548C12106F09AF9E368B3F5007F04D024
:100688001BB15148C22106F091F92369B3F5806F77
:1006980004D01BB14C48C32106F088F963694BB1FB
:1006A800B3F5006F06D0B3F5805F03D04648C42188
:1006B80006F07CF9A3694BB1B3F5005F06D0B3F53A
:1006C800804F03D04048C52106F070F9E36943B173
:1006D800B3F5807F05D0202B03D03B48C62106F018
:1006E80065F9236A63B1B3F5803F09D0B3F5003FDC
:1006F80006D0B3F5403F03D03348C72106F056F97A
:10070800636A2BB1042B03D02F48C82106F04EF999
:10071800636A23B3A36A032B03D92B48CD2106F0C0
:1007280045F9E36A63B1B3F5000F09D0B3F1807FEF
:1007380006D0B3F1C07F03D02348CE2106F036F9A6
:10074800236B63B1B3F5001F09D0B3F5800F06D052
:10075800B3F5C00F03D01C48CF2106F027F90223B8
:1007680084F8353020680268184B13406168A26825
:100778001143E26811432269114362691143A26976
:100788001143E2691143226A0A431343626A042A45
:1007980003D1E16A226B0A43134303602268536959
:1007A80023F00703616A0B43042901D1A16A0B43B3
:1007B80053610020E064012384F8353010BD012026
:1007C800704700BF10600240188C00083F8010F08E
:1007D8000346002800F0088790F83520D2B2022A94
:1007E80000F0048701680A6822F001020A600168C3
:1007F80000220A6001684A6001688A600168CA606C
:1008080001680A610268212151610268AA498A4285
:1008180054D9A1F589618A424CD001F580618A4298
:1008280046D0A1F568718A4240D001F580618A42BC
:100838003AD0A1F589618A4233D001F580618A42B4
:100848002CD0A1F568718A4225D001F580618A42D1
:100858001ED0A1F589618A4217D001F580618A42CC
:1008680010D0A1F568718A4209D001F580618A42E9
:1008780002D14FF480211EE04FF080711BE04FF44D
:10088800802118E04FF4802115E04FF4802112E018
:100898004FF480710FE04FF480710CE04FF48071D9
:1008A80009E04FF4807106E0844904E0834902E0DE
:1008B800824900E08149824AD1600EE181498A4239
:1008C80053D9A8398A424CD001F580618A4246D072
:1008D800A1F568718A4240D001F580618A423AD018
:1008E800A1F589618A4233D001F580618A422CD012
:1008F800A1F568718A4225D001F580618A421ED02F
:10090800A1F589618A4217D001F580618A4210D029
:10091800A1F568718A4209D001F580618A4202D145
:100928004FF480211EE04FF080711BE04FF48021CE
:1009380018E04FF4802115E04FF4802112E04FF4C5
:1009480080710FE04FF480710CE04FF4807109E082
:100958004FF4807106E0594904E0584902E05749CC
:1009680000E05649564A9160B7E057498A4253D940
:1009780048398A424CD001F580618A4246D0A1F5B7
:1009880068718A4240D001F580618A423AD0A1F567
:1009980089618A4233D001F580618A422CD0A1F561
:1009A80068718A4225D001F580618A421ED0A1F57E
:1009B80089618A4217D001F580618A4210D0A1F579
:1009C80068718A4209D001F580618A4202D14FF4E8
:1009D80080211EE04FF080711BE04FF4802118E069
:1009E8004FF4802115E04FF4802112E04FF480711C
:1009F8000FE04FF480710CE04FF4807109E04FF480
:100A0800807106E02D4904E02C4902E02B4900E002
:100A18002A492E4AD16060E02D498A425AD001F510
:100A280080618A4246D0A1F568718A4240D001F5BA
:100A380080618A423AD0A1F589618A4233D001F5B2
:100A480080618A422CD0A1F568718A4225D001F5CF
:100A580080618A421ED0A1F589618A4217D001F5CA
:100A680080618A4210D0A1F568718A4209D001F5E7
:100A780080618A4202D14FF480212CE04FF08071CE
:100A880029E04FF4802126E04FF4802123E04FF441
:100A9800802120E04FF480711DE04FF480711AE04E
:100AA8004FF4807117E04FF4807114E0034912E0AD
:100AB800024910E001490EE0586402400400800039
:100AC80000640240B8600240586002400060024082
:100AD80010600240AC49AD4A91601A68AC498A423C
:100AE80054D9A1F589618A424CD001F580618A42C6
:100AF80046D0A1F568718A4240D001F580618A42EA
:100B08003AD0A1F589618A4233D001F580618A42E1
:100B18002CD0A1F568718A4225D001F580618A42FE
:100B28001ED0A1F589618A4217D001F580618A42F9
:100B380010D0A1F568718A4209D001F580618A4216
:100B480002D14FF400111EE04FF000611BE04FF49A
:100B5800001118E04FF4001115E04FF4001112E0F5
:100B68004FF400610FE04FF400610CE04FF40061B6
:100B780009E04FF4006106E0202104E0202102E0B2
:100B8800202100E02021834AD1600EE182498A4277
:100B980053D9A8398A424CD001F580618A4246D09F
:100BA800A1F568718A4240D001F580618A423AD045
:100BB800A1F589618A4233D001F580618A422CD03F
:100BC800A1F568718A4225D001F580618A421ED05C
:100BD800A1F589618A4217D001F580618A4210D057
:100BE800A1F568718A4209D001F580618A4202D173
:100BF8004FF400111EE04FF000611BE04FF40011AC
:100C080018E04FF4001115E04FF4001112E04FF412
:100C180000610FE04FF400610CE04FF4006109E05F
:100C28004FF4006106E0202104E0202102E02021A9
:100C380000E02021574A9160B7E058498A4253D9C9
:100C480048398A424CD001F580618A4246D0A1F5E4
:100C580068718A4240D001F580618A423AD0A1F594
:100C680089618A4233D001F580618A422CD0A1F58E
:100C780068718A4225D001F580618A421ED0A1F5AB
:100C880089618A4217D001F580618A4210D0A1F5A6
:100C980068718A4209D001F580618A4202D14FF415
:100CA80000111EE04FF000611BE04FF4001118E046
:100CB8004FF4001115E04FF4001112E04FF40061F9
:100CC8000FE04FF400610CE04FF4006109E04FF4CD
:100CD800006106E0202104E0202102E0202100E05C
:100CE80020212A4AD16060E02D498A425AD001F574
:100CF80080618A4246D0A1F568718A4240D001F5E8
:100D080080618A423AD0A1F589618A4233D001F5DF
:100D180080618A422CD0A1F568718A4225D001F5FC
:100D280080618A421ED0A1F589618A4217D001F5F7
:100D380080618A4210D0A1F568718A4209D001F514
:100D480080618A4202D14FF400112CE04FF000611B
:100D580029E04FF4001126E04FF4001123E04FF48E
:100D6800001120E04FF400611DE04FF400611AE02B
:100D78004FF4006117E04FF4006114E0202112E005
:100D8800202110E020210EE00400800000600240D5
:100D98005864024000640240B86002405860024053
:100DA800106002402021AC4A91601A68AB498A421F
:100DB80054D9A1F589618A424CD001F580618A42F3
:100DC80046D0A1F568718A4240D001F580618A4217
:100DD8003AD0A1F589618A4233D001F580618A420F
:100DE8002CD0A1F568718A4225D001F580618A422C
:100DF8001ED0A1F589618A4217D001F580618A4227
:100E080010D0A1F568718A4209D001F580618A4243
:100E180002D14FF400211EE04FF000711BE04FF4A7
:100E2800002118E04FF4002115E04FF4002112E0F2
:100E38004FF400710FE04FF400710CE04FF40071B3
:100E480009E04FF4007106E0082104E0082102E0FF
:100E5800082100E00821824AD1600CE181498A42D8
:100E680053D9A8398A424CD001F580618A4246D0CC
:100E7800A1F568718A4240D001F580618A423AD072
:100E8800A1F589618A4233D001F580618A422CD06C
:100E9800A1F568718A4225D001F580618A421ED089
:100EA800A1F589618A4217D001F580618A4210D084
:100EB800A1F568718A4209D001F580618A4202D1A0
:100EC8004FF400211EE04FF000711BE04FF40021A9
:100ED80018E04FF4002115E04FF4002112E04FF420
:100EE80000710FE04FF400710CE04FF4007109E05D
:100EF8004FF4007106E0082104E0082102E008210F
:100F080000E00821564A9160B5E057498A4253D912
:100F180048398A424CD001F580618A4246D0A1F511
:100F280068718A4240D001F580618A423AD0A1F5C1
:100F380089618A4233D001F580618A422CD0A1F5BB
:100F480068718A4225D001F580618A421ED0A1F5D8
:100F580089618A4217D001F580618A4210D0A1F5D3
:100F680068718A4209D001F580618A4202D14FF442
:100F780000211EE04FF000711BE04FF4002118E043
:100F88004FF4002115E04FF4002112E04FF40071F6
:100F98000FE04FF400710CE04FF4007109E04FF4DA
:100FA800007106E0082104E0082102E0082100E0C1
:100FB8000821294AD1605EE02C498A4258D001F5BF
:100FC80080618A4246D0A1F568718A4240D001F515
:100FD80080618A423AD0A1F589618A4233D001F50D
:100FE80080618A422CD0A1F568718A4225D001F52A
:100FF80080618A421ED0A1F589618A4217D001F525
:1010080080618A4210D0A1F568718A4209D001F541
:1010180080618A4202D14FF400212AE04FF000712A
:1010280027E04FF4002124E04FF4002121E04FF4A1
:1010380000211EE04FF400711BE04FF4007118E02E
:101048004FF4007115E04FF4007112E0082110E030
:1010580008210EE008210CE00060024058640240BC
:1010680000640240B86002405860024010600240CC
:101078000821A44A91601A68A3498A4250D9A1F567
:1010880089618A4248D001F580618A4242D0A1F53F
:1010980068718A423CD001F580618A4236D0A1F558
:1010A80089618A4230D001F580618A422AD0A1F54F
:1010B80068718A4224D001F580618A421ED0A1F568
:1010C80089618A4217D001F580618A4210D0A1F562
:1010D80068718A4209D001F580618A4202D14FF4D1
:1010E80080311AE04FF4800117E04FF4803114E0AA
:1010F8004FF4803111E04FF480310EE040210CE0D4
:1011080040210AE0402108E0402106E07F4904E050
:101118007E4902E07D4900E07C497D4AD16002E1D8
:101128007C498A424FD9A8398A4248D001F5806162
:101138008A4242D0A1F568718A423CD001F58061AB
:101148008A4236D0A1F589618A4230D001F58061A2
:101158008A422AD0A1F568718A4224D001F58061BB
:101168008A421ED0A1F589618A4217D001F58061B3
:101178008A4210D0A1F568718A4209D001F58061D0
:101188008A4202D14FF480311AE04FF4800117E00F
:101198004FF4803114E04FF4803111E04FF4803186
:1011A8000EE040210CE040210AE0402108E0402107
:1011B80006E0564904E0554902E0544900E0534925
:1011C800534A9160AFE054498A424FD948398A421C
:1011D80048D001F580618A4242D0A1F568718A42FF
:1011E8003CD001F580618A4236D0A1F589618A42F6
:1011F80030D001F580618A422AD0A1F568718A420F
:1012080024D001F580618A421ED0A1F589618A4205
:1012180017D001F580618A4210D0A1F568718A4221
:1012280009D001F580618A4202D14FF480311AE079
:101238004FF4800117E04FF4803114E04FF480310F
:1012480011E04FF480310EE040210CE040210AE02B
:10125800402108E0402106E02C4904E02B4902E047
:101268002A4900E02949274AD1605CE02B498A4293
:1012780056D001F580618A4242D0A1F568718A4250
:101288003CD001F580618A4236D0A1F589618A4255
:1012980030D001F580618A422AD0A1F568718A426E
:1012A80024D001F580618A421ED0A1F589618A4265
:1012B80017D001F580618A4210D0A1F568718A4281
:1012C80009D001F580618A4202D14FF4803128E0CB
:1012D8004FF4800125E04FF4803122E04FF4803153
:1012E8001FE04FF480311CE040211AE0402118E053
:1012F800402116E0402114E0044912E0034910E0BF
:1013080002490EE00060024058640240010080007B
:1013180000640240B8600240586002401060024019
:10132800B349B44A91601A68B3498A4254D9A1F5BD
:1013380089618A424CD001F580618A4246D0A1F584
:1013480068718A4240D001F580618A423AD0A1F59D
:1013580089618A4233D001F580618A422CD0A1F597
:1013680068718A4225D001F580618A421ED0A1F5B4
:1013780089618A4217D001F580618A4210D0A1F5AF
:1013880068718A4209D001F580618A4202D14FF41E
:1013980080111EE04FF080611BE04FF4801118E0CF
:1013A8004FF4801115E04FF4801112E04FF4806182
:1013B8000FE04FF480610CE04FF4806109E04FF4D6
:1013C800806106E0102104E0102102E0102100E015
:1013D80010218A4AD16000E189498A4253D9A83943
:1013E8008A424CD001F580618A4246D0A1F56871E5
:1013F8008A4240D001F580618A423AD0A1F58961DC
:101408008A4233D001F580618A422CD0A1F56871F7
:101418008A4225D001F580618A421ED0A1F58961F2
:101428008A4217D001F580618A4210D0A1F568710F
:101438008A4209D001F580618A4202D14FF48011B5
:101448001EE04FF080611BE04FF4801118E04FF46C
:10145800801115E04FF4801112E04FF480610FE025
:101468004FF480610CE04FF4806109E04FF4806133
:1014780006E0102104E0102102E0102100E0102114
:101488005E4A9160A9E05F498A4253D948398A4245
:101498004CD001F580618A4246D0A1F568718A4234
:1014A80040D001F580618A423AD0A1F589618A422B
:1014B80033D001F580618A422CD0A1F568718A4247
:1014C80025D001F580618A421ED0A1F589618A4242
:1014D80017D001F580618A4210D0A1F568718A425F
:1014E80009D001F580618A4202D14FF480111EE0D3
:1014F8004FF080611BE04FF4801118E04FF4801129
:1015080015E04FF4801112E04FF480610FE04FF4C2
:1015180080610CE04FF4806109E04FF4806106E0DF
:10152800102104E0102102E0102100E01021314ACE
:10153800D16052E034498A424CD001F580618A4238
:1015480046D0A1F568718A4240D001F580618A428F
:101558003AD0A1F589618A4233D001F580618A4287
:101568002CD0A1F568718A4225D001F580618A42A4
:101578001ED0A1F589618A4217D001F580618A429F
:1015880010D0A1F568718A4209D001F580618A42BC
:1015980002D14FF480111EE04FF080611BE04FF440
:1015A800801118E04FF4801115E04FF4801112E01B
:1015B8004FF480610FE04FF480610CE04FF48061DC
:1015C80009E04FF4806106E0102104E0102102E0F8
:1015D800102100E01021074A91600020D86483F8A8
:1015E800350083F8340070470120704701207047A8
:1015F800010080000060024058640240006402401C
:10160800B86002405860024010600240F8B590F897
:101618003440012C3ED01D4616460F460446012391
:1016280080F83430022380F835306A1E4FF6FE7396
:101638009A4204D918484FF4C77105F0B7F92268DF
:10164800136823F0010313602046394632462B46BF
:10165800FEF79CFF2268136843F0100313602268AA
:10166800136843F0080313602268136843F0040307
:1016780013602268536943F080035361226813683A
:1016880043F0020313602268136843F001031360F8
:101698000020F8BD0220F8BD188C000838B50446B3
:1016A8000268136823F001031360FEF7D1FE0546B4
:1016B80010E0FEF7CDFE401BB0F57A7F0AD9E36C47
:1016C80043F02003E364002384F83430032084F8D3
:1016D800350038BD23681B6813F0010FE9D10020DD
:1016E80084F83400012384F8353038BD10B5044639
:1016F8000368B24A934257D9583A5268B0498B4264
:101708004CD001F580618B4246D0A1F568718B42BF
:1017180040D001F580618B423AD0A1F589618B42B6
:1017280033D001F580618B422CD0A1F568718B42D2
:1017380025D001F580618B421ED0A1F589618B42CD
:1017480017D001F580618B4210D0A1F568718B42EA
:1017580009D001F580618B4202D14FF400211EE0CF
:101768004FF000711BE04FF4002118E04FF4002106
:1017780015E04FF4002112E04FF400710FE04FF430
:1017880000710CE04FF4007109E04FF4007106E0BD
:10179800082104E0082102E0082100E008210A42AB
:1017A80014BF0122002218E1864A934258D902F553
:1017B8005272126882498B424CD001F580618B428B
:1017C80046D0A1F568718B4240D001F580618B420B
:1017D8003AD0A1F589618B4233D001F580618B4203
:1017E8002CD0A1F568718B4225D001F580618B4220
:1017F8001ED0A1F589618B4217D001F580618B421B
:1018080010D0A1F568718B4209D001F580618B4237
:1018180002D14FF400211EE04FF000711BE04FF49D
:10182800002118E04FF4002115E04FF4002112E0E8
:101838004FF400710FE04FF400710CE04FF40071A9
:1018480009E04FF4007106E0082104E0082102E0F5
:10185800082100E008210A4214BF01220022BCE04E
:10186800594A934257D9583A526855498B424CD0F5
:1018780001F580618B4246D0A1F568718B4240D05A
:1018880001F580618B423AD0A1F589618B4233D052
:1018980001F580618B422CD0A1F568718B4225D06F
:1018A80001F580618B421ED0A1F589618B4217D06A
:1018B80001F580618B4210D0A1F568718B4209D087
:1018C80001F580618B4202D14FF400211EE04FF0F8
:1018D80000711BE04FF4002118E04FF4002115E0DF
:1018E8004FF4002112E04FF400710FE04FF4007143
:1018F8000CE04FF4007109E04FF4007106E0082194
:1019080004E0082102E0082100E008210A4214BF8F
:101918000122002261E02D4A126829498B4257D0E2
:1019280001F580618B4246D0A1F568718B4240D0A9
:1019380001F580618B423AD0A1F589618B4233D0A1
:1019480001F580618B422CD0A1F568718B4225D0BE
:1019580001F580618B421ED0A1F589618B4217D0B9
:1019680001F580618B4210D0A1F568718B4209D0D6
:1019780001F580618B4202D14FF4002129E04FF03C
:10198800007126E04FF4002123E04FF4002120E00D
:101998004FF400211DE04FF400711AE04FF400717C
:1019A80017E04FF4007114E04FF4007111E00821C2
:1019B8000FE008210DE008210BE000BF5864024049
:1019C80010600240B8600240586002400060024067
:1019D80008210A4214BF01220022002A00F07D815A
:1019E8001A6812F0040F00F078811A6822F00402D5
:1019F8001A602368AA4A934254D9A2F5896293428D
:101A08004CD002F58062934246D0A2F568729342A8
:101A180040D002F5806293423AD0A2F5896293429F
:101A280033D002F5806293422CD0A2F568729342BB
:101A380025D002F5806293421ED0A2F589629342B6
:101A480017D002F58062934210D0A2F568729342D3
:101A580009D002F58062934202D14FF400221EE0C1
:101A68004FF000721BE04FF4002218E04FF4002200
:101A780015E04FF4002212E04FF400720FE04FF42B
:101A880000720CE04FF4007209E04FF4007206E0B7
:101A9800082204E0082202E0082200E00822814B24
:101AA800DA600CE1804A934253D9A83A93424CD069
:101AB80002F58062934246D0A2F56872934240D004
:101AC80002F5806293423AD0A2F58962934233D0FC
:101AD80002F5806293422CD0A2F56872934225D019
:101AE80002F5806293421ED0A2F58962934217D014
:101AF80002F58062934210D0A2F56872934209D031
:101B080002F58062934202D14FF400221EE04FF0AA
:101B180000721BE04FF4002218E04FF4002215E099
:101B28004FF4002212E04FF400720FE04FF40072FD
:101B38000CE04FF4007209E04FF4007206E008224E
:101B480004E0082202E0082200E00822554B9A60CF
:101B5800B5E0564A934253D9483A93424CD002F5DD
:101B68008062934246D0A2F56872934240D002F553
:101B7800806293423AD0A2F58962934233D002F54B
:101B8800806293422CD0A2F56872934225D002F568
:101B9800806293421ED0A2F58962934217D002F563
:101BA8008062934210D0A2F56872934209D002F580
:101BB8008062934202D14FF400221EE04FF000727F
:101BC8001BE04FF4002218E04FF4002215E04FF418
:101BD800002212E04FF400720FE04FF400720CE0A4
:101BE8004FF4007209E04FF4007206E0082204E0A6
:101BF800082202E0082200E008222D4BDA605EE0AD
:101C08002C4A934258D002F58062934246D0A2F5FE
:101C18006872934240D002F5806293423AD0A2F5AE
:101C28008962934233D002F5806293422CD0A2F5A8
:101C38006872934225D002F5806293421ED0A2F5C5
:101C48008962934217D002F58062934210D0A2F5C0
:101C58006872934209D002F58062934202D14FF430
:101C680000222AE04FF0007227E04FF4002224E01F
:101C78004FF4002221E04FF400221EE04FF40072DE
:101C88001BE04FF4007218E04FF4007215E04FF4B7
:101C9800007212E0082210E008220EE008220CE090
:101CA8005864024000640240B86002405860024034
:101CB80000600240106002400822B24B9A60E36C58
:101CC80043F00103E364042384F83530002384F8E7
:101CD8003430A36C0BB1204698472368AA4A934234
:101CE80053D9583A5268A9498B4248D001F58061C6
:101CF8008B4242D0A1F568718B423CD001F58061DE
:101D08008B4236D0A1F589618B4230D001F58061D4
:101D18008B422AD0A1F568718B4224D001F58061ED
:101D28008B421ED0A1F589618B4217D001F58061E5
:101D38008B4210D0A1F568718B4209D001F5806102
:101D48008B4202D14FF480311AE04FF4800117E042
:101D58004FF4803114E04FF4803111E04FF48031BA
:101D68000EE040210CE040210AE0402108E040213B
:101D780006E0874904E0864902E0854900E0844995
:101D88000A4214BF012200220DE1824A934254D92B
:101D980002F5527212687D498B4248D001F5806184
:101DA8008B4242D0A1F568718B423CD001F580612D
:101DB8008B4236D0A1F589618B4230D001F5806124
:101DC8008B422AD0A1F568718B4224D001F580613D
:101DD8008B421ED0A1F589618B4217D001F5806135
:101DE8008B4210D0A1F568718B4209D001F5806152
:101DF8008B4202D14FF480311AE04FF4800117E092
:101E08004FF4803114E04FF4803111E04FF4803109
:101E18000EE040210CE040210AE0402108E040218A
:101E280006E05B4904E05A4902E0594900E0584994
:101E38000A4214BF01220022B5E0574A934253D9FF
:101E4800583A526851498B4248D001F580618B421B
:101E580042D0A1F568718B423CD001F580618B427C
:101E680036D0A1F589618B4230D001F580618B4273
:101E78002AD0A1F568718B4224D001F580618B428C
:101E88001ED0A1F589618B4217D001F580618B4284
:101E980010D0A1F568718B4209D001F580618B42A1
:101EA80002D14FF480311AE04FF4800117E04FF46B
:101EB800803114E04FF4803111E04FF480310EE0AE
:101EC80040210CE040210AE0402108E0402106E0E2
:101ED8002F4904E02E4902E02D4900E02C490A422E
:101EE80014BF012200225EE0264A126827498B426D
:101EF80054D001F580618B4242D0A1F568718B42C4
:101F08003CD001F580618B4236D0A1F589618B42C6
:101F180030D001F580618B422AD0A1F568718B42DF
:101F280024D001F580618B421ED0A1F589618B42D6
:101F380017D001F580618B4210D0A1F568718B42F2
:101F480009D001F580618B4202D14FF4803126E03F
:101F58004FF4800123E04FF4803120E04FF48031CA
:101F68001DE04FF480311AE0402118E0402116E0CE
:101F7800402114E0402112E0054910E004490EE038
:101F880003490CE0006002405864024010600240BF
:101F980001008000B860024058600240AB490A4224
:101FA80014BF01220022002A00F06F815A6912F042
:101FB800800F00F06A815A6922F080025A61236812
:101FC800A34A934250D9A2F58962934248D002F5B8
:101FD8008062934242D0A2F5687293423CD002F5E7
:101FE8008062934236D0A2F58962934230D002F5DE
:101FF800806293422AD0A2F56872934224D002F5F7
:10200800806293421ED0A2F58962934217D002F5EE
:102018008062934210D0A2F56872934209D002F50B
:102028008062934202D14FF480321AE04FF480026A
:1020380017E04FF4803214E04FF4803211E04FF48F
:1020480080320EE040220CE040220AE0402208E004
:10205800402206E07D4A04E07C4A02E07B4A00E038
:102068007A4A7C4BDA6002E17B4A93424FD9A83A1C
:10207800934248D002F58062934242D0A2F568723A
:1020880093423CD002F58062934236D0A2F5896231
:10209800934230D002F5806293422AD0A2F568724A
:1020A800934224D002F5806293421ED0A2F5896241
:1020B800934217D002F58062934210D0A2F568725D
:1020C800934209D002F58062934202D14FF48032E4
:1020D8001AE04FF4800217E04FF4803214E04FF416
:1020E800803211E04FF480320EE040220CE04022B2
:1020F8000AE0402208E0402206E0544A04E0534A3D
:1021080002E0524A00E0514A524B9A60AFE0534A0B
:1021180093424FD9483A934248D002F5806293429D
:1021280042D0A2F5687293423CD002F58062934295
:1021380036D0A2F58962934230D002F5806293428C
:102148002AD0A2F56872934224D002F580629342A5
:102158001ED0A2F58962934217D002F5806293429D
:1021680010D0A2F56872934209D002F580629342BA
:1021780002D14FF480321AE04FF4800217E04FF496
:10218800803214E04FF4803211E04FF480320EE0D8
:1021980040220CE040220AE0402208E0402206E00B
:1021A8002A4A04E0294A02E0284A00E0274A2C4B40
:1021B800DA605CE02B4A934256D002F58062934283
:1021C80042D0A2F5687293423CD002F580629342F5
:1021D80036D0A2F58962934230D002F580629342EC
:1021E8002AD0A2F56872934224D002F58062934205
:1021F8001ED0A2F58962934217D002F580629342FD
:1022080010D0A2F56872934209D002F58062934219
:1022180002D14FF4803228E04FF4800225E04FF4D9
:10222800803222E04FF480321FE04FF480321CE00D
:1022380040221AE0402218E0402216E0402214E032
:10224800024A12E0014A10E0004A0EE00100800054
:102258005864024000640240B8600240586002407E
:102268000060024010600240B44AB54B9A60E36CCB
:1022780043F00203E364042384F83530002384F830
:102288003430A36C0BB1204698472368AD4A93427B
:1022980057D9583A5268AC498B424CD001F5806105
:1022A8008B4246D0A1F568718B4240D001F5806120
:1022B8008B423AD0A1F589618B4233D001F5806118
:1022C8008B422CD0A1F568718B4225D001F5806135
:1022D8008B421ED0A1F589618B4217D001F5806130
:1022E8008B4210D0A1F568718B4209D001F580614D
:1022F8008B4202D14FF480211EE04FF080711BE029
:102308004FF4802118E04FF4802115E04FF480212C
:1023180012E04FF480710FE04FF480710CE04FF43D
:10232800807109E04FF4807106E0884904E087492C
:1023380002E0864900E085490A4214BF01220022D2
:102348001BE1834A934258D902F5527212687E49BA
:102358008B424CD001F580618B4246D0A1F5687163
:102368008B4240D001F580618B423AD0A1F589615A
:102378008B4233D001F580618B422CD0A1F5687176
:102388008B4225D001F580618B421ED0A1F5896171
:102398008B4217D001F580618B4210D0A1F568718E
:1023A8008B4209D001F580618B4202D14FF4802124
:1023B8001EE04FF080711BE04FF4802118E04FF4CD
:1023C800802115E04FF4802112E04FF480710FE076
:1023D8004FF480710CE04FF4807109E04FF4807184
:1023E80006E05A4904E0594902E0584900E05749D3
:1023F8000A4214BF01220022BFE0564A934257D92D
:10240800583A526850498B424CD001F580618B4252
:1024180046D0A1F568718B4240D001F580618B42AE
:102428003AD0A1F589618B4233D001F580618B42A6
:102438002CD0A1F568718B4225D001F580618B42C3
:102448001ED0A1F589618B4217D001F580618B42BE
:1024580010D0A1F568718B4209D001F580618B42DB
:1024680002D14FF480211EE04FF080711BE04FF441
:10247800802118E04FF4802115E04FF4802112E00C
:102488004FF480710FE04FF480710CE04FF48071CD
:1024980009E04FF4807106E02C4904E02B4902E082
:1024A8002A4900E029490A4214BF0122002264E0B7
:1024B800234A126824498B425AD001F580618B4225
:1024C80054D0A1F568718B424ED001F580618B42E2
:1024D80048D0A1F589618B4241D001F580618B42DA
:1024E8003AD0A1F568718B4225D001F580618B4205
:1024F8001ED0A1F589618B4217D001F580618B420E
:1025080010D0A1F568718B4209D001F580618B422A
:1025180002D14FF480212CE04FF0807129E04FF474
:10252800802126E04FF4802123E04FF4802120E031
:102538004FF480711DE04FF480711AE001008000B3
:1025480000600240586402401060024004008000AD
:10255800B8600240586002404FF4807109E04FF4BF
:10256800807106E0B54904E0B44902E0B34900E0EF
:10257800B2490A4214BF01220022002A00F07F81DA
:102588001A6812F0020F00F07A811A6822F002022B
:102598001A602368AA4A934254D9A2F589629342E1
:1025A8004CD002F58062934246D0A2F568729342FD
:1025B80040D002F5806293423AD0A2F589629342F4
:1025C80033D002F5806293422CD0A2F56872934210
:1025D80025D002F5806293421ED0A2F5896293420B
:1025E80017D002F58062934210D0A2F56872934228
:1025F80009D002F58062934202D14FF480221EE096
:102608004FF080721BE04FF4802218E04FF48022D4
:1026180015E04FF4802212E04FF480720FE04FF47F
:1026280080720CE04FF4807209E04FF4807206E08B
:10263800824A04E0814A02E0804A00E07F4A814BF6
:10264800DA600EE1804A934253D9A83A93424CD0BB
:1026580002F58062934246D0A2F56872934240D058
:1026680002F5806293423AD0A2F58962934233D050
:1026780002F5806293422CD0A2F56872934225D06D
:1026880002F5806293421ED0A2F58962934217D068
:1026980002F58062934210D0A2F56872934209D085
:1026A80002F58062934202D14FF480221EE04FF07F
:1026B80080721BE04FF4802218E04FF4802215E06E
:1026C8004FF4802212E04FF480720FE04FF48072D2
:1026D8000CE04FF4807209E04FF4807206E0574A2C
:1026E80004E0564A02E0554A00E0544A554B9A60C5
:1026F800B7E0564A934253D9483A93424CD002F530
:102708008062934246D0A2F56872934240D002F5A7
:10271800806293423AD0A2F58962934233D002F59F
:10272800806293422CD0A2F56872934225D002F5BC
:10273800806293421ED0A2F58962934217D002F5B7
:102748008062934210D0A2F56872934209D002F5D4
:102758008062934202D14FF480221EE04FF08072D3
:102768001BE04FF4802218E04FF4802215E04FF46C
:10277800802212E04FF480720FE04FF480720CE078
:102788004FF4807209E04FF4807206E02B4A04E0AF
:102798002A4A02E0294A00E0284A2D4BDA6060E024
:1027A8002C4A93425AD002F58062934254D0A2F543
:1027B8006872934240D002F5806293423AD0A2F503
:1027C8008962934233D002F5806293422CD0A2F5FD
:1027D8006872934225D002F5806293421ED0A2F51A
:1027E8008962934217D002F58062934210D0A2F515
:1027F8006872934209D002F58062934202D14FF485
:1028080080222CE04FF0807229E04FF4802226E0ED
:102818004FF4802223E04FF4802220E04FF48072AE
:102828001DE04FF480721AE04FF4807217E04FF405
:10283800807214E0014A12E0004A10E004008000AF
:102848005864024000640240B86002405860024088
:102858000060024010600240B84A00E0B74AB84B36
:102868009A60E36C43F00403E364042384F835308E
:10287800002384F83430A36C0BB1204698472368B2
:10288800B04A934257D9583A5268AF498B424CD014
:1028980001F580618B4246D0A1F568718B4240D02A
:1028A80001F580618B423AD0A1F589618B4233D022
:1028B80001F580618B422CD0A1F568718B4225D03F
:1028C80001F580618B421ED0A1F589618B4217D03A
:1028D80001F580618B4210D0A1F568718B4209D057
:1028E80001F580618B4202D14FF480111EE04FF058
:1028F80080611BE04FF4801118E04FF4801115E05F
:102908004FF4801112E04FF480610FE04FF48061C2
:102918000CE04FF4806109E04FF4806106E010217B
:1029280004E0102102E0102100E010210A4214BF47
:102938000122002219E1854A934258D902F55272C0
:10294800126881498B424CD001F580618B4246D098
:10295800A1F568718B4240D001F580618B423AD075
:10296800A1F589618B4233D001F580618B422CD06F
:10297800A1F568718B4225D001F580618B421ED08C
:10298800A1F589618B4217D001F580618B4210D087
:10299800A1F568718B4209D001F580618B4202D1A3
:1029A8004FF480111EE04FF080611BE04FF480115E
:1029B80018E04FF4801115E04FF4801112E04FF445
:1029C80080610FE04FF480610CE04FF4806109E012
:1029D8004FF4806106E0102104E0102102E010218C
:1029E80000E010210A4214BF01220022BDE0584A2B
:1029F800934257D9583A526853498B424CD001F503
:102A080080618B4246D0A1F568718B4240D001F5B8
:102A180080618B423AD0A1F589618B4233D001F5B0
:102A280080618B422CD0A1F568718B4225D001F5CD
:102A380080618B421ED0A1F589618B4217D001F5C8
:102A480080618B4210D0A1F568718B4209D001F5E5
:102A580080618B4202D14FF480111EE04FF08061FB
:102A68001BE04FF4801118E04FF4801115E04FF48B
:102A7800801112E04FF480610FE04FF480610CE0A8
:102A88004FF4806109E04FF4806106E0102104E012
:102A9800102102E0102100E010210A4214BF012297
:102AA800002262E0264A126827498B4258D001F575
:102AB80080618B4252D0A1F568718B424CD001F5F0
:102AC80080618B4246D0A1F589618B4233D001F5F4
:102AD80080618B422CD0A1F568718B4225D001F51D
:102AE80080618B421ED0A1F589618B4217D001F518
:102AF80080618B4210D0A1F568718B4209D001F535
:102B080080618B4202D14FF480112AE04FF080613E
:102B180027E04FF4801124E04FF4801121E04FF4B6
:102B280080111EE04FF480611BE04FF4806118E0D3
:102B38004FF4806115E04FF4806112E004008000DA
:102B4800006002405864024010600240B8600240D1
:102B580058600240102104E0102102E0102100E03A
:102B680010210A4214BF01220022002A00F0F88234
:102B78001A6812F0080F00F0F3821A6812F4802F16
:102B880000F07881B54A934254D9A2F589629342FC
:102B98004CD002F58062934246D0A2F56872934207
:102BA80040D002F5806293423AD0A2F589629342FE
:102BB80033D002F5806293422CD0A2F5687293421A
:102BC80025D002F5806293421ED0A2F58962934215
:102BD80017D002F58062934210D0A2F56872934232
:102BE80009D002F58062934202D14FF480121EE0B0
:102BF8004FF080621BE04FF4801218E04FF480120F
:102C080015E04FF4801212E04FF480620FE04FF4A9
:102C180080620CE04FF4806209E04FF4806206E0C5
:102C2800102204E0102202E0102200E010228C4B57
:102C3800DA6000E18B4A934253D9A83A93424CD0C8
:102C480002F58062934246D0A2F56872934240D062
:102C580002F5806293423AD0A2F58962934233D05A
:102C680002F5806293422CD0A2F56872934225D077
:102C780002F5806293421ED0A2F58962934217D072
:102C880002F58062934210D0A2F56872934209D08F
:102C980002F58062934202D14FF480121EE04FF099
:102CA80080621BE04FF4801218E04FF4801215E0A8
:102CB8004FF4801212E04FF480620FE04FF480620C
:102CC8000CE04FF4806209E04FF4806206E01022C5
:102CD80004E0102202E0102200E01022604B9A600B
:102CE800A9E0614A934253D9483A93424CD002F53D
:102CF8008062934246D0A2F56872934240D002F5B2
:102D0800806293423AD0A2F58962934233D002F5A9
:102D1800806293422CD0A2F56872934225D002F5C6
:102D2800806293421ED0A2F58962934217D002F5C1
:102D38008062934210D0A2F56872934209D002F5DE
:102D48008062934202D14FF480131EE04FF08063FB
:102D58001BE04FF4801318E04FF4801315E04FF494
:102D6800801312E04FF480630FE04FF480630CE0AF
:102D78004FF4806309E04FF4806306E0102304E019
:102D8800102302E0102300E01023384AD36052E0F9
:102D9800374A93424CD002F58062934246D0A2F55E
:102DA8006872934240D002F5806293423AD0A2F50D
:102DB8008962934233D002F5806293422CD0A2F507
:102DC8006872934225D002F5806293421ED0A2F524
:102DD8008962934217D002F58062934210D0A2F51F
:102DE8006872934209D002F58062934202D14FF48F
:102DF80080131EE04FF080631BE04FF4801318E04F
:102E08004FF4801315E04FF4801312E04FF4806301
:102E18000FE04FF480630CE04FF4806309E04FF457
:102E2800806306E0102304E0102302E0102300E092
:102E380010230E4A936023681A6812F4002F03D1F6
:102E4800312384F8353087E11B6813F4002F00F034
:102E58008381412384F835307EE100BF5864024005
:102E680000640240B86002405860024000600240BE
:102E7800106002401A6812F4807F03D11A6822F0A9
:102E880008021A602368AB4A934254D9A2F58962B2
:102E980093424CD002F58062934246D0A2F5687204
:102EA800934240D002F5806293423AD0A2F58962FB
:102EB800934233D002F5806293422CD0A2F5687217
:102EC800934225D002F5806293421ED0A2F5896212
:102ED800934217D002F58062934210D0A2F568722F
:102EE800934209D002F58062934202D14FF48012D6
:102EF8001EE04FF080621BE04FF4801218E04FF4A0
:102F0800801215E04FF4801212E04FF480620FE057
:102F18004FF480620CE04FF4806209E04FF4806265
:102F280006E0102204E0102202E0102200E0102245
:102F3800814BDA600DE1814A934253D9A83A934212
:102F48004CD002F58062934246D0A2F56872934253
:102F580040D002F5806293423AD0A2F5896293424A
:102F680033D002F5806293422CD0A2F56872934266
:102F780025D002F5806293421ED0A2F58962934261
:102F880017D002F58062934210D0A2F5687293427E
:102F980009D002F58062934202D14FF480121EE0FC
:102FA8004FF080621BE04FF4801218E04FF480125B
:102FB80015E04FF4801212E04FF480620FE04FF4F6
:102FC80080620CE04FF4806209E04FF4806206E012
:102FD800102204E0102202E0102200E01022564BDA
:102FE8009A60B6E0564A934253D9483A93424CD035
:102FF80002F58062934246D0A2F56872934240D0AF
:1030080002F5806293423AD0A2F58962934233D0A6
:1030180002F5806293422CD0A2F56872934225D0C3
:1030280002F5806293421ED0A2F58962934217D0BE
:1030380002F58062934210D0A2F56872934209D0DB
:1030480002F58062934202D14FF480131EE04FF0E4
:1030580080631BE04FF4801318E04FF4801315E0F1
:103068004FF4801312E04FF480630FE04FF4806355
:103078000CE04FF4806309E04FF4806306E010230E
:1030880004E0102302E0102300E010232D4AD3604F
:103098005FE02D4A934259D002F58062934246D0B0
:1030A800A2F56872934240D002F5806293423AD00A
:1030B800A2F58962934233D002F5806293422CD004
:1030C800A2F56872934225D002F5806293421ED021
:1030D800A2F58962934217D002F58062934210D01C
:1030E800A2F56872934209D002F58062934202D138
:1030F8004FF480132BE04FF0806328E04FF48013E7
:1031080025E04FF4801322E04FF480131FE04FF4C2
:1031180080631CE04FF4806319E04FF4806316E08D
:103128004FF4806313E0102311E010230FE0102305
:103138000DE000BF5864024000640240B8600240DD
:103148005860024000600240106002401023B74AF5
:103158009360312384F83530236C0BB120469847AF
:103168002368B34A934257D9583A5268B1498B42B7
:103178004CD001F580618B4246D0A1F568718B4235
:1031880040D001F580618B423AD0A1F589618B422C
:1031980033D001F580618B422CD0A1F568718B4248
:1031A80025D001F580618B421ED0A1F589618B4243
:1031B80017D001F580618B4210D0A1F568718B4260
:1031C80009D001F580618B4202D14FF400111EE055
:1031D8004FF000611BE04FF4001118E04FF40011AC
:1031E80015E04FF4001112E04FF400610FE04FF4C6
:1031F80000610CE04FF4006109E04FF4006106E063
:10320800202104E0202102E0202100E020210A42C0
:1032180014BF0122002218E1874A934258D902F5C7
:103228005272126883498B424CD001F580618B42FF
:1032380046D0A1F568718B4240D001F580618B4280
:103248003AD0A1F589618B4233D001F580618B4278
:103258002CD0A1F568718B4225D001F580618B4295
:103268001ED0A1F589618B4217D001F580618B4290
:1032780010D0A1F568718B4209D001F580618B42AD
:1032880002D14FF400111EE04FF000611BE04FF433
:10329800001118E04FF4001115E04FF4001112E08E
:1032A8004FF400610FE04FF400610CE04FF400614F
:1032B80009E04FF4006106E0202104E0202102E04B
:1032C800202100E020210A4214BF01220022BCE094
:1032D8005A4A934257D9583A526856498B424CD069
:1032E80001F580618B4246D0A1F568718B4240D0D0
:1032F80001F580618B423AD0A1F589618B4233D0C8
:1033080001F580618B422CD0A1F568718B4225D0E4
:1033180001F580618B421ED0A1F589618B4217D0DF
:1033280001F580618B4210D0A1F568718B4209D0FC
:1033380001F580618B4202D14FF400111EE04FF07D
:1033480000611BE04FF4001118E04FF4001115E084
:103358004FF4001112E04FF400610FE04FF40061E8
:103368000CE04FF4006109E04FF4006106E0202111
:1033780004E0202102E0202100E020210A4214BFBD
:103388000122002261E0294A12682A498B4257D05B
:1033980001F580618B4246D0A1F568718B4240D01F
:1033A80001F580618B423AD0A1F589618B4233D017
:1033B80001F580618B422CD0A1F568718B4225D034
:1033C80001F580618B421ED0A1F589618B4217D02F
:1033D80001F580618B4210D0A1F568718B4209D04C
:1033E80001F580618B4202D14FF4001129E04FF0C2
:1033F800006126E04FF4001123E04FF4001120E0B3
:103408004FF400111DE04FF400611AE04FF4006121
:1034180017E04FF4006114E04FF4006111E020213F
:103428000FE020210DE020210BE000BF00600240EA
:103438005864024010600240B86002405860024080
:1034480020210A4214BF01220022002A00F0F6823D
:103458001A6812F0100F00F0F1821A6812F4802F27
:1034680000F07E81B84A934254D9A2F5896293420A
:103478004CD002F58062934246D0A2F5687293421E
:1034880040D002F5806293423AD0A2F58962934215
:1034980033D002F5806293422CD0A2F56872934231
:1034A80025D002F5806293421ED0A2F5896293422C
:1034B80017D002F58062934210D0A2F56872934249
:1034C80009D002F58062934202D14FF400121EE047
:1034D8004FF000621BE04FF4001218E04FF40012A6
:1034E80015E04FF4001212E04FF400620FE04FF4C1
:1034F80000620CE04FF4006209E04FF4006206E05D
:10350800202204E0202202E0202200E020228F4B2B
:10351800DA6000E18E4A934253D9A83A93424CD0DC
:1035280002F58062934246D0A2F56872934240D079
:1035380002F5806293423AD0A2F58962934233D071
:1035480002F5806293422CD0A2F56872934225D08E
:1035580002F5806293421ED0A2F58962934217D089
:1035680002F58062934210D0A2F56872934209D0A6
:1035780002F58062934202D14FF400121EE04FF030
:1035880000621BE04FF4001218E04FF4001215E03F
:103598004FF4001212E04FF400620FE04FF40062A3
:1035A8000CE04FF4006209E04FF4006206E02022CC
:1035B80004E0202202E0202200E02022634B9A60EF
:1035C800A9E0644A934253D9483A93424CD002F551
:1035D8008062934246D0A2F56872934240D002F5C9
:1035E800806293423AD0A2F58962934233D002F5C1
:1035F800806293422CD0A2F56872934225D002F5DE
:10360800806293421ED0A2F58962934217D002F5D8
:103618008062934210D0A2F56872934209D002F5F5
:103628008062934202D14FF400131EE04FF0006312
:103638001BE04FF4001318E04FF4001315E04FF4AB
:10364800001312E04FF400630FE04FF400630CE046
:103658004FF4006309E04FF4006306E0202304E020
:10366800202302E0202300E020233B4AD36052E0DD
:103678003A4A93424CD002F58062934246D0A2F572
:103688006872934240D002F5806293423AD0A2F524
:103698008962934233D002F5806293422CD0A2F51E
:1036A8006872934225D002F5806293421ED0A2F53B
:1036B8008962934217D002F58062934210D0A2F536
:1036C8006872934209D002F58062934202D14FF4A6
:1036D80000131EE04FF000631BE04FF4001318E0E6
:1036E8004FF4001315E04FF4001312E04FF4006399
:1036F8000FE04FF400630CE04FF4006309E04FF46F
:10370800006306E0202304E0202302E0202300E0F9
:103718002023114A936023681A6812F4002F06D1F7
:10372800636C002B00F08A812046984710BD1B6807
:1037380013F4002F00F08281E36B002B00F07E81F0
:103748002046984710BD00BF5864024000640240FC
:10375800B8600240586002400060024010600240B9
:103768001A6812F4807F03D11A6822F010021A60D6
:103778002368B34A934254D9A2F5896293424CD044
:1037880002F58062934246D0A2F56872934240D017
:1037980002F5806293423AD0A2F58962934233D00F
:1037A80002F5806293422CD0A2F56872934225D02C
:1037B80002F5806293421ED0A2F58962934217D027
:1037C80002F58062934210D0A2F56872934209D044
:1037D80002F58062934202D14FF400121EE04FF0CE
:1037E80000621BE04FF4001218E04FF4001215E0DD
:1037F8004FF4001212E04FF400620FE04FF4006241
:103808000CE04FF4006209E04FF4006206E0202269
:1038180004E0202202E0202200E02022894BDA6026
:1038280000E1894A934253D9A83A93424CD002F511
:103838008062934246D0A2F56872934240D002F566
:10384800806293423AD0A2F58962934233D002F55E
:10385800806293422CD0A2F56872934225D002F57B
:10386800806293421ED0A2F58962934217D002F576
:103878008062934210D0A2F56872934209D002F593
:103888008062934202D14FF400121EE04FF00062B2
:103898001BE04FF4001218E04FF4001215E04FF44B
:1038A800001212E04FF400620FE04FF400620CE0E7
:1038B8004FF4006209E04FF4006206E0202204E0C1
:1038C800202202E0202200E020225E4B9A60A9E03C
:1038D8005E4A934253D9483A93424CD002F58062EB
:1038E800934246D0A2F56872934240D002F58062B6
:1038F80093423AD0A2F58962934233D002F58062AE
:1039080093422CD0A2F56872934225D002F58062CA
:1039180093421ED0A2F58962934217D002F58062C5
:10392800934210D0A2F56872934209D002F58062E2
:10393800934202D14FF400131EE04FF000631BE0E6
:103948004FF4001318E04FF4001315E04FF4001380
:1039580012E04FF400630FE04FF400630CE04FF403
:10396800006309E04FF4006306E0202304E020230D
:1039780002E0202300E02023354AD36052E0354A94
:1039880093424CD002F58062934246D0A2F5687209
:10399800934240D002F5806293423AD0A2F5896200
:1039A800934233D002F5806293422CD0A2F568721C
:1039B800934225D002F5806293421ED0A2F5896217
:1039C800934217D002F58062934210D0A2F5687234
:1039D800934209D002F58062934202D14FF400135A
:1039E8001EE04FF000631BE04FF4001318E04FF4A3
:1039F800001315E04FF4001312E04FF400630FE0DA
:103A08004FF400630CE04FF4006309E04FF40063E7
:103A180006E0202304E0202302E0202300E0202306
:103A28000B4A9360E36CE364112384F83530002378
:103A380084F83430E36B0BB12046984710BD00BFC3
:103A48005864024000640240B86002405860024076
:103A580000600240106002402DE9F84F80460F4692
:103A6800A04B984223D003F5806398421FD003F5FA
:103A7800806398421BD003F58063984217D003F502
:103A88008063984213D003F5806398420FD003F502
:103A9800806398420BD003F58063984207D003F502
:103AA8008063984203D09048C52102F07FFF3B888D
:103AB8001BB98D48C62102F079FF7B68012B22D9FA
:103AC800112B20D0022B1ED0122B1CD0874A9342D8
:103AD80019D002F58012934215D002F58012934254
:103AE80011D0A2F5F81293420DD002F5801293423C
:103AF80009D002F58012934205D0032B03D07A48EF
:103B0800C72102F053FFBB68022B03D97648C821AE
:103B180002F04CFF002423E1A1460125A5403B68A3
:103B280003EA050AAA4540F01A817B68022B01D0F6
:103B3800122B4AD13B69C3B3092B36D0ABB3A3B31D
:103B48009BB393B3012B30D02FD0022B2DD02CD088
:103B58002BD0032B29D0042B27D026D025D0052BFA
:103B680023D022D0092B20D0062B1ED0092B1CD005
:103B7800072B1AD019D018D0082B16D015D014D06E
:103B8800092B12D011D00A2B0FD00ED00B2B0CD032
:103B98000C2B0AD009D00D2B07D00C2B05D00F2BDE
:103BA80003D05148D92102F001FFE608083658F839
:103BB800261004F0070080000F23834021EA030247
:103BC8003B698340134348F82630D8F800304FEA61
:103BD800440B032606FA0BF6F64306EA03027B6853
:103BE80003F0030303FA0BF31343C8F800307B68B0
:103BF8005A1E012A03D9112B01D0122B1CD1FB68A4
:103C0800032B03D93848EC2102F0D0FED8F808304D
:103C180006EA0302FB6803FA0BF31343C8F80830FB
:103C2800D8F8043023EA05037D68C5F3001505FAC2
:103C380009F51D43C8F80450D8F80C303340BE6865
:103C480006FA0BF61E43C8F80C607B6813F0805F19
:103C580000F08580264A536C43F480435364A308DC
:103C6800991CA2F5803252F8211004F0030080005C
:103C78000F22824021EA02011A4A90453AD002F501
:103C8800806290452BD002F58062904525D002F5E0
:103C9800806290451FD002F58062904519D002F5E8
:103CA8008062904513D002F5806290450DD002F5F0
:103CB8008062904507D002F58062904501D10822C4
:103CC80019E0092217E0072215E0062213E0052271
:103CD80011E004220FE003220DE002220BE0012292
:103CE80009E000BF00000240488C000800001110E5
:103CF80000380240002282400A4302331B4941F83F
:103D080023201B4B1A686FEA0A0303EA020178684A
:103D180010F4803F01D04AEA0201154A1160526846
:103D280003EA0201786810F4003F01D04AEA020170
:103D38000F4A5160926803EA0201786810F4801F04
:103D480001D04AEA02010A4A9160D26813407968B0
:103D580011F4001F01D04AEA0203054AD360013476
:103D68000F2C7FF6D9AEBDE8F88F00BF00380140B0
:103D7800003C014070B5064615460C4621B9094875
:103D88004FF4D67102F012FE012D04D9054840F215
:103D9800AD1102F00BFE0DB1B46170BD2404B46125
:103DA80070BD00BF488C0008F8B504460D4616469D
:103DB800FCF74EFB074626E023685A6912F4806F29
:103DC80010D01A6842F400721A6023686FF4806297
:103DD8005A610423A363012084F83500002384F882
:103DE8003430F8BDB6F1FF3F0DD026B1FCF730FBFB
:103DF800C01BB04207D9012384F83530002384F86A
:103E080034300320F8BDC5F30743012B08D12368DC
:103E18005B6925EA03039BB2003318BF012307E05F
:103E280023689B6925EA03039BB2003318BF01236B
:103E3800002BC1D10020F8BD2DE9F04106460C4603
:103E480090461D46FCF704FB0746B8F1000F12D058
:103E58003DE0B5F1FF3F0ED025B1FCF7F9FAC01BE4
:103E6800A84208D9012386F83530002386F8343073
:103E78000320BDE8F081C4F30743012B08D1336860
:103E88005B6924EA03039BB2003318BF012307E0F0
:103E980033689B6924EA03039BB2003318BF0123EC
:103EA800002BD6D10020BDE8F081B5F1FF3F0ED040
:103EB80025B1FCF7CDFAC01BA84208D9012386F822
:103EC8003530002386F834300320BDE8F081C4F390
:103ED8000743012B08D133685B6924EA03039BB2CB
:103EE800B3FA83F35B0907E033689B6924EA0303A9
:103EF8009BB2B3FA83F35B09002BD6D10020BDE84F
:103F0800F08100BFF0B583B004460D4616461F4643
:103F18000268136843F4807313604FF001110022A4
:103F2800089BFFF789FF002831D1236805F0FE05BB
:103F38001D6120461B49089AFFF736FF20B1A36B85
:103F4800042B26D1012329E023685A6901929B6931
:103F58000193019B204614490022089BFFF76CFF40
:103F68000346C0B9012F03D12268F6B2166115E0E5
:103F78002368320A1A6120460B490022089BFFF782
:103F88005BFF034648B92268F6B2166106E00323D0
:103F980004E0032302E0032300E00323184603B0F0
:103FA800F0BD00BF0200010080000100F0B583B041
:103FB80004460D4616461F460268136843F480639C
:103FC80013600268136843F4807313604FF00111A3
:103FD8000022089BFFF730FF002854D12368EDB278
:103FE80005F0FE021A6120462F49089AFFF7DCFE09
:103FF80020B1A36B042B48D1012351E023685A69EF
:1040080001929B690193019B204628490022089B45
:10401800FFF712FF00283AD1012F03D12368F6B227
:104028001E610CE02368320A1A6120461F490022EB
:10403800089BFFF701FF60BB2368F6B21E612046AC
:104048001A490022089BFFF7F7FE20BB2268136875
:1040580043F48073136020464FF001110022089B3F
:10406800FFF7EAFEC8B9236845F001051D6120463F
:104078000D49089AFFF798FE034688B1A36B042BF5
:104088000DD101230CE003230AE0032308E00323F6
:1040980006E0032304E0032302E0032300E00323F4
:1040A800184603B0F0BD00BF020001008000010007
:1040B800704700BF002800F0DD8038B5044603686B
:1040C8006D4A93420CD002F58062934208D002F503
:1040D8008062934204D069484FF4967102F066FCFE
:1040E8006368013B664A934204D9644840F22D1143
:1040F80002F05CFCA3683BB1B3F5804F04D05F4885
:104108004FF4977102F052FCE36823F47F7323F0B5
:10411800030323B1594840F22F1102F047FC2369E9
:10412800B3F5804F07D0B3F5404F04D053484FF450
:10413800987102F03BFC6369012B04D94F4840F2A7
:10414800311102F033FCA36933F0FE0304D04B486D
:104158004FF4997102F02AFCE36933B1402B04D083
:10416800464840F2331102F021FC236A33B1802B18
:1041780004D042484FF49A7102F018FC94F8353094
:1041880013F0FF0F02D12046FFF792FF022384F8B5
:1041980035302268136823F00103136001F0DCFD59
:1041A800384BA3FB00239B0C226853602168656889
:1041B800354A954201D8013308E04FF4967202FB64
:1041C80003F3324AA2FB03239B0901330B622168E4
:1041D80063682D4A934208D85B00B0FBF3F0C0F344
:1041E8000B03032B2BD8042029E0A5684DB903EB5A
:1041F8004302B0FBF2F2C2F30B02B2FA82F25209A6
:104208000AE003EB830202EB8202B0FBF2F2C2F394
:104218000B02B2FA82F2520982B935B903EB4303B1
:10422800B0FBF3F040F4004009E003EB830303EB39
:104238008303B0FBF3F040F4404000E00120C86184
:104248002268E169236A0B43136022682169E368E5
:104258000B43936022686169A3690B43D3602268AA
:10426800136843F0010313600020A063012384F85E
:10427800353038BD0120704700540040788C000864
:104288007F1A060083DE1B43A0860100D34D62100F
:10429800704700BF20B310B504460368114A934223
:1042A8000CD002F58062934208D002F580629342F6
:1042B80004D00D4840F2771102F078FB022384F80D
:1042C80035302268136823F0010313602046FFF796
:1042D800DFFF0020A06384F8350084F8340010BDA7
:1042E8000120704700540040788C00082DE9F04107
:1042F80082B00546884617461C46BDF82460012B47
:1043080006D0102B04D0424840F23E6102F04EFB2A
:1043180095F83530DBB2012B66D1089B002B65D0B0
:10432800002E65D02B689B6913F0020F62D195F8B7
:104338003430012B60D0012385F83430322385F8DE
:1043480035300023AB630A9B0093284641463A4622
:104358002346FFF7D7FD50B3AB6B042B04D10023E2
:1043680085F8343001234EE0002385F834300323E8
:1043780049E02846274900220A9BFFF75DFD0028EF
:104388003CD12A68089B0133089909781161013EDC
:10439800B6B22A68516911F0040F07D036B1089BEC
:1043A8000233089949781161013EB6B20893002E8C
:1043B800DFD12846174900220A9BFFF73DFDF8B9CF
:1043C8002A68136843F400731360284612490122CF
:1043D8000A9BFFF731FD0346A0B9012285F8352075
:1043E800002285F834200EE002230CE001230AE0C5
:1043F800012308E0022306E0022304E0032302E08D
:10440800032300E00323184602B0BDE8F08100BF93
:10441800788C000880000100020010002DE9F041AE
:1044280086B00546884617461C46BDF83460012B01
:1044380006D0102B04D08B484FF4D56102F0B6FAA1
:1044480095F83530DBB2012B40F0F3800C9B002B44
:1044580000F0F180002E00F0F0802B689B6913F0CB
:10446800020F40F0EC8095F83430012B00F0E98021
:10447800012385F83430422385F835300023AB63B7
:104488000E9B0093284641463A462346FFF78EFD89
:1044980060B1AB6B042B04D1002385F834300123C1
:1044A800DCE0002385F834300323D7E0012E0FD158
:1044B8002A68136823F4806313602B685A6903928F
:1044C8009A690392039A1A6842F400721A6099E092
:1044D800022E10D12A68136823F4806313602A68B7
:1044E800136843F4006313602B685A6904929B694C
:1044F8000493049B86E02B685A6905929B6905938F
:10450800059B7FE0032E5ED8012E12D1284656491E
:1045180000220E9BFFF790FC002840F094802B6847
:104528001B690C9A1370013EB6B2134601330C9303
:1045380068E0022E1AD128464C4900220E9BFFF74C
:104548007BFC002840F081802A68136843F40073DC
:1045580013602B681A690C9B03F8022B2A681269EE
:104568000C994A70023EB6B20C934BE028463F497C
:1045780000220E9BFFF760FC002868D12A681368A8
:1045880023F4806313602B681B690C9A1370013E37
:10459800B6B22846354900220E9BFFF74DFC00288D
:1045A80057D12A68136843F4007313602B681B699A
:1045B8000C9A53702B681B699370023EB6B213466F
:1045C80003330C931EE02846274900220E9BFFF771
:1045D80033FC00283FD10C9B591C2B681B690C9A93
:1045E8001370013EB6B22B685A6912F0040F08D056
:1045F8001B690C9A5370013EB6B2134602330C93F2
:1046080000E00C91002E7FF47DAF2A68136823F434
:10461800006313602846164901220E9BFFF70CFC25
:104628000346D0B9012285F83520002285F83420C8
:1046380014E0022312E0012310E001230EE002231C
:104648000CE002230AE0032308E0032306E0032327
:1046580004E0032302E0032300E00323184606B026
:10466800BDE8F081788C00084000010004000100DA
:104678000200100090F83500704700BF704700BF77
:10468800002800F0588170B504460368AB4A93428D
:1046980007D002F58062934203D0A948DC2102F0DA
:1046A80085F9636863B1B3F5807F09D0B3F5007FFE
:1046B80006D0B3F5407F03D0A148DD2102F076F99A
:1046C800A3685BB1102B09D0202B07D0302B05D065
:1046D800B02B03D09A48DE2102F068F9E368012B79
:1046E80007D9032B05D0052B03D09548DF2102F00D
:1046F8005DF92369B3F5007F04D01BB19048E02130
:1047080002F054F96369A3F5FA518E4A914205D92A
:10471800022B03D08A48E12102F048F9A3692BB1A2
:10472800082B03D08648E22102F040F9E369012B07
:1047380003D98348E32102F039F9236A012B03D90D
:104748007F48E42102F032F994F83D3013F0FF0F6E
:1047580002D12046FFF792FF022284F83D2021680B
:10476800CB6923F47B6323F00F03CB6123681A62C0
:104778002368DD696369934269D0E3680BB9012650
:1047880000E00226E369012B0BD16F4B9B6813F401
:10479800000F3BD16C4A936843F4000393606B4A63
:1047A80035E0694B1B6813F0806F03D1012084F852
:1047B8003D0070BD644B9B6813F4000F04D0624A3F
:1047C800936823F4000393605F4B5B6813F4800FD6
:1047D80007D05D4B596801F03F015D4AB2FBF1F02B
:1047E80006E0594B596801F03F015A4AB2FBF1F013
:1047F800554BD3F88420C2F3881200FB02F1D3F89A
:104808008430C3F30273B1FBF3F200E04F4A23692B
:10481800B3F5007F08D1130A03EB83035B006269D9
:10482800B3FBF2F3053309E07301B2FBF3F303EBD7
:1048380083035B006269B3FBF2F30533464AA2FBCC
:104848000323DB0803F001025908120202E00023E7
:104858001A460221881EFD2801D90022022120685B
:10486800266932430A4302626168A2681143E2681A
:104878001143A2690A43154345F400652268D561CE
:10488800226A012A51D122682C498A4202D1A1F513
:10489800806101E04FF040212848824201D12F4A2F
:1048A80001E04FF04022D26922F47B6222F00F022D
:1048B800CA612168214A914202D1A2F5806201E0D1
:1048C8004FF040220221116220681C4A904202D116
:1048D800A2F5806201E04FF04022D2696168B1F52B
:1048E800007F07D049B1B1F5407F09D0B1F5807F8D
:1048F80009D107E04FF4807305E04FF4807302E0BC
:10490800002300E00023A1680B43E1680B43A16981
:104918000B43134343F40063084A904202D1A2F5C3
:10492800806201E04FF04022D3610020206401231F
:1049380084F83D3070BD0120704700BF003800404A
:10494800A88C0008C0CE0200003802400080BB00DE
:1049580000127A000024F400CDCCCCCC0034004006
:10496800002950D038B504460D46002A4DD090F89D
:104978003D30DBB2012B4AD161620168CB6903F09B
:104988000703C96901F00701032B01D0052904D1E8
:10499800520092B22285628501E00285428594F830
:1049A8003C30DBB2012B34D0012384F83C30122395
:1049B80084F83D3000232364636B174A1A64636BE1
:1049C800164ADA63636B164A9A642268238D606B11
:1049D80029460C329BB2FCF719FE2368DA6912F4F7
:1049E800806F03D1DA6942F48062DA6123685A6819
:1049F80012F0020F03D15A6842F002025A600020F6
:104A080084F83C0038BD01207047012038BD0220E1
:104A180038BD022038BD00BF0D4B0008194B0008F7
:104A2800914B000890F83C30DBB2012B64D010B5F4
:104A3800012380F83C300268536823F00203536076
:104A48000268536823F001035360036A012B27D1DE
:104A580003682A4A934202D1A2F5806201E04FF02E
:104A6800402226498B4201D1254B01E04FF04023DB
:104A78005B6823F0020353600368204A934202D123
:104A8800A2F5806201E04FF040221C498B4201D11F
:104A98001B4B01E04FF040235B6823F00103536098
:104AA8000446406B08B1FCF7F9FDA06B08B1FCF7B0
:104AB800F5FD2268D36923F48063D361236A012B4F
:104AC80013D123680D4A934202D1A2F5806201E016
:104AD8004FF0402209498B4201D1094B01E04FF0C8
:104AE8004023DB6923F48063D361012384F83D30DC
:104AF800002084F83C0010BD0220704700380040B8
:104B08000034004008B5806B03F0D0FB08BD00BF3F
:104B180008B5836B0268126812F4807F2CD10022DA
:104B28005A8519684A6822F002024A601A6A012AFC
:104B380013D11A6812498A4202D1A1F5806101E0B5
:104B48004FF040210E48824201D10E4A01E04FF059
:104B58004022526822F001024A6093F83D20D2B206
:104B6800322A06D15A8E92B232B9012283F83D20F8
:104B780002E0012283F83D20184603F08DFB08BDB2
:104B8800003800400034004008B5806B002343859E
:104B98004386012380F83D30036C43F0200303640F
:104BA80003F092FB08BD00BF90F83D00704700BFBE
:104BB8002DE9F04782B007460D46D0F80080CB00BB
:104BC8005B1A9B0003445E6C9A6CB61A9B6B9E4200
:104BD80000D91E4616F1030901D509F103094FEA68
:104BE800A90921E05E1AC5EBC5039B003B449B6BFA
:104BF8009E4200D91E4616F1030901D509F10309A1
:104C08004FEAA909EC00641BA4003C44E16B3B7C1F
:104C180000934046EAB2B3B201F046FCE36B33447A
:104C2800E363A36C3344A364424608EB451303F5DE
:104C380010639B699BB24B4509D9EB005B1B9B003A
:104C48003B44996C5B6C994201D2002BCAD1002E6F
:104C580007DC0123AB40D2F8341821EA0303C2F879
:104C68003438002002B0BDE8F08700BF002872D0B9
:104C7800F0B589B004460368B3F1A04F06D0384AAE
:104C8800934203D03748982101F090FE032384F81B
:104C98007933204601F084FF206801F0CDF92546DC
:104CA80055F8107B6E460FCD0FC695E80F0086E8C5
:104CB8000F00231D0ECB384601F07CF92068002137
:104CC80001F0C0F9002210E0D3009B1A9B00234496
:104CD800012183F8311083F83020DA86002183F827
:104CE80033109963D963596401320E2AECD9002232
:104CF80018E0D3009B1A9B002344002183F8D511A8
:104D080083F8D421DA8683F8D711C3F8DC11C3F805
:104D1800E011C3F8E811236802F1400003EB8003B7
:104D2800596001320E2AE4D9254655F8107B6E46A3
:104D38000FCD0FC695E80F0086E80F00231D0ECB98
:104D4800384601F0BFF9012384F87933206801F06F
:104D580079FD002001E00120704709B0F0BD00BFD7
:104D680000000440D88C000890F87833012B0ED04E
:104D780010B50446012380F87833006801F056FD29
:104D8800206801F053F9002084F8780310BD022050
:104D9800704700BF2DE9F84F04460668304601F019
:104DA8008DFD002840F01B82206801F057FD002887
:104DB80000F01582206801F051FD10F0020F02D0BA
:104DC800236802225A61206801F048FD10F4002F80
:104DD8005CD0206801F046FD0746002553E017F037
:104DE800010F4ED05FFA85F92068494601F04AFD67
:104DF800804610F0010F31D006EB45130122C3F8AD
:104E0800082B03F530632269012A12D1EA00521BEC
:104E18009200224402F5EC71D2F8DC011B69C3F35D
:104E28001203C01AC2F8EC01D2F8E0214B6813440F
:104E38008B602046494601F0FFFE2369012B0DD106
:104E480065B9C5EBC5039B002344D3F8E8312BB9FA
:104E58002068012104F55F7201F050FD18F0080F79
:104E680007D0204601F0DEFE06EB45130822C3F802
:104E7800082B18F0100F04D006EB45131022C3F8C6
:104E8800082B01357F08002FA9D100E000252068F4
:104E980001F0E4FC10F4802F6BD0206801F0EAFCEC
:104EA8000746002563E017F0010F5ED05FFA85F929
:104EB8002068494601F0F0FC804610F0010F2DD023
:104EC800012202FA05F0D6F8343823EA0003C6F8BE
:104ED800343806EB4513C3F808292369934209D1EE
:104EE800EB005B1B9B00234403F13802D96B9B6BDF
:104EF8000B4453602046494601F0AAFE2369012B62
:104F08000CD15DB9C5EBC5039B0023445B6C2BB981
:104F18002068012104F55F7201F0F0FC18F0080F19
:104F280004D006EB45130822C3F8082918F0100F1F
:104F380004D006EB45131022C3F8082918F0400FD7
:104F480004D006EB45134022C3F8082918F0020FD5
:104F580004D006EB45130222C3F8082918F0800F85
:104F680003D020462946FFF723FE01357F08002F8E
:104F780099D1206801F072FC00280CDAD6F80438C0
:104F880023F00103C6F80438204601F089FE23689F
:104F98004FF000425A61206801F060FC10F4006F85
:104FA8000BD0D6F8083813F0010F02D0204601F0D4
:104FB80071FE23684FF400625A61206801F04EFCCC
:104FC80010F4805F4ED0374606F50068D8F80430F4
:104FD80023F00103C8F804302068002101F048F8E4
:104FE800002207E007EB4213FF21C3F80819C3F8B2
:104FF800081B013263689342F4D84FF0FF33C8F8B6
:105008001830D8F81C3043F00113C8F81C30A36AD4
:1050180063B1D8F8843043F00B03C8F88430D8F86B
:10502800443043F00B03C8F844300BE0D8F8143090
:1050380043F00B03C8F81430D8F8103043F00B03D2
:10504800C8F81030D6F8003823F4FE63C6F80038E4
:105058002068217C04F55F7201F050FC23684FF44E
:1050680080525A61206801F0F9FB10F4005F26D0E5
:10507800206801F027FC2268D36823F47053D360BA
:10508800206801F0C1F850B90023E3604FF40073C1
:1050980063612268D36843F41053D36008E00323A4
:1050A800E360402363612268D36843F4A053D3606C
:1050B800204601F0DFFD23684FF400525A61206852
:1050C80001F0CCFB10F0100F42D02268936923F056
:1050D80010039361376A07F00F08C7F34343022BA5
:1050E8001CD147F6F0731F402DD03F094FEAC8097D
:1050F800C8EB090A4FEA8A0AA2443046DAF8E011F6
:105108003A4601F011FBDAF8E0313B44CAF8E031E5
:10511800DAF8EC311F44CAF8EC7114E0062B12D10E
:10512800304604F55F71082201F0FEFAC7F30A174A
:105138004FEAC803C8EB030292002244D2F8EC31CC
:105148003B44C2F8EC312268936943F01003936141
:10515800206801F083FB10F0080F05D0204601F00D
:1051680083FD236808225A61206801F077FB10F458
:10517800801F07D02046E9B201F09EFD23684FF456
:1051880080125A61206801F069FB10F4001F07D0F3
:105198002046E9B201F08AFD23684FF400125A61F3
:1051A800206801F05BFB10F0804F06D0204601F02C
:1051B80089FD23684FF080425A61206801F04EFB58
:1051C80010F0040F0BD023685D6815F0040F02D0AF
:1051D800204601F07DFD23685A6815435D60BDE8EF
:1051E800F88F00BF90F87833012B0BD010B5044628
:1051F800012380F87833006801F008FB002084F868
:10520800780310BD0220704738B50546C8B210F0C3
:10521800800F07D001F07F04C4EBC404A40030342D
:105228002C4407E001F07F04C4EBC404A4002C4420
:1052380004F5EA7401F07F012170C0096070A26072
:10524800E37000B1E180022B01D10023237195F8AE
:105258007833012B0AD0012385F878332868214652
:1052680000F0F2FF002085F8780338BD022038BD31
:1052780010B50446CAB212F0800F07D001F07F03C0
:10528800C3EBC3039B003033034407E001F07F0303
:10529800C3EBC3039B00034403F5EA7301F07F01EA
:1052A8001970D2095A7094F87823012A0AD0012279
:1052B80084F878232068194601F00CF8002084F857
:1052C800780310BD022010BD70B501F07F06F40010
:1052D800A51BAD00054405F5EA712C46C5F8E0218B
:1052E800C5F8E8310023C4F8EC3184F8D53184F8E6
:1052F800D4610369012B05D1C6EBC604A40004449C
:10530800C4F8E42190F87823012A11D00446012238
:1053180080F8782326B90068DAB201F019F803E0BA
:105328000068DAB201F0D4F8002084F8780370BD80
:10533800022070BD70B501F07F06F400A51BAD001A
:1053480030354119A41BA4000444E26363640023BC
:10535800A364012384F8313084F830600369012B99
:1053680004D1C6EBC604A4000444226490F8782350
:10537800012A11D00446012280F8782326B9006852
:10538800DAB200F0E5FF03E00068DAB201F0A0F855
:10539800002084F8780370BD022070BD38B504463B
:1053A800CAB212F0800F07D001F07F03C3EBC3032A
:1053B8009B003033034405E0C1EBC1039B00034469
:1053C80003F5EA730120987001F07F051D70D2097A
:1053D8005A7094F87823824210D084F878032068B1
:1053E800194601F0B7F92DB92068217C04F55F72E0
:1053F80001F084FA002084F8780338BD022038BD13
:1054080010B50446CAB212F0800F07D001F07F032E
:10541800C3EBC3039B003033034405E0C1EBC10376
:105428009B00034403F5EA730020987001F07F01A4
:105438001970D2095A7094F87823012A0AD00122E7
:1054480084F878232068194601F0B0F9002084F820
:10545800780310BD022010BD30B40468636A19B91E
:1054680043EA0240A06218E00D46A06A03EB104030
:10547800002308E003F1400104EB8101496800EBD7
:1054880011400133DBB2691E8B42F3DB40EA024074
:1054980005F13F0104EB81014860002030BC7047F2
:1054A800036859620020704738B5044603680F2B1B
:1054B80004D9B34840F21B1101F078FA236813F0BD
:1054C800010F5FD06368012B06D9052B04D0AC48C7
:1054D8004FF4907101F06AFAAA4B9B6803F00C0331
:1054E800042B0AD0A74B9B6803F00C03082B0DD1A3
:1054F800A44B5B6813F4800F08D0A24B1B6813F40D
:10550800003F3FD06368002B3CD1FCE100229E4B5A
:105518001A70FAF79DFF054607E0FAF799FF401B56
:1055280041F28833984200F2F081964B1B6813F4DD
:10553800003FF2D12279944B1A7063688BB1FAF765
:1055480087FF054607E0FAF783FF401B41F28833DF
:10555800984200F2DC818B4B1B6813F4003FF2D0B9
:1055680010E0FAF775FF054607E0FAF771FF401BF0
:1055780041F28833984200F2CC81824B1B6813F4C5
:10558800003FF2D1236813F0020F6DD0E368012BBE
:1055980004D97B484FF4B07101F008FA23691F2B36
:1055A80004D9774840F2611101F000FA754B9B6805
:1055B80013F00C0F0AD0734B9B6803F00C03082BF5
:1055C8001CD1704B5B6813F4800F17D16D4B1B68AF
:1055D80013F0020F03D0E368012B40F09C81694867
:1055E800026822F0F8012269F82393FAA3F3B3FAC8
:1055F80083F3DBB29A400A43026035E0E3680BB3F9
:105608000122624B1A60FAF723FF054605E0FAF714
:105618001FFF401B642800F280815A4B1B6813F05F
:10562800020FF4D05748036823F0F8012269F823E1
:1056380093FAA3F3B3FA83F3DBB29A4041EA020385
:10564800036011E00022514B1A60FAF701FF05468A
:1056580005E0FAF7FDFE401B642800F26081494B23
:105668001B6813F0020FF4D1236813F0080F2ED033
:105678006369012B04D942484FF4D07101F096F9BF
:10568800636993B10122424B1A60FAF7E1FE0546BD
:1056980005E0FAF7DDFE401B642800F24281394B31
:1056A8005B6F13F0020FF4D011E00022384B1A6040
:1056B800FAF7CEFE054605E0FAF7CAFE401B642855
:1056C80000F231812F4B5B6F13F0020FF4D1236886
:1056D80013F0040F6FD0A368012B06D9052B04D053
:1056E80027484FF4E57101F061F9264A136C43F03D
:1056F80080531364A2F5E432136843F48073136093
:10570800FAF7A6FE054605E0FAF7A2FE401B642854
:1057180000F20B811F4B1B6813F4807FF4D000222A
:105728001D4B1A70FAF794FE054607E0FAF790FE4B
:10573800401B41F28833984200F2F980114B1B6FED
:1057480013F0020FF2D1227A134B1A70A368012BBF
:1057580011D1FAF77DFE054607E0FAF779FE401BFE
:1057680041F28833984200F2E480064B1B6F13F035
:10577800020FF2D01FE0FAF76BFE054616E000BFF5
:10578800188D0008003802400238024000004742E5
:10579800800E47420070004070380240FAF758FE09
:1057A800401B41F28833984200F2C580684B1B6F5A
:1057B80013F0020FF2D1A369022B04D9654840F215
:1057C8000E2101F0F3F8A369002B00F0B680604ABF
:1057D800926802F00C02082A00F0B180022B7FD1F7
:1057E800E3693BB1B3F5800F04D05A4840F2172162
:1057F80001F0DCF8236A3F2B04D956484FF40671B0
:1058080001F0D4F8636AC03BF02B04D9514840F248
:10581800192101F0CBF8A36A022B0AD0042B08D077
:10582800062B06D0082B04D04A4840F21A2101F072
:10583800BDF8E36A043B0B2B04D9464840F21B2110
:1058480001F0B4F80022444B1A60FAF701FE05464D
:1058580004E0FAF7FDFD401B642872D83C4B1B6836
:1058680013F0007FF5D1216A626A47F6C07393FA94
:10587800A3F3B3FA83F3DBB29A401143A36A5B083C
:10588800013B4FF4403292FAA2F2B2FA82F2D2B25B
:1058980093400B43E26943EA0201E36A4FF0706206
:1058A80092FAA2F2B2FA82F2D2B203FA02F241EA10
:1058B800020343F00053264A53600122264B1A6024
:1058C800FAF7C6FD044604E0FAF7C2FD001B642897
:1058D80039D81F4B1B6813F0007FF5D0002038BD66
:1058E80000221D4B1A60FAF7B3FD044604E0FAF7EC
:1058F800AFFD001B642828D8154B1B6813F0007FE8
:10590800F5D1002038BD012038BD032038BD032063
:1059180038BD032038BD012038BD032038BD032021
:1059280038BD032038BD032038BD032038BD03200F
:1059380038BD032038BD032038BD002038BD012004
:1059480038BD032038BD032038BD032038BD00BF53
:1059580000380240188D00086000474270B50446C0
:105968000D460368013B0E2B04D9884840F27E217E
:1059780001F01CF8072D04D9844840F27F2101F07A
:1059880015F8834B1B6803F00F03AB4280F08B8044
:10599800EAB27F4B1A701B6803F00F03AB4240F06A
:1059A8005181236813F0020F1DD0A368A3B1802B87
:1059B80012D0902B10D0A02B0ED0B02B0CD0C02B17
:1059C8000AD0D02B08D0E02B06D0F02B04D06F489B
:1059D80040F2952100F0EAFF6E498B6823F0F0024F
:1059E800A36813438B60236813F0010F00F0E8806D
:1059F8006368022B04D965484FF4277100F0D6FF7D
:105A08006268012A05D1634B1B6813F4003F0ED16D
:105A18001AE1022A05D15F4B1B6813F0007F06D1FB
:105A280014E15C4B1B6813F0020F00F01181594917
:105A38008B6823F0030313438B60FAF709FD0546CF
:105A48006368012B0FD107E0FAF702FD401B41F212
:105A58008833984200F2FE804E4B9B6803F00C039B
:105A6800042BF1D1ACE0022B17D107E0FAF7F0FCD8
:105A7800401B41F28833984200F2EE80454B9B6808
:105A880003F00C03082BF1D19AE0FAF7E1FC401B74
:105A980041F28833984200F2E1803E4B9B6813F054
:105AA8000C0FF2D18CE0236813F0020F1DD0A3680D
:105AB800A3B1802B12D0902B10D0A02B0ED0B02BDE
:105AC8000CD0C02B0AD0D02B08D0E02B06D0F02B5E
