:020000040800F2
:1000000000000220B9020008C1020008C502000871
:100010000D03000811030008590300080000000048
:10002000000000000000000000000000A103000824
:10003000A503000800000000A9030008AD030008A4
:10004000BD030008BD030008BD030008BD03000890
:10005000BD030008BD030008BD030008BD03000880
:10006000BD030008BD030008BD030008BD03000870
:10007000BD030008BD030008BD030008BD03000860
:10008000BD030008BD030008BD030008BD03000850
:10009000BD030008BD030008BD030008BD03000840
:1000A000BD030008BD030008BD030008BD03000830
:1000B000BD030008BD030008BD030008BD03000820
:1000C000BD030008BD030008BD030008BD03000810
:1000D000BD030008BD030008BD030008BD03000800
:1000E000BD030008BD030008BD030008BD030008F0
:1000F000BD030008BD030008BD030008BD030008E0
:10010000BD030008BD030008BD030008BD030008CF
:10011000BD030008BD030008BD030008BD030008BF
:10012000BD030008BD030008BD030008BD030008AF
:10013000BD030008BD030008BD030008BD0300089F
:10014000BD030008BD030008BD030008BD0300088F
:10015000BD030008BD030008BD030008BD0300087F
:10016000BD030008BD030008BD030008BD0300086F
:10017000BD030008BD030008BD0300080000000027
:10018000BD030008BD03000800B583B001F004FC06
:10019000384B394A1360394A136039490CE00A6810
:1001A0004B6801F10C04886803E01168196004339E
:1001B00004329842F9D82146324B9942EFD32E4B64
:1001C0001A68314B9A4204D12C4B1A682F4B9A4231
:1001D00000D0FEE7274B2E4A13602E4A13602E4BA9
:1001E0000AE0194651F8082B5B6802E00020106015
:1001F00004329A42FAD30B46284A9342F1D3244B55
:100200001B6813B9234B1B6803B1FEE701F022FF03
:1002100001A8694601F05AFB214C224B1C1BA4107B
:10022000002504E01E4B53F8253098470135AC42B9
:10023000F8DC1D4C1D4B1C1BA410002504E01A4BC0
:1002400053F8253098470135AC42F8DC0198009905
:1002500001F0F6FF0546164C164B1C1BA41004E0DB
:10026000013C134B53F824309847002CF8DC284607
:1002700001F0FEFABABADECA000000208C000020AD
:10028000C0030008D8030008785634123254769818
:1002900090000020F0010020D8030008E8030008C7
:1002A000E8030008E8030008E8030008E803000882
:1002B000E8030008E803000808B5FFF765FF00BF82
:1002C000FEE700BF1EF0040F0CBFEFF30880EFF352
:1002D00009807146364A10472DE9F04182B0074641
:1002E0008846084B5D6B9C6B9E6A074801F002FBD9
:1002F000CDF80080384631462A46234601F050FBAF
:10030000FEE700BF00ED00E05C300008FEE700BF44
:100310001EF0040F0CBFEFF30880EFF30980714665
:10032000244A10472DE9F04182B007468846084B21
:100330005D6B9C6B9E6A074801F0DCFACDF800808B
:10034000384631462A46234601F02AFBFEE700BF25
:1003500000ED00E06C3000081EF0040F0CBFEFF35E
:100360000880EFF309807146134A10472DE9F041E8
:1003700082B007468846084B5D6B9C6B9E6A0748B7
:1003800001F0B8FACDF80080384631462A462346B7
:1003900001F006FBFEE700BF00ED00E0783000084A
:1003A000FEE700BFFEE700BFFEE700BF70470000AA
:1003B000D9020008250300086D030008FEE700BF0E
:1003C000E03000080000002090000020E03000082D
:1003D000000000100000001090000020F401002038
:0803E0000000001000000010F5
:1003E800704700BF10B5044600F03AFF064BA3FB68
:1003F8000030800900F0ACF84FF0FF3021460022B1
:1004080000F050F8002010BDD34D621008B50B4B1A
:100418001A6842F400721A601A6842F480621A601C
:100428001A6842F480721A60032000F01DF80F2049
:10043800FFF7D8FFFFF7D4FF002008BD003C0240BB
:10044800014B1868704700BF94000020024A1368E7
:1004580023F002031360704710E000E0014B1868B6
:10046800000C7047002004E010B50446C31E042B9E
:1004780003D90A48A42101F02DFA04F00700084A1C
:10048800D36823F4E0631B041B0C43EA002040F00C
:10049800BF6040F40030D06010BD00BFC02D000820
:1004A80000ED00E070B504460E4615460F2A03D944
:1004B8001A48BC2101F00EFA0F2E03D91748BD21A6
:1004C80001F008FA164BDB68C3F30223C3F10702F5
:1004D800042A28BF0422191D062901D9D81E00E0C4
:1004E8000020012303FA02F2013A324002FA00F135
:1004F80083405A1E2A400A43002C06DA04F00F04EF
:100508001201D2B2074B1A5570BD1201D2B204F1D2
:10051800604404F5614484F8002370BDC02D0008D0
:1005280000ED00E014ED00E010B5041E03DA064803
:10053800D02101F0CFF9610904F01F040123A34081
:10054800024A42F8213010BDC02D000800E100E049
:100558000138B0F1807F0AD2064B5860F021064A74
:1005680082F823100020986007221A607047012043
:10057800704700BF10E000E000ED00E02DE9F84F03
:1005880080460F46A04B984223D003F580639842DB
:100598001FD003F5806398421BD003F5806398420F
:1005A80017D003F58063984213D003F5806398420F
:1005B8000FD003F5806398420BD003F5806398420F
:1005C80007D003F58063984203D09048C52101F015
:1005D80081F93B881BB98D48C62101F07BF97B68FE
:1005E800012B22D9112B20D0022B1ED0122B1CD06C
:1005F800874A934219D002F58012934215D002F52A
:100608008012934211D0A2F5F81293420DD002F550
:100618008012934209D002F58012934205D0032B31
:1006280003D07A48C72101F055F9BB68022B03D9DA
:100638007648C82101F04EF9002423E1A14601259E
:10064800A5403B6803EA050AAA4540F01A817B6881
:10065800022B01D0122B4AD13B69C3B3092B36D0E8
:10066800ABB3A3B39BB393B3012B30D02FD0022BE2
:100678002DD02CD02BD0032B29D0042B27D026D03B
:1006880025D0052B23D022D0092B20D0062B1ED015
:10069800092B1CD0072B1AD019D018D0082B16D02C
:1006A80015D014D0092B12D011D00A2B0FD00ED090
:1006B8000B2B0CD00C2B0AD009D00D2B07D00C2BF0
:1006C80005D00F2B03D05148D92101F003F9E608D2
:1006D800083658F8261004F0070080000F238340DE
:1006E80021EA03023B698340134348F82630D8F8CF
:1006F80000304FEA440B032606FA0BF6F64306EAE7
:1007080003027B6803F0030303FA0BF31343C8F8EF
:1007180000307B685A1E012A03D9112B01D0122BF5
:100728001CD1FB68032B03D93848EC2101F0D2F81F
:10073800D8F8083006EA0302FB6803FA0BF3134300
:10074800C8F80830D8F8043023EA05037D68C5F3F3
:10075800001505FA09F51D43C8F80450D8F80C30FF
:100768003340BE6806FA0BF61E43C8F80C607B6877
:1007780013F0805F00F08580264A536C43F4804371
:100788005364A308991CA2F5803252F8211004F092
:10079800030080000F22824021EA02011A4A904594
:1007A8003AD002F5806290452BD002F580629045E0
:1007B80025D002F5806290451FD002F580629045F1
:1007C80019D002F58062904513D002F580629045F9
:1007D8000DD002F58062904507D002F58062904501
:1007E80001D1082219E0092217E0072215E00622A4
:1007F80013E0052211E004220FE003220DE002229B
:100808000BE0012209E000BF00000240F42D0008BF
:100818000000111000380240002282400A430233CF
:100828001B4941F823201B4B1A686FEA0A0303EAA5
:100838000201786810F4803F01D04AEA0201154AA3
:100848001160526803EA0201786810F4003F01D091
:100858004AEA02010F4A5160926803EA0201786885
:1008680010F4801F01D04AEA02010A4A9160D26856
:100878001340796811F4001F01D04AEA0203054ABF
:10088800D36001340F2C7FF6D9AEBDE8F88F00BFD6
:1008980000380140003C0140F8B504460D46384B8D
:1008A800984224D003F58063984220D003F58063F2
:1008B80098421CD003F58063984218D003F58063F2
:1008C800984214D003F58063984210D003F58063F2
:1008D80098420CD003F58063984208D003F58063F2
:1008E800984204D027484FF4A17100F0F3FF002389
:1008F80042E001229A4005EA020090423BD1266874
:100908005F000321B940C9430E402660DF0808375D
:1009180054F827E003F0070C4FEA8C0C0F2606FA70
:100928000CFC2EEA0C0E44F827E0A7680F40A760DD
:10093800676827EA02026260E2681140E16003F03A
:100948000302920096409A080F4F023257F822107D
:1009580021EA060647F822600C490E68C24306EAF7
:100968000200086048681040486088681040886045
:10097800C8680240CA6001330F2BBAD9F8BD00BF5E
:1009880000000240F42D000800380140003C0140FE
:1009980038B505460C4621B9054840F28B1100F0E0
:1009A80099FF2B69234201D0012038BD002038BDB2
:1009B800F42D000870B5064615460C4621B90948BD
:1009C8004FF4D67100F086FF012D04D9054840F296
:1009D800AD1100F07FFF0DB1B46170BD2404B461A6
:1009E80070BD00BFF42D000838B5044603680F2B0E
:1009F80004D9B34840F21B1100F06CFF236813F0D0
:100A0800010F5FD06368012B06D9052B04D0AC48D1
:100A18004FF4907100F05EFFAA4B9B6803F00C0343
:100A2800042B0AD0A74B9B6803F00C03082B0DD1AD
:100A3800A44B5B6813F4800F08D0A24B1B6813F417
:100A4800003F3FD06368002B3CD1FCE100229E4B65
:100A58001A70FFF7F5FC054607E0FFF7F1FC401BAD
:100A680041F28833984200F2F081964B1B6813F4E8
:100A7800003FF2D12279944B1A7063688BB1FFF76B
:100A8800DFFC054607E0FFF7DBFC401B41F288333B
:100A9800984200F2DC818B4B1B6813F4003FF2D0C4
:100AA80010E0FFF7CDFC054607E0FFF7C9FC401B47
:100AB80041F28833984200F2CC81824B1B6813F4D0
:100AC800003FF2D1236813F0020F6DD0E368012BC9
:100AD80004D97B484FF4B07100F0FCFE23691F2B4A
:100AE80004D9774840F2611100F0F4FE754B9B6819
:100AF80013F00C0F0AD0734B9B6803F00C03082B00
:100B08001CD1704B5B6813F4800F17D16D4B1B68B9
:100B180013F0020F03D0E368012B40F09C81694871
:100B2800026822F0F8012269F82393FAA3F3B3FAD2
:100B380083F3DBB29A400A43026035E0E3680BB303
:100B48000122624B1A60FFF77BFC054605E0FFF7C0
:100B580077FC401B642800F280815A4B1B6813F015
:100B6800020FF4D05748036823F0F8012269F823EC
:100B780093FAA3F3B3FA83F3DBB29A4041EA020390
:100B8800036011E00022514B1A60FFF759FC05463B
:100B980005E0FFF755FC401B642800F26081494BD3
:100BA8001B6813F0020FF4D1236813F0080F2ED03E
:100BB8006369012B04D942484FF4D07100F08AFED2
:100BC800636993B10122424B1A60FFF739FC05466D
:100BD80005E0FFF735FC401B642800F24281394BE1
:100BE8005B6F13F0020FF4D011E00022384B1A604B
:100BF800FFF726FC054605E0FFF722FC401B6428AA
:100C080000F231812F4B5B6F13F0020FF4D1236890
:100C180013F0040F6FD0A368012B06D9052B04D05D
:100C280027484FF4E57100F055FE264A136C43F04F
:100C380080531364A2F5E432136843F4807313609D
:100C4800FFF7FEFB054605E0FFF7FAFB401B6428AB
:100C580000F20B811F4B1B6813F4807FF4D0002235
:100C68001D4B1A70FFF7ECFB054607E0FFF7E8FBA2
:100C7800401B41F28833984200F2F980114B1B6FF8
:100C880013F0020FF2D1227A134B1A70A368012BCA
:100C980011D1FFF7D5FB054607E0FFF7D1FB401B55
:100CA80041F28833984200F2E480064B1B6F13F040
:100CB800020FF2D01FE0FFF7C3FB054616E000BFA6
:100CC800342E000800380240023802400000474233
:100CD800800E47420070004070380240FFF7B0FBBA
:100CE800401B41F28833984200F2C580684B1B6F65
:100CF80013F0020FF2D1A369022B04D9654840F220
:100D08000E2100F0E7FDA369002B00F0B680604AD1
:100D1800926802F00C02082A00F0B180022B7FD101
:100D2800E3693BB1B3F5800F04D05A4840F217216C
:100D380000F0D0FD236A3F2B04D956484FF40671C2
:100D480000F0C8FD636AC03BF02B04D9514840F25B
:100D5800192100F0BFFDA36A022B0AD0042B08D08A
:100D6800062B06D0082B04D04A4840F21A2100F07E
:100D7800B1FDE36A043B0B2B04D9464840F21B2122
:100D880000F0A8FD0022444B1A60FFF759FB054606
:100D980004E0FFF755FB401B642872D83C4B1B68E6
:100DA80013F0007FF5D1216A626A47F6C07393FA9F
:100DB800A3F3B3FA83F3DBB29A401143A36A5B0847
:100DC800013B4FF4403292FAA2F2B2FA82F2D2B266
:100DD80093400B43E26943EA0201E36A4FF0706211
:100DE80092FAA2F2B2FA82F2D2B203FA02F241EA1B
:100DF800020343F00053264A53600122264B1A602F
:100E0800FFF71EFB044604E0FFF71AFB001B6428EB
:100E180039D81F4B1B6813F0007FF5D0002038BD70
:100E280000221D4B1A60FFF70BFB044604E0FFF796
:100E380007FB001B642828D8154B1B6813F0007F9C
:100E4800F5D1002038BD012038BD032038BD03206E
:100E580038BD032038BD012038BD032038BD03202C
:100E680038BD032038BD032038BD032038BD03201A
:100E780038BD032038BD032038BD002038BD01200F
:100E880038BD032038BD032038BD032038BD00BF5E
:100E980000380240342E00086000474270B504460E
:100EA8000D460368013B0E2B04D9884840F27E2189
:100EB80000F010FD072D04D9844840F27F2100F08E
:100EC80009FD834B1B6803F00F03AB4280F08B8056
:100ED800EAB27F4B1A701B6803F00F03AB4240F075
:100EE8005181236813F0020F1DD0A368A3B1802B92
:100EF80012D0902B10D0A02B0ED0B02B0CD0C02B22
:100F08000AD0D02B08D0E02B06D0F02B04D06F48A5
:100F180040F2952100F0DEFC6E498B6823F0F00268
:100F2800A36813438B60236813F0010F00F0E88077
:100F38006368022B04D965484FF4277100F0CAFC96
:100F48006268012A05D1634B1B6813F4003F0ED178
:100F58001AE1022A05D15F4B1B6813F0007F06D106
:100F680014E15C4B1B6813F0020F00F01181594922
:100F78008B6823F0030313438B60FFF761FA054680
:100F88006368012B0FD107E0FFF75AFA401B41F2C3
:100F98008833984200F2FE804E4B9B6803F00C03A6
:100FA800042BF1D1ACE0022B17D107E0FFF748FA88
:100FB800401B41F28833984200F2EE80454B9B6813
:100FC80003F00C03082BF1D19AE0FFF739FA401B24
:100FD80041F28833984200F2E1803E4B9B6813F05F
:100FE8000C0FF2D18CE0236813F0020F1DD0A36818
:100FF800A3B1802B12D0902B10D0A02B0ED0B02BE9
:101008000CD0C02B0AD0D02B08D0E02B06D0F02B68
:1010180004D02E484FF4397100F05CFC2D498B68E0
:1010280023F0F002A36813438B60236813F0010FC9
:101038005ED06368022B04D9244840F2EB2100F00B
:1010480049FC6268012A05D1224B1B6813F4003F52
:101058000ED1A5E0022A05D11E4B1B6813F0007FB4
:1010680006D19FE01B4B1B6813F0020F00F09C8019
:1010780018498B6823F0030313438B60FFF7E0F9EB
:1010880006466368012B0FD107E0FFF7D9F9801BEB
:1010980041F28833984200F289800E4B9B6803F036
:1010A8000C03042BF1D123E0022B1CD106E0FFF73F
:1010B800C7F9801B41F28833984279D8054B9B6861
:1010C80003F00C03082BF2D112E000BF342E000805
:1010D800003C024000380240FFF7B2F9801B41F2A1
:1010E8008833984266D8354B9B6813F00C0FF3D1C0
:1010F800EAB2334B1A701B6803F00F03AB425BD1A3
:10110800236813F0040F19D0E36883B1B3F5805F47
:101118000DD0B3F5A05F0AD0B3F5C05F07D0B3F523
:10112800E05F04D0274840F23B3100F0D3FB23496D
:101138008B6823F4E052E36813438B60236813F051
:10114800080F1AD0236983B1B3F5805F0DD0B3F5CA
:10115800A05F0AD0B3F5C05F07D0B3F5E05F04D055
:10116800184840F2423100F0B5FB144A936823F462
:101178006043216943EAC10393600F20FFF732F906
:10118800002070BD012070BD012070BD012070BD20
:10119800012070BD032070BD032070BD032070BD09
:1011A800012070BD012070BD012070BD032070BDFD
:1011B800032070BD032070BD012070BD00380240BF
:1011C800003C0240342E0008224B9B6803F00C03BD
:1011D800042B3DD0082B01D01F4870471D4B586881
:1011E80000F03F005B6813F4800F10D01B4BB3FB7B
:1011F800F0F3184A506847F6C072104092FAA2F20B
:10120800B2FA82F2D2B2D04000FB03F30FE0124BE5
:10121800B3FBF0F30F4A506847F6C072104092FAD9
:10122800A2F2B2FA82F2D2B2D04000FB03F3094A2A
:10123800506800F440304FF4403292FAA2F2B2FA09
:1012480082F2D2B2D04001304000B3FBF0F07047D8
:1012580002487047003802400024F40000127A0067
:1012680008B5FFF7B1FF094B9B6803F0F002F023C4
:1012780093FAA3F3B3FA83F3DBB222FA03F3044A33
:10128800D35CD840034B186008BD00BF003802404B
:10129800242E00080C0000202DE9F04106460C46DB
:1012A80090461D46FFF7CCF80746B8F1000F2AD044
:1012B8005BE0B5F1FF3F26D025B1FFF7C1F8C01BB1
:1012C800A84220D93268536823F0E003536032689B
:1012D800136823F040031360B36AB3F5005F09D1C4
:1012E8003268136823F4005313603268136843F4B8
:1012F80000531360012386F85130002386F85030DC
:101308000320BDE8F08133689B682340A342D0D115
:101318000020BDE8F081B5F1FF3F26D025B1FFF7E9
:101328008FF8C01BA84220D93268536823F0E00325
:1013380053603268136823F040031360B36AB3F54F
:10134800005F09D13268136823F4005313603268D0
:10135800136843F400531360012386F851300023C7
:1013680086F850300320BDE8F08133689B6823403D
:10137800A342D0D00020BDE8F08100BF002800F0D3
:10138800AC8010B50446436833B1B3F5827F03D00F
:101398005348B72100F09EFAA3684BB1B3F5806FAC
:1013A80006D0B3F5004F03D04D48B82100F092FAAB
:1013B800E368B3F5006F04D01BB14948B92100F0C8
:1013C80089FA23692BB1022B03D04548BA2100F0D2
:1013D80081FA6369012B03D94148BB2100F07AFAED
:1013E800A369B3F5007F07D033B1B3F5802F03D0DD
:1013F8003B48BC2100F06EFAE3698BB1082B0FD093
:10140800102B0DD0182B0BD0202B09D0282B07D050
:10141800302B05D0382B03D03148BD2100F05AFAC3
:10142800236A2BB1802B03D02D48BE2100F052FA3D
:10143800636A2BB1102B03D02948BF2100F04AFA68
:10144800A36A33B1B3F5005F03D02548C02100F08B
:1014580041FAE36A013B4FF6FE72934203D92048F2
:10146800C12100F037FA94F8513013F0FF0F02D180
:10147800204600F0CDFF022384F85130226813681B
:1014880023F04003136021686268A3681A43E36885
:101498001A4323691A4363691A43A36903F400735F
:1014A8001343E2691343226A1343A26A1A430A6088
:1014B8002168638B03F00402636A13434B6023685B
:1014C800E26A1A612268D36923F40063D3610020B9
:1014D8006065012384F8513010BD0120704700BFBA
:1014E800642E000878B110B504460268136823F02A
:1014F8004003136000F0EEFF0020606584F851009F
:1015080084F8500010BD0120704700BFF0B583B0CB
:1015180004460E4617461D4690F85130DBB2012BA3
:1015280002D0222B40F08481002E00F08381002F0E
:1015380000F08281002D00F08181A36823B19E48CC
:1015480040F2CD2100F0C6F994F85030012B00F09C
:101558007781012384F8503094F85130DBB2012BA5
:1015680002D1322384F8513000236365A763A5872D
:10157800E5872663A586E586A364E364A36AB3F5D5
:10158800005F09D12268136823F4005313602268AE
:10159800136843F40053136023681A6812F0400F6D
:1015A80003D11A6842F040021A60E368B3F5006F8D
:1015B8007DD163682BB1B3F5827F0CD1E38E012B0B
:1015C80009D12368226B1288DA60236B0233236304
:1015D800E38E013BE386E38E002B4DD1A36AB3F57E
:1015E800005F04D12268136843F4805313602046D7
:1015F80001210022089BFFF74FFE002840F02281BE
:10160800A36B2268D2681A80A36B0233A363E38FAB
:10161800013BE387BEE0204602210022089BFFF73A
:101628003BFE002840F010812368226B1288DA60A4
:10163800236B02332363E38E013B9BB2E38643B9FA
:10164800A36AB3F5005F04D12268136843F480539A
:101658001360204601210022089BFFF71DFE002889
:1016680040F0F480A36B2268D2681A80A36B02331F
:10167800A363E38F013BE387E38E002BCBD1636841
:10168800002B40F08780204601210022089BFFF7AD
:1016980003FE002840F0DC80A36B2268D2681A8021
:1016A800A36B0233A363E38F013BE38772E06368B4
:1016B8002BB1B3F5827F0BD1E38E012B08D12268C1
:1016C800236B591C21631B78D360E38E013BE386AF
:1016D800E38E002B48D1A36AB3F5005F04D12268DA
:1016E800136843F480531360204601210022089BAD
:1016F800FFF7D2FD002840F0AD80A36B2268D268C6
:101708001A70E38F013BE38744E020460221002260
:10171800089BFFF7C1FD002840F09E802268236BDC
:10172800591C21631B78D360E38E013B9BB2E3868F
:1017380043B9A36AB3F5005F04D12268136843F480
:1017480080531360204601210022089BFFF7A4FD67
:10175800002840F08380A36B5A1CA2632268D268D9
:101768001A70E38F013BE387E38E002BCDD16368CA
:1017780083B9204601210022089BFFF78DFD002830
:101788006ED1A36B5A1CA2632268D2681A70E38FC9
:10179800013BE387A36AB3F5005F16D12046012118
:1017A8000022089BFFF778FD40B1636D43F0020308
:1017B8006365032355E000BF642E00082368DB68D7
:1017C8009BB2ADF80630BDF80630204680210122D4
:1017D800089BFFF761FD034628B1636D43F01003D2
:1017E800636503233DE0012284F8512021688A685B
:1017F80002F01002A06AB0F5005F15D1A2B1636DC6
:1018080043F002036365B0F5005F08D10B6823F469
:1018180000530B602268136843F4005313600023DD
:1018280084F8503001231CE0002284F8502018E08E
:10183800022316E0012314E0012312E0012310E043
:1018480002230EE003230CE003230AE0032308E04D
:10185800032306E0032304E0032302E0032300E05C
:101868000323184603B0F0BDFEE700BF08B50348E0
:1018780000F056F80120FFF7F7FF00BF942E00088C
:1018880008B50D4B1B6813B90C4A0B4B1A600A4B71
:101898001A68C31C23F00303134409498B4206D971
:1018A80000F040FE0C2303604FF0FF3008BD0249F2
:1018B8000B60104608BD00BF98000020F40100200E
:1018C80000FC012001230360014B0B60704700BF3F
:1018D8000400002008B503460A460348194600F0EC
:1018E80005F8FFF7C3FF00BFE82E00080FB400B5E6
:1018F80083B004AB53F8042B01930848802100F00F
:1019080003FF011E03DD054800F03EF801460846C6
:1019180003B05DF804EB04B0704700BFA0000020DE
:1019280010B5044600F0BEFE0146204600F02CF833
:101938000248012100F028F810BD00BFD82F000888
:1019480010B400221AE04FF06043D3F8803E13F041
:10195800010F06D04FF06043D3F8003E13F0010F9B
:1019680001D110460DE04FF060431B68002BFAD000
:1019780004784FF060431C70013201308A42E2D390
:1019880008465DF8044B704708B5FFF7D9FF08BD56
:1019980008B500F079F808BDF8B504460D461746B5
:1019A8001E462648FFF7A2FF25482168FFF79EFF3D
:1019B80024486168FFF79AFF2348A168FFF796FF5C
:1019C8002248E168FFF792FF21482169FFF78EFF5F
:1019D80020486169FFF78AFF1F48A169FFF786FF62
:1019E8001E48E169FFF782FF1D48FFF77FFF1D488A
:1019F8002946FFF77BFF1C4CE16A1C48FFF776FF7E
:101A0800216B1B48FFF772FFE16B1A48FFF76EFF67
:101A180015F0800F03D018483946FFF767FF15F413
:101A2800004F03D015483146FFF760FF1448FFF711
:101A38005DFF14480699FFF759FFF8BD402F0008CD
:101A4800502F0008602F0008702F0008802F000812
:101A5800902F0008A02F0008B02F0008C02F000802
:101A6800D02F0008DC2F000800ED00E0EC2F000864
:101A7800FC2F00080C3000081C3000082C3000082F
:101A88003C300008443000080C4B1A6842F0010250
:101A98001A60002199601A6822F0847222F4803258
:101AA8001A60074A5A601A6822F480221A60D960BC
:101AB8004FF00062034B9A60704700BF0038024045
:101AC8001030002400ED00E02DE9F04106460C46F8
:101AD80090461D46FEF7B4FC0746B8F1000F2AD021
:101AE8005BE0B5F1FF3F26D025B1FEF7A9FCC01B8E
:101AF800A84220D93268536823F0E0035360326863
:101B0800136823F040031360B36AB3F5005F09D18B
:101B18003268136823F4005313603268136843F47F
:101B280000531360012386F85130002386F85030A3
:101B38000320BDE8F08133689B682340A342D0D1DD
:101B48000020BDE8F081B5F1FF3F26D025B1FEF7B2
:101B580077FCC01BA84220D93268536823F0E00301
:101B680053603268136823F040031360B36AB3F517
:101B7800005F09D13268136823F400531360326898
:101B8800136843F400531360012386F8513000238F
:101B980086F850300320BDE8F08133689B68234005
:101BA800A342D0D00020BDE8F08100BF2DE9F0416C
:101BB80084B0BDF8286090F85140E4B2012C40F0A0
:101BC800F68191F85140E4B2012C40F0F281002AEC
:101BD80000F0F181002E00F0F0811F4615460C46FA
:101BE8008046836833B1B3F5004F03D09148712123
:101BF800FFF770FE98F85030012B00F0E0810123C8
:101C080088F8503094F85030012B00F0DA81012325
:101C180084F85030122388F851300023C8F8543023
:101C2800222284F851206365C8F83050A8F834603F
:101C3800A8F83660A763A687E687C8F84C30C8F8C6
:101C48004830A8F83C30A8F83E30A364E364A38683
:101C5800E386D8F82830B3F5005F0BD1D8F8002018
:101C6800136823F400531360D8F80020136843F472
:101C780000531360A36AB3F5005F09D122681368A3
:101C880023F4005313602268136843F4005313606D
:101C9800D8F80830B3F5004F05D1D8F800201368FC
:101CA80043F480431360A368B3F5004F04D122685E
:101CB800136823F4804313606368B3F5827F0DD102
:101CC800A3685BB984F850300B9B009320462946E3
:101CD8003A463346FFF71AFC03467FE1D8F800304E
:101CE8001A6812F0400F03D11A6842F040021A60D5
:101CF80023681A6812F0400F03D11A6842F04002B4
:101D08001A60D8F80C30002B69D1D8F804301BB110
:101D1800B8F83630012B49D1D8F80020D8F830303F
:101D2800591CC8F830101B78D360B8F83630013B1E
:101D3800A8F836302046012100220B9BFFF7C4FE8D
:101D4800002840F04081A36B5A1CA2632268D26825
:101D58001A70E38F013BE38728E040460221002206
:101D68000B9BFFF7B1FE002840F02F81D8F8002028
:101D7800D8F83030591CC8F830101B78D360B8F840
:101D88003630013BA8F836302046012100220B9B53
:101D9800FFF79AFE002840F01A81A36B5A1CA26331
:101DA8002268D2681A70E38F013BE387B8F83630AF
:101DB800002BD2D1D8F82830B3F5005F05D1D8F878
:101DC8000020136843F480531360A36AB3F5005FDF
:101DD80076D12268136843F48053136070E0D8F812
:101DE80004301BB1B8F83630012B51D1D8F8003087
:101DF800D8F830201288DA60D8F830300233C8F8C2
:101E08003030B8F83630013BA8F83630204601218A
:101E180000220B9BFFF758FE002840F0DA80A36BE6
:101E28002268D2681A80A36B0233A363E38F013B55
:101E3800E3872DE0883000084046022100220B9BF2
:101E4800FFF742FE002840F0C680D8F80030D8F8E6
:101E580030201288DA60D8F830300233C8F83030D1
:101E6800B8F83630013BA8F8363020460121002268
:101E78000B9BFFF729FE002840F0AF80A36B226878
:101E8800D2681A80A36B0233A363E38F013BE38715
:101E9800B8F83630002BCFD1D8F82830B3F5005F2A
:101EA80005D1D8F80020136843F480531360A36A5F
:101EB800B3F5005F04D12268136843F480531360BC
:101EC800A36AB3F5005F13D12046012100220B9BC2
:101ED800FFF7FAFD28B1636D43F00203636503233E
:101EE8007CE02368DB689BB2ADF80E30BDF80E309D
:101EF8006368B3F5827F0BD1A368B3F5004F02D0B6
:101F0800B3F5806F04D12268136823F0400313608F
:101F18004046022100220B9BFFF7D6FD38B1D8F8C6
:101F2800543043F01003C8F85430032356E04046B9
:101F3800802101220B9BFFF7C7FD034638B1D8F873
:101F4800543043F01003C8F85430032346E0D8F85F
:101F5800082032B9D8F80020D1680291926802921C
:101F6800029A012284F8512088F851202268916849
:101F780001F01001A06AB0F5005F12D189B1636D5C
:101F880043F002036365136823F400531360226867
:101F9800136843F400531360002384F8503001237E
:101FA8001CE0002284F8502088F8502016E0022314
:101FB80014E0022312E0012310E001230EE00223C3
:101FC8000CE002230AE0032308E0032306E00323CE
:101FD80004E0032302E0032300E00323184604B0CF
:101FE800BDE8F08110B592B0174A136C43F08053E6
:101FF8001364A2F5E432136843F4404313600123E9
:1020080001930293022407944FF480030893082352
:1020180009934FF4A8730A930B9407230C9301A810
:10202800FEF7E2FC0F230D930E9400230F934FF459
:10203800A05310934FF4805311930DA80521FEF778
:102048002DFF12B010BD00BF0038024008B5FFF7E1
:102058001BFDFEF7DBF9FEF7F9F9FFF7C3FF08BD33
:1020680010B592B01C4A136C43F080531364A2F568
:10207800E432136843F4404313600123019302934D
:10208800022407944FF480030893082309934FF41C
:10209800A8730A930B9407230C9301A8FEF7A4FCDA
:1020A8000F230D930E9400230F934FF4A053109316
:1020B8004FF4805311930DA80521FEF7EFFEFEF7AC
:1020C800CDF941F20103984204D1044A136843F45C
:1020D8008073136012B010BD00380240003C02400B
:1020E80008B51148FFF7FEF91048FFF7FBF9104B48
:1020F800186800F025FA0F4B186800F021FA0E4B0B
:10210800186800F01DFA0D4B186800F019FA012044
:1021180000F01CF9002000F019F9022000F016F96F
:10212800032000F013F9FEE78C0100202C010020A9
:1021380088010020E801002084010020E40100203B
:1021480070B5FFF78DFF3448344B03601823C36123
:102158000023836043610222026183620722C26214
:10216800C36003624FF40072826143624FF482736A
:102178004360FFF703F908B1FFF7B2FF2848294B7E
:1021880003601823C3610023836043610222026154
:1021980083620722C262C36003624FF400728261E5
:1021A80043624360FFF7EAF808B1FFF799FF0020A0
:1021B800014600F0EBF8012000F08AF8002000F05A
:1021C80087F8022000F084F8032000F081F801204D
:1021D80000F0AEF9144E3060012000F0A9F9134D5B
:1021E8002860012000F0A4F9114C2060012000F0C3
:1021F8009FF9104B1860316801220A702968002085
:10220800087021680A701B6802241C7000F09EF890
:10221800204600F09BF870BD8C0100200030014082
:102228002C0100200038004088010020E80100202F
:1022380084010020E401002000B583B0FFF780FF8F
:1022480032E0002000F0DAF80128FAD1002000F08E
:10225800D5F80028FAD1012000F088F8002000F015
:1022680085F8022000F082F8032000F07FF8124B76
:102278001A68124B1B680121009141F288310191C3
:102288000F481049FFF792FC0F4B18700028EED149
:102298000A4B1B68187800F059F8074B1A6813782E
:1022A800013303F003031370084B1B78002BC8D1CC
:1022B80003B05DF804FB00BF88010020E4010020A2
:1022C8008C0100202C010020EC01002010000020CF
:1022D80070B586B0044628B9194A136B43F0080351
:1022E800136316E0012805D1154A136B43F0080360
:1022F80013630EE0022805D1114A136B43F008035B
:10230800136306E0032804D10D4A136B43F0080356
:1023180013630C4B33F81450019501230293039374
:1023280002230493084E56F8240001A9FEF726F963
:1023380056F8240029460022FEF73CFB06B070BD83
:1023480000380240A03000081400002008B50346F9
:10235800044A52F82000044A32F813100122FEF70A
:1023680029FB08BD14000020A030000808B503466A
:10237800044A52F82000044A32F813100022FEF7EB
:1023880019FB08BD14000020A030000830B587B044
:102398000C46054620B9164A136B43F00103136334
:1023A80064B9012301930023029303930223049346
:1023B800104B53F8250001A9FEF7E0F8012C15D1C0
:1023C8000123019300240394022304930A4B0293EC
:1023D800084B53F8250001A9FEF7D0F806200F2175
:1023E8002246FEF75FF80620FEF79EF807B030BDDC
:1023F80000380240240000200000111008B5034BEB
:1024080053F820000121FEF7C3FA08BD240000207C
:102418002DE9F04186B02D4C236B43F00103236373
:10242800236B43F001032363236B43F0010323630E
:10243800636C43F48053636420230193022602965D
:1024480001270397049605250595DFF88480404603
:1024580001A9FEF793F8402301930595404601A989
:10246800FEF78CF8802301930595404601A9FEF7F5
:1024780085F8236B33432363236B33432363236B35
:1024880033432363236C43F4804323644FF40053A2
:1024980001930296039704960595A4F55054204697
:1024A80001A9FEF76BF84FF4804301930595204688
:1024B80001A9FEF763F84FF4004301930595204600
:1024C80001A9FEF75BF806B0BDE8F08100380240CC
:1024D8000000024010B5114B5A6A42F480525A6209
:1024E8005A6A22F480525A621A6A42F480421A6284
:1024F8001A6A22F480421A62094C20464FF40051AD
:10250800FEF7CAF920464FF48041FEF7C5F9204688
:102518004FF40041FEF7C0F910BD00BF003802407B
:1025280000040240014B1868704700BF8800002073
:10253800024B0146186800F04FB800BF8800002021
:10254800024B0146186800F003B800BF880000205D
:1025580030B500293DD051F8042C0B1F1D49002A25
:10256800B8BF9B180A680C4612B95A600B6030BD98
:1025780093420DD219685818904201BF5A58521800
:102588001A6042685A60236030BD994203D80A46EF
:1025980051680029F9D1146815199D420AD11B68A0
:1025A8002344D0188842136013D108680344136089
:1025B8004B680DE002D90C23036030BD1C68181964
:1025C800884204BF08684968596004BF0019186048
:1025D800536030BD2401002070B5CC1C24F00304E6
:1025E80008340C2C38BF0C24002C064603DA0C23C4
:1025F8003360002070BD8C42F9D3204A136810461E
:102608001946A1B10A68121B0ED40B2A03D90A6015
:102618008B188C501FE08B420DBF5A684A685A606D
:10262800026018BF0B4616E00B464968E9E7144DEF
:102638002B681BB9304600F025F828603046214643
:1026480000F020F8421C0346D1D0C51C25F0030534
:1026580085420AD11C6003F10B001A1D20F0070007
:10266800821A0AD05142995070BD3046E91A00F0DA
:1026780009F80130BBD02B46ECE770BD24010020DF
:102688002001002038B5064C002305460846236083
:10269800FFF7F6F8431C02D1236803B12B6038BD5D
:1026A80028010020034613F8012B002AFBD1181A31
:1026B8000138704730B5141E9BB0054604DA8B23E9
:1026C80003604FF0FF301CE04FF40272ADF80C20AD
:1026D80014BF04F1FF322246029205924FF6FF72B0
:1026E80000910491ADF80E2069461A461E9B00F031
:1026F80075F8431CBCBF8B232B6014B1009B0022D0
:102708001A701BB030BD000073B50093054B064628
:102718000D461446186831462A462346FFF7CAFF75
:1027280002B070BD880000202DE9F0478E68B342E2
:1027380082460C469046994640D38A8912F4906F97
:102748003AD0256809696F1A6569022305EB4505C2
:1027580095FBF3F57B1C4B449D4238BF1D46530542
:102768000FD52946FFF738FF064698B121693A4642
:1027780000F0CBFAA38923F4906343F08003A3818C
:1027880013E02A4600F0E7FA064670B95046216978
:10279800FFF7DEFE0C23CAF80030A38943F040039C
:1027A800A3814FF0FF30BDE8F087266165613E44A4
:1027B800ED1B2660A5604E46B14500D24E46324616
:1027C8002068414600F0ACFAA3689B1BA36023680D
:1027D8001E4426600020BDE8F08700002DE9F04384
:1027E8009DB0064603938B891C060D4690460CD572
:1027F8000B6953B94021FFF7EFFE2860286110B933
:102808000C233360CCE040236B6100230993202321
:102818008DF8293030238DF82A3043461C4613F8AA
:10282800012B1AB9B4EB08090FD002E0252AF5D11B
:10283800F8E73046294642464B46FFF775FF013018
:1028480000F0A980099B4B4409932378002B00F0E2
:10285800A28000234FF0FF3204930793059206935A
:102868008DF853301A9304F101084446DFF8489173
:1028780021784846052200F039FA08F10108049B3E
:1028880030B1C9EB00000122824013430493ECE706
:10289800D80644BF20228DF85320190744BF2B22A5
:1028A8008DF8532022782A2A02D0079923460EE071
:1028B800039A111D12680391002ABBBF524243F0CC
:1028C800020307920792B8BF049301340AE01C463A
:1028D80001332278303A092A03D80A2000FB012163
:1028E800F5E7079123782E2B1AD163782A2B0AD182
:1028F800039B1A1D1B680392002BB8BF4FF0FF33D0
:10290800023405930CE0611C00220C460131237847
:10291800303B092B03D80A2000FB0232F5E7059269
:10292800DFF8988021784046032200F0DFF938B1BB
:10293800049AC8EB000040238340134304930134F6
:1029480021781A488DF82810062204F1010800F0B1
:10295800CDF988B1164B33B9039B073323F007032E
:102968000833039313E003AB0093304604A92A46C7
:10297800104BAFF3008007E003AB0093304604A987
:102988002A460C4B00F092F8421C074603D0099BDC
:102998003B44099341E7AB895B0601D4099801E000
:1029A8004FF0FF301DB0BDE8F08300BFB430000821
:1029B8000000000031270008AA300008B0300008E5
:1029C8002DE9F84391461F468A680B69DDF8208097
:1029D8009342B8BF1346C9F8003091F84320064621
:1029E8000C4612B10133C9F800302368990642BF7A
:1029F800D9F800300233C9F80030256815F006050B
:102A08001CD094F843302268003318BF0123920683
:102A18001FD5E1185A1C302081F84300224494F84D
:102A2800451082F84310023313E03046394604F16A
:102A380019020123C047013007D00135E368D9F8EE
:102A480000209B1A9D42F0DBDBE74FF0FF30BDE82A
:102A5800F8833046394604F14302C0470130F4D0C8
:102A68002268D9F80050E36802F00602042A08BF79
:102A78005D1B2269A3680CBF25EAE5750025934212
:102A8800C4BF9B1AED184FF00009A9450ADA304671
:102A9800394604F11A020123C0470130D5D009F1A3
:102AA8000109F2E70020BDE8F88300002DE9FF41A5
:102AB8000C461746227E6E2A984606460A9B01F166
:102AC800430100F0AF8012D8632A23D00AD8002A25
:102AD80000F0BC80582A40F0CB8084F84520DFF80D
:102AE80004E257E0642A1ED0692A1CD0C0E0732A89
:102AF80000F0B08009D86F2A2ED0702A40F0B88034
:102B0800226842F0200222603FE0752A24D0782A09
:102B18003BD0ADE01A68111D1960136884F8423083
:102B280004F14205A8E020681A6810F0800F02D06E
:102B3800101D186008E010F0400F02F10400186042
:102B480002D0B2F9003000E01368002B3EDA2D22E3
:102B58005B4284F8432039E020681A6810F0800F3F
:102B680002D0101D186007E010F0400F02F10400B9
:102B7800186001D0138800E01368227EDFF864E152
:102B88006F2A0CBF08220A221CE07822DFF858E1DD
:102B980084F845202268186812F0800F00F10405B7
:102BA8001D6003D1550601D5038800E00368D007EE
:102BB80044BF42F0200222601BB9226822F02002A2
:102BC80022601022002084F8430002E0DFF814E1BC
:102BD8000A226568A560002DA2BF206820F00400C5
:102BE800206003B965B10D46B3FBF2F002FB103368
:102BF8001EF8033005F8013D03460028F4D100E033
:102C08000D46082A0BD12368DA0708D523696268BC
:102C18009A42DEBF302305F8013C05F1FF35491B18
:102C280021612EE025681A68606915F0800F03D0CD
:102C3800151D1D60136808E015F0400F02F104052A
:102C48001D60136801D0188000E01860002323611C
:102C58000D4616E01A68111D196015686268284645
:102C6800002100F043F808B1401B6060636804E08D
:102C780004F1420584F8422001232361002384F8EB
:102C88004330CDF800803046214603AA3B46FFF783
:102C980097FE013002D14FF0FF301FE03046394631
:102CA8002A462369C0470130F5D023689B0705D41D
:102CB800E068039B9842B8BF18460FE00025E36818
:102CC800039A9B1A9D42F3DA3046394604F11902F9
:102CD8000123C0470130DED00135F0E704B0BDE87C
:102CE800F08100BFBB300008CC30000810B5C9B275
:102CF80002449042034606D01C788C4200F1010041
:102D0800F7D1184610BD002010BD10B5431E0A4467
:102D1800914204D011F8014B03F8014FF8E710BDB8
:102D2800814210B501EB020301D3421E0BE0984229
:102D3800FBD28118D21AD34204D013F8014D01F8FE
:102D4800014DF8E710BD994204D011F8014B02F883
:102D5800014FF8E710BDF8B5074615460E4621B9EC
:102D68001146BDE8F840FFF737BC1AB9FFF7F0FB8A
:102D78002846F8BD00F015F8A8420ED23846294674
:102D8800FFF72AFC044650B131462A46FFF7BDFF3B
:102D980038463146FFF7DCFB01E03046F8BD2046F7
:102DA800F8BD51F8040C0028BEBF091851F8043CBE
:102DB800C0180438704700002E2E2F73797374657D
:102DC8006D2F7372632F73746D333266342D68619F
:102DD8006C2F73746D3332663478785F68616C5F1A
:102DE800636F727465782E63000000002E2E2F73B7
:102DF800797374656D2F7372632F73746D333266D4
:102E0800342D68616C2F73746D3332663478785F53
:102E180068616C5F6770696F2E63000000000000D6
:102E28000102030401020304060708092E2E2F736A
:102E3800797374656D2F7372632F73746D33326693
:102E4800342D68616C2F73746D3332663478785F13
:102E580068616C5F7263632E630000002E2E2F730F
:102E6800797374656D2F7372632F73746D33326663
:102E7800342D68616C2F73746D3332663478785FE3
:102E880068616C5F7370692E6300000061626F7225
:102E98007428292C2065786974696E672E2E2E0097
:102EA8002C2066756E6374696F6E3A20000000000E
:102EB800617373657274696F6E20222573222066B0
:102EC80061696C65643A2066696C65202225732205
:102ED8002C206C696E65202564257325730A000013
:102EE8006173736572745F706172616D2829206601
:102EF80061696C65643A2066696C652022257322D5
:102F08002C206C696E652025640A00006D61696E6D
:102F180028617267633D25642C20617267763D5B8A
:102F2800000000002C200000222573220000000071
:102F38005D293B0A00000000537461636B206672D0
:102F4800616D653A0A000000205230203D2020259E
:102F58003038580A00000000205231203D2020253A
:102F68003038580A00000000205232203D20202529
:102F78003038580A00000000205233203D20202518
:102F88003038580A0000000020523132203D2025F8
:102F98003038580A00000000204C52203D202025DF
:102FA8003038580A00000000205043203D202025DA
:102FB8003038580A0000000020505352203D202588
:102FC8003038580A000000004653522F4641523A02
:102FD8000A0000002043465352203D202025303867
:102FE800580A00002048465352203D2020253038FA
:102FF800580A00002044465352203D2020253038EE
:10300800580A00002041465352203D2020253038E0
:10301800580A0000204D4D464152203D20253038A9
:10302800580A00002042464152203D2020253038D1
:10303800580A00004D6973630A000000204C522FA3
:103048004558435F52455455524E3D202530385817
:103058000A0000005B486172644661756C745D0A21
:10306800000000005B4275734661756C745D0A0070
:103078005B55736167654661756C745D0A00000095
:103088002E2E2F7372632F5350495F4F6E426F611C
:1030980072642E63000000000010002000400080D1
:1030A8004300232D302B2000686C4C006566674573
:1030B80046470030313233343536373839414243A8
:1030C8004445460030313233343536373839616259
:0530D800636465660061
:1030E000785634129C000020000000000024F400F8
:1030F00001000000000C0240000C0240000C0240E5
:10310000000C02400000024000000000000000002F
:1031100000000000000000000000000000000000AF
:103120000000000000000000A830000800000000BF
:10313000000000000000000000000000000000008F
:10314000000000000000000000000000000000007F
:10315000000000000000000000000000000000006F
:103160000000000000000000280000203254769883
:040000050800018965
:00000001FF
