:020000040800F2
:1000000000000220B9020008718600087586000809
:10001000798600087D8600088186000800000000BF
:10002000000000000000000000000000CD69000892
:100030008586000800000000916A00088986000893
:10004000BD030008BD030008BD030008BD03000890
:10005000BD030008BD030008AD860008BD0300080D
:10006000BD030008BD030008BD030008BD03000870
:10007000BD030008BD030008BD030008BD03000860
:10008000BD030008BD030008BD030008BD03000850
:10009000BD030008BD030008BD030008BD03000840
:1000A000BD030008BD030008BD030008BD03000830
:1000B000BD030008BD030008BD030008BD03000820
:1000C000BD030008BD030008BD030008BD03000810
:1000D000BD030008BD030008BD030008BD03000800
:1000E000BD030008BD030008BD030008BD030008F0
:1000F000BD030008BD030008BD030008BD030008E0
:10010000BD030008BD030008BD030008BD030008CF
:10011000BD030008BD030008BD030008BD030008BF
:10012000BD030008BD030008BD030008BD030008AF
:10013000BD030008BD030008BD030008BD0300089F
:10014000BD030008BD030008BD0300089D8600082C
:10015000BD030008BD030008BD030008BD0300087F
:10016000BD030008BD030008BD030008BD0300086F
:10017000BD030008BD030008BD0300080000000027
:10018000BD030008BD03000800B583B002F0A0FB6A
:10019000384B394A1360394A136039490CE00A6810
:1001A0004B6801F10C04886803E01168196004339E
:1001B00004329842F9D82146324B9942EFD32E4B64
:1001C0001A68314B9A4204D12C4B1A682F4B9A4231
:1001D00000D0FEE7274B2E4A13602E4A13602E4BA9
:1001E0000AE0194651F8082B5B6802E00020106015
:1001F00004329A42FAD30B46284A9342F1D3244B55
:100200001B6813B9234B1B6803B1FEE708F09AF88B
:1002100001A8694602F0F6FA214C224B1C1BA410DF
:10022000002504E01E4B53F8253098470135AC42B9
:10023000F8DC1D4C1D4B1C1BA410002504E01A4BC0
:1002400053F8253098470135AC42F8DC0198009905
:1002500008F02AF90546164C164B1C1BA41004E0A6
:10026000013C134B53F824309847002CF8DC284607
:1002700002F09AFABABADECA00000020D0000020CC
:10028000C0030008D8030008785634123254769818
:10029000D4000020CC4B0020D8030008E80300085D
:1002A000E8030008E8030008E8030008E803000882
:1002B000E8030008E803000808B5FFF765FF00BF82
:1002C000FEE700BF1EF0040F0CBFEFF30880EFF352
:1002D00009807146364A10472DE9F04182B0074641
:1002E0008846084B5D6B9C6B9E6A074802F09EFA3D
:1002F000CDF80080384631462A46234602F0F6FA09
:10030000FEE700BF00ED00E024920008FEE700BF1A
:100310001EF0040F0CBFEFF30880EFF30980714665
:10032000244A10472DE9F04182B007468846084B21
:100330005D6B9C6B9E6A074802F078FACDF80080EE
:10034000384631462A46234602F0D0FAFEE700BF7F
:1003500000ED00E0349200081EF0040F0CBFEFF334
:100360000880EFF309807146134A10472DE9F041E8
:1003700082B007468846084B5D6B9C6B9E6A0748B7
:1003800002F054FACDF80080384631462A4623461A
:1003900002F0ACFAFEE700BF00ED00E0409200087A
:1003A000FEE700BFFEE700BFFEE700BF70470000AA
:1003B000D9020008250300086D030008FEE700BF0E
:1003C000AC94000800000020D4000020AC94000889
:1003D0000000001000000010D4000020D04B0020CE
:0803E0000000001000000010F5
:1003E800704700BF10B5044601F06EFC064BA3FB36
:1003F8000030800900F0B4F84FF0FF3021460022A9
:1004080000F058F8002010BDD34D621008B50B4B12
:100418001A6842F400721A601A6842F480621A601C
:100428001A6842F480721A60032000F025F80F2041
:10043800FFF7D8FFFFF7D4FF002008BD003C0240BB
:10044800024A136801331360704700BFD8000020C8
:10045800014B1868704700BFD800002010B582B063
:100468000190FFF7F5FF0446FFF7F2FF001B019B21
:100478009842F9D302B010BD10B50446C31E042B30
:1004880003D90A48A42102F0C1F904F00700084A78
:10049800D36823F4E0631B041B0C43EA002040F0FC
:1004A800BF6040F40030D06010BD00BF888F0008E6
:1004B80000ED00E070B504460E4615460F2A03D934
:1004C8001A48BC2102F0A2F90F2E03D91748BD2102
:1004D80002F09CF9164BDB68C3F30223C3F1070251
:1004E800042A28BF0422191D062901D9D81E00E0B4
:1004F8000020012303FA02F2013A324002FA00F125
:1005080083405A1E2A400A43002C06DA04F00F04DE
:100518001201D2B2074B1A5570BD1201D2B204F1C2
:10052800604404F5614484F8002370BD888F000896
:1005380000ED00E014ED00E010B5041E03DA0648F3
:10054800D02102F063F9610904F01F040123A340DC
:10055800024A42F8213010BD888F000800E100E00F
:100568000138B0F1807F0AD2064B5860F021064A64
:1005780082F823100020986007221A607047012033
:10058800704700BF10E000E000ED00E02DE9F84FF3
:1005980080460F46A04B984223D003F580639842CB
:1005A8001FD003F5806398421BD003F580639842FF
:1005B80017D003F58063984213D003F580639842FF
:1005C8000FD003F5806398420BD003F580639842FF
:1005D80007D003F58063984203D09048C52102F004
:1005E80015F93B881BB98D48C62102F00FF97B68C5
:1005F800012B22D9112B20D0022B1ED0122B1CD05C
:10060800874A934219D002F58012934215D002F519
:100618008012934211D0A2F5F81293420DD002F540
:100628008012934209D002F58012934205D0032B21
:1006380003D07A48C72102F0E9F8BB68022B03D936
:100648007648C82102F0E2F8002423E1A1460125FA
:10065800A5403B6803EA050AAA4540F01A817B6871
:10066800022B01D0122B4AD13B69C3B3092B36D0D8
:10067800ABB3A3B39BB393B3012B30D02FD0022BD2
:100688002DD02CD02BD0032B29D0042B27D026D02B
:1006980025D0052B23D022D0092B20D0062B1ED005
:1006A800092B1CD0072B1AD019D018D0082B16D01C
:1006B80015D014D0092B12D011D00A2B0FD00ED080
:1006C8000B2B0CD00C2B0AD009D00D2B07D00C2BE0
:1006D80005D00F2B03D05148D92102F097F8E6082E
:1006E800083658F8261004F0070080000F238340CE
:1006F80021EA03023B698340134348F82630D8F8BF
:1007080000304FEA440B032606FA0BF6F64306EAD6
:1007180003027B6803F0030303FA0BF31343C8F8DF
:1007280000307B685A1E012A03D9112B01D0122BE5
:100738001CD1FB68032B03D93848EC2102F066F87A
:10074800D8F8083006EA0302FB6803FA0BF31343F0
:10075800C8F80830D8F8043023EA05037D68C5F3E3
:10076800001505FA09F51D43C8F80450D8F80C30EF
:100778003340BE6806FA0BF61E43C8F80C607B6867
:1007880013F0805F00F08580264A536C43F4804361
:100798005364A308991CA2F5803252F8211004F082
:1007A800030080000F22824021EA02011A4A904584
:1007B8003AD002F5806290452BD002F580629045D0
:1007C80025D002F5806290451FD002F580629045E1
:1007D80019D002F58062904513D002F580629045E9
:1007E8000DD002F58062904507D002F580629045F1
:1007F80001D1082219E0092217E0072215E0062294
:1008080013E0052211E004220FE003220DE002228A
:100818000BE0012209E000BF00000240BC8F000885
:100828000000111000380240002282400A430233BF
:100838001B4941F823201B4B1A686FEA0A0303EA95
:100848000201786810F4803F01D04AEA0201154A93
:100858001160526803EA0201786810F4003F01D081
:100868004AEA02010F4A5160926803EA0201786875
:1008780010F4801F01D04AEA02010A4A9160D26846
:100888001340796811F4001F01D04AEA0203054AAF
:10089800D36001340F2C7FF6D9AEBDE8F88F00BFC6
:1008A80000380140003C014070B5064615460C462C
:1008B80021B909484FF4D67101F0A8FF012D04D9D8
:1008C800054840F2AD1101F0A1FF0DB1B46170BD52
:1008D8002404B46170BD00BFBC8F000838B505465C
:1008E8000C4621B9044840F2C31101F08FFF6B692F
:1008F8005C406C6138BD00BFBC8F000808B5044B74
:100908005B69034203D0024B586107F003FE08BD40
:10091800003C0140F8B50668326A02F00F05C2F3E0
:100928004343C2F30A14022B32D18CB305EB85037F
:10093800DB000344D96B59B307463046224601F021
:100948008FFAAB002B44DB003B44DA6B2244DA63BA
:100958005A6C22445A6406EB4516D6F810250D4BFE
:100968001340ABB1D6F8003523F08043C6F8003504
:10097800D6F8003543F00043C6F80035AB005A19E5
:10098800D2003A4492F8483083F0010382F84830A4
:10099800F8BD00BF0000F81FF0B585B004469DF80B
:1009A80028C09DF82CE0BDF8307090F88802012826
:1009B80025D0012084F8880288004518ED002544D8
:1009C80005F1300685F830302F8785F8311085F825
:1009D80037E002F07F05B570D509F5700844C0000E
:1009E800204480F834C0CDF800C0CDF804E0029768
:1009F800206801F04DFB002384F8883200E00220D3
:100A080005B0F0BD90F88832012B0BD010B5044624
:100A1800012380F88832006801F0BCFB002084F8CC
:100A2800880210BD0220704700283ED0F0B589B07A
:100A380005460368B3F1A04F06D01E4A934203D07F
:100A48001D48862101F0E2FE032385F889322846F5
:100A580002F0F8FE286801F0B1F92C4654F810EBC2
:100A68006E460FCC0FC694E80F0086E80F002F1DC6
:100A780097E80E00704601F05FF92868012101F03F
:100A8800A3F92C4654F810EB6E460FCC0FC694E829
:100A98000F0086E80F0097E80E00704601F05AFA3A
:100AA800012385F88932002001E00120704709B050
:100AB800F0BD00BF00000440EC8F0008F8B5044604
:100AC8009DF81860BDF820509DF8247088000844EF
:100AD800C000204480F8332080F8373046B901EB55
:100AE8008100C00020444FF0030E80F83AE007E090
:100AF80001EB8100C00020444FF0020E80F83AE07C
:100B0800032B00F2A880DFE803F0029F3571012E65
:100B180040F0A180002A40F09E8035B901EB8103A6
:100B2800DB002344012283F8492001EB8103DB0029
:100B3800234493F849303BB901EB8103DB0023449C
:100B4800002283F83A2006E001EB8103DB0023440E
:100B5800022283F83A2001EB8103DB00234493F857
:100B68005430022B77D001EB8103DB00234483F858
:100B7800357070E01ABB01EB8103DB00234493F866
:100B8800493033B901EB8103DB00234483F83A2071
:100B980006E001EB8103DB002344022283F83A20BC
:100BA80001EB8103DB00234493F85430022B52D02D
:100BB80001EB8103DB00234483F835704BE001EB44
:100BC8008103DB00234493F848303BB901EB8103F0
:100BD800DB002344002283F83A203CE001EB810348
:100BE800DB002344022283F83A2034E0AAB901EB5F
:100BF8008103DB00234493F8493033B901EB8103C7
:100C0800DB00234483F83A2025E001EB8103DB0075
:100C18002344022283F83A201DE001EB8103DB0024
:100C2800234493F848303BB901EB8103DB002344AC
:100C3800002283F83A200EE001EB8103DB00234415
:100C4800022283F83A2006E001EB8103DB0023440B
:100C5800002283F83A2088004318DB002344079ACF
:100C6800DA631D64002283F854205A6483F8311033
:100C780083F855200144C900303120682144227C82
:100C880001F0CAFBF8BD00BF30B583B00546046863
:100C9800D4F840340193D4F840340093009B23F0F7
:100CA8002E030093019B13F0020F0DD0019B13F04C
:100CB800010F05D0A36923F00053A36102F01EFEC3
:100CC800009B43F002030093019B13F0080F37D0F9
:100CD800009B43F008030093019B13F0040F24D0FA
:100CE800AB69022B0FD1019B03F4C023B3F5802F0E
:100CF80004D12868022101F0D1F80BE0286801210D
:100D080001F0CCF806E0EB68032B03D14EF6602225
:100D1800C4F80424284602F0F1FDEB6883B92A6878
:100D2800936943F0005393610AE0D4F8403423F008
:100D38002E03C4F840342A68936943F00053936142
:100D4800019B13F0200F03D0009B43F02003009376
:100D5800009BC4F8403403B030BD00BFF8B5064668
:100D68000D46076807EB411707F5A064A36813F061
:100D7800040F06D00423A360E36843F00203E36092
:100D880034E0A36813F0200F02D02023A3602DE0E5
:100D9800A36813F0080F12D0E36843F00203E3607E
:100DA80001EB8103DB000344052283F8552010235F
:100DB800A3600823A360006801F0ECF916E0A368BB
:100DC80013F4806F12D0E36843F00203E360006815
:100DD80001F0E0F91023A36005EB8503DB00334441
:100DE800082283F855204FF48063A360A36813F4A6
:100DF800007F0BD0E36843F00203E36030682946C4
:100E080001F0C8F94FF40073A360F8BDA36813F0AC
:100E1800010F46D0336963B1AB005A19D20032448E
:100E2800116C2269C2F312028A1A2B44DB00334484
:100E38005A64AB002B44DB003344012283F855206D
:100E480000211965A26093F837300BB1022B0AD143
:100E5800E36843F00203E3603068294601F09AF939
:100E68001023A36012E0032B10D1D7F8003543F00C
:100E78000053C7F8003505EB8503DB003344012236
:100E880083F854203046294602F044FDAB005A1935
:100E9800D200324492F8483083F0010382F8483097
:100EA800F8BDA36813F0020F54D0E36823F00203DF
:100EB800E36005EB8503DB00334493F85530012BE1
:100EC80007D105EB8503DB003344012283F8542066
:100ED80033E0052B07D105EB8503DB0033440522FE
:100EE80083F8542029E0062B01D0082B25D1AB002C
:100EF8002B44DB0033441A6D511C1965032A09D9A8
:100F0800AB002B44DB00334400221A65042283F82B
:100F1800542006E005EB8503DB003344022283F806
:100F28005420D7F8003523F08043C7F80035D7F8A8
:100F3800003543F00043C7F800350223A36005EBF2
:100F48008503DB0033443046294693F8542002F0E9
:100F5800E1FCF8BDA36813F0800F15D0E36843F0F7
:100F68000203E360AB005A19D2003244116D01311B
:100F780011651346062283F855203068294601F08A
:100F880009F98023A360F8BDA36813F0100F28D0D7
:100F980005EB8503DB00334493F83730032B08D186
:100FA800E36843F00203E3603068294601F0F2F891
:100FB8000EE00BB1022B0BD1D7F8003523F080439C
:100FC800C7F80035D7F8003543F00043C7F80035B7
:100FD80005EB8505ED003544032385F855301023CE
:100FE800A360F8BDF8B5036803EB411303F5A064EB
:100FF800A26812F0040F06D00423A360E36843F04C
:101008000203E360F8BD0E460546A26812F0200F01
:101018001FD02023A36001EB8103DB00034493F876
:101028003530012B40F02D818F007B18DB00034405
:10103800042283F85520E36843F00203E360006864
:1010480001F0A8F8B919C9002944022381F85430DD
:10105800F8BDA26812F0400F14D08B005A18D200C5
:101068000244042182F85510134600221A65E368E9
:1010780043F00203E3600068314601F08BF8402337
:10108800A360F8BDA26812F4007F0AD0E36843F0B9
:101098000203E360006801F07DF84FF40073A36079
:1010A800F8BDA26812F0010F14D08F007B18DB0086
:1010B800034400221A65E36843F00203E360006812
:1010C80001F068F80123A360B919C900294481F81F
:1010D8005530F8BDA26812F0080F10D00823A3609D
:1010E800E36843F00203E360006801F053F806EB9D
:1010F8008601C9002944052381F85530F8BDA26846
:1011080012F0100F15D08F007B18DB00034400226B
:101118001A65E36843F00203E360006801F03AF8F7
:10112800B919C9002944032381F855301023A36055
:10113800F8BDA26812F0800F10D0E36843F00203F4
:10114800E360006801F026F806EB8601C90029442F
:10115800062381F855308023A360F8BDA26812F4F5
:10116800806F13D0E36843F00203E360006801F086
:1011780011F81023A3604FF48063A36006EB860187
:10118800C9002944082381F85530F8BDA26812F037
:10119800020F76D0E26822F00202E26001EB8102DF
:1011A800D200024492F85520012A14D18B000B4436
:1011B800DB00034483F8542093F83730022B54D1D2
:1011C8008B000B44DB00034493F8492082F00102B2
:1011D80083F8492049E0032A07D101EB8103DB00AA
:1011E8000344022283F854203FE0042A0AD18B00EA
:1011F8000B44DB000344022283F85420002283F8C6
:10120800352032E0052A06D101EB8103DB000344D7
:1012180083F8542029E0062A01D0082A25D1B200F3
:101228003244D2002A44116D481C1065032909D99B
:10123800B2003244D2002A4400211165042182F808
:10124800541006E006EB8602D2002A44022182F8F6
:101258005410D3F8002522F08042C3F80025D3F8B3
:10126800002542F00042C3F800250223A36006EBE4
:101278008603DB002B442846314693F8542002F0BD
:1012880049FBF8BDF8B504460568284600F002FE9B
:10129800012840F09480206800F0F8FD002800F054
:1012A8008E80206800F0F2FD10F4001F03D0236840
:1012B8004FF400125A61206800F0E8FD10F4801F16
:1012C80003D023684FF480125A61206800F0DEFDD5
:1012D80010F0806F03D023684FF080625A61206855
:1012E80000F0D4FD10F0020F02D0236802225A61E8
:1012F800206800F0CBFD10F0005F10D0D5F8403426
:1013080023F02E03C5F84034204602F0FDFA206889
:10131800012100F0C3FD23684FF000525A61206894
:1013280000F0B4FD10F0807F02D02046FFF7ACFC3F
:10133800206800F0ABFD10F0080F05D0204602F041
:10134800D7FA236808225A61206800F09FFD10F040
:10135800007F21D0206800F00DFF0746002614E02A
:101368000123B3403B420FD005EB4613D3F80035B9
:1013780013F4004F04D02046F1B2FFF7EFFC03E06E
:101388002046F1B2FFF72EFE0136A368B342E7D834
:1013980023684FF000725A61206800F077FD10F062
:1013A800100F0CD02268936923F010039361204634
:1013B800FFF7B0FA2268936943F010039361F8BD10
:1013C80038B590F88832012B0ED00446012580F8F4
:1013D8008852006800F0ECFC2068294600F098FD6F
:1013E800002084F8880238BD022038BD90F8883281
:1013F800012B0BD010B50446012380F88832006811
:1014080001F04EF9002084F8880210BD02207047D0
:1014180008B5006800F062FD08BD00BF01EB81015E
:10142800C900084490F85400704700BF01EB8101DF
:10143800C9000844406C704708B5006800F022FEF7
:1014480008BD00BF08B5006800F012FE08BD00BF67
:1014580038B5044603680F2B04D9B34840F21B1172
:1014680001F0D4F9236813F0010F5FD06368012BF2
:1014780006D9052B04D0AC484FF4907101F0C6F999
:10148800AA4B9B6803F00C03042B0AD0A74B9B685C
:1014980003F00C03082B0DD1A44B5B6813F4800FE9
:1014A80008D0A24B1B6813F4003F3FD06368002BA1
:1014B8003CD1FCE100229E4B1A70FEF7C9FF05469D
:1014C80007E0FEF7C5FF401B41F28833984200F25F
:1014D800F081964B1B6813F4003FF2D12279944BAC
:1014E8001A7063688BB1FEF7B3FF054607E0FEF795
:1014F800AFFF401B41F28833984200F2DC818B4BEE
:101508001B6813F4003FF2D010E0FEF7A1FF054678
:1015180007E0FEF79DFF401B41F28833984200F236
:10152800CC81824B1B6813F4003FF2D1236813F07F
:10153800020F6DD0E368012B04D97B484FF4B071DA
:1015480001F064F923691F2B04D9774840F261112F
:1015580001F05CF9754B9B6813F00C0F0AD0734BC4
:101568009B6803F00C03082B1CD1704B5B6813F4C9
:10157800800F17D16D4B1B6813F0020F03D0E3687F
:10158800012B40F09C816948026822F0F801226929
:10159800F82393FAA3F3B3FA83F3DBB29A400A432E
:1015A800026035E0E3680BB30122624B1A60FEF774
:1015B8004FFF054605E0FEF74BFF401B642800F28D
:1015C80080815A4B1B6813F0020FF4D05748036808
:1015D80023F0F8012269F82393FAA3F3B3FA83F30B
:1015E800DBB29A4041EA0203036011E00022514B4A
:1015F8001A60FEF72DFF054605E0FEF729FF401BA0
:10160800642800F26081494B1B6813F0020FF4D183
:10161800236813F0080F2ED06369012B04D94248C0
:101628004FF4D07101F0F2F8636993B10122424B93
:101638001A60FEF70DFF054605E0FEF709FF401B9F
:10164800642800F24281394B5B6F13F0020FF4D02B
:1016580011E00022384B1A60FEF7FAFE054605E055
:10166800FEF7F6FE401B642800F231812F4B5B6FBA
:1016780013F0020FF4D1236813F0040F6FD0A3689E
:10168800012B06D9052B04D027484FF4E57101F04A
:10169800BDF8264A136C43F080531364A2F5E43274
:1016A800136843F480731360FEF7D2FE054605E025
:1016B800FEF7CEFE401B642800F20B811F4B1B680F
:1016C80013F4807FF4D000221D4B1A70FEF7C0FE81
:1016D800054607E0FEF7BCFE401B41F288339842FE
:1016E80000F2F980114B1B6F13F0020FF2D1227A2E
:1016F800134B1A70A368012B11D1FEF7A9FE0546FA
:1017080007E0FEF7A5FE401B41F28833984200F23D
:10171800E480064B1B6F13F0020FF2D01FE0FEF7B8
:1017280097FE054616E000BF2C90000800380240DE
:101738000238024000004742800E474200700040D5
:1017480070380240FEF784FE401B41F2883398420D
:1017580000F2C580684B1B6F13F0020FF2D1A3692A
:10176800022B04D9654840F20E2101F04FF8A36915
:10177800002B00F0B680604A926802F00C02082A3A
:1017880000F0B180022B7FD1E3693BB1B3F5800F44
:1017980004D05A4840F2172101F038F8236A3F2B49
:1017A80004D956484FF4067101F030F8636AC03B1B
:1017B800F02B04D9514840F2192101F027F8A36A07
:1017C800022B0AD0042B08D0062B06D0082B04D0F5
:1017D8004A4840F21A2101F019F8E36A043B0B2B3E
:1017E80004D9464840F21B2101F010F80022444B6E
:1017F8001A60FEF72DFE054604E0FEF729FE401BA1
:10180800642872D83C4B1B6813F0007FF5D1216A1D
:10181800626A47F6C07393FAA3F3B3FA83F3DBB2B1
:101828009A401143A36A5B08013B4FF4403292FA95
:10183800A2F2B2FA82F2D2B293400B43E26943EACF
:101848000201E36A4FF0706292FAA2F2B2FA82F2EF
:10185800D2B203FA02F241EA020343F00053264AE5
:1018680053600122264B1A60FEF7F2FD044604E09D
:10187800FEF7EEFD001B642839D81F4B1B6813F0D8
:10188800007FF5D0002038BD00221D4B1A60FEF7FE
:10189800DFFD044604E0FEF7DBFD001B642828D8C2
:1018A800154B1B6813F0007FF5D1002038BD0120CF
:1018B80038BD032038BD032038BD032038BD0120C2
:1018C80038BD032038BD032038BD032038BD0320B0
:1018D80038BD032038BD032038BD032038BD0320A0
:1018E80038BD002038BD012038BD032038BD032095
:1018F80038BD032038BD00BF003802402C900008D6
:101908006000474270B504460D460368013B0E2B44
:1019180004D9884840F27E2100F078FF072D04D9C9
:10192800844840F27F2100F071FF834B1B6803F06D
:101938000F03AB4280F08B80EAB27F4B1A701B68B2
:1019480003F00F03AB4240F05181236813F0020FFC
:101958001DD0A368A3B1802B12D0902B10D0A02B40
:101968000ED0B02B0CD0C02B0AD0D02B08D0E02B37
:1019780006D0F02B04D06F4840F2952100F046FFC6
:101988006E498B6823F0F002A36813438B602368C9
:1019980013F0010F00F0E8806368022B04D9654852
:1019A8004FF4277100F032FF6268012A05D1634BBA
:1019B8001B6813F4003F0ED11AE1022A05D15F4BD0
:1019C8001B6813F0007F06D114E15C4B1B6813F011
:1019D800020F00F0118159498B6823F00303134368
:1019E8008B60FEF735FD05466368012B0FD107E0D4
:1019F800FEF72EFD401B41F28833984200F2FE802C
:101A08004E4B9B6803F00C03042BF1D1ACE0022B86
:101A180017D107E0FEF71CFD401B41F288339842BE
:101A280000F2EE80454B9B6803F00C03082BF1D1C4
:101A38009AE0FEF70DFD401B41F28833984200F210
:101A4800E1803E4B9B6813F00C0FF2D18CE02368C9
:101A580013F0020F1DD0A368A3B1802B12D0902BD6
:101A680010D0A02B0ED0B02B0CD0C02B0AD0D02B6E
:101A780008D0E02B06D0F02B04D02E484FF4397153
:101A880000F0C4FE2D498B6823F0F002A3681343CD
:101A98008B60236813F0010F5ED06368022B04D9B2
:101AA800244840F2EB2100F0B1FE6268012A05D11A
:101AB800224B1B6813F4003F0ED1A5E0022A05D182
:101AC8001E4B1B6813F0007F06D19FE01B4B1B6861
:101AD80013F0020F00F09C8018498B6823F0030371
:101AE80013438B60FEF7B4FC06466368012B0FD1E5
:101AF80007E0FEF7ADFC801B41F28833984200F204
:101B080089800E4B9B6803F00C03042BF1D123E072
:101B1800022B1CD106E0FEF79BFC801B41F28833A8
:101B2800984279D8054B9B6803F00C03082BF2D137
:101B380012E000BF2C900008003C02400038024030
:101B4800FEF786FC801B41F28833984266D8354BF5
:101B58009B6813F00C0FF3D1EAB2334B1A701B6871
:101B680003F00F03AB425BD1236813F0040F19D0C5
:101B7800E36883B1B3F5805F0DD0B3F5A05F0AD0F9
:101B8800B3F5C05F07D0B3F5E05F04D0274840F253
:101B98003B3100F03BFE23498B6823F4E052E368B5
:101BA80013438B60236813F0080F1AD0236983B19D
:101BB800B3F5805F0DD0B3F5A05F0AD0B3F5C05F71
:101BC80007D0B3F5E05F04D0184840F2423100F086
:101BD8001DFE144A936823F46043216943EAC10354
:101BE80093600F20FEF7FEFB002070BD012070BD42
:101BF800012070BD012070BD012070BD032070BDA3
:101C0800032070BD032070BD012070BD012070BD90
:101C1800012070BD032070BD032070BD032070BD7E
:101C2800012070BD00380240003C02402C900008A2
:101C3800224B9B6803F00C03042B3DD0082B01D0EA
:101C48001F4870471D4B586800F03F005B6813F44D
:101C5800800F10D01B4BB3FBF0F3184A506847F6BF
:101C6800C072104092FAA2F2B2FA82F2D2B2D04016
:101C780000FB03F30FE0124BB3FBF0F30F4A50687D
:101C880047F6C072104092FAA2F2B2FA82F2D2B2C9
:101C9800D04000FB03F3094A506800F440304FF489
:101CA800403292FAA2F2B2FA82F2D2B2D0400130B5
:101CB8004000B3FBF0F0704702487047003802401C
:101CC8000024F40000127A0008B5FFF7B1FF094BB1
:101CD8009B6803F0F002F02393FAA3F3B3FA83F3BB
:101CE800DBB222FA03F3044AD35CD840034B1860F2
:101CF80008BD00BF003802401C9000080C000020FE
:101D08000C4B01E0013B10D00269002AFADA0369A2
:101D180043F001030361074B01E0013B07D002696F
:101D280012F0010FF9D100207047032070470320FB
:101D3800704700BF400D030084B010B5044603A8E7
:101D480080E80E00089B012B18D1A36B23F4803385
:101D5800A363E36823F4840323F04003E360E368A8
:101D680023F44013E3600D9B012B03D1E36843F494
:101D78008013E3602046FFF7C3FF09E0E36843F000
:101D88004003E3602046FFF7BBFF4FF48033A363B3
:101D9800069B012B07D1A36843F00C03A360A3683B
:101DA80043F02003A3600020BDE8104004B0704752
:101DB800836843F00103836000207047836823F041
:101DC800010383600020704708B5C36823F0C0434F
:101DD800C360012904D1C36843F00053C36004E021
:101DE80019B9C36843F08043C3603220FEF736FB5D
:101DF800002008BD490141F020010161054B01E0C7
:101E0800013B05D0026912F0200FF9D1002070477C
:101E180003207047400D030010230361054B01E0C8
:101E2800013B05D0026912F0100FF9D1002070476C
:101E380003207047400D030030B49DF8084064B992
:101E480003339B1009D000F5805000EB023251F8A3
:101E5800045B15600134A342F9D1002030BC7047FF
:101E6800033292100FD030B40C46002300F5805591
:101E78002D6844F8045B01339A42F7D101EB8201E3
:101E8800084630BC70470846704700BF4369806900
:101E980018407047406900F00100704710B400F521
:101EA8008064D0F8003423F00303C0F80034D0F87D
:101EB800003401F003021343C0F80034012903D1B0
:101EC8004BF68033636004E0022902D141F270735B
:101ED800636000205DF8044B704700BF10B582B006
:101EE8000446D0F840340193019B23F02E0301935C
:101EF800019B43F48073C0F840340A20FEF7AEFA21
:101F0800019B23F48073C4F84034002002B010BD54
:101F180082B0D0F840340193019B23F02E03019343
:101F2800019B13F4805F08D1012906D1019B43F47A
:101F38008053C0F84034019B09E0019B13F4805F93
:101F480005D021B9019B23F48053C0F84034002008
:101F580002B0704784B010B5044603A880E80E00AC
:101F68000023C4F8003EA36B23F48023A363A36B70
:101F780023F40023A363A36B43F40013A363059B1B
:101F8800032B12D1B4F1A04F0FD0D4F8003443F092
:101F98000403C4F8003420461021FFF72BFF204625
:101FA800FFF73AFF049B7BB945E0D4F8003423F0EF
:101FB8000403C4F8003420461021FFF71BFF204615
:101FC800FFF72AFF049B63B1049804F5A06300227D
:101FD8004FF0FF3199600021D960013220339042DF
:101FE800F6D820460121FFF793FFC820FEF736FAFE
:101FF8000023A3614FF0FF336361B4F1A04F0AD10E
:102008004FF0A04380225A6202F5C0029A62154A34
:10201800C3F8002108E04FF40073636203F1807392
:10202800A362114BC4F80031069B8BB9A36943F036
:102038001003A3610CE020460121FFF769FFC820C7
:10204800FEF70CFA0023A3614FF0FF336361E2E768
:10205800A269064B1343A3610020BDE8104004B0F9
:10206800704700BFE00040000003E000080020A324
:1020780082B0D0F8403401930198C0F3414002B0D7
:10208800704700BF00F58060806880B2704700BF6D
:10209800F0B58C469DF8184000F5A0664D017719FB
:1020A8004FF0FF31B960032C2BD8DFE804F0022091
:1020B800021540F29D41F96012F0800F04D0F968D2
:1020C80041F48071F9601CE0B0F1A04F19D0F968B3
:1020D80041F06001F96014E040F29D61F96012F08E
:1020E800800F0ED0F96841F48071F96009E040F280
:1020F8002521F96012F0800F03D0F96841F4C0710E
:10210800F960D0F81874012101FA0CF13943C0F8CC
:102118001814816941F0007181619B0503F0FE503C
:10212800D30203F4F04112F0800F02D14FF0000EF9
:1021380001E04FF4004E9DF81430022B01D0002727
:1021480001E04FF40037BDF81C20C2F30A0240EA50
:1021580002030B43A20402F44022134343EA0E0392
:102168003B437351032C03D1735943F0005373510C
:102178000020F0BD80B483B000AF78607B6803F5C1
:1021880080635B699BB218460C37BD465DF8047BDB
:10219800704700BF80B485B000AF78600B46FB7015
:1021A8000023FB60FB785A017B68134403F5A063A6
:1021B8001B68FB785A017B68134403F5A0631B680E
:1021C80003F40023002B6ED0FB785A017B6813447C
:1021D80003F5A0631946FB785A017B68134403F59D
:1021E800A0631B6843F080430B607B68DB6A9BB28B
:1021F800002B45D1FB785A017B68134403F5A06393
:102208001946FB785A017B68134403F5A0631B68E1
:1022180023F000430B60FB785A017B68134403F5F5
:10222800A0631946FB785A017B68134403F5A06341
:102238001B6843F000430B60FB785A017B6813442A
:1022480003F5A0631946FB785A017B68134403F52C
:10225800A0631B6823F400430B60FB680133FB6039
:10226800FB68B3F57A7F01D900BF1BE0FB785A0100
:102278007B68134403F5A0631B68002BEDDB11E0BA
:10228800FB785A017B68134403F5A0631946FB7871
:102298005A017B68134403F5A0631B6843F00043AD
:1022A8000B606FE06EE0FB785A017B68134403F51E
:1022B800A0631946FB785A017B68134403F5A063B1
:1022C8001B6843F080430B607B6803F580631B69E0
:1022D8009BB2002B45D1FB785A017B68134403F568
:1022E800A0631946FB785A017B68134403F5A06381
:1022F8001B6823F000430B60FB785A017B6813448A
:1023080003F5A0631946FB785A017B68134403F56B
:10231800A0631B6843F000430B60FB785A017B689D
:10232800134403F5A0631946FB785A017B681344EC
:1023380003F5A0631B6823F400430B60FB680133BB
:10234800FB60FB68B3F57A7F01D900BF1AE0FB7820
:102358005A017B68134403F5A0631B68002BEDDB6F
:1023680010E0FB785A017B68134403F5A063194613
:10237800FB785A017B68134403F5A0631B6843F09C
:1023880000430B60002318461437BD465DF8047BF4
:10239800704700BF80B485B000AF78600B46FB7013
:1023A8000123FB73FB785A017B68134403F5A06390
:1023B8001A46FB7BDB041946164B0B4043F00043DF
:1023C8001361FB785A017B68134403F5A06319462F
:1023D800FB785A017B68134403F5A0631B6823F05C
:1023E80080430B60FB785A017B68134403F5A063B4
:1023F8001946FB785A017B68134403F5A0631B68F0
:1024080043F000430B60002318461437BD465DF8BF
:10241800047B70470000F81F90B589B002AFF860E0
:10242800B9601346FB7100237B7500237B82002370
:10243800FB824FF480733B82FB68B3F1A04F2BD033
:10244800BB681B79002B27D1FB79002B0BD1BB680C
:102458005B79012B07D1BB685B78F8681946FFF7F1
:1024680099FF002315E1FB79012B15D1BB685B7837
:102478005A01FB68134403F5A0631946BB685B78EF
:102488005A01FB68134403F5A063DB6823F060037B
:10249800CB60BB6800225A71BB681B69002B19D03E
:1024A800BB681B69BA6812891344013BBA68128970
:1024B800B3FBF2F3FB82FA8A3B8A9A420CD93B8A35
:1024C800FB82FB8ABA68128902FB03F31A46BB68CF
:1024D8001A6101E00123FB82BB68DB78002B07D07F
:1024E800FB8ABA68128902FB03F31A46BB681A61B1
:1024F800BB685B785A01FB68134403F5A06319466F
:10250800BB681B69C3F31202FB8ADB041846634BE2
:1025180003401A43BB689B7A5B0703F0C04313432D
:102528000B61FB79002B0AD0BB685B785A01FB680A
:10253800134403F5A0631A46BB68DB685361FB6864
:1025480003F580639B6803F00103002B0CBF012394
:102558000023DBB27B75BB685B785A01FB681344C8
:1025680003F5A0631946BB685B785A01FB681344FE
:1025780003F5A0631B6823F000530B60BB685B780E
:102588005A01FB68134403F5A0631946BB685B78DE
:102598005A01FB68134403F5A0631B687A7D520750
:1025A80013430B60BB685B785A01FB68134403F55F
:1025B800A0631946BB685B785A01FB68134403F5AE
:1025C800A0631B6823F080430B60BB685B785A01EB
:1025D800FB68134403F5A0631946BB685B785A018E
:1025E800FB68134403F5A0631B6843F000430B60CA
:1025F800FB79002B4CD1BB68DB78002B48D1BB683A
:102608001B69002B44D0BB68DB79032B32D801A2AD
:1026180052F823F02D260008532600082D2600081E
:1026280053260008BB681B6903339B087B827A8AA0
:10263800FB68DB6A9BB29A4206D9FB689B6943F048
:102648002002FB689A6116E015E0BB681B6903333A
:102658009B087B827A8AFB6803F580631B699BB2BF
:102668009A4206D9FB689B6943F08062FB689A61CD
:1026780001E000E000BFBB68D968BB685A78BB6856
:102688001B699CB200230093F8682346FFF7D4FB2C
:10269800002318461C37BD4690BD00BF0000F81F38
:1026A80080B586B000AF786000233B617868FFF79B
:1026B80085FB78681021FFF79DFB7868FFF7ACFB76
:1026C8000023FB751FE0FB7D5A017B68134403F56B
:1026D800A0631B68FB60FB6843F08043FB60FB68FA
:1026E80023F00043FB60FB6823F40043FB60FB7DA1
:1026F8005A017B68134403F5A0631A46FB6813600C
:10270800FB7D0133FB75FB7D0F2BDCD90023FB75AB
:1027180030E0FB7D5A017B68134403F5A0631B6816
:10272800FB60FB6843F08043FB60FB6843F00043B9
:10273800FB60FB6823F40043FB60FB7D5A017B6868
:10274800134403F5A0631A46FB6813603B69013321
:102758003B613B69B3F57A7F00D908E0FB7D5A01FC
:102768007B68134403F5A0631B68002BEEDBFB7D3D
:102778000133FB75FB7D0F2BCBD97B6803F5806399
:102788001A464FF0FF3353617B684FF0FF325A61AE
:102798007868FFF70DFB002318461837BD4680BD43
:1027A800FEE700BF08B5034800F056F80120FFF720
:1027B800F7FF00BF5C90000808B50D4B1B6813B904
:1027C8000C4A0B4B1A600A4B1A68C31C23F003030C
:1027D800134409498B4206D905F06AFF0C230360AC
:1027E8004FF0FF3008BD02490B60104608BD00BF1E
:1027F800DC000020D04B002000FC012001230360F6
:10280800014B0B60704700BF0400002008B5034669
:102818000A460348194600F005F8FFF7C3FF00BF52
:10282800B09000080FB400B583B004AB53F8042B84
:1028380001930848802106F057F8011E03DD05487A
:1028480000F03EF80146084603B05DF804EB04B01A
:10285800704700BFE400002010B5044606F013F8E6
:102868000146204600F02CF80248012100F028F823
:1028780010BD00BFA091000810B400221AE04FF06C
:102888006043D3F8803E13F0010F06D04FF0604349
:10289800D3F8003E13F0010F01D110460DE04FF0C0
:1028A80060431B68002BFAD004784FF060431C701B
:1028B800013201308A42E2D308465DF8044B704782
:1028C80008B5FFF7D9FF08BD08B500F083F8044A3A
:1028D800D2F8883043F47003C2F8883008BD00BFCE
:1028E80000ED00E0F8B504460D4617461E4626489A
:1028F800FFF798FF25482168FFF794FF244861688F
:10290800FFF790FF2348A168FFF78CFF2248E16892
:10291800FFF788FF21482169FFF784FF2048616994
:10292800FFF780FF1F48A169FFF77CFF1E48E16998
:10293800FFF778FF1D48FFF775FF1D482946FFF789
:1029480071FF1C4CE16A1C48FFF76CFF216B1B48A8
:10295800FFF768FFE16B1A48FFF764FF15F0800F77
:1029680003D018483946FFF75DFF15F4004F03D030
:1029780015483146FFF756FF1448FFF753FF144830
:102988000699FFF74FFFF8BD089100081891000855
:1029980028910008389100084891000858910008CB
:1029A80068910008789100088891000898910008BB
:1029B800A491000800ED00E0B4910008C49100085B
:1029C800D4910008E4910008F491000804920008EA
:1029D8000C9200080F49D1F8883043F47003C1F80D
:1029E80088300D4B1A6842F001021A600020986086
:1029F8001A6822F0847222F480321A60074A5A60F8
:102A08001A6822F480221A60D8604FF000638B6045
:102A1800704700BF00ED00E000380240103000248D
:102A280000207047F8B50546D0F84433DC69237BAD
:102A38001BB1012B00F03F8145E1B4F8F810236881
:102A4800994280F02781342303FB0143012283F854
:102A5800912093F89030082B00F21481DFE813F0EE
:102A68000900120142009B001600CC00120112015D
:102A78000F01342303FB0143042283F89020D0F88C
:102A8800883303F51C531033C4F8FC30342202FB9E
:102A980001422846C9B29F3200F092FD034638B978
:102AA800B4F8F820342101FB0242022182F8901088
:102AB800022B08D1B4F8F830342202FB0344052372
:102AC80084F89030DEE0042B40F0DC80B4F8F83075
:102AD800342202FB0344012384F89030022384F853
:102AE8009130CFE0C9B200F001FD0246F8B9B4F860
:102AF800F830342101FB034191F8921031B13421AF
:102B080001FB0341012081F8C10005E0342101FBEC
:102B18000341002081F8C100342101FB034303F184
:102B28009001032083F8900000234B708B70022AD9
:102B380022D1B4F8F830342202FB034292F89220F2
:102B4800022A06D0342202FB0342012182F8C11076
:102B580005E0342202FB0342002182F8C11034222E
:102B680002FB034303F19002052183F8901001232F
:102B780053700223937085E0042A40F08380B4F8F0
:102B8800F830342202FB0344012384F890300223F6
:102B980084F8913076E0342202FB0142C9B29432C3
:102BA80000F0CAFC78B9B4F8F830342202FB0342CA
:102BB80002F19001012082F8900000224A7003443B
:102BC800A4F8F8305EE0022808D1B4F8F8303422CE
:102BD80002FB0344052384F8903053E0042851D1C4
:102BE800B4F8F830342202FB0344012384F890300F
:102BF800022384F8913045E0342202FB0142C9B235
:102C08009C3200F045FD024600BBB4F8F830342190
:102C180001FB034191F89C10062901D002290CD12F
:102C2800D5F88803D4F8FC10884206D8342202FB71
:102C38000343022283F8902024E0342101FB03415E
:102C4800012081F890000344A4F8F830022A08D142
:102C5800B4F8F830342202FB0344082384F8903097
:102C680010E0042A0ED1B4F8F830342202FB0344F1
:102C7800012384F89030022384F8913002E0013176
:102C8800A4F8F810D5F898030421002204F06CF891
:102C98000120F8BD0027A4F8F87001262673D0F8A3
:102CA800943302219847D5F8980304213A4604F052
:102CB8005BF83046F8BDD0F898030421002204F0F0
:102CC80053F80020F8BD0120F8BD00BF38B5D0F892
:102CD8004433DC69A37B022B02D0032B1BD013BB2C
:102CE800214600F079FA032801D100202060E8B9D4
:102CF80025780135256000220AE0342303FB0243CE
:102D0800022183F89210002183F8C1100132D2B257
:102D18009542F2D838BD002101F07EFC28B9E37B4A
:102D2800A373012038BD012038BD012038BD00BF84
:102D380038B50446D0F84433DD69697939B101F012
:102D4800FBFC2046697901F00FFD00236B7129799E
:102D580041B1204601F0F0FC2046297901F004FD3C
:102D680000232B71D4F84433D86928B105F0AEFCA0
:102D7800D4F844330022DA61002038BDF0B585B0BC
:102D88000446D0F8443319790622502300F0F4FFA2
:102D98000146FF2800F08780204600F0E3FFD4F8C2
:102DA80044534FF4807005F089FCE861D4F844334B
:102DB800DD6994F81F321A2202FB034393F8483264
:102DC80013F0800F08D0EB7194F81F3202FB034315
:102DD800B3F84A326B8108E0AB7194F81F321A22BB
:102DE80002FB0343B3F84A322B8194F81F321A22AC
:102DF80002FB034393F8503213F0800F08D0EB71B5
:102E080094F81F3202FB0343B3F852326B8108E097
:102E1800AB7194F81F321A2202FB0343B3F8523203
:102E28002B810026A5F8F860A5F8FA602E736E735A
:102E3800AE732046A97901F085FC68712046E979CE
:102E480001F080FC2871204600F0D4F905F19000CB
:102E58003146682205F04DFC6979AA7994F81C324C
:102E680094F81D02009002270197288902902046B5
:102E780001F052FC2979EA7994F81C3294F81D0281
:102E88000090019768890290204601F045FC204691
:102E98002979324600F0DEFD20466979324600F095
:102EA800D9FD304600E0022005B0F0BDF0B583B092
:102EB80005460C46D0F84433DE69342303FB01632E
:102EC80093F89030062B04D0072B2CD0052B79D102
:102ED80053E0002300931A4600F06CFC38B9342301
:102EE80003FB0464012384F89030002714E00228CF
:102EF80007D1342303FB0464052384F890300127A9
:102F08000AE0042807D1342303FB0464082384F867
:102F18009030022700E00127D5F898030421002209
:102F280003F022FF4FE0002300931A4600F0FCFB59
:102F380038B9342303FB0464012384F89030002754
:102F480014E0022807D1342303FB0464052384F822
:102F5800903001270AE0042807D1342303FB0464D6
:102F6800082384F89030022700E00127D5F8980359
:102F78000421002203F0F8FE25E0342202FB01625E
:102F88009C3200F085FB034648B9342202FB0462F8
:102F9800012182F89010022782F8917000E0012741
:102FA800022B08D0042B06D1342303FB0464082326
:102FB80084F890300227D5F898030421002203F002
:102FC800D3FE00E00127384603B0F0BDD0F8443303
:102FD800DA690378DBB20A2B08D1342303FB012119
:102FE80091F89100B0FA80F04009704700207047CE
:102FF80010B5D0F84433DC690378DBB20A2B08D16A
:103008001046342202FB0141903105F067FB002095
:1030180010BD022010BD00BFF0B583B004460D46B8
:10302800D0F84413CE6990F81E1211F0FF0F38D073
:103038000178C9B20A2936D1342101FB056191F81A
:103048009010012931D106203073342101FB05612C
:1030580081F89000A6F8FA50089900912046294670
:1030680000F0A8FBD4F8883342F21077089A07FBDF
:1030780002370CE0D4F88833BB4204D894F81E32E7
:1030880013F0FF0F03D10123337302200EE0204613
:103098002946FFF70BFF0128ECD0012333730020EA
:1030A80004E0022002E0022000E0022003B0F0BDAC
:1030B800F0B583B004460D46D0F84413CE6990F8B5
:1030C8001E1211F0FF0F38D00178C9B20A2936D183
:1030D800342101FB056191F89010012931D10720B5
:1030E8003073342101FB056181F89000A6F8FA508D
:1030F800089900912046294600F016FBD4F8883339
:1031080042F21077089A07FB02370CE0D4F88833AC
:10311800BB4204D894F81E3213F0FF0F03D10123E9
:10312800337302200EE020462946FFF7BFFE012830
:10313800ECD001233373002004E0022002E00220D7
:1031480000E0022003B0F0BD10B5D0F84433DC69CC
:10315800217900F031FC0D2810D1A26F0D4B9A4255
:103168000ED1E26FA36D9A420CD194F884305BB112
:10317800012B0BD0022B0BD0012010BD022010BD5B
:10318800022010BD012010BD002010BD012010BD7F
:10319800022010BD5553425308B5D0F84433DB69BB
:1031A80012B1012A04D007E0D97901F035FA08BD37
:1031B800997901F031FA08BD022008BD08B521222D
:1031C8000274FF224274002242828282C282114625
:1031D80001F074F908BD00BF08B5A1220274FE22EF
:1031E80042740022428282820122C28201F066F980
:1031F80008BD00BFD0F84433DB69054A5A65054A63
:103208009A65012283F8502083F8522000207047E5
:10321800555342435040302070B582B00546D0F82F
:103228004433DC6994F85030013B0A2B00F24D819D
:10323800DFE813F00B00190051005C0093009F00B9
:10324800E300EE0013012301430184F86110022317
:1032580084F8503063790126009604F154011F2246
:1032680001F022FA3EE1617900F0DAFB012818D179
:10327800E36D5BB194F96030002B03DA032384F823
:10328800503006E0052384F8503002E0072384F824
:103298005030D5F898030221002203F065FD01267D
:1032A80020E1022809D1012684F85060D5F8980356
:1032B8000221002203F058FD14E1052840F007819F
:1032C8000A2384F85030D5F898030221002203F02D
:1032D8004BFD012606E1D4F88C106289237901F0B0
:1032E800F9F9042384F850300126FBE0217900F035
:1032F80097FB012823D1E36D6289934207D9D4F85B
:103308008C101144C4F88C109B1AE36501E000236B
:10331800E365E36D43B12846D4F88C1062892379BC
:1033280001F0D8F90126DDE0072384F85030D5F8FC
:1033380098030221002203F017FD0126D2E0052898
:1033480040F0C780092384F85030D5F8980302214B
:10335800002203F009FD0126C4E0D4F88C1022896C
:1033680063790126009601F09FF9062384F850300E
:10337800B8E0617900F054FB012824D1E36D22897B
:10338800934207D9D4F88C101144C4F88C109B1AB6
:10339800E36501E00023E365E36D4BB1D4F88C10DD
:1033A8002289637901200090284601F07DF902E026
:1033B800072384F85030D5F898030221002203F03F
:1033C800D3FC01268EE002280AD1052384F8503068
:1033D800D5F898030221002203F0C6FC012681E0FB
:1033E800052878D10A2384F85030D5F898030221AB
:1033F800002203F0B9FC012674E004F178010D22E3
:10340800237901F067F9082384F85030012669E030
:10341800217900F005FB012812D1012384F85030EE
:1034280084F852302846FFF78FFE08B9002600E0DE
:103438000226D5F898030221002203F095FC51E0FA
:1034480005284AD1092384F85030D5F89803022179
:10345800002203F089FC012644E00022FFF79CFECD
:1034680020B9072384F8503001263BE0042836D1E0
:103478000B2384F85030012634E00122FFF78CFE3C
:10348800A0B92846617900F001FBC0F10102284685
:103498006179D2B200F0DEFA28462179002200F0E4
:1034A800D9FA092384F8503001261BE0042818D1E2
:1034B8000B2384F85030012614E0FFF77FFE064600
:1034C80080B9012384F850300CE001260AE0012677
:1034D80008E0012606E0012604E0012602E00126B4
:1034E80000E00126304602B070BD00BF38B5D0F804
:1034F8004433DC6994F85230012B02D0022B16D0E9
:1035080018E00025E56584F860500A2384F86230E5
:1035180004F163002946102205F0EBF884F86350A3
:10352800012084F85000022384F8523038BDFFF798
:1035380073FE38BD022038BD38B5D0F84433DC6995
:1035480094F85230012B03D01546022B1CD034E0DE
:103558000823E365802384F860300A2384F8623006
:1035680004F163000021102205F0C3F8252384F834
:103578006330012384F85030022284F8522004F189
:103588001002C4F88C2019E0FFF746FE0346A8B9DC
:10359800D4F88C10CA78887842EA0022487842EA3F
:1035A8000042097842EA01622A60D4F88C10CA798C
:1035B800897942EA0122AA8000E00123184638BD31
:1035C80070B50D46D0F84433DC6994F85230012BBD
:1035D80003D01646022B27D057E02426E665802321
:1035E80084F860300A2284F8622004F16300002124
:1035F80005F07FF8122384F863306D0184F8645075
:10360800002384F8653084F8663084F8676084F8AD
:103618006830012584F85050022384F8523004F1B0
:103628001003C4F88C3031E0FFF7F6FD054668BB9F
:1036380030460021222205F05CF8D4F88C301B7843
:1036480003F01F037370D4F88C301B785B09337058
:10365800D4F88C305B78DB09B370D4F88C10F01C8C
:103668000831082205F03AF8D4F88C1006F10C005D
:103678001031102205F032F8D4F88C1006F11D0034
:103688002031042205F02AF800E00225284670BD02
:1036980070B50D46D0F84433DC6994F85230012BEC
:1036A80003D01646022B28D03AE00E26E665802382
:1036B80084F860300A2384F8623004F16300002142
:1036C800102205F016F8032384F863306D0184F89E
:1036D8006450002384F8653084F8663084F86760A5
:1036E80084F86830012384F85030022284F852208C
:1036F80004F11002C4F88C2013E0FFF78DFD034697
:1037080078B9D4F88C20927802F00F023270D4F88D
:103718008C20127B7270D4F88C20527BB27000E03F
:103728000223184670BD00BF30B583B001921D4614
:10373800D0F84433DC6994F85230012B02D0022BC4
:1037480032D034E0069B5B02E365002184F8601008
:103758000A2384F8623004F16300102204F0C9FFE0
:103768002A2384F863309DF8073084F865309DF883
:10377800063084F866309DF8053084F867309DF887
:10378800043084F868309DF8193084F86A309DF860
:10379800183084F86B30012084F85000022384F834
:1037A8005230C4F88C5003E0FFF736FD00E00220E9
:1037B80003B030BD30B583B001921D46D0F8443314
:1037C800DC6994F85230012B02D0022B33D035E05B
:1037D800069B5B02E365802384F860300A2384F843
:1037E800623004F163000021102204F082FF2823D4
:1037F80084F863309DF8073084F865309DF806300A
:1038080084F866309DF8053084F867309DF80430F8
:1038180084F868309DF8193084F86A309DF81830BB
:1038280084F86B30012084F85000022384F8523069
:10383800C4F88C5003E0FFF7EFFC00E0022003B06F
:1038480030BD00BF0368B3F1A04F4AD12DE9F0475E
:1038580086B0244C236B43F001032363236B43F0AE
:10386800040323634FF4C05301934FF0030ACDF8C8
:1038780010A002270297002503954FF00A09CDF8FA
:103888001490DFF86880404601A9FCF77FFE4FF4EA
:10389800806301931223029301260396CDF810A0AA
:1038A800CDF81490404601A9FCF770FE01960497E4
:1038B800029603950C4801A9FCF768FE636B43F078
:1038C80080036363636C43F480436364432005218E
:1038D8002A46FCF7EFFD4320FCF72EFE06B0BDE8B4
:1038E800F08770470038024000080240000002409C
:1038F80008B5D0F88C0200F079FB08BD08B5D0F8FF
:103908008C0200F07DFB08BD08B5D0F88C0200F0F1
:1039180095FB08BD704700BF70B506464FF0FF30F5
:1039280000210A46FCF7C6FD0E4C4FF0A043236069
:103938000B23A3600025256125620223A361E561AD
:103948000323E360C4F88C62C6F890432046FDF771
:103958006BF82046FDF770FD0146304600F042FB4B
:10396800284670BDF83E002008B5D0F89003FDF752
:1039780027FD002008BD00BF08B5D0F89003FDF76B
:1039880035FD002008BD00BF08B5D0F89003FDF74D
:1039980059FD10B1022802D003E0002008BD022022
:1039A80008BD012008BD00BF08B5D0F89003FDF799
:1039B8002FFD002008BD00BF08B5D0F89003FDF723
:1039C80035FD08BD10B584B0D0F890039DF81840B7
:1039D80000949DF81C400194BDF820400294FCF727
:1039E800DBFF002004B010BD08B5D0F89003FDF748
:1039F80009F8002008BD00BF10B584B0D0F89003C6
:103A08009DF818400094079C0194BDF8204002944A
:103A18009DF824400394FDF751F8002004B010BD30
:103A280008B5D0F89003FDF7F9FC08BD08B529B929
:103A3800074801210A46FCF737FF04E00448012142
:103A48000022FCF731FFC820FCF708FD002008BD64
:103A58000008024001EB8100C000094B0344DB78F9
:103A68002BB10146074B194481F8482005E001EBCA
:103A78008101C900044B19444A700020704700BFF7
:103A8800283F0020F83E0020403F002001EB810243
:103A9800D200084B1344DB782BB11146064B19446E
:103AA80091F84800704701EB8101C900034B1944A4
:103AB80048787047283F0020F83E0020403F00200B
:103AC80008B5FCF7CBFC08BD002306E003F1D202E1
:103AD80000EB82020021516001330E2BF6D900233E
:103AE80003E0C218002111770133B3F5007FF8D342
:103AF80000230370437001228270C0F88833027675
:103B080040218171437680F81C3280F81D221846C6
:103B1800704700BF08B50378DBB20A2B04D1D0F890
:103B280044330BB19B69984708BD00BF70B584B09A
:103B380004464378072B00F2BC80DFE803F0042B2F
:103B4800355F687290A7082100F0FEFC002840F05D
:103B5800B28094F82722A27101256570217994F822
:103B68001C3294F81D02009000260196029220460D
:103B7800802200F0D1FDA279617994F81C3294F882
:103B88001D020090019602922046324600F0C4FDC4
:103B980028469FE0122100F0D7FC002840F08D80D5
:103BA80002236370012095E0012100F015FD002833
:103BB80040F085800220FFF783FF012584F81C521E
:103BC80003236370A379217994F81D2200920026BB
:103BD80001960293204680222B4600F09DFDA27993
:103BE800617994F81C3294F81D02009001960292B3
:103BF8002046324600F090FD28466BE0092100F08F
:103C0800BBFC00285DD104236370012062E0B4F896
:103C1800341200F0B1FC002855D10523637001204F
:103C280058E090F82E1281B104F11C02FF2300F035
:103C3800BBFC002849D106236370D4F898030521FA
:103C4800002203F091F8012044E006234370D0F8E5
:103C580098030521002203F087F801203AE090F844
:103C68002F1249B104F11C02FF2300F09DFC70BB28
:103C78000723637001202DE007234370D0F89803D1
:103C88000521002203F070F8012023E090F830129B
:103C980039B104F11C02FF2300F086FCC8B10120F1
:103CA80018E0D0F898030521002203F05DF8002001
:103CB80010E001200EE001200CE001200AE00120C4
:103CC80008E0012006E0012004E0012002E00120D4
:103CD80000E0002004B070BD60B370B588B00C4639
:103CE800054680F88C230023C0F84433C0F84833D5
:103CF800FFF7EAFE0CB1C5F89443104C06AB94E804
:103D0800030083E803001846002103F025F8C5F8EE
:103D1800980301AE08340FCC0FC62368336001A89E
:103D2800294602F08DFFC5F89C032846FFF7F4FDED
:103D3800002001E00220704708B070BD54920008CE
:103D48000A4651B1D0F848334BB9591CC0F848134A
:103D5800D03340F82320002070470220704702200B
:103D6800704700BF90F836328B4203D980F81F1293
:103D7800002070470220704770B400241FE066B22C
:103D88001A2505FB060595F841528D4201D0FF29F9
:103D980013D11A2505FB060595F84252954201D024
:103DA800FF2A0AD11A2505FB060696F843529D42BA
:103DB80001D0FF2B01D1E0B205E00134E4B265B2D5
:103DC800092DDCDDFF2070BC704700BF10B504462C
:103DD800FFF7CAFD20460121FFF728FE002010BD8D
:103DE80030B587B0044602238DF817300378DBB26C
:103DF8000A2B00F2DB80DFE803F006D91BCED9518D
:103E0800B063727BC80090F81E3213F0FF0F00F009
:103E1800CD8001250570C820FFF752FE2046FFF728
:103E2800C3FDD4F898032946002202F09DFFBDE0A7
:103E38006420FFF745FE2046FFF7A6FD84F81D0223
:103E4800052323702046002100F07CFC6071204689
:103E5800802100F077FC01462071A27994F81C3289
:103E680094F81D02009000250195029220468022B8
:103E780000F052FCA279617994F81C3294F81D0282
:103E880000900195029220462A4600F045FCD4F89D
:103E9800980301212A4602F067FF87E0FFF746FEF4
:103EA800002840F08380002384F81F3294F83132D0
:103EB800012B02D10823237078E00723237075E0D3
:103EC800D0F89433002B71D0012198470823237030
:103ED800D4F898030521002202F046FF66E094F822
:103EE800371200F089FB002860D1092323705DE0B8
:103EF800D0F8483353B30023C0F8443310E003F13B
:103F0800D00254F82220117994F84122914205D127
:103F180003F1D00254F82220C4F844230133DBB261
:103F2800002BECD0D4F8443373B19B6820469847F3
:103F380038B906232370D4F89433204603219847D0
:103F480004E00C23237001E00C232370D4F89803B9
:103F58000521002202F008FF28E0D0F844335BB1C5
:103F68001B6998478DF817009DF8173013F0FF0F5D
:103F78001CD10A23237019E00C230370D0F898038E
:103F88000521002202F0F0FE10E0D0F844336BB1B6
:103F98005B6998470AE0FFF797FDD4F844332BB1E3
:103FA800DB68204698470023C4F84433002007B054
:103FB80030BD00BF10B584B0044601A8D4F89813EA
:103FC8004FF0FF3202F000FF2046FFF709FF019B88
:103FD800102B02D12046FFF703FF002002F04EFE0F
:103FE800EBE700BFC0F88813704700BF08B5D0F8EA
:103FF80088330133C0F88833FFF78CFD08BD00BF54
:1040080010B50446037813F0FF0F08D1012380F898
:104018001E32D0F8943343B10421984705E0037861
:10402800DBB2012B01D102230370D4F898030121DC
:10403800002202F099FE002010BD00BF10B5044612
:10404800FFF79AFC2046217900F08EFB2046617923
:1040580000F08AFB002384F81E32D4F8943313B19D
:104068002046052198472046FFF77EFC032323704E
:10407800D4F898030121002202F076FE002010BD3A
:1040880010B40B7803704B7843708B78CC7803EBC3
:10409800042343800B7903714B7943718B798371C6
:1040A800CB79C371082A16D90B7A4A7A03EB022313
:1040B80003818B7ACA7A03EB022343810B7B4A7B09
:1040C80003EB022383818B7B8373CB7BC3730B7CD2
:1040D80003744B7C43745DF8044B70470B78037092
:1040E8004B7843708B788370CB78C3700B790371EE
:1040F8004B7943718B798371CB79C3710B7A0372D6
:10410800704700BF0B7803704B7843708B788370CF
:10411800CB78C3700B794A7903EB022383808B79C0
:10412800837170474378032B14D110B40378023B92
:104138009A42A8BF1A4692B2002305E0C418A47890
:1041480001F8014B02339BB29342F7D300230B7063
:104158005DF8044B704700BF30B583B00446037E5A
:10416800013B0A2B00F22F81DFE813F00B0014004B
:1041780040004C0071007F00B300BF00E400F20073
:10418800190104F11001627900F058FA022323762C
:10419800012023E16179FFF743FC012819D1237C31
:1041A80003F08003E28A32B113B10323237608E0D7
:1041B8000523237605E013B10923237601E00723BD
:1041C8002376D4F898030321002202F0CDFD0120C4
:1041D80004E1042840F0F9800B232376D4F89803EF
:1041E8000321002202F0C0FD0120F7E0D0F8883357
:1041F800C381A168A289237900F046FA04232376B3
:104208000120EBE02179FFF70BFC0546012807D1D7
:1042180009232376D4F898030321002202F0A4FD91
:10422800052D07D1D4F898030321002202F09CFD44
:104238000320D3E0042D40F0CA800B232376D4F862
:1042480098030321002202F08FFD0120C6E0828935
:10425800437901250095A16800F000FAD4F8883365
:10426800E381062323762846B8E06179FFF7D8FB77
:10427800012809D107232376D4F8980303210022C3
:1042880002F072FD0120A9E0052809D10C2323764C
:10429800D4F898030321002202F066FD03209DE074
:1042A800022809D105232376D4F898030321002294
:1042B80002F05AFD012091E0042840F08A800B2387
:1042C8002376D4F898030321002202F04DFD022042
:1042D80084E000210A46237900F0D6F9D4F888331F
:1042E800E38108232376012078E02179FFF798FB02
:1042F800012809D10D232376D4F89803032100223D
:1043080002F032FD002069E0042809D10B2323764E
:10431800D4F898030321002202F026FD01205DE075
:10432800052858D1D4F898030321002202F01CFD77
:10433800032053E043790125009500210A4600F047
:104348008DF9D4F88833E3810A232376284645E09B
:104358006179FFF765FB012809D10D232376D4F88D
:1043680098030321002202F0FFFC002036E0022817
:1043780009D109232376D4F898030321002202F0F7
:10438800F3FC01202AE0042827D10B232376D4F854
:1043980098030321002202F0E7FC01201EE0437E7F
:1043A8000133DBB24376022B05D8FFF7E5FA01208B
:1043B8002076A07012E0D0F89433062198470023A5
:1043C800637602200AE0012008E0012006E00120CF
:1043D80004E0012002E0012000E0012003B030BD2C
:1043E80002780B8813440B8003781844704700BF89
:1043F8002DE9F04383B005460C460B7803704B78E3
:1044080043708B78C97803EB0123438023790371C8
:1044180063794371A3798371E379C371237A037252
:10442800092A48D90923ADF8063000263BE0204682
:104438000DF10601FFF7D4FF04464378F6B2042BCA
:1044480031D14FFA86F91A2000FB09500A3021466B
:10445800FFF744FE4FF0000816E020460DF1060174
:10446800FFF7BEFF04464378052B0DD11A2000FB49
:1044780009F000EBC700284414302146FFF742FE3C
:1044880008F101085FFA88F84FFA88F71A2303FB46
:1044980009539B7B9F4204DA6A88BDF806309A422A
:1044A800DBD80136F6B273B2092B04DC6A88BDF892
:1044B80006309A42BBD803B0BDE8F08338B504464D
:1044C8008378012B02D0022B0ED01BE08160828101
:1044D8000125057602238370D0F898030321002272
:1044E80002F042FC2B460EE0FFF736FE034620B9E9
:1044F8000122A2700022227605E0022803D10122BF
:10450800A27000E00123184638BD00BF38B5BDF8D9
:1045180010508478012C11D161F07F0404740621B5
:104528004174428202F47F44B4F5407F03D140F2E3
:104538000942828201E000228282C58219462A4607
:10454800FFF7BCFF38BD00BFF0B583B0064600F1E9
:104558001C050C46009100214FF480722B46FFF792
:10456800D5FF074628B906F5087029462246FFF701
:1045780087FD384603B0F0BDF0B583B006460C465B
:1045880000F11C05009100214FF400722B46FFF743
:10459800BDFF074628B906F2322029462246FFF712
:1045A80027FF384603B0F0BDF0B583B017461C4668
:1045B80041F4407200F11C05009300212B46FFF7DF
:1045C800A5FF064620B9284639462246FFF7AAFD28
:1045D800304603B0F0BD00BF08B58378012B06D183
:1045E800002303740522427441828382C38200211E
:1045F8000A46FFF763FF08BD08B58378012B06D18B
:10460800002303740922427441828382C3820021F9
:104618000A46FFF753FF08BD08B58378012B07D179
:104628000223037401234374002343828182C382DB
:1046380000210A46FFF742FF08BD00BF10B584B04D
:104648000024009401910823029303941146224602
:104658002346FFF7D1F9204604B010BD30B585B028
:104668009DF8204090F81D5205B1002401250095C1
:10467800019102920394194600221346FFF7BCF9F0
:10468800002005B030BD00BF30B585B001250095CC
:10469800019102920024039419462A462346FFF703
:1046A800ABF9204605B030BD30B585B09DF8204047
:1046B80090F81D5205B10024012500950191029240
:1046C8000394194600220223FFF796F9002005B04B
:1046D80030BD00BF30B585B001250095019102922B
:1046E8000024039419462A460223FFF785F9204639
:1046F80005B030BD00230AE000EB8302D2F84C235A
:1047080012F4004F01D198B270470133DBB20A2B83
:10471800F2D94FF6FF70704710B584B09DF8184075
:1047280000949DF81C400194BDF820400294FFF7C6
:1047380049F9002004B010BD08B5FFF755F900206D
:1047480008BD00BF38B504460D46FFF7D3FF4FF646
:10475800FF73984205D045F4004504EB8004C4F883
:104768004C53C0B238BD00BF0A2906D8D23100EB7D
:1047780081014B68C3F30E034B600020704700BFF4
:1047880008B5074B1B5C43B9054B01221A5403EBD0
:10479800800043681B68984708BD002008BD00BF1B
:1047A8008401002008B5034B03EB800043685B6875
:1047B800984708BD8401002010B5054C04EB800023
:1047C80040688468084611461A46A04710BD00BFD5
:1047D8008401002010B5054C04EB80004068C468D3
:1047E800084611461A46A04710BD00BF84010020A4
:1047F80008B5044B03EB800043681B690846114663
:10480800984708BD840100200020704704E00A781A
:1048180002701A4601310130531E002AF7D1704741
:1048280002E001701A460130531E002AF9D1704780
:1048380070B4002301E029463046541E32B1461CAC
:1048480003784D1C087822461B1AF4D0184670BC11
:10485800704700BF00E00130037813B15AB28A42B2
:10486800F9D158B2704700BF30B400252B4620E07C
:1048780003EB430292001E4CA258C2B1D0F800428A
:10488800A24215D103EB43029200194C224454680A
:10489800D0F8082294420BD103EB43029200144C47
:1048A80022441489B0F80622944201D103E001257C
:1048B8000133012BDCD9022B08D11DB9022903D100
:1048C800002012E0002010E012200EE051B903EBA6
:1048D80043039B00074A13445B88B3F5807F03D1E9
:1048E800102002E0102000E0002030BC704700BF1C
:1048F800640100206C010020002000E00130012844
:1049080006D800EB40039B00034AD358002BF5D18F
:10491800023818BF012070476401002070B40023DA
:104928001DE003EB430292002F4CA458D0F800225C
:10493800944213D103EB430292002B4C2244546857
:10494800D0F80822944209D103EB43029200264C86
:1049580022441489B0F80622944202D00133012B74
:10496800DFD9022B1ED101E0013300E00023012B27
:1049780006D803EB430292001B4CA258002AF3D13D
:10498800022B2BD0D0F80062174D5A001A4492001F
:10499800AC18AE50D0F808226260B0F80602208148
:1049A8000020608131B103EB430080000F4A0244CC
:1049B8005288AAB941B903EB430189000B4A0A445A
:1049C8005188013189B201E04FF4807103EB430053
:1049D8008000064A02445180581C02E0002000E092
:1049E800002070BC704700BF640100206C010020EB
:1049F8000138012817D800EB400292000C4B1344F1
:104A08005B88B3F5807F00D100230BB1013B9BB2DB
:104A180000EB40018900064A0A4453802BB9002064
:104A2800044A50507047022070470020704700BF6A
:104A38006C0100206401002010B400230CE003EB9B
:104A48004302920007498A58824204D103EB430289
:104A5800920000248C500133012BF0D95DF8044BEF
:104A6800704700BF64010020D0F824220432490AAC
:104A7800D0F8003293F80202B1FBF0F113683BB1B1
:104A8800994202D3C91A0832F8E7506808447047B7
:104A980000207047CA7E8B7E43EA022390F80022EA
:104AA800032A05D1487D0A7D42EA002243EA0243EF
:104AB800184670478176C1F30723C376090C017540
:104AC800090A4175704700BF2DE9F84F88460C6800
:104AD80000E0013423785AB22F2AFAD05C2AF8D0A1
:104AE800D0F818B2584620210B22FFF799FE00266D
:104AF80033460827B14600E0534603F1010AE35C58
:104B0800DDB2202D35D92F2D33D05C2D31D02E2D6F
:104B180001D0BE420AD3082F53D12E2D54D14FEACB
:104B280089095FFA89F908260B27E5E713F0800F52
:104B380004D049F00309803D284B5D5D284829468B
:104B4800FFF788FE002842D1A5F14103DBB2192BFB
:104B580002D849F0020908E0A5F16103DBB2192B7C
:104B680003D849F00109203DEDB20BF80650013693
:104B7800C2E75444C8F80040202D01D8042300E0BF
:104B880000233EB39BF80020E52A02D105228BF8CA
:104B98000020082F03D14FEA89095FFA89F909F043
:104BA8000302012A01D143F0100309F00C09B9F1FD
:104BB800040F01D143F008038BF80B300020BDE847
:104BC800F88F0620BDE8F88F0620BDE8F88F06208C
:104BD800BDE8F88F0620BDE8F88F00BF7C9200087A
:104BE800FC92000810B4046824B94FF0FF3322E0A7
:104BF800013200E022461378D9B2202902D959B2ED
:104C08003A29F5D15BB23A2B14D1611C94F90030E2
:104C1800303B092B05D8914206D143B901320260D5
:104C280009E04FF0FF3306E04FF0FF3303E04FF0A9
:104C3800FF3300E0002318465DF8044B704700BFBF
:104C4800F8B590F804323BB30446D0F82C62074616
:104C580090F80102214632460123FFF7BBFDE8B96F
:104C6800002384F80432D4F82032F31AD4F8182236
:104C7800934215D294F803520AE0D4F818321E442D
:104C880094F80102394632460123FFF7A3FD013D9E
:104C9800012DF2D80020F8BD0020F8BD0120F8BD94
:104CA8000020F8BD70B5D0F82C328B4210D00D46DC
:104CB8000446FFF7C5FF064660B994F8010221468D
:104CC8002A460123FFF778FD30B9C4F82C5204E0D6
:104CD800002602E0012600E00126304670BD00BF34
:104CE80010B50446002380F804324FF0FF33C0F8B3
:104CF8002C32FFF7D7FF80BB94F8FF2194F8FE31E0
:104D080043EA02231BB2194A934228D194F8392066
:104D180094F838301B0443EA026394F8372043EAD6
:104D2800022394F83620134323F07F43104A93421A
:104D380017D094F8552094F854301B0443EA0263C2
:104D480094F8532043EA022394F85220134323F0A3
:104D58007F43074A934206D110BD032010BD0220AD
:104D680010BD002010BD012010BD00BF55AAFFFFD7
:104D780046415400A8B108B5D0F800329BB193F869
:104D8800001291B1B3F80612B0F8042291420ED184
:104D980093F80102FFF706FD10F0010F09D0032078
:104DA80008BD09207047092008BD092008BD092051
:104DB80008BD002008BD00BFF0B585B006461746FF
:104DC800002303600846FFF70DFF051EC0F285812A
:104DD800CE4B53F82540002C00F08181346094F8C4
:104DE80000327BB194F80102FFF7DCFC10F0010FF0
:104DF80008D1002F00F0758110F0040F40F0738186
:104E080000209AE1002384F80032E8B284F8010215
:104E1800FFF7B6FC10F0010F40F067811FB110F0EA
:104E2800040F40F0648120460021FFF759FF012854
:104E38001BD000262DE004EB021393F8C21103F5F2
:104E4800DF7351B1D87A997A090441EA0061587A36
:104E580041EA00211B7A194300E0002104AB03EB6F
:104E6800820343F8101C013200E00022032AE2D931
:104E7800002504AB03EB850353F8106C26B12046DC
:104E88003146FFF72DFF00E0022010B10135032D58
:104E9800EFD9032800F02D81002840F02C81227BD7
:104EA800E37A43EA02231BB2B3F5007F40F0258181
:104EB800E17DA37D53EA01210DD194F8272094F8D0
:104EC80026301B0443EA026394F8251043EA0123C1
:104ED80094F824101943C4F81812227C84F8032289
:104EE800531EDBB2012B00F20A8101FB02F7637B40
:104EF80084F80232002B00F004815A1E134240F05D
:104F0800028194F812E0627C42EA0E2EA4F808E2CC
:104F18001EF00F0F40F00481207DE27C52EA00224F
:104F28000DD194F8230094F82220120442EA00627A
:104F380094F8210042EA002094F820200243E57BFF
:104F4800A07B50EA052000F0ED8000EB070C0CEB8D
:104F58001E1C6245C0F0E880CCEB0202B2FBF3F302
:104F6800002B00F0E38040F6F572934201D801254A
:104F780000E002254FF6F572934200D9032502336B
:104F8800C4F81432C4F81C623218C4F8202206EBA4
:104F98000C00C4F82802032D15D1BEF1000F40F013
:104FA800C78094F82F0094F82E20120442EA006279
:104FB80094F82D0042EA002294F82C000243C4F829
:104FC80024229B0010E0BEF1000F00F0B3803A44A9
:104FD800C4F82422022D01D15B0005E003EB430253
:104FE80003F0010303EB520303F2FF13B1EB532F5A
:104FF800C0F0A2804FF0FF33C4F81032C4F80C326E
:10500800802384F80532032D59D194F8312094F87F
:10501800303043EA02231BB2012B50D12046711CC9
:10502800FFF740FE00284AD1002384F8053294F89F
:10503800FF2194F8FE3143EA02231BB2344A93421B
:105048003DD1E278A3781B0443EA0263627843EA1D
:105058000223227813432F4A934230D194F8E72150
:1050680094F8E6311B0443EA026394F8E52143EA25
:10507800022394F8E4211343274A93421FD194F85A
:10508800EB2194F8EA311B0443EA026394F8E9211E
:1050980043EA022394F8E8211343C4F8103294F841
:1050A800EF2194F8EE311B0443EA026394F8ED21F2
:1050B80043EA022394F8EC211343C4F80C3284F831
:1050C8000052164A138801339BB21380A4F80632A3
:1050D8002046FFF7B1FC00202FE00B202DE00C202C
:1050E8002BE0002029E00A2027E0032025E00A2001
:1050F80023E0012021E00D201FE00D201DE00D2000
:105108001BE00D2019E00D2017E000BF80010020F2
:1051180055AAFFFF52526141727241617C01002021
:105128000D200AE00D2008E00D2006E00D2004E027
:105138000D2002E00D2000E00D2005B0F0BD00BFFD
:1051480038B50446FFF77CFD0546002857D194F88A
:105158000032032B4BD194F80532012B47D120465E
:1051680000214FF40072FFF75BFB552384F8FE31F2
:10517800AA2384F8FF315223237063706123A3703C
:105188004122E270722184F8E41184F8E51184F870
:10519800E62184F8E731D4F8103284F8E831C3F313
:1051A800072284F8E921C3F3074284F8EA211B0E99
:1051B80084F8EB31D4F80C3284F8EC31C3F30722CD
:1051C80084F8ED21C3F3074284F8EE211B0E84F81E
:1051D800EF31D4F81C220132C4F82C2294F80102D1
:1051E80021460123FFF7F6FA002384F8053294F8E4
:1051F800010200210A46FFF7FBFA00B10125284603
:1052080038BD00BF0239D0F81432023B8B4206D9B0
:1052180090F80232D0F8280201FB03007047002002
:10522800704700BF01295AD9F8B5D0F814328B421B
:1052380057D90C46054690F80032022B27D0032B8D
:1052480035D0012B4FD101EB5107D0F8201201EBDB
:105258005721FFF727FD002847D1C7F30803EE5C65
:105268000137D5F82012284601EB5721FFF71AFD20
:1052780000283DD1C7F30807E85D46EA002014F08E
:10528800010F01D00009F8BDC0F30B00F8BDD0F83C
:10529800201201EB1421FFF705FD60BB610001F44A
:1052A800FF716B1858786B5C43EA0020F8BDD0F8A2
:1052B800201201EBD411FFF7F5FCF8B9A10001F4B5
:1052C800FE716A18D07893781B0443EA006350781B
:1052D80043EA00206B5C184320F07040F8BD0120C1
:1052E80070470120F8BD0120F8BD4FF0FF30F8BD30
:1052F8004FF0FF30F8BD4FF0FF30F8BD4FF0FF30F2
:10530800F8BD00BFF8B505460E46A5F80612D0F858
:105318000842012C42D0D0F80032D3F81422A2421D
:105328003ED92CB993F80022032A01D1D3F824429C
:1053380034B9B3F80822B24234D9D3F824021CE0B5
:1053480093F802723F0111E0D5F800022146FFF7F9
:1053580069FF0446B0F1FF3F26D0012826D9D5F8C9
:105368000032D3F81432834222D9F61BBE42EBD264
:10537800D5F800022146FFF745FFC5F80C42C8B131
:1053880000EB1610C5F81002D5F8003206F00F062B
:1053980003EB4616C5F814620020F8BD0220F8BDDC
:1053A8000220F8BD0220F8BD0120F8BD0220F8BD9A
:1053B8000220F8BD0220F8BDF8B50C46012973D9C2
:1053C80005461646D0F814328B426FD990F8003251
:1053D800022B38D0032B47D0012B60D101EB5107AA
:1053E800D0F8201201EB5721FFF75CFC0346002898
:1053F80056D1C7F3080114F0010407D06A5CF3B270
:1054080002F00F0242EA0313DBB200E0F3B26B547E
:105418000137012385F80432D5F82012284601EB1C
:105428005721FFF73FFC0346D0BBC7F3080714B169
:10543800C6F3071605E0EA5D22F00F02C6F303265D
:105448001643EE552CE0D0F8201201EB1421FFF79B
:1054580029FC034620BB640004F4FF742A192E5566
:10546800C6F3072656701BE0D0F8201201EBD411C2
:10547800FFF718FC034698B9A40004F4FE74291930
:10548800CA78120602F0704216432E55C6F3072258
:105498004A70C6F307428A70360ECE7000E00223C7
:1054A800012285F8042202E0022300E002231846C4
:1054B800F8BD00BFF8B505460F4639B9D0F80C62FB
:1054C8008EB1D0F81432B3420FD90FE0FFF7AAFE1D
:1054D80001284DD9B0F1FF3F4FD0D5F8143283429F
:1054E8004BD83E4602E0012600E00126344601344E
:1054F800D5F81432A34202D8012E3BD902242846FB
:105508002146FFF78FFE034648B1B0F1FF3F01D0B7
:10551800012801D11846F8BDB442E8D12CE028464C
:1055280021466FF07042FFF747FF034630B92FB1AD
:10553800284639462246FFF73FFF034683B9C5F898
:105548000C42D5F81032B3F1FF3F0FD0013BC5F83C
:10555800103295F8053243F0010385F8053205E06D
:10556800012B02D14FF0FF3400E001242046F8BDA2
:105578000120F8BD0020F8BD0020F8BD2DE9F0415C
:10558800B0F806420134A3B2002B00F08180D0F8B5
:105598001032002B7FD00E46054614F00F076CD151
:1055A8000133C0F81032D0F80C1231B9D0F80032FB
:1055B800B3F80832A34271D95FE0D0F8000290F83E
:1055C8000232013B13EA141357D1FFF72BFE804632
:1055D800012866D9B0F1FF3F66D0D5F80002D0F8AF
:1055E8001432434540D8002E61D0D5F80C12FFF78D
:1055F80061FF804600285DD001285ED0B0F1FF3FF2
:105608005ED0D5F80002FFF71BFB00285BD1D5F868
:10561800000200214FF40072FFF702F9D5F800628A
:1056280030464146FFF7EEFDC6F82C02002610E092
:10563800012283F80422D5F80002FFF701FB0028B5
:1056480044D1D5F80022D2F82C320133C2F82C32DA
:105658000136D5F8003293F80222B242E8D8D3F8DE
:105668002C22921BC3F82C22C5F80C82D5F8000214
:105678004146FFF7C7FDC5F81002A5F80642D5F860
:10568800003203EB4713C5F814320020BDE8F0815F
:105698000420BDE8F0810420BDE8F0810420BDE8C5
:1056A800F0810220BDE8F0810120BDE8F0810420EE
:1056B800BDE8F0810720BDE8F0810220BDE8F08157
:1056C8000120BDE8F0810120BDE8F0810120BDE89E
:1056D800F08100BF38B504460021FFF713FE00BB78
:1056E800D4F80002D4F81012FFF7DCFA0546B0B976
:1056F800D4F8140203788BB1C37A13F0080F05D1DC
:10570800D4F818120B22FFF793F840B12046002175
:10571800FFF734FF05460028E2D000E004252846BC
:1057280038BD38BD10B582B0044601910B785AB225
:105738002F2A01D05C2A01D1013101910023C4F83C
:105748000832019B1B781F2B08D820460021FFF741
:10575800D9FD03460022C4F8142226E0204601A9F8
:10576800FFF7B2F9034600BB2046FFF7B3FFD4F8B2
:105778001832DA7A034628B1042816D112F0040F39
:1057880010D012E012F0040F0FD1D4F81412CB7A13
:1057980013F0100F08D0D4F80002FFF77BF9C4F813
:1057A8000802DBE7052300E00523184602B010BD18
:1057B80070B504460E460021FFF7A4FD0246D0B995
:1057C8000025D4F80002D4F81012FFF76BFA02464D
:1057D80088B9D4F814321B78E52B00D01BB90135F1
:1057E800B54201D107E0002520460121FFF7C6FE9A
:1057F80002460028E5D0042A00D10722104670BDD1
:1058080038B505460121FFF7D3FF0446C8B9D5F8D6
:105818000002D5F81012FFF745FA044688B9D5F802
:10582800140200212022FEF7FBFFD5F81402D5F858
:1058380018120B22FEF7EAFFD5F80032012283F88E
:105848000422204638BD00BFF8B50D4601292CD9E1
:105858000446D0F814328B4229D9002720E020468C
:105868002946FFF7DFFC064630B3012821D0B0F106
:10587800FF3F20D0204629460022FFF79DFD07461E
:10588800D0B9D4F81032B3F1FF3F08D00133C4F8CF
:10589800103294F8053243F0010384F80532354696
:1058A800D4F81432AB42DAD806E0022704E0022723
:1058B80002E0022700E001273846F8BD70B584B041
:1058C80001900091164604A840F8041DFFF78AF9D4
:1058D800041E1ADB104B53F824502DB12846FFF74D
:1058E800ABF8002385F80032019B13B1002283F83E
:1058F8000022094A42F824304BB1012E09D101A8EF
:1059080069460022FFF758FA04E00B2002E0002065
:1059180000E0002004B070BD800100202DE9F043B4
:10592800ADF50F7D0191002800F0DD800546164693
:105938000023C0F8003202F01F0786A801A902F070
:105948001E02FFF739FA0446002840F0CA8003AB6C
:105958008C9306A80199FFF7E5FEDDF82C82044632
:1059680068B9B8F1000F09D037F0010306A814BFD1
:1059780001210021FEF778FF044600E0062416F016
:105988001C0F5CD07CB1042C08D1FEF7B5FF20B108
:1059980006A8FFF735FF044600E0122447F0080781
:1059A800DDF82C820BE098F80B3013F0110F03D1BF
:1059B80016F0040F02D102E0072400E00824002CAE
:1059C8004DD117F0080F4AD0FEF71EFF88F80E00D9
:1059D800C0F3072388F80F30C0F3074388F8103066
:1059E800000E88F81100002688F80B6088F81C6003
:1059F80088F81D6088F81E6088F81F608698414600
:105A0800FFF748F8814640463146FFF753F8869835
:105A1800012380F80432B9F1000F20D0D0F82C62AD
:105A28004946FFF711FF0446C8B9869809F1FF33C4
:105A3800C0F80C323146FFF735F904460FE074B967
:105A480098F80B3013F0100F06D116F0020F06D09D
:105A580013F0010F02D102E0042400E00724BCB9CE
:105A680017F0080F01D047F02007869BD3F82C3297
:105A7800C5F81C32C5F8208237F0010306A814BF08
:105A880001210021FEF74AFFC5F8280200B90224C7
:105A98003CBB85F80672002685F80762869F384663
:105AA8004146FEF7F7FFC5F8100298F81F2098F84E
:105AB8001E301B0443EA026398F81D2043EA0223C0
:105AC80098F81C201343C5F80C32C5F80862C5F8CD
