:020000040800F2
:1000000000000220B9020008A5440008A944000825
:10001000AD440008B1440008B544000800000000E9
:10002000000000000000000000000000F93500089A
:10003000B944000800000000BD360008BD440008B7
:10004000BD030008BD030008BD030008BD03000890
:10005000BD030008BD030008BD030008BD03000880
:10006000BD030008BD030008BD030008BD03000870
:10007000BD030008BD030008BD030008BD03000860
:10008000BD030008BD030008BD030008BD03000850
:10009000BD030008BD030008BD030008BD03000840
:1000A000BD030008BD030008BD030008BD03000830
:1000B000BD030008BD030008BD030008BD03000820
:1000C000BD030008BD030008BD030008BD03000810
:1000D000BD030008BD030008BD030008BD03000800
:1000E000BD030008BD030008BD030008BD030008F0
:1000F000BD030008BD030008BD030008BD030008E0
:10010000BD030008BD030008BD030008BD030008CF
:10011000BD030008BD030008BD030008BD030008BF
:10012000BD030008BD030008BD030008BD030008AF
:10013000BD030008BD030008BD030008BD0300089F
:10014000BD030008BD030008BD030008D14400083A
:10015000BD030008BD030008BD030008BD0300087F
:10016000BD030008BD030008BD030008BD0300086F
:10017000BD030008BD030008BD0300080000000027
:10018000BD030008BD03000800B583B002F002FA09
:10019000384B394A1360394A136039490CE00A6810
:1001A0004B6801F10C04886803E01168196004339E
:1001B00004329842F9D82146324B9942EFD32E4B64
:1001C0001A68314B9A4204D12C4B1A682F4B9A4231
:1001D00000D0FEE7274B2E4A13602E4A13602E4BA9
:1001E0000AE0194651F8082B5B6802E00020106015
:1001F00004329A42FAD30B46284A9342F1D3244B55
:100200001B6813B9234B1B6803B1FEE704F04CF8DD
:1002100001A8694602F030F9214C224B1C1BA410A6
:10022000002504E01E4B53F8253098470135AC42B9
:10023000F8DC1D4C1D4B1C1BA410002504E01A4BC0
:1002400053F8253098470135AC42F8DC0198009905
:1002500004F0E0F80546164C164B1C1BA41004E0F5
:10026000013C134B53F824309847002CF8DC284607
:1002700002F0D4F8BABADECA00000020580100200B
:10028000C0030008D8030008785634123254769818
:100290005C0100201C460020D8030008E803000889
:1002A000E8030008E8030008E8030008E803000882
:1002B000E8030008E803000808B5FFF765FF00BF82
:1002C000FEE700BF1EF0040F0CBFEFF30880EFF352
:1002D00009807146364A10472DE9F04182B0074641
:1002E0008846084B5D6B9C6B9E6A074802F000F9DC
:1002F000CDF80080384631462A46234602F058F9A8
:10030000FEE700BF00ED00E0B0590008FEE700BFC7
:100310001EF0040F0CBFEFF30880EFF30980714665
:10032000244A10472DE9F04182B007468846084B21
:100330005D6B9C6B9E6A074802F0DAF8CDF800808E
:10034000384631462A46234602F032F9FEE700BF1E
:1003500000ED00E0C05900081EF0040F0CBFEFF3E1
:100360000880EFF309807146134A10472DE9F041E8
:1003700082B007468846084B5D6B9C6B9E6A0748B7
:1003800002F0B6F8CDF80080384631462A462346BA
:1003900002F00EF9FEE700BF00ED00E0CC590008C6
:1003A000FEE700BFFEE700BFFEE700BF70470000AA
:1003B000D9020008250300086D030008FEE700BF0E
:1003C000505B0008000000205C010020505B00082A
:1003D00000000010000000105C01002020460020FA
:0803E0000000001000000010F5
:1003E800704700BF10B5044601F016FB064BA3FB8F
:1003F8000030800900F0B4F84FF0FF3021460022A9
:1004080000F058F8002010BDD34D621008B50B4B12
:100418001A6842F400721A601A6842F480621A601C
:100428001A6842F480721A60032000F025F80F2041
:10043800FFF7D8FFFFF7D4FF002008BD003C0240BB
:10044800024A136801331360704700BF600100203F
:10045800014B1868704700BF6001002010B582B0DA
:100468000190FFF7F5FF0446FFF7F2FF001B019B21
:100478009842F9D302B010BD10B50446C31E042B30
:1004880003D90A48A42102F023F804F00700084A17
:10049800D36823F4E0631B041B0C43EA002040F0FC
:1004A800BF6040F40030D06010BD00BF1457000892
:1004B80000ED00E070B504460E4615460F2A03D934
:1004C8001A48BC2102F004F80F2E03D91748BD21A1
:1004D80001F0FEFF164BDB68C3F30223C3F10702EA
:1004E800042A28BF0422191D062901D9D81E00E0B4
:1004F8000020012303FA02F2013A324002FA00F125
:1005080083405A1E2A400A43002C06DA04F00F04DE
:100518001201D2B2074B1A5570BD1201D2B204F1C2
:10052800604404F5614484F8002370BD1457000842
:1005380000ED00E014ED00E010B5041E03DA0648F3
:10054800D02101F0C5FF610904F01F040123A34075
:10055800024A42F8213010BD1457000800E100E0BB
:100568000138B0F1807F0AD2064B5860F021064A64
:1005780082F823100020986007221A607047012033
:10058800704700BF10E000E000ED00E02DE9F84FF3
:1005980080460F46A04B984223D003F580639842CB
:1005A8001FD003F5806398421BD003F580639842FF
:1005B80017D003F58063984213D003F580639842FF
:1005C8000FD003F5806398420BD003F580639842FF
:1005D80007D003F58063984203D09048C52101F005
:1005E80077FF3B881BB98D48C62101F071FF7B68F6
:1005F800012B22D9112B20D0022B1ED0122B1CD05C
:10060800874A934219D002F58012934215D002F519
:100618008012934211D0A2F5F81293420DD002F540
:100628008012934209D002F58012934205D0032B21
:1006380003D07A48C72101F04BFFBB68022B03D9CE
:100648007648C82101F044FF002423E1A146012592
:10065800A5403B6803EA050AAA4540F01A817B6871
:10066800022B01D0122B4AD13B69C3B3092B36D0D8
:10067800ABB3A3B39BB393B3012B30D02FD0022BD2
:100688002DD02CD02BD0032B29D0042B27D026D02B
:1006980025D0052B23D022D0092B20D0062B1ED005
:1006A800092B1CD0072B1AD019D018D0082B16D01C
:1006B80015D014D0092B12D011D00A2B0FD00ED080
:1006C8000B2B0CD00C2B0AD009D00D2B07D00C2BE0
:1006D80005D00F2B03D05148D92101F0F9FEE608C7
:1006E800083658F8261004F0070080000F238340CE
:1006F80021EA03023B698340134348F82630D8F8BF
:1007080000304FEA440B032606FA0BF6F64306EAD6
:1007180003027B6803F0030303FA0BF31343C8F8DF
:1007280000307B685A1E012A03D9112B01D0122BE5
:100738001CD1FB68032B03D93848EC2101F0C8FE13
:10074800D8F8083006EA0302FB6803FA0BF31343F0
:10075800C8F80830D8F8043023EA05037D68C5F3E3
:10076800001505FA09F51D43C8F80450D8F80C30EF
:100778003340BE6806FA0BF61E43C8F80C607B6867
:1007880013F0805F00F08580264A536C43F4804361
:100798005364A308991CA2F5803252F8211004F082
:1007A800030080000F22824021EA02011A4A904584
:1007B8003AD002F5806290452BD002F580629045D0
:1007C80025D002F5806290451FD002F580629045E1
:1007D80019D002F58062904513D002F580629045E9
:1007E8000DD002F58062904507D002F580629045F1
:1007F80001D1082219E0092217E0072215E0062294
:1008080013E0052211E004220FE003220DE002228A
:100818000BE0012209E000BF000002404857000831
:100828000000111000380240002282400A430233BF
:100838001B4941F823201B4B1A686FEA0A0303EA95
:100848000201786810F4803F01D04AEA0201154A93
:100858001160526803EA0201786810F4003F01D081
:100868004AEA02010F4A5160926803EA0201786875
:1008780010F4801F01D04AEA02010A4A9160D26846
:100888001340796811F4001F01D04AEA0203054AAF
:10089800D36001340F2C7FF6D9AEBDE8F88F00BFC6
:1008A80000380140003C01402DE9F04782B007467E
:1008B8000D46D0F80080CB005B1A9B0003445E6CA9
:1008C8009A6CB61A9B6B9E4200D91E4616F1030914
:1008D80001D509F103094FEAA90921E05E1AC5EB20
:1008E800C5039B003B449B6B9E4200D91E4616F1F4
:1008F800030901D509F103094FEAA909EC00641BB2
:10090800A4003C44E16B3B7C00934046EAB2B3B29E
:1009180001F034FBE36B3344E363A36C3344A36417
:10092800424608EB451303F510639B699BB24B45A0
:1009380009D9EB005B1B9B003B44996C5B6C9942AB
:1009480001D2002BCAD1002E07DC0123AB40D2F81C
:10095800341821EA0303C2F83438002002B0BDE895
:10096800F08700BF002872D0F0B589B0044603684C
:10097800B3F1A04F06D0384A934203D037489821A4
:1009880001F0A6FD032384F87933204601F0B4FF73
:10099800206801F0BBF8254655F8107B6E460FCD50
:1009A8000FC695E80F0086E80F00231D0ECB3846CA
:1009B80001F06AF82068002101F0AEF8002210E08A
:1009C800D3009B1A9B002344012183F8311083F83C
:1009D8003020DA86002183F833109963D96359648B
:1009E80001320E2AECD9002218E0D3009B1A9B0092
:1009F8002344002183F8D51183F8D421DA8683F8BB
:100A0800D711C3F8DC11C3F8E011C3F8E811236863
:100A180002F1400003EB8003596001320E2AE4D949
:100A2800254655F8107B6E460FCD0FC695E80F008A
:100A380086E80F00231D0ECB384601F0ADF80123E0
:100A480084F87933206801F067FC002001E0012078
:100A5800704709B0F0BD00BF000004407857000897
:100A680090F87833012B0ED010B50446012380F896
:100A78007833006801F044FC206801F041F8002058
:100A880084F8780310BD0220704700BF2DE9F84FA5
:100A980004460668304601F07BFC002840F01B82C3
:100AA800206801F045FC002800F01582206801F05C
:100AB8003FFC10F0020F02D0236802225A6120681E
:100AC80001F036FC10F4002F5CD0206801F034FCF3
:100AD8000746002553E017F0010F4ED05FFA85F95D
:100AE8002068494601F038FC804610F0010F31D0EB
:100AF80006EB45130122C3F8082B03F5306322697E
:100B0800012A12D1EA00521B9200224402F5EC712C
:100B1800D2F8DC011B69C3F31203C01AC2F8EC0156
:100B2800D2F8E0214B6813448B602046494601F017
:100B38003BFF2369012B0DD165B9C5EBC5039B00AC
:100B48002344D3F8E8312BB92068012104F55F72FA
:100B580001F03EFC18F0080F07D0204601F01AFFFC
:100B680006EB45130822C3F8082B18F0100F04D021
:100B780006EB45131022C3F8082B01357F08002F18
:100B8800A9D100E00025206801F0D2FB10F4802FE5
:100B98006BD0206801F0D8FB0746002563E017F00A
:100BA800010F5ED05FFA85F92068494601F0DEFB47
:100BB800804610F0010F2DD0012202FA05F0D6F878
:100BC800343823EA0003C6F8343806EB4513C3F873
:100BD80008292369934209D1EB005B1B9B0023443E
:100BE80003F13802D96B9B6B0B445360204649468E
:100BF80001F0E6FE2369012B0CD15DB9C5EBC503F5
:100C08009B0023445B6C2BB92068012104F55F72BB
:100C180001F0DEFB18F0080F04D006EB451308229C
:100C2800C3F8082918F0100F04D006EB451310225A
:100C3800C3F8082918F0400F04D006EB45134022EA
:100C4800C3F8082918F0020F04D006EB4513022256
:100C5800C3F8082918F0800F03D020462946FFF76B
:100C680023FE01357F08002F99D1206801F060FB31
:100C780000280CDAD6F8043823F00103C6F8043843
:100C8800204601F0C5FE23684FF000425A612068F3
:100C980001F04EFB10F4006F0BD0D6F8083813F0B3
:100CA800010F02D0204601F0ADFE23684FF4006228
:100CB8005A61206801F03CFB10F4805F4ED0374643
:100CC80006F50068D8F8043023F00103C8F80430AA
:100CD8002068002100F036FF002207E007EB4213EE
:100CE800FF21C3F80819C3F8081B0132636893424F
:100CF800F4D84FF0FF33C8F81830D8F81C3043F058
:100D08000113C8F81C30A36A63B1D8F8843043F0E3
:100D18000B03C8F88430D8F8443043F00B03C8F804
:100D280044300BE0D8F8143043F00B03C8F8143003
:100D3800D8F8103043F00B03C8F81030D6F8003854
:100D480023F4FE63C6F800382068217C04F55F723E
:100D580001F03EFB23684FF480525A61206801F08D
:100D6800E7FA10F4005F26D0206801F015FB22682E
:100D7800D36823F47053D360206800F0AFFF50B9F4
:100D88000023E3604FF4007363612268D36843F47F
:100D98001053D36008E00323E360402363612268B3
:100DA800D36843F4A053D360204601F01BFE2368A8
:100DB8004FF400525A61206801F0BAFA10F0100F8F
:100DC80042D02268936923F010039361376A07F0D1
:100DD8000F08C7F34343022B1CD147F6F0731F409B
:100DE8002DD03F094FEAC809C8EB090A4FEA8A0A19
:100DF800A2443046DAF8E0113A4601F0FFF9DAF891
:100E0800E0313B44CAF8E031DAF8EC311F44CAF863
:100E1800EC7114E0062B12D1304604F55F710822FC
:100E280001F0ECF9C7F30A174FEAC803C8EB03024D
:100E380092002244D2F8EC313B44C2F8EC312268EB
:100E4800936943F010039361206801F071FA10F080
:100E5800080F05D0204601F0BFFD236808225A611B
:100E6800206801F065FA10F4801F07D02046E9B227
:100E780001F0DAFD23684FF480125A61206801F00E
:100E880057FA10F4001F07D02046E9B201F0C6FD5A
:100E980023684FF400125A61206801F049FA10F0F3
:100EA800804F06D0204601F0C5FD23684FF08042F0
:100EB8005A61206801F03CFA10F0040F0BD0236847
:100EC8005D6815F0040F02D0204601F0B9FD2368D3
:100ED8005A6815435D60BDE8F88F00BF90F8783315
:100EE800012B0BD010B50446012380F87833006835
:100EF80001F0F6F9002084F8780310BD022070474D
:100F080038B50546C8B210F0800F07D001F07F044D
:100F1800C4EBC404A40030342C4407E001F07F047F
:100F2800C4EBC404A4002C4404F5EA7401F07F0166
:100F38002170C0096070A260E37000B1E180022BEB
:100F480001D10023237195F87833012B0AD00123AE
:100F580085F878332868214600F0E0FE002085F8FF
:100F6800780338BD022038BD10B50446CAB212F065
:100F7800800F07D001F07F03C3EBC3039B0030331E
:100F8800034407E001F07F03C3EBC3039B00034462
:100F980003F5EA7301F07F011970D2095A7094F8C9
:100FA8007823012A0AD0012284F878232068194678
:100FB80000F0FAFE002084F8780310BD022010BD6E
:100FC80070B501F07F06F400A51BAD00054405F5DA
:100FD800EA712C46C5F8E021C5F8E8310023C4F8C9
:100FE800EC3184F8D53184F8D4610369012B05D13B
:100FF800C6EBC604A4000444C4F8E42190F878239E
:10100800012A11D00446012280F8782326B9006805
:10101800DAB200F007FF03E00068DAB200F0C2FFBE
:10102800002084F8780370BD022070BD70B501F00F
:101038007F06F400A51BAD0030354119A41BA400A0
:101048000444E26363640023A364012384F8313019
:1010580084F830600369012B04D1C6EBC604A400F0
:101068000444226490F87823012A11D0044601220E
:1010780080F8782326B90068DAB200F0D3FE03E0DE
:101088000068DAB200F08EFF002084F8780370BDA3
:10109800022070BD38B50446CAB212F0800F07D0DE
:1010A80001F07F03C3EBC3039B003033034405E027
:1010B800C1EBC1039B00034403F5EA730120987058
:1010C80001F07F051D70D2095A7094F87823824286
:1010D80010D084F878032068194601F0A5F82DB9D6
:1010E8002068217C04F55F7201F072F9002084F811
:1010F800780338BD022038BD10B50446CAB212F0D4
:10110800800F07D001F07F03C3EBC3039B0030338C
:10111800034405E0C1EBC1039B00034403F5EA73F4
:101128000020987001F07F011970D2095A7094F864
:101138007823012A0AD0012284F8782320681946E6
:1011480001F09EF8002084F8780310BD022010BD3D
:1011580030B40468636A19B943EA0240A06218E02F
:101168000D46A06A03EB1040002308E003F140019C
:1011780004EB8101496800EB11400133DBB2691EC1
:101188008B42F3DB40EA024005F13F0104EB8101A9
:101198004860002030BC70470368596200207047DF
:1011A80038B5044603680F2B04D9B34840F21B1125
:1011B80001F08EF9236813F0010F5FD06368012BEB
:1011C80006D9052B04D0AC484FF4907101F080F992
:1011D800AA4B9B6803F00C03042B0AD0A74B9B680F
:1011E80003F00C03082B0DD1A44B5B6813F4800F9C
:1011F80008D0A24B1B6813F4003F3FD06368002B54
:101208003CD1FCE100229E4B1A70FFF721F90546FC
:1012180007E0FFF71DF9401B41F28833984200F2BE
:10122800F081964B1B6813F4003FF2D12279944B5E
:101238001A7063688BB1FFF70BF9054607E0FFF7F3
:1012480007F9401B41F28833984200F2DC818B4B4E
:101258001B6813F4003FF2D010E0FFF7F9F80546D9
:1012680007E0FFF7F5F8401B41F28833984200F297
:10127800CC81824B1B6813F4003FF2D1236813F032
:10128800020F6DD0E368012B04D97B484FF4B0718D
:1012980001F01EF923691F2B04D9774840F2611128
:1012A80001F016F9754B9B6813F00C0F0AD0734BBD
:1012B8009B6803F00C03082B1CD1704B5B6813F47C
:1012C800800F17D16D4B1B6813F0020F03D0E36832
:1012D800012B40F09C816948026822F0F8012269DC
:1012E800F82393FAA3F3B3FA83F3DBB29A400A43E1
:1012F800026035E0E3680BB30122624B1A60FFF726
:10130800A7F8054605E0FFF7A3F8401B642800F29C
:1013180080815A4B1B6813F0020FF4D057480368BA
:1013280023F0F8012269F82393FAA3F3B3FA83F3BD
:10133800DBB29A4041EA0203036011E00022514BFC
:101348001A60FFF785F8054605E0FFF781F8401BAE
:10135800642800F26081494B1B6813F0020FF4D136
:10136800236813F0080F2ED06369012B04D9424873
:101378004FF4D07101F0ACF8636993B10122424B8C
:101388001A60FFF765F8054605E0FFF761F8401BAE
:10139800642800F24281394B5B6F13F0020FF4D0DE
:1013A80011E00022384B1A60FFF752F8054605E0B5
:1013B800FFF74EF8401B642800F231812F4B5B6F1A
:1013C80013F0020FF4D1236813F0040F6FD0A36851
:1013D800012B06D9052B04D027484FF4E57101F0FD
:1013E80077F8264A136C43F080531364A2F5E4326D
:1013F800136843F480731360FFF72AF8054605E085
:10140800FFF726F8401B642800F20B811F4B1B686E
:1014180013F4807FF4D000221D4B1A70FFF718F8E0
:10142800054607E0FFF714F8401B41F2883398425D
:1014380000F2F980114B1B6F13F0020FF2D1227AE0
:10144800134B1A70A368012B11D1FFF701F8054659
:1014580007E0FEF7FDFF401B41F28833984200F297
:10146800E480064B1B6F13F0020FF2D01FE0FEF76B
:10147800EFFF054616E000BFB857000800380240E5
:101488000238024000004742800E47420070004088
:1014980070380240FEF7DCFF401B41F28833984267
:1014A80000F2C580684B1B6F13F0020FF2D1A369DD
:1014B800022B04D9654840F20E2101F009F8A3690E
:1014C800002B00F0B680604A926802F00C02082AED
:1014D80000F0B180022B7FD1E3693BB1B3F5800FF7
:1014E80004D05A4840F2172100F0F2FF236A3F2B3C
:1014F80004D956484FF4067100F0EAFF636AC03B0E
:10150800F02B04D9514840F2192100F0E1FFA36AF9
:10151800022B0AD0042B08D0062B06D0082B04D0A7
:101528004A4840F21A2100F0D3FFE36A043B0B2B30
:1015380004D9464840F21B2100F0CAFF0022444B60
:101548001A60FEF785FF054604E0FEF781FF401BA1
:10155800642872D83C4B1B6813F0007FF5D1216AD0
:10156800626A47F6C07393FAA3F3B3FA83F3DBB264
:101578009A401143A36A5B08013B4FF4403292FA48
:10158800A2F2B2FA82F2D2B293400B43E26943EA82
:101598000201E36A4FF0706292FAA2F2B2FA82F2A2
:1015A800D2B203FA02F241EA020343F00053264A98
:1015B80053600122264B1A60FEF74AFF044604E0F6
:1015C800FEF746FF001B642839D81F4B1B6813F031
:1015D800007FF5D0002038BD00221D4B1A60FEF7B1
:1015E80037FF044604E0FEF733FF001B642828D8C1
:1015F800154B1B6813F0007FF5D1002038BD012082
:1016080038BD032038BD032038BD032038BD012074
:1016180038BD032038BD032038BD032038BD032062
:1016280038BD032038BD032038BD032038BD032052
:1016380038BD002038BD012038BD032038BD032047
:1016480038BD032038BD00BF00380240B857000835
:101658006000474270B504460D460368013B0E2BF7
:1016680004D9884840F27E2100F032FF072D04D9C2
:10167800844840F27F2100F02BFF834B1B6803F066
:101688000F03AB4280F08B80EAB27F4B1A701B6865
:1016980003F00F03AB4240F05181236813F0020FAF
:1016A8001DD0A368A3B1802B12D0902B10D0A02BF3
:1016B8000ED0B02B0CD0C02B0AD0D02B08D0E02BEA
:1016C80006D0F02B04D06F4840F2952100F000FFBF
:1016D8006E498B6823F0F002A36813438B6023687C
:1016E80013F0010F00F0E8806368022B04D9654805
:1016F8004FF4277100F0ECFE6268012A05D1634BB4
:101708001B6813F4003F0ED11AE1022A05D15F4B82
:101718001B6813F0007F06D114E15C4B1B6813F0C3
:10172800020F00F0118159498B6823F0030313431A
:101738008B60FEF78DFE05466368012B0FD107E02D
:10174800FEF786FE401B41F28833984200F2FE8085
:101758004E4B9B6803F00C03042BF1D1ACE0022B39
:1017680017D107E0FEF774FE401B41F28833984218
:1017780000F2EE80454B9B6803F00C03082BF1D177
:101788009AE0FEF765FE401B41F28833984200F26A
:10179800E1803E4B9B6813F00C0FF2D18CE023687C
:1017A80013F0020F1DD0A368A3B1802B12D0902B89
:1017B80010D0A02B0ED0B02B0CD0C02B0AD0D02B21
:1017C80008D0E02B06D0F02B04D02E484FF4397106
:1017D80000F07EFE2D498B6823F0F002A3681343C6
:1017E8008B60236813F0010F5ED06368022B04D965
:1017F800244840F2EB2100F06BFE6268012A05D113
:10180800224B1B6813F4003F0ED1A5E0022A05D134
:101818001E4B1B6813F0007F06D19FE01B4B1B6813
:1018280013F0020F00F09C8018498B6823F0030323
:1018380013438B60FEF70CFE06466368012B0FD13D
:1018480007E0FEF705FE801B41F28833984200F25C
:1018580089800E4B9B6803F00C03042BF1D123E025
:10186800022B1CD106E0FEF7F3FD801B41F2883302
:10187800984279D8054B9B6803F00C03082BF2D1EA
:1018880012E000BFB8570008003C02400038024090
:10189800FEF7DEFD801B41F28833984266D8354B4F
:1018A8009B6813F00C0FF3D1EAB2334B1A701B6824
:1018B80003F00F03AB425BD1236813F0040F19D078
:1018C800E36883B1B3F5805F0DD0B3F5A05F0AD0AC
:1018D800B3F5C05F07D0B3F5E05F04D0274840F206
:1018E8003B3100F0F5FD23498B6823F4E052E368AF
:1018F80013438B60236813F0080F1AD0236983B150
:10190800B3F5805F0DD0B3F5A05F0AD0B3F5C05F23
:1019180007D0B3F5E05F04D0184840F2423100F038
:10192800D7FD144A936823F46043216943EAC1034D
:1019380093600F20FEF756FD002070BD012070BD9A
:10194800012070BD012070BD012070BD032070BD55
:10195800032070BD032070BD012070BD012070BD43
:10196800012070BD032070BD032070BD032070BD31
:10197800012070BD00380240003C0240B857000802
:10198800224B9B6803F00C03042B3DD0082B01D09D
:101998001F4870471D4B586800F03F005B6813F400
:1019A800800F10D01B4BB3FBF0F3184A506847F672
:1019B800C072104092FAA2F2B2FA82F2D2B2D040C9
:1019C80000FB03F30FE0124BB3FBF0F30F4A506830
:1019D80047F6C072104092FAA2F2B2FA82F2D2B27C
:1019E800D04000FB03F3094A506800F440304FF43C
:1019F800403292FAA2F2B2FA82F2D2B2D040013068
:101A08004000B3FBF0F070470248704700380240CE
:101A18000024F40000127A0008B5FFF7B1FF094B63
:101A28009B6803F0F002F02393FAA3F3B3FA83F36D
:101A3800DBB222FA03F3044AD35CD840034B1860A4
:101A480008BD00BF00380240A85700080C0000205D
:101A58000C4B01E0013B10D00269002AFADA036955
:101A680043F001030361074B01E0013B07D0026922
:101A780012F0010FF9D100207047032070470320AE
:101A8800704700BF400D030084B010B5044603A89A
:101A980080E80E00089B012B18D1A36B23F4803338
:101AA800A363E36823F4840323F04003E360E3685B
:101AB80023F44013E3600D9B012B03D1E36843F447
:101AC8008013E3602046FFF7C3FF09E0E36843F0B3
:101AD8004003E3602046FFF7BBFF4FF48033A36366
:101AE800069B012B07D1A36843F00C03A360A368EE
:101AF80043F02003A3600020BDE8104004B0704705
:101B0800836843F00103836000207047836823F0F3
:101B1800010383600020704708B5C36823F0C04301
:101B2800C360012904D1C36843F00053C36004E0D3
:101B380019B9C36843F08043C3603220FEF78EFCB6
:101B4800002008BD490141F020010161054B01E079
:101B5800013B05D0026912F0200FF9D1002070472F
:101B680003207047400D030010230361054B01E07B
:101B7800013B05D0026912F0100FF9D1002070471F
:101B880003207047400D0300D0F800381943C0F80F
:101B980000180020704700BF84B0F8B5044607A8B5
:101BA80080E80E00A36B43F40023A3630F9E1EB9C5
:101BB800A36B43F40013A3630023C4F8003E04F5A9
:101BC8000065D4F80038C4F800380C9B012B0BD101
:101BD800099B23B920460021FFF7D6FF08E02046DD
:101BE8000121FFF7D1FF03E020460321FFF7CCFFD7
:101BF80020461021FFF7A6FF2046FFF7B5FF002378
:101C08002B616B614FF0FF32AA61EB61079848B313
:101C180004F51063002219461F68002F03DA4FF0FD
:101C280090471F6001E000271F6000270F61FF2712
:101C38008F60013220338242EDD304F530630022F5
:101C480019461F68002F03DA4FF090471F6001E024
:101C580000271F6000270F61FF278F6001322033A4
:101C68008242EDD12B6923F480732B610A9B012BEF
:101C78000ED1184B2B632B6B43F4803343F00303D3
:101C88002B632B6B0023A3616FF08043636109E032
:101C98000022A2616FF0804262611BB9A36943F020
:101CA8001003A361A2690C4B1343A3610D9B1BB1E5
:101CB800A36943F00803A361012E05D1A36943F08A
:101CC800804343F00403A3610020BDE8F84004B05A
:101CD800704700BF0001800000383C80D0F8083809
:101CE80000F5006013F0060F10D0836803F00603B8
:101CF800022B0DD0836803F00603062B0AD08368F5
:101D080003F00603042B07D1022070470020704718
:101D180003207047032070470020704770B44B7849
:101D2800012B1FD1D0F81C280D78AB409BB2134370
:101D3800C0F81C380E78730103F510631A5812F4B2
:101D4800004F2DD11C5844F0805545F400458A6851
:101D5800C2F30A042C43CA7844EA824242EA865211
:101D68001A501DE0D0F81C280D784FF48033AB4092
:101D78001343C0F81C380B785B0103F530631A581D
:101D880012F4004F0CD11A5842F0805444F4004425
:101D98008A68C2F30A022243C97842EA81421A5089
:101DA800002070BC704700BF30B44B78012B1BD1AA
:101DB800D0F83C580C7803FA04F4A4B225EA0404D9
:101DC800C0F83C48D0F81C480D78AB409BB224EAD8
:101DD8000303C0F81C380B785B0103F510631A582D
:101DE80022F400421A5019E0D0F83C480D7801223C
:101DF80002FA05F524EA0544C0F83C48D0F81C4826
:101E08000D78AA4024EA0242C0F81C280B785B012E
:101E180003F530631A5822F400421A50002030BCEF
:101E2800704700BF30B44B78012B68D14B69EBB9D0
:101E38000B7800EB4313D3F8104924F0FF5424F433
:101E4800C014C3F810490B7800EB4313D3F81049BA
:101E580044F40024C3F810490B7800EB4313D3F87B
:101E68001049E40CE404C3F810492CE00B7800EBAB
:101E78004313D3F81049E40CE404C3F810490B7871
:101E880000EB4313D3F8104924F0FF5424F4C01492
:101E9800C3F810498B684C699C4200D94B610B7898
:101EA80000EB4313D3F8104944F40024C3F8104955
:101EB8000B7800EB4313D3F810594C69C4F31204A0
:101EC8002C43C3F81049012A06D10B7800EB4313C1
:101ED8000A69C3F8142909E04B693BB1D0F83428E2
:101EE8000D780123AB401343C0F834380B785B01FD
:101EF80003F51063C25842F00442C2503BE00B782D
:101F080000EB4313D3F8104BE40CE404C3F8104B74
:101F18000B7800EB4313D3F8104B24F0FF5424F450
:101F2800C014C3F8104B4B690BB18B684B610B782D
:101F380000EB4313D3F8104B44F40024C3F8104BC0
:101F48000B7800EB4313D3F8105B8C68C4F31204CE
:101F58002C43C3F8104B012A05D10B7800EB43132F
:101F6800CA68C3F8142B0B785B0103F53063C258B9
:101F780042F00442C250002030BC704730B49DF893
:101F8800084064B903339B1009D000F5805000EB7A
:101F9800023251F8045B15600134A342F9D10020E4
:101FA80030BC704770B582B04B78012B40F0A980E7
:101FB8004B69EBB90B7800EB4313D3F8104924F0C5
:101FC800FF5424F4C014C3F810490B7800EB4313F2
:101FD800D3F8104944F40024C3F810490B7800EBF7
:101FE8004313D3F81049E40CE404C3F8104945E05E
:101FF8000B7800EB4313D3F81049E40CE404C3F85E
:1020080010490B7800EB4313D3F8104924F0FF5420
:1020180024F4C014C3F810490C7800EB4414D4F825
:1020280010598E684B693344013BB3FBF6F3724E8B
:1020380006EAC3432B43C4F810390B7800EB43136B
:10204800D3F810594C69C4F312042C43C3F810494F
:10205800CB78012B40F0C8800B7800EB4313D3F802
:10206800104924F0C044C3F810490B7800EB43131F
:10207800D3F8104944F00054C3F81049012A06D196
:102088000B7800EB43130C69C3F814490CE0CB78C8
:10209800012B0CD04B6903B3D0F834480E780123D8
:1020A800B3402343C0F83438CB78012B15D1D0F88E
:1020B800083813F4807F08D10B785B0103F51063AF
:1020C800C45844F00054C45007E00B785B0103F592
:1020D8001063C45844F08054C4500B785B0103F576
:1020E8001063C45844F00444C450CB78012B7FD10A
:1020F80014460B46C9681A789B8A0094FFF73EFF7E
:1021080076E00B7800EB4313D3F8104BE40CE404AF
:10211800C3F8104B0B7800EB4313D3F8104B24F0A3
:10212800FF5424F4C014C3F8104B4B69A3B90B78BF
:1021380000EB4313D3F8105B8C68C4F312042C43F0
:10214800C3F8104B0B7800EB4313D3F8104B44F44F
:102158000024C3F8104B1DE08D680C7800EB441484
:10216800D4F8106B2B44013BB3FBF5F39BB2224D23
:1021780005EAC3453543C4F8105B0C7800EB4414FA
:10218800D4F8106B8D6805FB03F3C3F312033343D4
:10219800C4F8103B012A05D10B7800EB4313CA6839
:1021A800C3F8142BCB78012B15D1D0F8083813F4C9
:1021B800807F08D10B785B0103F53063C25842F089
:1021C8000052C25007E00B785B0103F53063C25838
:1021D80042F08052C2500B785B0103F53063C2585D
:1021E80042F00442C25003E0012A7FF453AF47E7AC
:1021F800002002B070BD00BF0000F81F033292102B
:102208000FD030B40C46002300F580552D6844F8F3
:10221800045B01339A42F7D101EB8201084630BCD6
:1022280070470846704700BF4B78012B13D10B78D5
:102238005B0103F51063C258002A03DBC25822F081
:102248008042C2500B785B0103F51063C25842F418
:102258000012C25012E00B785B0103F53063C258DC
:10226800002A03DBC25822F08042C2500B785B017F
:1022780003F53063C25842F40012C2500020704780
:102288004B78012B15D10B785B0103F51063C2580D
:1022980022F40012C250CB78023BDBB2012B1DD8CE
:1022A8000B785B0103F51063C25842F08052C250AC
:1022B80014E00B785B0103F53063C25822F4001276
:1022C800C250CB78023BDBB2012B07D80B785B01FD
:1022D80003F53063C25842F08052C2500020704764
:1022E800D0F8003823F4FE63C0F80038D0F800387E
:1022F800090101F4FE610B43C0F800380020704763
:1023080008B5D0F8043823F00203C0F804380320D5
:10231800FEF7A4F8002008BD08B5D0F8043843F04B
:102328000203C0F804380320FEF798F8002008BD1F
:102338004369806918407047D0F8183800F5006084
:10234800C0691840000C704700F50063D0F8180801
:10235800DB69184080B2704700F5306303EB411128
:102368008B6800F5006040691840704710B4D0F8D9
:102378001048D0F8343800EB4110D0F80809CB40A9
:10238800DB01DBB2234318405DF8044B704700BF04
:10239800406900F001007047D0F8003923F4FF636A
:1023A80023F00703C0F8003900F500639A6802F0CB
:1023B8000602042A05D1D0F8002942F00302C0F829
:1023C80000295A6842F480725A600020704700BFA2
:1023D80010B40024C0F8104BD0F8104B44F400247B
:1023E800C0F8104BD0F8104B44F01804C0F8104B4C
:1023F800D0F8104B44F0C044C0F8104B012905D167
:10240800C0F8142B4FF08023C0F8003B00205DF883
:10241800044B7047FEE700BF08B5034800F07EF89C
:102428000120FFF7F7FF00BFE857000808B50D4B7C
:102438001B6813B90C4A0B4B1A600A4B1A68C31C69
:1024480023F00303134409498B4206D902F044F8E8
:102458000C2303604FF0FF3008BD02490B601046A3
:1024680008BD00BF640100202046002000FC0120B8
:1024780001230360014B0B60704700BF040000207C
:1024880008B502F029F8582303604FF0FF3008BD63
:1024980008B502F021F8582303604FF0FF3008BD5B
:1024A80008B502F019F858230360002008BD00BFE2
:1024B80008B502F011F8582303604FF0FF3008BD4B
:1024C80008B502F009F8582303604FF0FF3008BD43
:1024D80008B503460A460348194600F005F8FFF711
:1024E8009BFF00BF3C5800080FB400B583B004AB95
:1024F80053F8042B01930848802102F01FF9011EAC
:1025080003DD054800F03EF80146084603B05DF8D3
:1025180004EB04B0704700BF6C01002010B50446FE
:1025280002F0DAF80146204600F02CF802480121B2
:1025380000F028F810BD00BF2C59000810B4002284
:102548001AE04FF06043D3F8803E13F0010F06D035
:102558004FF06043D3F8003E13F0010F01D110464D
:102568000DE04FF060431B68002BFAD004784FF061
:1025780060431C70013201308A42E2D308465DF89C
:10258800044B704708B5FFF7D9FF08BD08B500F040
:1025980083F8044AD2F8883043F47003C2F88830CC
:1025A80008BD00BF00ED00E0F8B504460D4617462B
:1025B8001E462648FFF798FF25482168FFF794FF35
:1025C80024486168FFF790FF2348A168FFF78CFF54
:1025D8002248E168FFF788FF21482169FFF784FF57
:1025E80020486169FFF780FF1F48A169FFF77CFF5A
:1025F8001E48E169FFF778FF1D48FFF775FF1D4882
:102608002946FFF771FF1C4CE16A1C48FFF76CFF75
:10261800216B1B48FFF768FFE16B1A48FFF764FF5F
:1026280015F0800F03D018483946FFF75DFF15F401
:10263800004F03D015483146FFF756FF1448FFF7FF
:1026480053FF14480699FFF74FFFF8BD9458000848
:10265800A4580008B4580008C4580008D458000802
:10266800E4580008F45800080459000814590008F0
:10267800245900083059000800ED00E040590008CE
:10268800505900086059000870590008805900081E
:1026980090590008985900080F49D1F8883043F438
:1026A8007003C1F888300D4B1A6842F001021A60B5
:1026B800002098601A6822F0847222F480321A602E
:1026C800074A5A601A6822F480221A60D8604FF0CC
:1026D80000638B60704700BF00ED00E000380240E7
:1026E8001030002412230B8000487047100000208F
:1026F80004230B80004870472400002008B50A46D0
:1027080020B90548054900F0F7FD03E004480349EE
:1027180000F0F2FD014808BDDC59000864410020C2
:10272800F459000810B50A46034C0448214600F045
:10273800E3FD204610BD00BF644100200C5A00088C
:1027480008B50A4620B90548054900F0D5FD03E05B
:102758000448034900F0D0FD014808BD205A00088C
:1027680064410020305A000808B50A4620B90548D7
:10277800054900F0C1FD03E00248034900F0BCFD33
:10278800014808BD405A00086441002008B50A46BF
:1027980020B90548054900F0AFFD03E002480349A8
:1027A80000F0AAFD014808BD4C5A00086441002009
:1027B8002223038000487047C8000020D0F8183250
:1027C80000201873704700BF0A2303800048704731
:1027D800BC00002010B5D0F818220C7814F0600462
:1027E80025D0202C4AD14B78023B092B1BD8DFE897
:1027F80003F014091A1A1A1A1A1A0F058B7813609B
:1028080000243CE01146012200F094FD002436E04B
:102818004B881B0A5360002431E0111D012200F08F
:1028280089FD00242BE000F023FB022427E04B78ED
:102838000A2B1AD00B2B1ED0062B20D14B881B0A33
:10284800222B05D1CA88322A28BF32220D4909E035
:10285800212B05D1CA88092A28BF09220A4901E083
:1028680000210A4600F066FD09E002F10801012294
:1028780000F060FD03E08B78936000E000242046C0
:1028880010BD00BF7C000020B000002010B5044639
:10289800812100F01FF9D4F8180220B101F02AFEB6
:1028A8000023C4F81832002010BD00BF10B504463C
:1028B80081210322042300F003F9102001F012FE05
:1028C800C4F8180218B100230373184610BD01207C
:1028D80010BD00BF38B5D0F8185290F8FC41032C51
:1028E80008D12B7B33B913460A460121297381216C
:1028F80000F028F9002038BD0368B3F1A04F43D198
:102908002DE9F04186B0214C236B43F0010323638A
:102918004FF4C05301930326049602230293002523
:1029280003954FF00A08CDF81480194F384601A9CD
:10293800FDF72CFE4FF4007301930295039538467A
:1029480001A9FDF723FE4FF480630193122302933C
:10295800012303930496CDF81480384601A9FDF7A6
:1029680015FE636B43F080036363636C43F4804339
:102978006364432031462A46FDF79CFD4320FDF75A
:10298800DBFD06B0BDE8F081704700BF00380240AB
:102998000000024008B50146D0F8AC0301F55F71AC
:1029A80000F036F908BD00BF08B5C1EBC1039B00B4
:1029B8000344D0F8AC03D3F8E02100F057F908BD80
:1029C80008B5C1EBC1039B000344D0F8AC03DA6B34
:1029D80000F07CF908BD00BF08B5D0F8AC0300F0E2
:1029E800FBF908BD10B50446C3680BB9002100E027
:1029F8000121D4F8AC0300F0DBF9D4F8AC0300F003
:102A0800B7F910BD08B5D0F8AC0300F0D5F908BD8A
:102A180008B5D0F8AC0300F0D9F908BD08B5D0F86E
:102A2800AC0300F0E7F908BD08B5D0F8AC0300F036
:102A3800DFF908BD08B5D0F8AC0300F0DDF908BD32
:102A480008B5D0F8AC0300F0D9F908BDF8B50025F1
:102A5800154B83F82350154C4FF0A04323600423F3
:102A68006360A56240276761256125620223A3612F
:102A7800E561E36001266662C4F8AC03C0F8204251
:102A88002046FDF76FFF20468021FEF785FB204694
:102A980029463A46FEF75CFB204631468022FEF77F
:102AA80057FB2846F8BD00BF00ED00E06442002057
:102AB80008B5D0F82002FDF7D3FF002008BD00BFFD
:102AC80010B51446D0F820021A462346FEF718FA25
:102AD800002010BD08B5D0F82002FEF745FA002006
:102AE80008BD00BF08B5D0F82002FEF7D3FA0020D1
:102AF80008BD00BF08B5D0F82002FEF7FDFA002097
:102B080008BD00BFD0F8202211F0800F08D001F0D6
:102B18007F03C3EBC3039B00134493F83200704751
:102B280001F07F01C1EBC1018900114491F8D60180
:102B3800704700BF08B5D0F82002FEF7CFF9002093
:102B480008BD00BF08B5D0F82002FEF76FFA0020D4
:102B580008BD00BF08B5D0F82002FEF731FA002002
:102B680008BD00BF08B550B90E4801F079FD0E4800
:102B780001F076FD0A2001F08BFD022008BD034616
:102B8800D0F8140210B10020C3F8140209B1C3F838
:102B98001012012183F8FC111A701846FFF756FF2E
:102BA800002008BD5C5A0008645A000808B519B12D
:102BB800C0F81412002008BD054801F051FD054871
:102BC80001F04EFD0A2001F063FD022008BD00BFA0
:102BD8005C5A00087C5A000808B5FFF769FF002016
:102BE80008BD00BF08B5D0F8143223B11B68984758
:102BF80018B1022008BD022008BD002008BD00BF92
:102C080008B5D0F814325B689847002008BD00BFAB
:102C180038B5044600F50275284600F015F9012379
:102C2800C4F8F431B4F80E32C4F8F83194F8081244
:102C380001F01F03012B08D013B1022B0AD00EE0BC
:102C48002046294600F08AFA0EE02046294600F080
:102C5800A9FA09E02046294600F0C0FA04E0204617
:102C680001F08001FFF73EFF002038BD38B504466B
:102C780009BBD0F8F431032B26D1D0F80C31D0F8A9
:102C880010118B420AD95B1AC0F80C318B4228BF4D
:102C98000B4611469AB200F065FB15E0D0F81432E5
:102CA8001B6923B190F8FC21032A00D198472046DC
:102CB80000F062FB08E0D0F814329B6923B190F869
:102CC800FC21032A00D19847002038BD38B50446B6
:102CD800002942D1D0F8F431022B36D1C169036AF8
:102CE80099420CD9CB1AC36111469AB200F030FB55
:102CF800204600210A460B46FFF72CFF25E0816994
:102D0800B1FBF3F203FB121292B98B4210D8D0F840
:102D1800F83199420CD200210A4600F019FB002331
:102D2800C4F8F831204619461A46FFF713FF0CE09D
:102D3800D4F81432DB682BB194F8FC21032A01D1B2
:102D480020469847204600F023FB94F80032012BD8
:102D58000CD1002384F8003208E0D0F814325B6903
:102D680023B190F8FC21032A00D19847002038BDF0
:102D780038B5044600210A464023FFF7A1FE402546
:102D8800C4F810512046802100222B46FFF798FEF8
:102D98002562012384F8FC31D4F818322BB1D4F819
:102DA80014325B68204621799847002038BD00BF5F
:102DB80001740020704700BF90F8FC3180F8FD31A5
:102DC800042380F8FC310020704700BF90F8FD31E3
:102DD80080F8FC310020704708B590F8FC31032BCF
:102DE80004D1D0F81432DB6903B19847002008BD3C
:102DF80000207047002070470020704708B5012266
:102E080080F8FC21D0F814225268017990470020FC
:102E180008BD00BF0346002002E00130C0B2013304
:102E28001A78002AF9D170474B88012B0BD110B5BD
:102E38000446C0F80432D0F814329B6898472046FC
:102E480000F09AFA10BD70470B7803704B78437006
:102E58008B78CA7803EB022343800B794A7903EB1A
:102E6800022383808B79CA7903EB0223C3807047DE
:102E780010B504468021FFF735FE20460021FFF7F4
:102E880031FE10BD30B583B004460D464A88130A9A
:102E9800013B062B00F28580DFE803F0040D238355
:102EA80083657300D0F810321B68007C0DF10601B1
:102EB8009847014679E0037C4BB9D0F814329B6AF5
:102EC8000DF1060098470146022343706DE0D0F8E3
:102ED8001432DB6A0DF1060098470146022343705D
:102EE80063E0D2B2052A3AD8DFE802F0030C151ED7
:102EF8002730D0F810325B68007C0DF10601984746
:102F0800014652E0D0F810329B68007C0DF10601B2
:102F18009847014649E0D0F81032DB68007C0DF193
:102F280006019847014640E0D0F810321B69007C42
:102F38000DF106019847014637E0D0F810325B6979
:102F4800007C0DF10601984701462EE0D0F81032BA
:102F58009B69007C0DF106019847014625E029464A
:102F6800FFF786FF2EE0037C3BB9D0F814325B6B89
:102F78000DF106009847014617E02946FFF778FF4C
:102F880020E0037C4BB9D0F814321B6B0DF106001E
:102F9800984701460723437007E02946FFF768FF73
:102FA80010E02946FFF764FF0CE0BDF806304BB18E
:102FB800EA883AB19A4228BF1A46ADF80620204658
:102FC80000F0B8F903B030BD38B504468B88E3B9D2
:102FD800CB88D3B98D7805F07F0590F8FC31032BA9
:102FE80002D1FFF745FF38BD80F8FE512946FFF7AB
:102FF800A1FD204600F0C0F91DB1022384F8FC3180
:1030080038BD012384F8FC3138BD2046FFF730FF76
:1030180038BD00BF38B504460D468978264B19706F
:10302800012903D92946FFF723FF38BD90F8FC3161
:10303800022B02D0032B15D039E081B14160032364
:1030480080F8FC31FFF7CEFD022804D1204629463E
:10305800FFF70EFF38BD204600F08EF938BD00F0AE
:103068008BF938BD49B9022380F8FC314160FFF77C
:10307800C7FD204600F080F938BD4368994213D057
:10308800D9B2FFF7BDFD0C4B197861602046FFF7F8
:10309800A9FD022804D120462946FFF7E9FE38BDDC
:1030A800204600F069F938BD00F066F938BD2946B8
:1030B800FFF7DEFE38BD00BFEC01002008B503466F
:1030C800CA88012A02D0FFF7D3FE08BD90F8FC2178
:1030D800022A02D0032A08D00CE00146002241F857
:1030E800082F012200F026F908BD191D012200F061
:1030F80021F908BDFFF7BCFE08BD00BF08B50346AF
:1031080090F8FC21023A012A0DD80122C260D0F8B9
:1031180004220AB10322C260184603F10C010222FC
:1031280000F008F908BDFFF7A3FE08BD10B5044676
:1031380090F8FC31023B012B0DD84B88012B0CD1A8
:103148000023C0F80432D0F814329B689847204610
:1031580000F012F910BDFFF78BFE10BD08B54B78D3
:10316800092B1BD8DFE803F011171A141A08051ADF
:103178000E0BFFF787FE13E0FFF726FF10E0FFF7BF
:1031880049FF0DE0FFF79AFF0AE0FFF7B7FF07E0F6
:10319800FFF74AFE04E0FFF7C9FF01E0FFF768FE0A
:1031A800002008BD38B504460D4690F8FC31032BC5
:1031B8000FD10B79012B09D8D0F814329B689847A6
:1031C800EB8843B9204600F0D7F804E0FFF750FE3B
:1031D80001E0FFF74DFE002038BD00BF38B50546B9
:1031E8000C468A88D1B2237803F06003202B05D1DE
:1031F800D0F814329B68214698477BE06378012B0E
:1032080026D0002B48D0032B74D190F8FC31022B28
:1032180002D0032B07D017E000296BD0802969D092
:10322800FFF760FC66E0638823B919B1802901D0F3
:10323800FFF758FCD5F814329B6828462146984772
:10324800284600F099F855E02146FFF711FE51E0B5
:1032580090F8FC31022B02D0032B07D018E000298C
:1032680048D0802946D0FFF73DFC43E06388002B17
:1032780040D111F07F0F07D0FFF73CFCD5F814328E
:103288009B68284621469847284600F075F831E0A3
:103298002146FFF7EDFD2DE090F8FC31022B02D01E
:1032A800032B06D023E011F07F0F23D0FFF71AFC81
:1032B80020E012F0800F05D001F07F0400EB041429
:1032C800143405E001F07F0400EB041404F5827463
:1032D8002846FFF717FC10B10123236001E0002303
:1032E800236028462146022200F024F802E0214605
:1032F800FFF7BEFD002038BDD0B170B50D461646AB
:103308000446FFF787FD0130400080B23080287006
:1033180003236B70022307E05A1CD2B20134E9542C
:10332800531CDBB20021A95421780029F4D170BDC7
:10333800704700BF38B50D4613460222C0F8F42185
:103348008361C36100212A46FFF7FCFB002038BDDA
:1033580010B50C46134600212246FFF7F3FB002068
:1033680010BD00BF10B50C46134600212246FFF7DA
:10337800F1FB002010BD00BF08B50423C0F8F431EC
:1033880000210A460B46FFF7DDFB002008BD00BF01
:1033980008B50523C0F8F43100210A460B46FFF7AB
:1033A800D9FB002008BD00BF124A12F0070F07D052
:1033B800D11D21F00701C1F5705313440A4601E0FD
:1033C8004FF470530C480260002141601344083BDD
:1033D80023F007030948036059601960991A51607E
:1033E8001360074B1960074B19604FF00042064BFA
:1033F8001A60704700020020F8010020F401002044
:10340800043E0020F0010020003E0020134A00E0A6
:103418001A4613688342FBD310B451685418844287
:1034280003D14068014451601046416844189C42E9
:103438000CD10B4C2468A34206D05B681944416048
:1034480013681B68036002E0046000E003608242C6
:1034580000D010605DF8044B704700BFF8010020F1
:10346800F401002070B5054600F048FC2D4B1B68A0
:103478000BB9FFF799FF2C4B1B681D4241D135B1A1
:10348800083515F0070F02D025F007050835002D7F
:1034980039D0264B1B689D4237D8254B1C6801E064
:1034A800234614466268AA4202D22268002AF7D14B
:1034B8001C4A126894422AD01E68083622681A608C
:1034C80063685B1B102B0AD9601910F0070F02D034
:1034D80000F0AAF8FEE743606560FFF797FF6268AF
:1034E80012490B689B1A0B60124909688B4201D27A
:1034F80010490B600C4B1B68134363600023236067
:1035080006E0002604E0002602E0002600E000268F
:1035180000F092FC16F0070F02D000F085F8FEE7E5
:10352800304670BDF4010020003E0020F00100206C
:10353800F8010020043E002038B338B50446A0F155
:10354800080550F8043C114A126813EA020002D137
:1035580000F06AF8FEE754F8081C11B100F064F8AE
:10356800FEE788B181B923EA020344F8043C00F07D
:10357800C5FB54F8041C064A13680B44136028461C
:10358800FFF744FF00F058FC38BD7047003E0020AC
:10359800F001002006480068006880F3088862B6D9
:1035A80061B6BFF34F8FBFF36F8F00DF00BF00001E
:1035B80008ED00E0DFF80C00016841F470010160DB
:1035C8007047000088ED00E04FF0807340F8043C3D
:1035D80040F8081C054B40F80C3C40F8202C6FF0D4
:1035E800020340F8243C4438704700BF41360008C5
:1035F800064B19680868B0E8F04F80F30988BFF3F4
:103608006F8F4FF0000080F311887047DC3E002078
:103618004FF08052034B1A60BFF34F8FBFF36F8F89
:10362800704700BF04ED00E0EFF311804FF0500148
:1036380081F311887047002008B5054B1B68B3F16A
:10364800FF3F02D0FFF7F0FFFEE7FFF7EDFFFEE7D1
:10365800EC00002008B5FFF7E7FF094A13680133BB
:103668001360BFF34F8FBFF36F8F012B07D1054B4B
:103678001B6813F01F0F02D0FFF7D6FFFEE708BD47
:10368800EC00002004ED00E080F31188704700BFD3
:1036980008B5074B1B6813B9FFF7C6FFFEE7013BE8
:1036A800034A136013B90020FFF7EEFF08BD00BFFF
:1036B800EC000020EFF30980BFF36F8F124B1A68FC
:1036C8001EF0100F08BF20ED108A20E9F04F10609F
:1036D8004DF8043D4FF0500080F3118800F084FC51
:1036E8004FF0000080F3118808BC19680868B0E83A
:1036F800F04F1EF0100F08BFB0EC108A80F3098855
:10370800BFF36F8F704700BFDC3E002008B5FFF79E
:103718008BFF00F0FBFA18B14FF08052024B1A6091
:103728000020FFF7B1FF08BD04ED00E0064B1B6861
:10373800064AA2FB03239B09013B054A13600722A3
:10374800044B1A60704700BF0C000020D34D621074
:1037580014E000E010E000E000B583B0224B1A78D6
:10376800D2B20192FF221A701B78DBB28DF80330B7
:103778009DF8033003F050031C4A137007221C4BBA
:103788001A6009E01A4A1368013B13609DF8033078
:103798005B00DBB28DF803309DF8033013F0800F27
:1037A800F0D1134A13681B0203F4E0631360019B12
:1037B800DBB20D4A13700F4B1A6842F470021A609C
:1037C8001A6842F070421A60FFF7B0FF00220A4BF5
:1037D8001A60FFF7EFFE094A136843F0404313608D
:1037E800FFF7D8FEFFF728FF00E400E0083E0020BE
:1037F8000C3E002020ED00E0EC00002034EF00E05B
:103808001AB9084206D1002070470840884203D000
:1038180000207047012070470120704710B51C2018
:10382800FFF720FE044620B1002320F8043B00F0F7
:10383800A9F8204610BD00BF2DE9F8430D46BDF894
:10384800206011F47F4F02D0FFF7EEFEFEE7074637
:103858009046994611B9FFF7E7FEFEE700F08CFCA9
:1038680010B91EB9012302E0012300E0002313B9B7
:10387800FFF7DAFEFEE700F041FA3C8820462946C9
:103888004A46FFF7BDFF38B1B8F1000F18D024EA57
:1038980005033B80002614E09EB1B8F1000F01D16A
:1038A800002101E04FF48071B9F1000F01D041F41B
:1038B8008061381D2943324600F0DAFB002400E01D
:1038C800002600F0B9FADEB108B9FFF7A1FE00F052
:1038D80063FC044600F400739BB283B9FFF7BAFE99
:1038E8003C88204629464A46FFF78AFF28B1B8F1A6
:1038F800000F02D024EA05053D80FFF7C9FEE4B2B7
:103908002046BDE8F88300BFF8B50D4611F47F4F97
:1039180002D0FFF789FEFEE7044600F10C0600F02E
:10392800EDF9206923882B432380002520E0476890
:103938000388DAB203F4806189B221B9218811427F
:1039480007D1002108E021881140914203D00021CD
:1039580002E0012100E0012149B103F480739BB228
:1039680003B11543218841F4007100F0C7FB3846C4
:10397800B042DCD1238823EA0505258000F05CFAF3
:103988002088F8BD00F1080343604FF6FF720281FA
:10399800C360036100230360704700BF0023036115
:1039A800704700BF43684B609A688A609A685160A4
:1039B80099600861036801330360704730B40D886B
:1039C8004FF6FF739D4201D1026907E000F108023A
:1039D80000E01A4653681C88AC42FAD953684B6019
:1039E80099608A605160086103680133036030BCE4
:1039F800704700BF036942688168916082684168C6
:103A080051605A68824201D182685A60002202617C
:103A180018680138186070470A4B1B681B680BB997
:103A2800012300E0002323B14FF6FF72064B1A80F2
:103A38007047044B1B68DB68DB689A88024B1A8066
:103A4800704700BF103E0020F000002010B504466B
:103A5800006BFFF771FD2046FFF76EFD10BD00BF3C
:103A680070B506460C465420FFF7FCFC054680B1AD
:103A78001CB9B000FFF7F6FC00E02046286320B927
:103A88002846FFF759FD002503E0A521B20000F004
:103A980044FD284670BD00BF38B5044615460023CE
:103AA80006E0C85CE21882F83400CA5C12B101333F
:103AB8000F2BF6D9002384F84330062D00D90625AC
:103AC800E562E56400232365201DFFF767FF04F125
:103AD8001800FFF763FF2461C5F1070525836462B9
:103AE80038BD00BF38B5002406E014200E4B00FB9B
:103AF8000430FFF747FF0134062CF6D90B4D284652
:103B0800FFF740FF0A4C2046FFF73CFF0948FFF744
:103B180039FF0948FFF736FF0848FFF733FF084B1E
:103B28001D60084B1C6038BD483E0020043F002043
:103B3800303E0020E03E00201C3E0020183F0020C0
:103B4800103E0020FC3E002010B504460F4B1B68B9
:103B580098800F4B1B889BB2984207D20D4B186870
:103B68000A4B19680431FFF729FF10BD0A4B186882
:103B7800064B19680431FFF721FF084B1B889BB2DD
:103B88009C4201D2054B1C8010BD00BFDC3E0020CA
:103B9800F83E0020FC3E0020103E0020F0000020EF
:103BA8002DE9F04F83B00C9EDDF8348010B9FFF793
:103BB8003BFDFEE78B46174699468246062E02D9FC
:103BC800FFF732FDFEE710460E99FFF749FF04465E
:103BD80000284CD0036B07F18045013D03EB8503BA
:103BE80023F007050097594632460F9BFFF754FF0D
:103BF800284651464A46FFF7E7FC2060B8F1000F17
:103C080001D0C8F80040FFF725FD224A13680133A8
:103C18001360214B1B683BB91F4B1C601368012BB9
:103C28000CD1FFF75FFF09E01C4B1B6833B91A4B37
:103C38001B68DB6AB34201D8174B1C60184A13682B
:103C4800013313606364E36A012505FA03F015493B
:103C58000A6802430A6003EB83039B001248184476
:103C6800211DFFF79FFEFFF713FD2C4601E04FF0E3
:103C7800FF34012C09D1094B1B6833B1064B1B6873
:103C8800DB6AB34201D2FFF7C3FC204603B0BDE8AC
:103C9800F08F00BFD83E0020DC3E0020143E0020FC
:103CA800003F00202C3F0020483E002000B585B092
:103CB800002300930193029303930C480C4980223C
:103CC800FFF76EFF01280AD1FFF7AEFC0122094B6E
:103CD8001A600022084B1A80FFF73EFD03E010B976
:103CE800FFF7A2FCFEE705B05DF804FBD93F00082A
:103CF800945A0008143E0020F83E0020024A136837
:103D080001331360704700BFD43E0020F8B53F4B25
:103D18001B68002B6DD13E4A138801339BB2138078
:103D28001688B6B296B93B4B1B681B6813B1FFF7F0
:103D38007BFCFEE7374A1168374B1868106019603A
:103D4800364A136801331360FFF766FE344B1B884D
:103D58009BB29E4203D200243AE0012400E00024F2
:103D68002C4B1B681B680BB9012300E0002323B10F
:103D78004FF6FF722A4B1A802AE0264B1B68DB6835
:103D8800DD68AB889E4202D2254A138020E02F1DB1
:103D98003846FFF72FFEAB6A1BB105F11800FFF795
:103DA80029FEEB6A012202FA03F11E4802680A435F
:103DB800026003EB83039B001B4818443946FFF756
:103DC800F1FDEA6A194B1B68DB6A9A42C5D2C7E75C
:103DD800164B1B68DB6A03EB83039B00124AD3581C
:103DE800012B00D90124124B1B684BB900F054FB7E
:103DF80006E00F4A13680133136000F04DFB0024FE
:103E08000C4B1B6803B101242046F8BDD43E0020AA
:103E1800F83E0020103E0020FC3E0020F43E00202A
:103E2800F00000202C3F0020483E0020DC3E00200F
:103E3800443E0020303F002038B52E4B1B6813B994
:103E4800FFF7F2FBFEE7FFF705FC2A4B1A68013A79
:103E58001A601B68002B46D1274B1B682BBB00241C
:103E680044E0264BDB68DC6804F11800FFF7C2FD6C
:103E7800251D2846FFF7BEFDE36A012202FA03F179
:103E88001F4802680A43026003EB83039B001D4836
:103E980018442946FFF786FDE26A1B4B1B68DB6A5C
:103EA8009A4202D30122194B1A60144B1B68002B4B
:103EB800D7D1174B1B6853B90DE0FFF727FF10B197
:103EC8000122124B1A60124A1368013B1360104B0F
:103ED8001B68002BF1D10D4B1B68012B05D1FFF797
:103EE80097FB012402E0002400E00024FFF7D0FB48
:103EF800204638BDD43E0020D83E0020E03E0020B9
:103F08002C3F0020483E0020DC3E0020303F0020AF
:103F1800443E002010B520B30446144B1B6813B16F
:103F2800FFF782FBFEE7FFF7E9FE114B1B8814FA47
:103F380083F4A4B20F4B18680430FFF75BFD50B947
:103F48000C4B1B68DA6A012303FA02F20A490B6870
:103F580023EA02030B602046FFF7F6FDFFF76CFF2C
:103F680000E0002008B9FFF753FB10BDD43E002045
:103F7800F83E0020DC3E00202C3F002010B51BE05E
:103F8800FFF7BCFE0F4B1C68FFF756FFA4B1FFF705
:103F980061FB0C4BDB68DC68201DFFF72BFD0A4A30
:103FA8001368013B1360094A1368013B1360FFF76C
:103FB8006FFB2046FFF74AFD044B1B68002BDFD13F
:103FC80010BD00BF1C3E0020D83E0020183E002037
:103FD80008B5FFF7D3FF034B1B68012BF9D9FFF78F
:103FE80017FBF6E7483E00201C4B1B681BB101225B
:103FF8001B4B1A60704710B50022194B1A60194BF9
:104008001B68B3FA83F3DBB2C3F11F0303EB83022C
:10401800920015498A5812B9FFF706FBFEE7124CC1
:104028009A00D118890021444868406848601A44B9
:10403800920008322244904205D1416803EB830282
:1040480092002244516003EB83039B00064A134409
:104058005B68DA68054B1A6010BD00BFD43E0020CB
:10406800303F00202C3F0020483E0020DC3E00204E
:1040780038B510B9FFF7D8FAFEE7144602461A4BCE
:104088001B6813B9FFF7D0FAFEE7184D28686FEAE6
:1040980041436FEA53430383296810461831FFF7F9
:1040A80081FC28680430FFF7A5FC48B92B68DA6A58
:1040B800012303FA02F20E490B6823EA02030B609C
:1040C8004FF6FF739C4206D1084B19680948043122
:1040D800FFF768FC38BD084B188814FA80F080B2E6
:1040E800FFF732FD38BD00BFD43E0020DC3E002083
:1040F8002C3F0020183F0020F83E002038B5194B0F
:104108001B6813B9FFF790FAFEE76FEA41436FEABD
:1041180053430380C46814B9FFF786FAFEE7FFF734
:1041280069FC251D2846FFF765FCE36A012202FAAF
:1041380003F10D4802680A43026003EB83039B0006
:104148000A4818442946FFF72DFCE26A084B1B6809
:10415800DB6A9A4203D90120064B186038BD00205B
:1041680038BD00BFD43E00202C3F0020483E002030
:10417800DC3E0020303F0020054B1B6823B1054B77
:104188001B681BB902207047012070470020704748
:10419800143E0020D43E0020044B1A68108B1A6885
:1041A8001B689B8DC3F1070313837047DC3E002017
:1041B80010B5074C204607490022FEF7D3FC2046DD
:1041C8000549FEF7F3FC2046FEF706FD10BD00BFCB
:1041D800343F002028000020440000200023037002
:1041E800704700BF00234370704700BF00238370EF
:1041F800704700BF10B50446FFF7F0FF2046FFF7F1
:10420800F1FF2046FFF7F2FF10BD00BF0123037046
:10421800704700BF00230370704700BF41707047AC
:104228008170704708B5014602480322FEF752FB29
:1042380008BD00BF343F002010B592B0174A136C78
:1042480043F080531364A2F5E432136843F4404307
:104258001360012301930293022407944FF480030F
:104268000893082309934FF4A8730A930B94072320
:104278000C9301A8FCF794FF0F230D930E940023D1
:104288000F934FF4A05310934FF4805311930DA83C
:104298000521FDF7DFF912B010BD00BF003802405C
:1042A80008B5FEF7F9F9064AD2F8883043F47003E6
:1042B800C2F88830FCF7AAF8FFF7BEFF08BD00BFB8
:1042C80000ED00E008B50138012804D80846114679
:1042D800FEF758F908BD00F0FFF8582303604FF0C7
:1042E800FF3008BD10B582B00024104B18684FF697
:1042F800FF73009301210A460B46FFF79DFA24B984
:104308000B48FFF783FF012403E00948FFF782FF0A
:1043180000240748FFF786FF044B18680221FFF7BF
:10432800F3FA0020FFF7F6FDDFE700BF184600208C
:1043380014460020F0B583B00027174B18684FF6D5
:10434800FF730093042101221346FFF775FA17B98A
:10435800FF26012701E00126002710480021FFF76A
:104368005DFF00240BE00D4D284671B2FFF758FFA2
:104378002846FFF757FF0120FFF7CCFD0134B4F5BD
:104388007A7FF0DB044B18680121FFF7BDFA0020A3
:10439800FFF7C0FDD1E700BF1846002014460020F3
:1043A800F0B583B00027174B18684FF6FF730093DA
:1043B800022101221346FFF73FFA17B9FF2601270A
:1043C80001E00126002710480021FFF729FF0024FB
:1043D8000BE00D4D284671B2FFF720FF2846FFF786
:1043E80021FF0120FFF796FD0134B4F57A7FF0DB59
:1043F800044B18680421FFF787FA0020FFF78AFDAD
:10440800D1E700BF184600201446002000B585B04B
:104418000320FCF731F8FFF701FA174C2060174D1D
:104428002846FFF7E7FE2846FFF7C2FE206801216D
:10443800FFF76AFA00240094019402940394104848
:104448001049C8222346FFF7ABFB0094019402945D
:1044580003940D480D49C8222346FFF7A1FB009499
:104468000194029403940A480A49C8222346FFF794
:1044780097FBFFF71BFCFEE71846002014460020B8
:10448800A94300089C5A00083D430008A45A0008A4
:10449800ED420008AC5A0008704700BF704700BFE3
:1044A800FEE700BFFEE700BFFEE700BFFEE700BF74
:1044B800704700BF08B5FFF75FFE012801D0FFF77E
:1044C80025F9FBF7BDFF08BD08B50248FCF7DEFA81
:1044D80008BD00BF64420020014B1868704700BF48
:1044E80054010020024B0146186800F063B800BF71
:1044F80054010020024B0146186800F017B800BFAD
:104508005401002010B5431E0A44914204D011F80A
:10451800014B03F8014FF8E710BD024403469342EC
:1045280002D003F8011BFAE77047000030B50029F4
:104538003DD051F8042C0B1F1D49002AB8BF9B1809
:104548000A680C4612B95A600B6030BD93420DD20E
:1045580019685818904201BF5A5852181A60426890
:104568005A60236030BD994203D80A465168002931
:10457800F9D1146815199D420AD11B682344D01833
:104588008842136013D10868034413604B680DE038
:1045980002D90C23036030BD1C681819884204BF77
:1045A80008684968596004BF00191860536030BD35
:1045B8005C41002070B5CC1C24F0030408340C2C9A
:1045C80038BF0C24002C064603DA0C233360002085
:1045D80070BD8C42F9D3204A136810461946A1B120
:1045E8000A68121B0ED40B2A03D90A608B188C5048
:1045F8001FE08B420DBF5A684A685A60026018BFB4
:104608000B4616E00B464968E9E7144D2B681BB9C1
:10461800304600F051F828603046214600F04CF84A
:10462800421C0346D1D0C51C25F0030585420AD19A
:104638001C6003F10B001A1D20F00700821A0AD033
:104648005142995070BD3046E91A00F035F80130F2
:10465800BBD02B46ECE770BD5C41002058410020E0
:104668000FB40A4B13B51C6824B1A36913B92046CB
:1046780000F0B4F805AB2046A168049A019300F055
:10468800A9FA02B0BDE8104004B0704754010020F8
:1046980038B5084B1C68054624B1A36913B92046F0
:1046A80000F09CF820462946A268BDE8384000F092
:1046B8002FBD00BF5401002038B5064C0023054625
:1046C80008462360FDF7B2FE431C02D1236803B1FC
:1046D8002B6038BD60410020034613F8012B002AE7
:1046E800FBD1181A0138704730B5141E9BB0054627
:1046F80004DA8B2303604FF0FF301CE04FF40272A2
:10470800ADF80C2014BF04F1FF3222460292059244
:104718004FF6FF7200910491ADF80E2069461A46D3
:104728001E9B00F03DF9431CBCBF8B232B6014B1CA
:10473800009B00221A701BB030BD000073B50093B7
:10474800054B06460D461446186831462A46234648
:10475800FFF7CAFF02B070BD54010020014900F004
:10476800A7B800BFE5540008002310B5044603604D
:104778004360836081814366C281036143618361D1
:1047880019465C300822FFF7C8FE054B6362054BEB
:10479800A362054BE362054B2462236310BD00BF8F
:1047A80091510008B3510008EB5100080F5200085E
:1047B80070B568234D1E5D430E4605F17401FFF781
:1047C800F9FE044640B1002180E842000C30A060A8
:1047D80005F16802FFF7A1FE204670BD836910B598
:1047E800044633BB8364C3640365124B124A1B68D7
:1047F8008262984204BF0123836100F01FF8606061
:10480800204600F01BF8A060204600F017F80421AD
:10481800E06000226068FFF7A7FFA0680921012275
:10482800FFF7A2FFE06812210222FFF79DFF012394
:10483800A36110BDB85A000865470008F8B51B4BBE
:104848001E68B369074613B93046FFF7C7FF4836F5
:10485800B4687368013B04D4B4F90C5075B168347A
:10486800F8E733682BB938460421FFF7A1FF306019
:1048780008B13668ECE70C233B60F8BD4FF6FF73D0
:10488800E3810123A38165662560A56065602561D4
:104898006561A56104F15C0029460822FFF73DFE29
:1048A8006563A563A564E5642046F8BDB85A0008A9
:1048B8002DE9F8438046894600F14804002694B162
:1048C800A5686768013F0CD4AB89012B07D9B5F9F6
:1048D8000E30013303D040462946C84706436835A1
:1048E800F0E72468EBE73046BDE8F8832DE9F047A8
:1048F8008E68B34282460C469046994640D38A89D0
:1049080012F4906F3AD0256809696F1A6569022315
:1049180005EB450595FBF3F57B1C4B449D4238BFE1
:104928001D4653050FD52946FFF744FE064698B1A4
:1049380021693A46FFF7E6FDA38923F4906343F023
:104948008003A38113E02A4600F07CFE064670B976
:1049580050462169FFF7EAFD0C23CAF80030A38905
:1049680043F04003A3814FF0FF30BDE8F087266194
:1049780065613E44ED1B2660A5604E46B14500D2F8
:104988004E4632462068414600F041FEA3689B1B14
:10499800A36023681E4426600020BDE8F08700005D
:1049A8002DE9F0439DB0064603938B891C060D46FE
:1049B80090460CD50B6953B94021FFF7FBFD2860E1
:1049C800286110B90C233360CCE040236B610023CD
:1049D800099320238DF8293030238DF82A30434657
:1049E8001C4613F8012B1AB9B4EB08090FD002E0E2
:1049F800252AF5D1F8E73046294642464B46FFF7C7
:104A080075FF013000F0A980099B4B440993237876
:104A1800002B00F0A28000234FF0FF32049307938D
:104A2800059206938DF853301A9304F10108444611
:104A3800DFF8489121784846052200F0D9FD08F1B1
:104A48000108049B30B1C9EB0000012282401343E6
:104A58000493ECE7D80644BF20228DF853201907A9
:104A680044BF2B228DF8532022782A2A02D0079996
:104A780023460EE0039A111D12680391002ABBBF5A
:104A8800524243F0020307920792B8BF04930134DD
:104A98000AE01C4601332278303A092A03D80A2052
:104AA80000FB0121F5E7079123782E2B1AD16378B3
:104AB8002A2B0AD1039B1A1D1B680392002BB8BF2F
:104AC8004FF0FF33023405930CE0611C00220C46C2
:104AD80001312378303B092B03D80A2000FB02322E
:104AE800F5E70592DFF8988021784046032200F028
:104AF8007FFD38B1049AC8EB00004023834013437C
:104B08000493013421781A488DF82810062204F1FC
:104B1800010800F06DFD88B1164B33B9039B0733CC
:104B280023F007030833039313E003AB00933046E5
:104B380004A92A46104BAFF3008007E003AB0093AB
:104B4800304604A92A460C4B00F0C2F9421C07461D
:104B580003D0099B3B44099341E7AB895B0601D429
:104B6800099801E04FF0FF301DB0BDE8F08300BFA9
:104B7800265B000800000000F54800081C5B0008E0
:104B8800225B00089368013B002B10B5936009DA9B
:104B98009469A34202DBCBB20A2B03D1BDE81040D3
:104BA80000F036BB1368581C10601970C8B210BDED
:104BB800F8B506460F461446D518AC4208D030461C
:104BC80014F8011B3A46FFF7DDFF431CF5D100E05E
:104BD8000020F8BD2DE9F0439DB00D4690460393A3
:104BE800064618B183690BB9FFF7F8FD754B9D426E
:104BF80001D1756808E0744B9D4201D1B56803E0A6
:104C0800724B9D4208BFF568AB891C070AD52B6912
:104C180043B10023099320238DF8293030238DF8E0
:104C28002A3041E03046294600F058FB0028F0D0F1
:104C38004FF0FF30C2E0039A111D12680391002A59
:104C4800BBBF524243F0020307920792B8BF0493D6
:104C5800013423782E2B7BD0DFF8808121784046E1
:104C6800032200F0C5FC38B1049AC8EB00004023C9
:104C78008340134304930134217855488DF8281054
:104C8800062204F1010800F0B3FC002800F085803A
:104C9800504B002B78D1039B073323F007030833CD
:104CA8000393099B3B44099343461C4613F8012B85
:104CB8001AB9B4EB08090ED002E0252AF5D1F8E7B5
:104CC8003046294642464B46FFF772FF013070D006
:104CD800099B4B4409932378002B6AD000234FF09B
:104CE800FF3204930793059206938DF853301A9375
:104CF80004F101084446DFF8E89021784846052287
:104D080000F076FC08F10108049B30B1C9EB000003
:104D18000122824013430493ECE7D80644BF2022C3
:104D28008DF85320190744BF2B228DF85320227881
:104D38002A2A80D0079923461C4601332278303A24
:104D4800092A03D80A2000FB0121F5E7079180E72B
:104D580063782A2B0AD1039B1A1D1B680392002B28
:104D6800B8BF4FF0FF330234059375E7611C00228A
:104D78000C4601312378303B092B03D80A2000FB6D
:104D88000232F5E7059267E703AB0093304604A9C2
:104D98002A46114BAFF3008007E003AB009330467F
:104DA80004A92A460C4B00F093F8421C07467FF4EE
:104DB80078AFAB895B063FF53BAF09981DB0BDE8FE
:104DC800F08300BFBC5A0008DC5A0008FC5A0008EF
:104DD800265B000800000000B94B0008225B0008B1
:104DE8001C5B00082DE9F84391461F468A680B6949
:104DF800DDF820809342B8BF1346C9F8003091F817
:104E0800432006460C4612B10133C9F80030236826
:104E1800990642BFD9F800300233C9F80030256836
:104E280015F006051CD094F843302268003318BFEB
:104E3800012392061FD5E1185A1C302081F843003F
:104E4800224494F8451082F84310023313E03046A8
:104E5800394604F119020123C047013007D0013552
:104E6800E368D9F800209B1A9D42F0DBDBE74FF09E
:104E7800FF30BDE8F8833046394604F14302C047A5
:104E88000130F4D02268D9F80050E36802F0060235
:104E9800042A08BF5D1B2269A3680CBF25EAE575D3
:104EA80000259342C4BF9B1AED184FF00009A9458D
:104EB8000ADA3046394604F11A020123C0470130A4
:104EC800D5D009F10109F2E70020BDE8F883000018
:104ED8002DE9FF410C461746227E6E2A9846064663
:104EE8000A9B01F1430100F0AF8012D8632A23D056
:104EF8000AD8002A00F0BC80582A40F0CB8084F8F9
:104F08004520DFF804E257E0642A1ED0692A1CD045
:104F1800C0E0732A00F0B08009D86F2A2ED0702A1A
:104F280040F0B880226842F0200222603FE0752AF3
:104F380024D0782A3BD0ADE01A68111D1960136897
:104F480084F8423004F14205A8E020681A6810F09D
:104F5800800F02D0101D186008E010F0400F02F119
:104F68000400186002D0B2F9003000E01368002B8A
:104F78003EDA2D225B4284F8432039E020681A6823
:104F880010F0800F02D0101D186007E010F0400FDD
:104F980002F10400186001D0138800E01368227E33
:104FA800DFF864E16F2A0CBF08220A221CE078228D
:104FB800DFF858E184F845202268186812F0800F5D
:104FC80000F104051D6003D1550601D5038800E0F2
:104FD8000368D00744BF42F0200222601BB9226850
:104FE80022F0200222601022002084F8430002E010
:104FF800DFF814E10A226568A560002DA2BF2068C9
:1050080020F00400206003B965B10D46B3FBF2F04F
:1050180002FB10331EF8033005F8013D0346002853
:10502800F4D100E00D46082A0BD12368DA0708D529
:10503800236962689A42DEBF302305F8013C05F116
:10504800FF35491B21612EE025681A68606915F053
:10505800800F03D0151D1D60136808E015F0400F80
:1050680002F104051D60136801D0188000E0186083
:10507800002323610D4616E01A68111D1960156892
:1050880062682846002100F0B3FA08B1401B60604E
:10509800636804E004F1420584F842200123236197
:1050A800002384F84330CDF800803046214603AA17
:1050B8003B46FFF797FE013002D14FF0FF301FE06B
:1050C800304639462A462369C0470130F5D023685F
:1050D8009B0705D4E068039B9842B8BF18460FE0C9
:1050E8000025E368039A9B1A9D42F3DA3046394655
:1050F80004F119020123C0470130DED00135F0E781
:1051080004B0BDE8F08100BF2D5B00083E5B0008DD
:1051180070B50E461446054618B183690BB9FFF7FA
:105128005DFB164B9C4201D16C6808E0144B9C4215
:1051380001D1AC6803E0134B9C4208BFEC68A3683C
:10514800013B002BA36011DAA269934207DB2368B5
:105158001E70236819780A290BD1284601E02846D1
:1051680031462246BDE8704000F052B823681E70F0
:1051780023685A1C2260187870BD00BFBC5A00080A
:10518800DC5A0008FC5A000810B50C46B1F90E109C
:1051980000F07EFA0028ABBF636DA3891B1823F4C7
:1051A8008053ACBF6365A38110BD2DE9F0411D4656
:1051B8008B89DB0507460C46164605D5B1F90E1056
:1051C8000022022300F0B4F9A389B4F90E1023F4E5
:1051D8008053A381384632462B46BDE8F04100F0A3
:1051E8006BB810B50C46B1F90E1000F0A1F9431CCC
:1051F800A38915BF606523F4805343F48053A381CA
:1052080018BFA38110BDB1F90E1000F0D3B800008B
:1052180070B50D461446064618B183690BB9FFF7F9
:10522800DDFA224B9C4201D1746808E0204B9C4275
:1052380001D1B46803E01F4B9C4208BFF468A3691E
:10524800A360A3891A0709D523693BB1236820699C
:10525800181A63699842EDB20FDB08E03046214620
:1052680000F03CF80028F1D04FF0FF3070BD304618
:10527800214600F033F90028F6D1A368013BA3606A
:1052880023685A1C22601D7063690130984204D05B
:10529800A389DB0707D50A2D05D13046214600F042
:1052A8001DF90028E0D1284670BD00BFBC5A00088F
:1052B800DC5A0008FC5A000838B5074C054600209F
:1052C8002060084611461A46FEF7FCFF431C02D12F
:1052D800236803B12B6038BD60410020314B70B5A5
:1052E8001D6806460C4625B1AB6913B92846FFF779
:1052F80075FA2D4B9C4201D16C6808E02B4B9C42FF
:1053080001D1AC6803E02A4B9C4208BFEC68A38932
:105318009AB211071DD4D50602D40922326038E0AA
:10532800500712D5616B41B104F14403994202D090
:105338003046FFF7FBF800236363A38923F02403B7
:10534800A3810023636023692360A38943F00803D2
:10535800A38123694BB9A38903F42073B3F5007FB4
:1053680003D03046214600F0F5F8A38913F0010276
:1053780005D00022A26062695242A26103E0990747
:1053880058BF6269A26022694AB903F0800080B2FE
:1053980030B143F04003A3814FF0FF3070BD0020CF
:1053A80070BD00BF54010020BC5A0008DC5A000838
:1053B800FC5A000838B5064C002305460846236009
:1053C800FDF75EF8431C02D1236803B12B6038BD9A
:1053D800604100208A892DE9F041054610070C46F6
:1053E80057D44B68002B02DC0B6C002B18DDE66AE7
:1053F800B6B102F48052002392B22F682B600AB132
:10540800626D10E0216A28460123B047411C02461C
:1054180009D12B683BB11D2B01D0162B47D12F602A
:105428000020BDE8F081A3895B0705D56368D21A1F
:10543800636B0BB1236CD21AE66A216A00232846F3
:10544800B047461CA38905D12A681AB11D2A01D084
:10545800162A19D100226260D9042269226004D573
:10546800421C01D12B6803B96065616B2F6000296C
:10547800D6D004F14403994202D02846FFF756F8E3
:1054880000206063BDE8F08143F04003A381BDE8DC
:10549800F0810F69002FC3D093070E6808BF4B69CE
:1054A8000F6018BF0023C7EB06088B6012E0A389C2
:1054B80043F04003A3814FF0FF30BDE8F081284658
:1054C800216AA66A3A464346B0470028EFDD0744FA
:1054D800C0EB0808B8F1000FF1DCA1E738B50B699B
:1054E80005460C46DBB118B183690BB9FFF776F9AD
:1054F8000C4B9C4201D16C6808E00B4B9C4201D1DB
:10550800AC6803E0094B9C4208BFEC68B4F90C3066
:105518002BB128462146BDE83840FFF75BBF002085
:1055280038BD00BFBC5A0008DC5A0008FC5A000805
:1055380038B5074C054600202060084611461A4633
:10554800FCF7B6FF431C02D1236803B12B6038BDBA
:1055580060410020F0B58B899D0791B006460C4646
:1055680026D4B1F90E10002909DAA38913F0800FA7
:105578004FF0000514BF40274FF480670DE001AAE3
:1055880000F098F80028F0DB029D05F47045A5F5B9
:1055980000514D424D414FF4806730463946FFF780
:1055A80009F860B9A3899A051DD443F00203A381C1
:1055B80004F14703236023610123636113E00B4B6C
:1055C800B362A389206043F08003A38120616761EF
:1055D8004DB13046B4F90E1000F07EF818B1A38929
:1055E80043F00103A38111B0F0BD00BF6547000877
:1055F80010B5C9B202449042034606D01C788C42CA
:1056080000F10100F7D1184610BD002010BD8142FD
:1056180010B501EB020301D3421E0BE09842FBD206
:105628008118D21AD34204D013F8014D01F8014D64
:10563800F8E710BD994204D011F8014B02F8014F68
:10564800F8E710BDF8B5074615460E4621B91146CC
:10565800BDE8F840FEF7AEBF1AB9FEF767FF284667
:10566800F8BD00F049F8A8420ED238462946FEF7A0
:10567800A1FF044650B131462A46FEF743FF38469B
:105688003146FEF753FF01E03046F8BD2046F8BD2D
:1056980038B5074C054600202060084611461A46D2
:1056A800FCF70EFF431C02D1236803B12B6038BD01
:1056B8006041002038B5074C0023054608461146CE
:1056C8002360FCF7E5FE431C02D1236803B12B607D
:1056D80038BD00BF6041002038B5064C00230546A0
:1056E80008462360FCF7DCFE431C02D1236803B1A3
:1056F8002B6038BD6041002051F8040C0028BEBF63
:10570800091851F8043CC018043870472E2E2F731E
:10571800797374656D2F7372632F73746D3332668A
:10572800342D68616C2F73746D3332663478785F0A
:1057380068616C5F636F727465782E6300000000A7
:105748002E2E2F73797374656D2F7372632F737494
:105758006D333266342D68616C2F73746D33326625
:105768003478785F68616C5F6770696F2E630000DA
:105778002E2E2F73797374656D2F7372632F737464
:105788006D333266342D68616C2F73746D333266F5
:105798003478785F68616C5F7063642E6300000022
:1057A80000000000010203040102030406070809BF
:1057B8002E2E2F73797374656D2F7372632F737424
:1057C8006D333266342D68616C2F73746D333266B5
:1057D8003478785F68616C5F7263632E63000000E1
:1057E80061626F727428292C2065786974696E6704
:1057F8002E2E2E002C2066756E6374696F6E3A200B
:1058080000000000617373657274696F6E20222551
:105818007322206661696C65643A2066696C65204C
:10582800222573222C206C696E652025642573253A
:10583800730A00006173736572745F706172616DE1
:105848002829206661696C65643A2066696C652060
:10585800222573222C206C696E652025640A0000BD
:105868006D61696E28617267633D25642C206172E1
:1058780067763D5B000000002C2000002225732283
:10588800000000005D293B0A0000000053746163BA
:105898006B206672616D653A0A0000002052302064
:1058A8003D2020253038580A0000000020523120C1
:1058B8003D2020253038580A0000000020523220B0
:1058C8003D2020253038580A00000000205233209F
:1058D8003D2020253038580A00000000205231327F
:1058E800203D20253038580A00000000204C522066
:1058F8003D2020253038580A000000002050432061
:105908003D2020253038580A00000000205053520E
:10591800203D20253038580A000000004653522FF9
:105928004641523A0A0000002043465352203D2087
:1059380020253038580A00002048465352203D2080
:1059480020253038580A00002044465352203D2074
:1059580020253038580A00002041465352203D2067
:1059680020253038580A0000204D4D464152203D30
:1059780020253038580A00002042464152203D2058
:1059880020253038580A00004D6973630A0000006A
:10599800204C522F4558435F52455455524E3D2096
:1059A800253038580A0000005B486172644661750A
:1059B8006C745D0A000000005B4275734661756C8B
:1059C800745D0A005B55736167654661756C745D4B
:1059D8000A000000484944204A6F79737469636B70
:1059E80020696E204853204D6F6465004849442063
:1059F8004A6F79737469636B20696E204653204D32
:105A08006F64650053544D6963726F656C656374A8
:105A1800726F6E6963730000303030303030303070
:105A2800303031410000000030303030303030301C
:105A3800303031420000000048494420436F6E6610
:105A48006967000048494420496E7465726661635D
:105A5800650000004552524F523A2000496E766167
:105A68006C6964204465766963652068616E646C5E
:105A780065000000496E76616C696420436C61734F
:105A8800732068616E646C650000000049444C45F1
:105A98000000000058417869730000005941786996
:105AA80073000000436C69636B657200430000007B
:105AB800F4000020000000000000000000000000CA
:105AC80000000000000000000000000000000000CE
