:020000040800F2
:10000000000002209D020008A5020008A9020008C5
:10001000F1020008F50200083D030008000000009E
:100020000000000000000000000000008503000840
:1000300089030008000000008D03000891030008F8
:10004000A1030008A1030008A1030008A103000800
:10005000A1030008A1030008A1030008A1030008F0
:10006000A1030008A1030008A1030008A1030008E0
:10007000A1030008A1030008A1030008A1030008D0
:10008000A1030008A1030008A1030008A1030008C0
:10009000A1030008A1030008A1030008A1030008B0
:1000A000A1030008A1030008A1030008A1030008A0
:1000B000A1030008A1030008A1030008A103000890
:1000C000A1030008A1030008A1030008A103000880
:1000D000A1030008A1030008A1030008A103000870
:1000E000A1030008A1030008A1030008A103000860
:1000F000A1030008A1030008A1030008A103000850
:10010000A1030008A1030008A1030008A10300083F
:10011000A1030008A1030008A1030008A10300082F
:10012000A1030008A1030008A1030008A10300081F
:10013000A1030008A1030008A1030008A10300080F
:10014000A1030008A1030008A1030008A1030008FF
:10015000A1030008A1030008A1030008A1030008EF
:10016000A1030008A1030008A1030008A1030008DF
:10017000A1030008A1030008A1030008000000007B
:10018000A1030008A103000800B583B001F03AFA0A
:10019000304B314A1360314A1360314B314A03E02E
:1001A00011681960043304322F498B42F8D32A4B6B
:1001B0001A682E4B9A4204D1284B1A682C4B9A424B
:1001C00000D0FEE7234B2B4A13602B4A13602B4BC6
:1001D00002E000221A600433294A9342F9D3254BE6
:1001E0001B6813B9244B1B6803B1FEE701F00CFD3B
:1001F00001A8694601F0A0F9224C234B1C1BA41056
:10020000002504E01F4B53F8253098470135AC42D8
:10021000F8DC1E4C1E4B1C1BA410002504E01B4BDD
:1002200053F8253098470135AC42F8DC0198009925
:1002300001F0CCFD0546174C174B1C1BA41004E025
:10024000013C144B53F824309847002CF8DC284626
:1002500001F044F9BABADECA000000208C00002088
:1002600000000020482C000890000020785634122E
:100270003254769890000020B801002090000020B1
:10028000BC010020CC030008CC030008CC0300080C
:10029000CC030008CC030008CC03000808B5FFF726
:1002A00073FF00BFFEE700BF1EF0040F0CBFEFF3AB
:1002B0000880EFF309807146364A10472DE9F04176
:1002C00082B007468846084B5D6B9C6B9E6A074868
:1002D00001F046F9CDF80080384631462A462346DB
:1002E00001F094F9FEE700BF00ED00E0DC2B000810
:1002F000FEE700BF1EF0040F0CBFEFF30880EFF322
:1003000009807146244A10472DE9F04182B0074622
:100310008846084B5D6B9C6B9E6A074801F020F98C
:10032000CDF80080384631462A46234601F06EF962
:10033000FEE700BF00ED00E0EC2B00081EF0040F0C
:100340000CBFEFF30880EFF309807146134A1047A2
:100350002DE9F04182B007468846084B5D6B9C6BE7
:100360009E6A074801F0FCF8CDF800803846314617
:100370002A46234601F04AF9FEE700BF00ED00E0FF
:10038000F82B0008FEE700BFFEE700BFFEE700BF56
:1003900070470000BD02000809030008510300086F
:0403A000FEE700BFB5
:1003A400482C00080000002090000020482C000881
:1003B400000000100000001090000020BC0100208C
:0803C400000000100000001011
:1003CC00704700BF10B5044601F04EF8064BA3FB76
:1003DC000030800900F0A6F84FF0FF3021460022D3
:1003EC0000F04AF8002010BDD34D621008B50B4B3D
:1003FC001A6842F400721A601A6842F480621A6039
:10040C001A6842F480721A60032000F017F80F206B
:10041C00FFF7D8FFFFF7D4FF002008BD003C0240D7
:10042C00014B1868704700BF94000020024A136803
:10043C0023F002031360704710E000E010B504468F
:10044C00C31E042B03D90A48A42101F077F804F049
:10045C000700084AD36823F4E0631B041B0C43EA2F
:10046C00002040F0BF6040F40030D06010BD00BFF1
:10047C004029000800ED00E070B504460E46154614
:10048C000F2A03D91A48BC2101F058F80F2E03D9B2
:10049C001748BD2101F052F8164BDB68C3F3022359
:1004AC00C3F10702042A28BF0422191D062901D909
:1004BC00D81E00E00020012303FA02F2013A324078
:1004CC0002FA00F183405A1E2A400A43002C06DA35
:1004DC0004F00F041201D2B2074B1A5570BD120171
:1004EC00D2B204F1604404F5614484F8002370BD79
:1004FC004029000800ED00E014ED00E010B5041EEA
:10050C0003DA0648D02101F019F8610904F01F0440
:10051C000123A340024A42F8213010BD40290008B3
:10052C0000E100E00138B0F1807F0AD2064B586040
:10053C00F021064A82F823100020986007221A60E6
:10054C0070470120704700BF10E000E000ED00E0B4
:10055C002DE9F84F80460F46A04B984223D003F567
:10056C00806398421FD003F5806398421BD003F53B
:10057C008063984217D003F58063984213D003F53B
:10058C00806398420FD003F5806398420BD003F53B
:10059C008063984207D003F58063984203D090485B
:1005AC00C52100F0CBFF3B881BB98D48C62100F05C
:1005BC00C5FF7B68012B22D9112B20D0022B1ED01A
:1005CC00122B1CD0874A934219D002F58012934209
:1005DC0015D002F58012934211D0A2F5F812934275
:1005EC000DD002F58012934209D002F5801293428D
:1005FC0005D0032B03D07A48C72100F09FFFBB68BE
:10060C00022B03D97648C82100F098FF002423E17F
:10061C00A1460125A5403B6803EA050AAA4540F01E
:10062C001A817B68022B01D0122B4AD13B69C3B3D0
:10063C00092B36D0ABB3A3B39BB393B3012B30D000
:10064C002FD0022B2DD02CD02BD0032B29D0042B28
:10065C0027D026D025D0052B23D022D0092B20D073
:10066C00062B1ED0092B1CD0072B1AD019D018D052
:10067C00082B16D015D014D0092B12D011D00A2B60
:10068C000FD00ED00B2B0CD00C2B0AD009D00D2B6D
:10069C0007D00C2B05D00F2B03D05148D92100F0DB
:1006AC004DFFE608083658F8261004F007008000C5
:1006BC000F23834021EA03023B698340134348F82C
:1006CC002630D8F800304FEA440B032606FA0BF616
:1006DC00F64306EA03027B6803F0030303FA0BF309
:1006EC001343C8F800307B685A1E012A03D9112B1A
:1006FC0001D0122B1CD1FB68032B03D93848EC21F9
:10070C0000F01CFFD8F8083006EA0302FB6803FA75
:10071C000BF31343C8F80830D8F8043023EA050368
:10072C007D68C5F3001505FA09F51D43C8F804509A
:10073C00D8F80C303340BE6806FA0BF61E43C8F8E6
:10074C000C607B6813F0805F00F08580264A536C48
:10075C0043F480435364A308991CA2F5803252F8E9
:10076C00211004F0030080000F22824021EA0201D4
:10077C001A4A90453AD002F5806290452BD002F58A
:10078C008062904525D002F5806290451FD002F51D
:10079C008062904519D002F58062904513D002F525
:1007AC00806290450DD002F58062904507D002F52D
:1007BC008062904501D1082219E0092217E0072236
:1007CC0015E0062213E0052211E004220FE00322BB
:1007DC000DE002220BE0012209E000BF0000024004
:1007EC0074290008000011100038024000228240D9
:1007FC000A4302331B4941F823201B4B1A686FEA4A
:10080C000A0303EA0201786810F4803F01D04AEA37
:10081C000201154A1160526803EA0201786810F46B
:10082C00003F01D04AEA02010F4A5160926803EA84
:10083C000201786810F4801F01D04AEA02010A4ACA
:10084C009160D2681340796811F4001F01D04AEA14
:10085C000203054AD36001340F2C7FF6D9AEBDE8F4
:10086C00F88F00BF00380140003C0140F8B5044649
:10087C000D46384B984224D003F58063984220D023
:10088C0003F5806398421CD003F58063984218D01E
:10089C0003F58063984214D003F58063984210D01E
:1008AC0003F5806398420CD003F58063984208D01E
:1008BC0003F58063984204D027484FF4A17100F0EF
:1008CC003DFE002342E001229A4005EA02009042DC
:1008DC003BD126685F000321B940C9430E40266016
:1008EC00DF08083754F827E003F0070C4FEA8C0CAC
:1008FC000F2606FA0CFC2EEA0C0E44F827E0A7682B
:10090C000F40A760676827EA02026260E268114044
:10091C00E16003F00302920096409A080F4F0232F6
:10092C0057F8221021EA060647F822600C490E6897
:10093C00C24306EA020008604868104048608868B4
:10094C0010408860C8680240CA6001330F2BBAD9C6
:10095C00F8BD00BF000002407429000800380140B7
:10096C00003C014038B505460C4621B9054840F21B
:10097C008B1100F0E3FD2B69234201D0012038BD1F
:10098C00002038BD7429000870B5064615460C4683
:10099C0021B909484FF4D67100F0D0FD012D04D9CE
:1009AC00054840F2AD1100F0C9FD0DB1B46170BD48
:1009BC002404B46170BD00BF74290008002800F045
:1009CC00DD8038B5044603686D4A93420CD002F5BD
:1009DC008062934208D002F58062934204D0694849
:1009EC004FF4967100F0AAFD6368013B664A93428E
:1009FC0004D9644840F22D1100F0A0FDA3683BB16E
:100A0C00B3F5804F04D05F484FF4977100F096FD1A
:100A1C00E36823F47F7323F0030323B1594840F2B6
:100A2C002F1100F08BFD2369B3F5804F07D0B3F580
:100A3C00404F04D053484FF4987100F07FFD636928
:100A4C00012B04D94F4840F2311100F077FDA36916
:100A5C0033F0FE0304D04B484FF4997100F06EFD57
:100A6C00E36933B1402B04D0464840F2331100F017
:100A7C0065FD236A33B1802B04D042484FF49A7140
:100A8C0000F05CFD94F8353013F0FF0F02D12046D6
:100A9C0001F07CFA022384F835302268136823F0C5
:100AAC000103136000F0FCFC384BA3FB00239B0CF0
:100ABC002268536021686568354A954201D8013334
:100ACC0008E04FF4967202FB03F3324AA2FB0323B5
:100ADC009B0901330B62216863682D4A934208D845
:100AEC005B00B0FBF3F0C0F30B03032B2BD80420FB
:100AFC0029E0A5684DB903EB4302B0FBF2F2C2F357
:100B0C000B02B2FA82F252090AE003EB830202EB07
:100B1C008202B0FBF2F2C2F30B02B2FA82F2520979
:100B2C0082B935B903EB4303B0FBF3F040F400405A
:100B3C0009E003EB830303EB8303B0FBF3F040F416
:100B4C00404000E00120C8612268E169236A0B4340
:100B5C00136022682169E3680B4393602268616922
:100B6C00A3690B43D3602268136843F0010313603D
:100B7C000020A063012384F8353038BD0120704774
:100B8C0000540040A42900087F1A060083DE1B4392
:100B9C00A0860100D34D621020B310B50446036843
:100BAC00114A93420CD002F58062934208D002F5B0
:100BBC008062934204D00D4840F2771100F0BEFCE5
:100BCC00022384F835302268136823F00103136084
:100BDC00204601F035FA0020A06384F8350084F833
:100BEC00340010BD0120704700540040A4290008B7
:100BFC0038B5044603680F2B04D9B34840F21B11D7
:100C0C0000F09CFC236813F0010F5FD06368012B8C
:100C1C0006D9052B04D0AC484FF4907100F08EFC33
:100C2C00AA4B9B6803F00C03042B0AD0A74B9B68C0
:100C3C0003F00C03082B0DD1A44B5B6813F4800F4D
:100C4C0008D0A24B1B6813F4003F3FD06368002B05
:100C5C003CD1FCE100229E4B1A70FFF7E1FB0546EC
:100C6C0007E0FFF7DDFB401B41F28833984200F2AE
:100C7C00F081964B1B6813F4003FF2D12279944B10
:100C8C001A7063688BB1FFF7CBFB054607E0FFF7E3
:100C9C00C7FB401B41F28833984200F2DC818B4B3E
:100CAC001B6813F4003FF2D010E0FFF7B9FB0546C8
:100CBC0007E0FFF7B5FB401B41F28833984200F286
:100CCC00CC81824B1B6813F4003FF2D1236813F0E4
:100CDC00020F6DD0E368012B04D97B484FF4B0713F
:100CEC0000F02CFC23691F2B04D9774840F26111CA
:100CFC0000F024FC754B9B6813F00C0F0AD0734B5F
:100D0C009B6803F00C03082B1CD1704B5B6813F42D
:100D1C00800F17D16D4B1B6813F0020F03D0E368E3
:100D2C00012B40F09C816948026822F0F80122698D
:100D3C00F82393FAA3F3B3FA83F3DBB29A400A4392
:100D4C00026035E0E3680BB30122624B1A60FFF7D7
:100D5C0067FB054605E0FFF763FB401B642800F2C8
:100D6C0080815A4B1B6813F0020FF4D0574803686C
:100D7C0023F0F8012269F82393FAA3F3B3FA83F36F
:100D8C00DBB29A4041EA0203036011E00022514BAE
:100D9C001A60FFF745FB054605E0FFF741FB401BDA
:100DAC00642800F26081494B1B6813F0020FF4D1E8
:100DBC00236813F0080F2ED06369012B04D9424825
:100DCC004FF4D07100F0BAFB636993B10122424B2E
:100DDC001A60FFF725FB054605E0FFF721FB401BDA
:100DEC00642800F24281394B5B6F13F0020FF4D090
:100DFC0011E00022384B1A60FFF712FB054605E0A4
:100E0C00FFF70EFB401B642800F231812F4B5B6F08
:100E1C0013F0020FF4D1236813F0040F6FD0A36802
:100E2C00012B06D9052B04D027484FF4E57100F0AF
:100E3C0085FB264A136C43F080531364A2F5E4320D
:100E4C00136843F480731360FFF7EAFA054605E074
:100E5C00FFF7E6FA401B642800F20B811F4B1B685E
:100E6C0013F4807FF4D000221D4B1A70FFF7D8FAD0
:100E7C00054607E0FFF7D4FA401B41F2883398424D
:100E8C0000F2F980114B1B6F13F0020FF2D1227A92
:100E9C00134B1A70A368012B11D1FFF7C1FA054649
:100EAC0007E0FFF7BDFA401B41F28833984200F28D
:100EBC00E480064B1B6F13F0020FF2D01FE0FFF71C
:100ECC00AFFA054616E000BFE429000800380240DE
:100EDC000238024000004742800E4742007000403A
:100EEC0070380240FFF79CFA401B41F2883398425D
:100EFC0000F2C580684B1B6F13F0020FF2D1A3698F
:100F0C00022B04D9654840F20E2100F017FBA369AF
:100F1C00002B00F0B680604A926802F00C02082A9E
:100F2C0000F0B180022B7FD1E3693BB1B3F5800FA8
:100F3C0004D05A4840F2172100F000FB236A3F2BE3
:100F4C0004D956484FF4067100F0F8FA636AC03BB6
:100F5C00F02B04D9514840F2192100F0EFFAA36AA2
:100F6C00022B0AD0042B08D0062B06D0082B04D059
:100F7C004A4840F21A2100F0E1FAE36A043B0B2BD9
:100F8C0004D9464840F21B2100F0D8FA0022444B09
:100F9C001A60FFF745FA054604E0FFF741FA401BDB
:100FAC00642872D83C4B1B6813F0007FF5D1216A82
:100FBC00626A47F6C07393FAA3F3B3FA83F3DBB216
:100FCC009A401143A36A5B08013B4FF4403292FAFA
:100FDC00A2F2B2FA82F2D2B293400B43E26943EA34
:100FEC000201E36A4FF0706292FAA2F2B2FA82F254
:100FFC00D2B203FA02F241EA020343F00053264A4A
:10100C0053600122264B1A60FFF70AFA044604E0EB
:10101C00FFF706FA001B642839D81F4B1B6813F026
:10102C00007FF5D0002038BD00221D4B1A60FFF761
:10103C00F7F9044604E0FFF7F3F9001B642828D8FD
:10104C00154B1B6813F0007FF5D1002038BD012033
:10105C0038BD032038BD032038BD032038BD012026
:10106C0038BD032038BD032038BD032038BD032014
:10107C0038BD032038BD032038BD032038BD032004
:10108C0038BD002038BD012038BD032038BD0320F9
:10109C0038BD032038BD00BF00380240E4290008E9
:1010AC006000474270B504460D460368013B0E2BA9
:1010BC0004D9884840F27E2100F040FA072D04D96B
:1010CC00844840F27F2100F039FA834B1B6803F00F
:1010DC000F03AB4280F08B80EAB27F4B1A701B6817
:1010EC0003F00F03AB4240F05181236813F0020F61
:1010FC001DD0A368A3B1802B12D0902B10D0A02BA5
:10110C000ED0B02B0CD0C02B0AD0D02B08D0E02B9B
:10111C0006D0F02B04D06F4840F2952100F00EFA67
:10112C006E498B6823F0F002A36813438B6023682D
:10113C0013F0010F00F0E8806368022B04D96548B6
:10114C004FF4277100F0FAF96268012A05D1634B5C
:10115C001B6813F4003F0ED11AE1022A05D15F4B34
:10116C001B6813F0007F06D114E15C4B1B6813F075
:10117C00020F00F0118159498B6823F003031343CC
:10118C008B60FFF74DF905466368012B0FD107E023
:10119C00FFF746F9401B41F28833984200F2FE807B
:1011AC004E4B9B6803F00C03042BF1D1ACE0022BEB
:1011BC0017D107E0FFF734F9401B41F2883398420E
:1011CC0000F2EE80454B9B6803F00C03082BF1D129
:1011DC009AE0FFF725F9401B41F28833984200F260
:1011EC00E1803E4B9B6813F00C0FF2D18CE023682E
:1011FC0013F0020F1DD0A368A3B1802B12D0902B3B
:10120C0010D0A02B0ED0B02B0CD0C02B0AD0D02BD2
:10121C0008D0E02B06D0F02B04D02E484FF43971B7
:10122C0000F08CF92D498B6823F0F002A36813436E
:10123C008B60236813F0010F5ED06368022B04D916
:10124C00244840F2EB2100F079F96268012A05D1BB
:10125C00224B1B6813F4003F0ED1A5E0022A05D1E6
:10126C001E4B1B6813F0007F06D19FE01B4B1B68C5
:10127C0013F0020F00F09C8018498B6823F00303D5
:10128C0013438B60FFF7CCF806466368012B0FD134
:10129C0007E0FFF7C5F8801B41F28833984200F253
:1012AC0089800E4B9B6803F00C03042BF1D123E0D7
:1012BC00022B1CD106E0FFF7B3F8801B41F28833F8
:1012CC00984279D8054B9B6803F00C03082BF2D19C
:1012DC0012E000BFE4290008003C02400038024044
:1012EC00FFF79EF8801B41F28833984266D8354B45
:1012FC009B6813F00C0FF3D1EAB2334B1A701B68D6
:10130C0003F00F03AB425BD1236813F0040F19D029
:10131C00E36883B1B3F5805F0DD0B3F5A05F0AD05D
:10132C00B3F5C05F07D0B3F5E05F04D0274840F2B7
:10133C003B3100F003F923498B6823F4E052E36856
:10134C0013438B60236813F0080F1AD0236983B101
:10135C00B3F5805F0DD0B3F5A05F0AD0B3F5C05FD5
:10136C0007D0B3F5E05F04D0184840F2423100F0EA
:10137C00E5F8144A936823F46043216943EAC103F6
:10138C0093600F20FFF71EF8002070BD012070BD88
:10139C00012070BD012070BD012070BD032070BD07
:1013AC00032070BD032070BD012070BD012070BDF5
:1013BC00012070BD032070BD032070BD032070BDE3
:1013CC00012070BD00380240003C0240E4290008B6
:1013DC00224B9B6803F00C03042B3DD0082B01D04F
:1013EC001F4870471D4B586800F03F005B6813F4B2
:1013FC00800F10D01B4BB3FBF0F3184A506847F624
:10140C00C072104092FAA2F2B2FA82F2D2B2D0407A
:10141C0000FB03F30FE0124BB3FBF0F30F4A5068E1
:10142C0047F6C072104092FAA2F2B2FA82F2D2B22D
:10143C00D04000FB03F3094A506800F440304FF4ED
:10144C00403292FAA2F2B2FA82F2D2B2D040013019
:10145C004000B3FBF0F07047024870470038024080
:10146C000024F40000127A0008B5FFF7B1FF094B15
:10147C009B6803F0F002F02393FAA3F3B3FA83F31F
:10148C00DBB222FA03F3044AD35CD840034B186056
:10149C0008BD00BF00380240D42900080C00002011
:1014AC0008B5FFF7E1FF084B9B6803F4E0524FF4DB
:1014BC00E05393FAA3F3B3FA83F3DBB222FA03F308
:1014CC00024AD35CD84008BD00380240D429000839
:1014DC00FEE700BF08B5034800F056F80120FFF7FF
:1014EC00F7FF00BF142A000808B50D4B1B6813B991
:1014FC000C4A0B4B1A600A4B1A68C31C23F00303EB
:10150C00134409498B4206D900F0CAFD0C23036031
:10151C004FF0FF3008BD02490B60104608BD00BFFC
:10152C0098000020BC01002000FC01200123036076
:10153C00014B0B60704700BF0400002008B5034648
:10154C000A460348194600F005F8FFF7C3FF00BF31
:10155C00682A00080FB400B583B004AB53F8042B11
:10156C0001930848802100F08DFE011E03DD054823
:10157C0000F03EF80146084603B05DF804EB04B0F9
:10158C00704700BFA000002010B5044600F048FED4
:10159C000146204600F02CF80248012100F028F802
:1015AC0010BD00BF582B000810B400221AE04FF0F9
:1015BC006043D3F8803E13F0010F06D04FF0604328
:1015CC00D3F8003E13F0010F01D110460DE04FF09F
:1015DC0060431B68002BFAD004784FF060431C70FA
:1015EC00013201308A42E2D308465DF8044B704761
:1015FC0008B5FFF7D9FF08BD08B500F079F808BDAC
:10160C00F8B504460D4617461E462648FFF7A2FFBE
:10161C0025482168FFF79EFF24486168FFF79AFF71
:10162C002348A168FFF796FF2248E168FFF792FF75
:10163C0021482169FFF78EFF20486169FFF78AFF77
:10164C001F48A169FFF786FF1E48E169FFF782FF7B
:10165C001D48FFF77FFF1D482946FFF77BFF1C4CF9
:10166C00E16A1C48FFF776FF216B1B48FFF772FFFE
:10167C00E16B1A48FFF76EFF15F0800F03D0184886
:10168C003946FFF767FF15F4004F03D01548314674
:10169C00FFF760FF1448FFF75DFF14480699FFF74A
:1016AC0059FFF8BDC02A0008D02A0008E02A00081B
:1016BC00F02A0008002B0008102B0008202B000833
:1016CC00302B0008402B0008502B00085C2B000826
:1016DC0000ED00E06C2B00087C2B00088C2B000824
:1016EC009C2B0008AC2B0008BC2B0008C42B00085A
:1016FC000C4B1A6842F001021A60002199601A68BA
:10170C0022F0847222F480321A60074A5A601A68F6
:10171C0022F480221A60D9604FF00062034B9A6069
:10172C00704700BF003802401030002400ED00E08C
:10173C00F8B504460D461646FEF772FE074626E03F
:10174C0023685A6912F4806F10D01A6842F4007240
:10175C001A6023686FF480625A610423A36301202A
:10176C0084F83500002384F83430F8BDB6F1FF3F1F
:10177C000DD026B1FEF754FEC01BB04207D9012391
:10178C0084F83530002384F834300320F8BDC5F3D9
:10179C000743012B08D123685B6925EA03039BB23D
:1017AC00003318BF012307E023689B6925EA030374
:1017BC009BB2003318BF0123002BC1D10020F8BD10
:1017CC002DE9F04106460C4690461D46FEF728FED4
:1017DC000746B8F1000F12D03DE0B5F1FF3F0ED037
:1017EC0025B1FEF71DFEC01BA84208D9012386F8BF
:1017FC003530002386F834300320BDE8F081C4F383
:10180C000743012B08D133685B6924EA03039BB2BD
:10181C00003318BF012307E033689B6924EA0303F4
:10182C009BB2003318BF0123002BD6D10020BDE89A
:10183C00F081B5F1FF3F0ED025B1FEF7F1FDC01BD5
:10184C00A84208D9012386F83530002386F83430B5
:10185C000320BDE8F081C4F30743012B08D13368A2
:10186C005B6924EA03039BB2B3FA83F35B0907E0D9
:10187C0033689B6924EA03039BB2B3FA83F35B09D5
:10188C00002BD6D10020BDE8F08100BF2DE9F0413E
:10189C0084B004461F46BDF82C6090F83530DBB29E
:1018AC00012B40F046810D46904691F83530DBB265
:1018BC00012B40F04081002F00F03F81002E00F002
:1018CC003E8103689B6913F0020F40F03A8190F857
:1018DC003430012B00F03781012380F8343091F83B
:1018EC003430012B00F03181012381F83430122384
:1018FC0080F8353000228263222381F835308A63E8
:10190C0009680B6843F480630B6001680B6843F44F
:10191C0080730B604FF001110C9BFFF751FF0028F7
:10192C0040F01581226848F00103DBB213612046B8
:10193C0093490C9AFFF7FCFE28B1A36B042B40F0E3
:10194C000881012318E1012E0FD12268136823F4BA
:10195C008063136023685A6901929A690192019A13
:10196C001A6842F400721A60AEE0022E10D122689E
:10197C00136823F4806313602268136843F40063D4
:10198C00136023685A6902929B690293029B9BE045
:10199C002268136843F48063136023685A690392C6
:1019AC009B690393039B8FE0032E6ED8012E21D1EC
:1019BC002846744900220C9BFFF702FF002840F0D8
:1019CC00CA802B6807F101083A781A6120466E49E3
:1019DC0000220C9BFFF7F4FE002840F0BE80236829
:1019EC001B690A9A1370013EB6B2134601330A936F
:1019FC00474669E0022E1AD12046644900220C9B0E
:101A0C00FFF7DEFE002840F0AA802268136843F43A
:101A1C000073136023681A690A9B03F8022B22686F
:101A2C0012690A994A70023EB6B20A934CE02046FB
:101A3C00564900220C9BFFF7C3FE002840F0918012
:101A4C002268136823F48063136023681B690A9A65
:101A5C001370013EB6B220464C4900220C9BFFF796
:101A6C00AFFE00287FD12268136843F40073136023
:101A7C0023681B690A9A537023681B699370023E92
:101A8C00B6B2134603330A931EE020463E490022A9
:101A9C000C9BFFF795FE002867D10A9B5A1C236804
:101AAC001B690A990B70013EB6B22368596911F093
:101ABC00040F08D01B690A9A5370013EB6B2134644
:101ACC0002330A9300E00A92002E7FF46DAF226875
:101ADC00136823F40063136028464FF4823100220C
:101AEC000C9BFFF76DFE002841D12B686FF48062D0
:101AFC005A612A68136823F48063136028462449CA
:101B0C0001220C9BFFF75CFE98BB012285F8352067
:101B1C00002385F8343020461D490C9BFFF750FEFE
:101B2C00034640BB012284F83520002284F834207F
:101B3C0022E0022320E002231EE001231CE001230B
:101B4C001AE0022318E0022316E0022314E0032318
:101B5C0012E0032310E003230EE003230CE0032325
:101B6C000AE0032308E0032306E0032304E0032335
:101B7C0002E0032300E00323184604B0BDE8F08123
:101B8C00020001008000010040000100040001007F
:101B9C000200100010B592B0174A136C43F080533A
:101BAC001364A2F5E432136843F440431360012339
:101BBC0001930293022407944FF4800308930823A3
:101BCC0009934FF4A8730A930B9407230C9301A861
:101BDC00FFF70EF80F230D930E9400230F934FF481
:101BEC00A05310934FF4805311930DA80521FFF7C8
:101BFC0059FA12B010BD00BF0038024008B5FFF70B
:101C0C0077FDFEF7F3FBFEF711FCFFF7C3FF08BDF2
:101C1C0008B51148FEF7C0FF1048FEF7BDFF104B8A
:101C2C00186800F04BFA0F4B186800F047FA0E4B8F
:101C3C00186800F043FA0D4B186800F03FFA0120C9
:101C4C0000F042F9002000F03FF9022000F03CF9CE
:101C5C00032000F039F9FEE76C0100202C01002074
:101C6C00AC010020B0010020A80100206801002078
:101C7C0070B592B0484A136C43F080531364A2F5CC
:101C8C00E432136843F4404313600123019302933D
:101C9C00022407944FF480030893082309934FF40C
:101CAC00A8730A930B9407230C9301A8FEF7A0FFCB
:101CBC000F230D930E9400240F944FF4A053109304
:101CCC004FF4805311930DA80521FFF7EBF933481E
:101CDC00334B03604FF480430361324A42604461EA
:101CEC008360C461802303621223C360FE2383617B
:101CFC00FEF764FE08B1FFF78BFF2B482B4B0360FC
:101D0C004FF480420261274B4360002343618260A1
:101D1C00C361802303621423C360FE238361FEF737
:101D2C004DFE08B1FFF774FF0020014600F0ECF8FF
:101D3C00012000F08DF8002000F08AF8022000F05D
:101D4C0087F8032000F084F8012000F0AFF9184E5A
:101D5C003060012000F0AAF9164C2060012000F040
:101D6C00A5F9154D2860012000F0A0F9134B18605F
:101D7C00316800220A70216803240C7029680A70EB
:101D8C001B6801221A70022000F09EF8204600F019
:101D9C009BF812B070BD00BF003802406C010020EF
:101DAC0000540040801A06002C010020005C00400A
:101DBC00B0010020AC01002068010020A801002027
:101DCC0030B585B0FFF754FF30E0002000F0D4F8B8
:101DDC000128FAD1002000F0CFF80028FAD1012018
:101DEC0000F082F8002000F07FF8022000F07CF870
:101DFC00032000F079F8104C104D2B680093012350
:101E0C0001934FF47A7302930D480E491422236800
:101E1C00FFF73CFD0C4B18702B68187800F054F849
:101E2C0022681378013303F003031370074B1B78FC
:101E3C00002BCAD105B030BD68010020AC010020D8
:101E4C006C0100202C010020B401002010000020A7
:101E5C0070B586B0044628B9184A136B43F00803D2
:101E6C00136314E0012805D1144A136B43F00803E3
:101E7C0013630CE0022805D1104A136B43F00803DE
:101E8C00136304E00D4A136B43F0080313630C4B0C
:101E9C0033F8145001950123029303930223049306
:101EAC00084E56F8240001A9FEF752FB56F8240000
:101EBC0029460022FEF768FD06B070BD00380240CE
:101ECC00082C00081400002008B50346044A52F8F8
:101EDC002000044A32F813100122FEF755FD08BD0C
:101EEC0014000020082C000808B50346044A52F8D8
:101EFC002000044A32F813100022FEF745FD08BDFD
:101F0C0014000020082C000830B587B00546174A8D
:101F1C00136B43F0010313630C4661B90123019366
:101F2C0000230293039302230493114B53F82000D4
:101F3C0001A9FEF70DFB012C15D1012301930024FF
:101F4C000394022304930B4B0293094B53F8250083
:101F5C0001A9FEF7FDFA06200F212246FEF78CFAA6
:101F6C000620FEF7CBFA07B030BD00BF00380240A8
:101F7C00240000200000111008B5034B53F820007A
:101F8C000121FEF7EFFC08BD240000202DE9F047ED
:101F9C0086B0274C236B43F002032363236B43F07F
:101FAC0002032363236B43F001032363236B43F08E
:101FBC0004032363402301934FF01209CDF80890DA
:101FCC004FF00108CDF80C800227049704250595E5
:101FDC00DFF868A050460DEB0501FEF7B9FA4FF497
:101FEC0000760196059550460DEB0501FEF7B0FA0B
:101FFC004FF480730193CDF80890CDF80C800497C2
:10200C0005950C480DEB0501FEF7A2FA0196059516
:10201C0009480DEB0501FEF79BFA236C43F4001302
:10202C002364236C43F40003236406B0BDE8F087FB
:10203C000038024000000240000802400004024048
:10204C0010B5134B1A6A42F400121A621A6A22F47F
:10205C0000121A621A6A42F400021A621A6A22F414
:10206C0000021A620B4C20464021FEF7FFFB0A4887
:10207C004FF48071FEF7FAFB20464FF40071FEF727
:10208C00F5FB06484FF40071FEF7F0FB10BD00BFE6
:10209C0000380240000402400000024000080240E8
:1020AC00014B1868704700BF88000020024B0146A6
:1020BC00186800F04FB800BF88000020024B0146A2
:1020CC00186800F003B800BF8800002030B5002964
:1020DC003DD051F8042C0B1F1D49002AB8BF9B188A
:1020EC000A680C4612B95A600B6030BD93420DD28F
:1020FC0019685818904201BF5A5852181A60426811
:10210C005A60236030BD994203D80A4651680029B1
:10211C00F9D1146815199D420AD11B682344D018B3
:10212C008842136013D10868034413604B680DE0B8
:10213C0002D90C23036030BD1C681819884204BFF7
:10214C0008684968596004BF00191860536030BDB5
:10215C002401002070B5CC1C24F0030408340C2C92
:10216C0038BF0C24002C064603DA0C233360002005
:10217C0070BD8C42F9D3204A136810461946A1B1A0
:10218C000A68121B0ED40B2A03D90A608B188C50C8
:10219C001FE08B420DBF5A684A685A60026018BF34
:1021AC000B4616E00B464968E9E7144D2B681BB942
:1021BC00304600F025F828603046214600F020F823
:1021CC00421C0346D1D0C51C25F0030585420AD11B
:1021DC001C6003F10B001A1D20F00700821A0AD0B4
:1021EC005142995070BD3046E91A00F009F801309F
:1021FC00BBD02B46ECE770BD240100202001002051
:10220C0038B5064C0023054608462360FFF76CF9E9
:10221C00431C02D1236803B12B6038BD2801002078
:10222C00034613F8012B002AFBD1181A013870470A
:10223C0030B5141E9BB0054604DA8B2303604FF0B7
:10224C00FF301CE04FF40272ADF80C2014BF04F107
:10225C00FF322246029205924FF6FF7200910491D2
:10226C00ADF80E2069461A461E9B00F075F8431C0B
:10227C00BCBF8B232B6014B1009B00221A701BB0C7
:10228C0030BD000073B50093054B06460D46144651
:10229C00186831462A462346FFF7CAFF02B070BDC4
:1022AC00880000202DE9F0478E68B34282460C4628
:1022BC009046994640D38A8912F4906F3AD025689B
:1022CC0009696F1A6569022305EB450595FBF3F562
:1022DC007B1C4B449D4238BF1D4653050FD52946E8
:1022EC00FFF738FF064698B121693A4600F0CBFA61
:1022FC00A38923F4906343F08003A38113E02A465F
:10230C0000F0E7FA064670B950462169FFF7DEFE89
:10231C000C23CAF80030A38943F04003A3814FF08B
:10232C00FF30BDE8F087266165613E44ED1B2660F9
:10233C00A5604E46B14500D24E4632462068414615
:10234C0000F0ACFAA3689B1BA36023681E442660B4
:10235C000020BDE8F08700002DE9F0439DB0064653
:10236C0003938B891C060D4690460CD50B6953B90B
:10237C004021FFF7EFFE2860286110B90C23336071
:10238C00CCE040236B610023099320238DF8293086
:10239C0030238DF82A3043461C4613F8012B1AB90A
:1023AC00B4EB08090FD002E0252AF5D1F8E7304646
:1023BC00294642464B46FFF775FF013000F0A980D5
:1023CC00099B4B4409932378002B00F0A280002337
:1023DC004FF0FF3204930793059206938DF8533018
:1023EC001A9304F101084446DFF8489121784846D5
:1023FC00052200F039FA08F10108049B30B1C9EB51
:10240C0000000122824013430493ECE7D80644BF3A
:10241C0020228DF85320190744BF2B228DF853200E
:10242C0022782A2A02D0079923460EE0039A111D1E
:10243C0012680391002ABBBF524243F00203079279
:10244C000792B8BF049301340AE01C46013322788A
:10245C00303A092A03D80A2000FB0121F5E707913D
:10246C0023782E2B1AD163782A2B0AD1039B1A1DA1
:10247C001B680392002BB8BF4FF0FF330234059357
:10248C000CE0611C00220C4601312378303B092BF7
:10249C0003D80A2000FB0232F5E70592DFF898809A
:1024AC0021784046032200F0DFF938B1049AC8EBDA
:1024BC0000004023834013430493013421781A48CD
:1024CC008DF82810062204F1010800F0CDF988B12E
:1024DC00164B33B9039B073323F0070308330393DD
:1024EC0013E003AB0093304604A92A46104BAFF31C
:1024FC00008007E003AB0093304604A92A460C4B3E
:10250C0000F092F8421C074603D0099B3B44099308
:10251C0041E7AB895B0601D4099801E04FF0FF302D
:10252C001DB0BDE8F08300BF1C2C000800000000AB
:10253C00B1220008122C0008182C00082DE9F843D1
:10254C0091461F468A680B69DDF820809342B8BF1C
:10255C001346C9F8003091F8432006460C4612B1D8
:10256C000133C9F800302368990642BFD9F800300E
:10257C000233C9F80030256815F006051CD094F814
:10258C0043302268003318BF012392061FD5E1188F
:10259C005A1C302081F84300224494F8451082F8EC
:1025AC004310023313E03046394604F1190201237B
:1025BC00C047013007D00135E368D9F800209B1AD9
:1025CC009D42F0DBDBE74FF0FF30BDE8F88330468F
:1025DC00394604F14302C0470130F4D02268D9F8DF
:1025EC000050E36802F00602042A08BF5D1B226952
:1025FC00A3680CBF25EAE57500259342C4BF9B1A5E
:10260C00ED184FF00009A9450ADA3046394604F1B5
:10261C001A020123C0470130D5D009F10109F2E7B4
:10262C000020BDE8F88300002DE9FF410C46174659
:10263C00227E6E2A984606460A9B01F1430100F061
:10264C00AF8012D8632A23D00AD8002A00F0BC80AD
:10265C00582A40F0CB8084F84520DFF804E257E09C
:10266C00642A1ED0692A1CD0C0E0732A00F0B08006
:10267C0009D86F2A2ED0702A40F0B880226842F018
:10268C00200222603FE0752A24D0782A3BD0ADE0AE
:10269C001A68111D1960136884F8423004F1420560
:1026AC00A8E020681A6810F0800F02D0101D186086
:1026BC0008E010F0400F02F10400186002D0B2F9EB
:1026CC00003000E01368002B3EDA2D225B4284F8C8
:1026DC00432039E020681A6810F0800F02D0101DDA
:1026EC00186007E010F0400F02F10400186001D0F0
:1026FC00138800E01368227EDFF864E16F2A0CBFB8
:10270C0008220A221CE07822DFF858E184F84520E0
:10271C002268186812F0800F00F104051D6003D1C7
:10272C00550601D5038800E00368D00744BF42F08A
:10273C00200222601BB9226822F0200222601022A3
:10274C00002084F8430002E0DFF814E10A226568F7
:10275C00A560002DA2BF206820F00400206003B902
:10276C0065B10D46B3FBF2F002FB10331EF80330DB
:10277C0005F8013D03460028F4D100E00D46082A77
:10278C000BD12368DA0708D5236962689A42DEBF49
:10279C00302305F8013C05F1FF35491B21612EE082
:1027AC0025681A68606915F0800F03D0151D1D602F
:1027BC00136808E015F0400F02F104051D60136862
:1027CC0001D0188000E01860002323610D4616E04C
:1027DC001A68111D1960156862682846002100F0FE
:1027EC0043F808B1401B6060636804E004F14205E3
:1027FC0084F8422001232361002384F84330CDF870
:10280C0000803046214603AA3B46FFF797FE013075
:10281C0002D14FF0FF301FE0304639462A4623697B
:10282C00C0470130F5D023689B0705D4E068039BB3
:10283C009842B8BF18460FE00025E368039A9B1A2C
:10284C009D42F3DA3046394604F119020123C047A0
:10285C000130DED00135F0E704B0BDE8F08100BFF7
:10286C00232C0008342C000810B5C9B20244904245
:10287C00034606D01C788C4200F10100F7D11846B3
:10288C0010BD002010BD10B5431E0A44914204D067
:10289C0011F8014B03F8014FF8E710BD814210B558
:1028AC0001EB020301D3421E0BE09842FBD28118CC
:1028BC00D21AD34204D013F8014D01F8014DF8E7B8
:1028CC0010BD994204D011F8014B02F8014FF8E702
:1028DC0010BDF8B5074615460E4621B91146BDE8A0
:1028EC00F840FFF737BC1AB9FFF7F0FB2846F8BDE4
:1028FC0000F015F8A8420ED238462946FFF72AFCFC
:10290C00044650B131462A46FFF7BDFF38463146E2
:10291C00FFF7DCFB01E03046F8BD2046F8BD51F86E
:10292C00040C0028BEBF091851F8043CC018043828
:10293C00704700002E2E2F73797374656D2F737290
:10294C00632F73746D333266342D68616C2F73741E
:10295C006D3332663478785F68616C5F636F727464
:10296C0065782E63000000002E2E2F73797374652A
:10297C006D2F7372632F73746D333266342D6861EF
:10298C006C2F73746D3332663478785F68616C5F6A
:10299C006770696F2E6300002E2E2F737973746528
:1029AC006D2F7372632F73746D333266342D6861BF
:1029BC006C2F73746D3332663478785F68616C5F3A
:1029CC006932632E63000000000000000102030462
:1029DC0001020304060708092E2E2F737973746500
:1029EC006D2F7372632F73746D333266342D68617F
:1029FC006C2F73746D3332663478785F68616C5FFA
:102A0C007263632E6300000061626F727428292C5C
:102A1C002065786974696E672E2E2E002C206675E1
:102A2C006E6374696F6E3A20000000006173736509
:102A3C007274696F6E2022257322206661696C6541
:102A4C00643A2066696C6520222573222C206C69FF
:102A5C006E65202564257325730A00006173736508
:102A6C0072745F706172616D2829206661696C6592
:102A7C00643A2066696C6520222573222C206C69CF
:102A8C006E652025640A00006D61696E28617267AD
:102A9C00633D25642C20617267763D5B000000006D
:102AAC002C20000022257322000000005D293B0A27
:102ABC0000000000537461636B206672616D653AAF
:102ACC000A000000205230203D2020253038580AC2
:102ADC0000000000205231203D2020253038580ABB
:102AEC0000000000205232203D2020253038580AAA
:102AFC0000000000205233203D2020253038580A99
:102B0C000000000020523132203D20253038580A78
:102B1C0000000000204C52203D2020253038580A5F
:102B2C0000000000205043203D2020253038580A5A
:102B3C000000000020505352203D20253038580A08
:102B4C00000000004653522F4641523A0A00000042
:102B5C002043465352203D2020253038580A00008F
:102B6C002048465352203D2020253038580A00007A
:102B7C002044465352203D2020253038580A00006E
:102B8C002041465352203D2020253038580A000061
:102B9C00204D4D464152203D20253038580A00002A
:102BAC002042464152203D2020253038580A000052
:102BBC004D6973630A000000204C522F4558435F47
:102BCC0052455455524E3D20253038580A000000CD
:102BDC005B486172644661756C745D0A00000000AC
:102BEC005B4275734661756C745D0A005B5573616D
:102BFC0067654661756C745D0A000000001000206A
:102C0C00004000804300232D302B2000686C4C00CA
:102C1C0065666745464700303132333435363738D0
:102C2C00394142434445460030313233343536372E
:092C3C00383961626364656600C9
:102C4800785634129C000020000000000024F40094
:102C580001000000000C0240000C0240000C024081
:102C6800000C0240000002400000000000000000CC
:102C7800000000000000000000000000000000004C
:102C88000000000000000000102C000800000000F8
:102C9800000000000000000000000000000000002C
:102CA800000000000000000000000000000000001C
:102CB800000000000000000000000000000000000C
:102CC8000000000000000000280000203254769820
:040000050800018965
:00000001FF
