:020000040800F2
:1000000000000220B9020008054400080944000865
:100010000D440008114400081544000800000000C9
:10002000000000000000000000000000194400086B
:100030001D44000800000000214400082544000879
:10004000BD030008BD030008BD030008BD03000890
:10005000BD030008BD03000831440008BD030008CB
:10006000BD030008BD030008BD030008BD03000870
:10007000BD030008BD030008BD030008BD03000860
:10008000BD030008BD030008BD030008BD03000850
:10009000BD030008BD030008BD030008BD03000840
:1000A000BD030008BD030008BD030008BD03000830
:1000B000BD030008BD030008BD030008BD03000820
:1000C000BD030008BD030008BD030008BD03000810
:1000D000BD030008BD030008BD030008BD03000800
:1000E000BD030008BD030008BD030008BD030008F0
:1000F000BD030008BD030008BD030008BD030008E0
:10010000BD030008BD030008BD030008BD030008CF
:10011000BD030008BD030008BD030008BD030008BF
:10012000BD030008BD030008BD030008BD030008AF
:10013000BD030008BD030008BD030008BD0300089F
:10014000BD030008BD030008BD0300083D440008CE
:10015000BD030008BD030008BD030008BD0300087F
:10016000BD030008BD030008BD030008BD0300086F
:10017000BD030008BD030008BD0300080000000027
:10018000BD030008BD03000800B583B002F030FDD8
:10019000384B394A1360394A136039490CE00A6810
:1001A0004B6801F10C04886803E01168196004339E
:1001B00004329842F9D82146324B9942EFD32E4B64
:1001C0001A68314B9A4204D12C4B1A682F4B9A4231
:1001D00000D0FEE7274B2E4A13602E4A13602E4BA9
:1001E0000AE0194651F8082B5B6802E00020106015
:1001F00004329A42FAD30B46284A9342F1D3244B55
:100200001B6813B9234B1B6803B1FEE703F074FEB0
:1002100001A8694602F05EFC214C224B1C1BA41075
:10022000002504E01E4B53F8253098470135AC42B9
:10023000F8DC1D4C1D4B1C1BA410002504E01A4BC0
:1002400053F8253098470135AC42F8DC0198009905
:1002500003F06AFE0546164C164B1C1BA41004E066
:10026000013C134B53F824309847002CF8DC284607
:1002700002F002FCBABADECA00000020B001002081
:10028000C0030008D8030008785634123254769818
:10029000B40100208C090020D8030008E8030008FE
:1002A000E8030008E8030008E8030008E803000882
:1002B000E8030008E803000808B5FFF765FF00BF82
:1002C000FEE700BF1EF0040F0CBFEFF30880EFF352
:1002D00009807146364A10472DE9F04182B0074641
:1002E0008846084B5D6B9C6B9E6A074802F02EFCAB
:1002F000CDF80080384631462A46234602F07CFC81
:10030000FEE700BF00ED00E064680008FEE700BF04
:100310001EF0040F0CBFEFF30880EFF30980714665
:10032000244A10472DE9F04182B007468846084B21
:100330005D6B9C6B9E6A074802F008FCCDF800805C
:10034000384631462A46234602F056FCFEE700BFF7
:1003500000ED00E0746800081EF0040F0CBFEFF31E
:100360000880EFF309807146134A10472DE9F041E8
:1003700082B007468846084B5D6B9C6B9E6A0748B7
:1003800002F0E4FBCDF80080384631462A46234689
:1003900002F032FCFEE700BF00ED00E080680008DC
:1003A000FEE700BFFEE700BFFEE700BF70470000AA
:1003B000D9020008250300086D030008FEE700BF0E
:1003C000E469000800000020B4010020E46900088E
:1003D0000000001000000010B4010020900900206F
:0803E0000000001000000010F5
:1003E800704700BF10B5044601F054FB064BA3FB51
:1003F8000030800900F0B4F84FF0FF3021460022A9
:1004080000F058F8002010BDD34D621008B50B4B12
:100418001A6842F400721A601A6842F480621A601C
:100428001A6842F480721A60032000F025F80F2041
:10043800FFF7D8FFFFF7D4FF002008BD003C0240BB
:10044800024A136801331360704700BFB8010020E7
:10045800014B1868704700BFB801002010B582B082
:100468000190FFF7F5FF0446FFF7F2FF001B019B21
:100478009842F9D302B010BD10B50446C31E042B30
:1004880003D90A48A42102F051FB04F00700084AE6
:10049800D36823F4E0631B041B0C43EA002040F0FC
:1004A800BF6040F40030D06010BD00BF9865000800
:1004B80000ED00E070B504460E4615460F2A03D934
:1004C8001A48BC2102F032FB0F2E03D91748BD2170
:1004D80002F02CFB164BDB68C3F30223C3F10702BF
:1004E800042A28BF0422191D062901D9D81E00E0B4
:1004F8000020012303FA02F2013A324002FA00F125
:1005080083405A1E2A400A43002C06DA04F00F04DE
:100518001201D2B2074B1A5570BD1201D2B204F1C2
:10052800604404F5614484F8002370BD98650008B0
:1005380000ED00E014ED00E010B5041E03DA0648F3
:10054800D02102F0F3FA610904F01F040123A3404B
:10055800024A42F8213010BD9865000800E100E029
:100568000138B0F1807F0AD2064B5860F021064A64
:1005780082F823100020986007221A607047012033
:10058800704700BF10E000E000ED00E008B503F0A0
:10059800F1FC08BD2DE9F84F80460F46A04B984264
:1005A80023D003F5806398421FD003F580639842F7
:1005B8001BD003F58063984217D003F580639842F7
:1005C80013D003F5806398420FD003F580639842F7
:1005D8000BD003F58063984207D003F580639842F7
:1005E80003D09048C52102F0A1FA3B881BB98D4879
:1005F800C62102F09BFA7B68012B22D9112B20D04F
:10060800022B1ED0122B1CD0874A934219D002F518
:100618008012934215D002F58012934211D0A2F5B0
:10062800F81293420DD002F58012934209D002F5D8
:100638008012934205D0032B03D07A48C72102F0D9
:1006480075FABB68022B03D97648C82102F06EFA06
:10065800002423E1A1460125A5403B6803EA050AD9
:10066800AA4540F01A817B68022B01D0122B4AD18F
:100678003B69C3B3092B36D0ABB3A3B39BB393B3D6
:10068800012B30D02FD0022B2DD02CD02BD0032BE8
:1006980029D0042B27D026D025D0052B23D022D033
:1006A800092B20D0062B1ED0092B1CD0072B1AD0C3
:1006B80019D018D0082B16D015D014D0092B12D069
:1006C80011D00A2B0FD00ED00B2B0CD00C2B0AD02C
:1006D80009D00D2B07D00C2B05D00F2B03D0514878
:1006E800D92102F023FAE608083658F8261004F053
:1006F800070080000F23834021EA03023B698340FF
:10070800134348F82630D8F800304FEA440B032644
:1007180006FA0BF6F64306EA03027B6803F00303C6
:1007280003FA0BF31343C8F800307B685A1E012AFA
:1007380003D9112B01D0122B1CD1FB68032B03D931
:100748003848EC2102F0F2F9D8F8083006EA03023A
:10075800FB6803FA0BF31343C8F80830D8F80430E1
:1007680023EA05037D68C5F3001505FA09F51D435D
:10077800C8F80450D8F80C303340BE6806FA0BF6B7
:100788001E43C8F80C607B6813F0805F00F085801A
:10079800264A536C43F480435364A308991CA2F57A
:1007A800803252F8211004F0030080000F228240AA
:1007B80021EA02011A4A90453AD002F58062904532
:1007C8002BD002F58062904525D002F580629045D5
:1007D8001FD002F58062904519D002F580629045DD
:1007E80013D002F5806290450DD002F580629045E5
:1007F80007D002F58062904501D1082219E009224C
:1008080017E0072215E0062213E0052211E0042272
:100818000FE003220DE002220BE0012209E000BFF5
:1008280000000240CC6500080000111000380240AA
:10083800002282400A4302331B4941F823201B4B04
:100848001A686FEA0A0303EA0201786810F4803F25
:1008580001D04AEA0201154A1160526803EA02010E
:10086800786810F4003F01D04AEA02010F4A51604B
:10087800926803EA0201786810F4801F01D04AEAFE
:1008880002010A4A9160D2681340796811F4001F86
:1008980001D04AEA0203054AD36001340F2C7FF6DF
:1008A800D9AEBDE8F88F00BF00380140003C0140D8
:1008B80038B505460C4621B9054840F28B1102F0BF
:1008C80035F92B69234201D0012038BD002038BDFD
:1008D800CC65000870B5064615460C4621B909488E
:1008E8004FF4D67102F022F9012D04D9054840F2DF
:1008F800AD1102F01BF90DB1B46170BD2404B461EF
:1009080070BD00BFCC650008704700BF08B5044B38
:100918005B69034203D0024B5861FFF7F5FF08BD3E
:10092800003C01402DE9F04782B007460D46D0F85B
:100938000080CB005B1A9B0003445E6C9A6CB61A6D
:100948009B6B9E4200D91E4616F1030901D509F199
:1009580003094FEAA90921E05E1AC5EBC5039B000C
:100968003B449B6B9E4200D91E4616F1030901D5F4
:1009780009F103094FEAA909EC00641BA4003C44EF
:10098800E16B3B7C00934046EAB2B3B201F024FE2F
:10099800E36B3344E363A36C3344A364424608EB3C
:1009A800451303F510639B699BB24B4509D9EB00CE
:1009B8005B1B9B003B44996C5B6C994201D2002BFA
:1009C800CAD1002E07DC0123AB40D2F8341821EA43
:1009D8000303C2F83438002002B0BDE8F08700BF36
:1009E800002872D0F0B589B004460368B3F1A04F6F
:1009F80006D0384A934203D03748982102F096F837
:100A0800032384F87933204602F094FA206801F031
:100A1800ABFB254655F8107B6E460FCD0FC695E803
:100A28000F0086E80F00231D0ECB384601F05AFB55
:100A38002068002101F09EFB002210E0D3009B1AE1
:100A48009B002344012183F8311083F83020DA8693
:100A5800002183F833109963D963596401320E2A4F
:100A6800ECD9002218E0D3009B1A9B0023440021F4
:100A780083F8D51183F8D421DA8683F8D711C3F81F
:100A8800DC11C3F8E011C3F8E811236802F1400053
:100A980003EB8003596001320E2AE4D9254655F844
:100AA800107B6E460FCD0FC695E80F0086E80F0045
:100AB800231D0ECB384601F09DFB012384F87933C2
:100AC800206801F057FF002001E00120704709B0BD
:100AD800F0BD00BF00000440FC65000890F87833C2
:100AE800012B0ED010B50446012380F87833006836
:100AF80001F034FF206801F031FB002084F878030E
:100B080010BD0220704700BF2DE9F84F0446066863
:100B1800304601F06BFF002840F01B82206801F08E
:100B280035FF002800F01582206801F02FFF10F033
:100B3800020F02D0236802225A61206801F026FFC2
:100B480010F4002F5CD0206801F024FF0746002530
:100B580053E017F0010F4ED05FFA85F92068494637
:100B680001F028FF804610F0010F31D006EB451345
:100B78000122C3F8082B03F530632269012A12D138
:100B8800EA00521B9200224402F5EC71D2F8DC0113
:100B98001B69C3F31203C01AC2F8EC01D2F8E021B2
:100BA8004B6813448B602046494602F01BFA2369C0
:100BB800012B0DD165B9C5EBC5039B002344D3F8C0
:100BC800E8312BB92068012104F55F7201F02EFF8E
:100BD80018F0080F07D0204602F0FAF906EB451383
:100BE8000822C3F8082B18F0100F04D006EB4513A1
:100BF8001022C3F8082B01357F08002FA9D100E087
:100C08000025206801F0C2FE10F4802F6BD0206808
:100C180001F0C8FE0746002563E017F0010F5ED01B
:100C28005FFA85F92068494601F0CEFE804610F04B
:100C3800010F2DD0012202FA05F0D6F8343823EA44
:100C48000003C6F8343806EB4513C3F808292369AE
:100C5800934209D1EB005B1B9B00234403F138024C
:100C6800D96B9B6B0B4453602046494602F0C6F98A
:100C78002369012B0CD15DB9C5EBC5039B00234447
:100C88005B6C2BB92068012104F55F7201F0CEFE80
:100C980018F0080F04D006EB45130822C3F80829FA
:100CA80018F0100F04D006EB45131022C3F80829DA
:100CB80018F0400F04D006EB45134022C3F808296A
:100CC80018F0020F04D006EB45130222C3F80829D6
:100CD80018F0800F03D020462946FFF723FE013580
:100CE8007F08002F99D1206801F050FE00280CDA07
:100CF800D6F8043823F00103C6F80438204602F079
:100D0800A5F923684FF000425A61206801F03EFEC1
:100D180010F4006F0BD0D6F8083813F0010F02D08A
:100D2800204602F08DF923684FF400625A6120686A
:100D380001F02CFE10F4805F4ED0374606F50068AF
:100D4800D8F8043023F00103C8F8043020680021E3
:100D580001F026FA002207E007EB4213FF21C3F84F
:100D68000819C3F8081B013263689342F4D84FF09E
:100D7800FF33C8F81830D8F81C3043F00113C8F80E
:100D88001C30A36A63B1D8F8843043F00B03C8F869
:100D98008430D8F8443043F00B03C8F844300BE0F3
:100DA800D8F8143043F00B03C8F81430D8F81030D2
:100DB80043F00B03C8F81030D6F8003823F4FE636C
:100DC800C6F800382068217C04F55F7201F02EFE19
:100DD80023684FF480525A61206801F0D7FD10F45F
:100DE800005F26D0206801F005FE2268D36823F44E
:100DF8007053D360206801F09FFA50B90023E36074
:100E08004FF4007363612268D36843F41053D360CE
:100E180008E00323E360402363612268D36843F456
:100E2800A053D360204602F0FBF823684FF4005229
:100E38005A61206801F0AAFD10F0100F42D0226814
:100E4800936923F010039361376A07F00F08C7F31B
:100E58004343022B1CD147F6F0731F402DD03F09A6
:100E68004FEAC809C8EB090A4FEA8A0AA244304681
:100E7800DAF8E0113A4601F0EFFCDAF8E0313B44E9
:100E8800CAF8E031DAF8EC311F44CAF8EC7114E022
:100E9800062B12D1304604F55F71082201F0DCFC04
:100EA800C7F30A174FEAC803C8EB030292002244AB
:100EB800D2F8EC313B44C2F8EC312268936943F034
:100EC80010039361206801F061FD10F0080F05D050
:100ED800204602F09FF8236808225A61206801F032
:100EE80055FD10F4801F07D02046E9B202F0BAF889
:100EF80023684FF480125A61206801F047FD10F40E
:100F0800001F07D02046E9B202F0A6F823684FF484
:100F180000125A61206801F039FD10F0804F06D0A8
:100F2800204602F0A5F823684FF080425A612068F5
:100F380001F02CFD10F0040F0BD023685D6815F04C
:100F4800040F02D0204602F099F823685A68154326
:100F58005D60BDE8F88F00BF90F87833012B0BD0A7
:100F680010B50446012380F87833006801F0E6FCE8
:100F7800002084F8780310BD0220704738B5054674
:100F8800C8B210F0800F07D001F07F04C4EBC4048E
:100F9800A40030342C4407E001F07F04C4EBC404FF
:100FA800A4002C4404F5EA7401F07F012170C00903
:100FB8006070A260E37000B1E180022B01D10023D0
:100FC800237195F87833012B0AD0012385F87833FB
:100FD8002868214601F0D0F9002085F8780338BD4B
:100FE800022038BD10B50446CAB212F0800F07D0EF
:100FF80001F07F03C3EBC3039B003033034407E0D6
:1010080001F07F03C3EBC3039B00034403F5EA73BA
:1010180001F07F011970D2095A7094F87823012AD7
:101028000AD0012284F878232068194601F0EAF9E9
:10103800002084F8780310BD022010BD70B501F0BF
:101048007F06F400A51BAD00054405F5EA712C46A2
:10105800C5F8E021C5F8E8310023C4F8EC3184F87C
:10106800D53184F8D4610369012B05D1C6EBC604D8
:10107800A4000444C4F8E42190F87823012A11D08C
:101088000446012280F8782326B90068DAB201F014
:10109800F7F903E00068DAB201F0B2FA002084F848
:1010A800780370BD022070BD70B501F07F06F400B2
:1010B800A51BAD0030354119A41BA4000444E2630C
:1010C80063640023A364012384F8313084F830601A
:1010D8000369012B04D1C6EBC604A40004442264AE
:1010E80090F87823012A11D00446012280F8782349
:1010F80026B90068DAB201F0C3F903E00068DAB291
:1011080001F07EFA002084F8780370BD022070BDDB
:1011180038B50446CAB212F0800F07D001F07F0339
:10112800C3EBC3039B003033034405E0C1EBC103A9
:101138009B00034403F5EA730120987001F07F05D2
:101148001D70D2095A7094F87823824210D084F81E
:1011580078032068194601F095FB2DB92068217C99
:1011680004F55F7201F062FC002084F8780338BD52
:10117800022038BD10B50446CAB212F0800F07D05D
:1011880001F07F03C3EBC3039B003033034405E046
:10119800C1EBC1039B00034403F5EA730020987078
:1011A80001F07F011970D2095A7094F87823012A46
:1011B8000AD0012284F878232068194601F08EFBB2
:1011C800002084F8780310BD022010BD30B40468F4
:1011D800636A19B943EA0240A06218E00D46A06AA2
:1011E80003EB1040002308E003F1400104EB810108
:1011F800496800EB11400133DBB2691E8B42F3DB17
:1012080040EA024005F13F0104EB810148600020FB
:1012180030BC7047036859620020704738B50446EF
:1012280003680F2B04D9B34840F21B1101F07EFC70
:10123800236813F0010F5FD06368012B06D9052BD3
:1012480004D0AC484FF4907101F070FCAA4B9B6835
:1012580003F00C03042B0AD0A74B9B6803F00C0384
:10126800082B0DD1A44B5B6813F4800F08D0A24B58
:101278001B6813F4003F3FD06368002B3CD1FCE1AE
:1012880000229E4B1A70FFF7E3F8054607E0FFF7C8
:10129800DFF8401B41F28833984200F2F081964B08
:1012A8001B6813F4003FF2D12279944B1A706368DB
:1012B8008BB1FFF7CDF8054607E0FFF7C9F8401BEB
:1012C80041F28833984200F2DC818B4B1B6813F49F
:1012D800003FF2D010E0FFF7BBF8054607E0FFF744
:1012E800B7F8401B41F28833984200F2CC81824B18
:1012F8001B6813F4003FF2D1236813F0020F6DD07E
:10130800E368012B04D97B484FF4B07101F00EFC5F
:1013180023691F2B04D9774840F2611101F006FCBC
:10132800754B9B6813F00C0F0AD0734B9B6803F046
:101338000C03082B1CD1704B5B6813F4800F17D17A
:101348006D4B1B6813F0020F03D0E368012B40F0CC
:101358009C816948026822F0F8012269F82393FA0F
:10136800A3F3B3FA83F3DBB29A400A43026035E091
:10137800E3680BB30122624B1A60FFF769F8054670
:1013880005E0FFF765F8401B642800F280815A4B9E
:101398001B6813F0020FF4D05748036823F0F801D4
:1013A8002269F82393FAA3F3B3FA83F3DBB29A40E2
:1013B80041EA0203036011E00022514B1A60FFF773
:1013C80047F8054605E0FFF743F8401B642800F29C
:1013D8006081494B1B6813F0020FF4D1236813F0A6
:1013E800080F2ED06369012B04D942484FF4D071FD
:1013F80001F09CFB636993B10122424B1A60FFF72D
:1014080027F8054605E0FFF723F8401B642800F29B
:101418004281394B5B6F13F0020FF4D011E00022C8
:10142800384B1A60FFF714F8054605E0FFF710F887
:10143800401B642800F231812F4B5B6F13F0020FC1
:10144800F4D1236813F0040F6FD0A368012B06D9D9
:10145800052B04D027484FF4E57101F067FB264AB5
:10146800136C43F080531364A2F5E432136843F419
:1014780080731360FEF7ECFF054605E0FEF7E8FF12
:10148800401B642800F20B811F4B1B6813F4807FFC
:10149800F4D000221D4B1A70FEF7DAFF054607E06C
:1014A800FEF7D6FF401B41F28833984200F2F980DC
:1014B800114B1B6F13F0020FF2D1227A134B1A70E3
:1014C800A368012B11D1FEF7C3FF054607E0FEF71D
:1014D800BFFF401B41F28833984200F2E480064B7C
:1014E8001B6F13F0020FF2D01FE0FEF7B1FF0546A5
:1014F80016E000BF3C66000800380240023802408F
:1015080000004742800E4742007000407038024099
:10151800FEF79EFF401B41F28833984200F2C580D7
:10152800684B1B6F13F0020FF2D1A369022B04D989
:10153800654840F20E2101F0F9FAA369002B00F08A
:10154800B680604A926802F00C02082A00F0B18066
:10155800022B7FD1E3693BB1B3F5800F04D05A4821
:1015680040F2172101F0E2FA236A3F2B04D95648CA
:101578004FF4067101F0DAFA636AC03BF02B04D924
:10158800514840F2192101F0D1FAA36A022B0AD07E
:10159800042B08D0062B06D0082B04D04A4840F26A
:1015A8001A2101F0C3FAE36A043B0B2B04D946481D
:1015B80040F21B2101F0BAFA0022444B1A60FEF7F0
:1015C80047FF054604E0FEF743FF401B642872D836
:1015D8003C4B1B6813F0007FF5D1216A626A47F61D
:1015E800C07393FAA3F3B3FA83F3DBB29A401143BF
:1015F800A36A5B08013B4FF4403292FAA2F2B2FAB6
:1016080082F2D2B293400B43E26943EA0201E36AF1
:101618004FF0706292FAA2F2B2FA82F2D2B203FAF0
:1016280002F241EA020343F00053264A53600122C2
:10163800264B1A60FEF70CFF044604E0FEF708FF8D
:10164800001B642839D81F4B1B6813F0007FF5D0A6
:10165800002038BD00221D4B1A60FEF7F9FE044633
:1016680004E0FEF7F5FE001B642828D8154B1B681C
:1016780013F0007FF5D1002038BD012038BD0320CC
:1016880038BD032038BD032038BD012038BD0320F4
:1016980038BD032038BD032038BD032038BD0320E2
:1016A80038BD032038BD032038BD032038BD0020D5
:1016B80038BD012038BD032038BD032038BD0320C4
:1016C80038BD00BF003802403C6600086000474251
:1016D80070B504460D460368013B0E2B04D98848B3
:1016E80040F27E2101F022FA072D04D9844840F205
:1016F8007F2101F01BFA834B1B6803F00F03AB42F9
:1017080080F08B80EAB27F4B1A701B6803F00F03DE
:10171800AB4240F05181236813F0020F1DD0A3683B
:10172800A3B1802B12D0902B10D0A02B0ED0B02BB1
:101738000CD0C02B0AD0D02B08D0E02B06D0F02B31
:1017480004D06F4840F2952101F0F0F96E498B689A
:1017580023F0F002A36813438B60236813F0010F92
:1017680000F0E8806368022B04D965484FF42771BC
:1017780001F0DCF96268012A05D1634B1B6813F498
:10178800003F0ED11AE1022A05D15F4B1B6813F006
:10179800007F06D114E15C4B1B6813F0020F00F0C8
:1017A800118159498B6823F0030313438B60FEF7BB
:1017B8004FFE05466368012B0FD107E0FEF748FE90
:1017C800401B41F28833984200F2FE804E4B9B68E2
:1017D80003F00C03042BF1D1ACE0022B17D107E086
:1017E800FEF736FE401B41F28833984200F2EE8045
:1017F800454B9B6803F00C03082BF1D19AE0FEF7E8
:1018080027FE401B41F28833984200F2E1803E4BAC
:101818009B6813F00C0FF2D18CE0236813F0020FD1
:101828001DD0A368A3B1802B12D0902B10D0A02B71
:101838000ED0B02B0CD0C02B0AD0D02B08D0E02B68
:1018480006D0F02B04D02E484FF4397101F06EF910
:101858002D498B6823F0F002A36813438B6023683B
:1018680013F0010F5ED06368022B04D9244840F2BC
:10187800EB2101F05BF96268012A05D1224B1B6854
:1018880013F4003F0ED1A5E0022A05D11E4B1B68B8
:1018980013F0007F06D19FE01B4B1B6813F0020F6B
:1018A80000F09C8018498B6823F0030313438B6076
:1018B800FEF7CEFD06466368012B0FD107E0FEF761
:1018C800C7FD801B41F28833984200F289800E4B95
:1018D8009B6803F00C03042BF1D123E0022B1CD1ED
:1018E80006E0FEF7B5FD801B41F28833984279D8AF
:1018F800054B9B6803F00C03082BF2D112E000BFE4
:101908003C660008003C024000380240FEF7A0FD9B
:10191800801B41F28833984266D8354B9B6813F098
:101928000C0FF3D1EAB2334B1A701B6803F00F03A4
:10193800AB425BD1236813F0040F19D0E36883B17D
:10194800B3F5805F0DD0B3F5A05F0AD0B3F5C05FE3
:1019580007D0B3F5E05F04D0274840F23B3101F0EF
:10196800E5F823498B6823F4E052E36813438B605E
:10197800236813F0080F1AD0236983B1B3F5805F89
:101988000DD0B3F5A05F0AD0B3F5C05F07D0B3F5AB
:10199800E05F04D0184840F2423101F0C7F8144A19
:1019A800936823F46043216943EAC10393600F20DD
:1019B800FEF718FD002070BD012070BD012070BD2C
:1019C800012070BD012070BD032070BD032070BDD3
:1019D800032070BD012070BD012070BD012070BDC5
:1019E800032070BD032070BD032070BD012070BDB1
:1019F80000380240003C02403C660008224B9B68CD
:101A080003F00C03042B3DD0082B01D01F4870476E
:101A18001D4B586800F03F005B6813F4800F10D02E
:101A28001B4BB3FBF0F3184A506847F6C0721040DE
:101A380092FAA2F2B2FA82F2D2B2D04000FB03F3D9
:101A48000FE0124BB3FBF0F30F4A506847F6C07231
:101A5800104092FAA2F2B2FA82F2D2B2D04000FB5F
:101A680003F3094A506800F440304FF4403292FAC8
:101A7800A2F2B2FA82F2D2B2D04001304000B3FBF7
:101A8800F0F0704702487047003802400024F40024
:101A980000127A0008B5FFF7B1FF094B9B6803F005
:101AA800F002F02393FAA3F3B3FA83F3DBB222FA3A
:101AB80003F3044AD35CD840034B186008BD00BF49
:101AC800003802402C6600080C0000202DE9F04187
:101AD80006460C4690461D46FEF7BAFC0746B8F186
:101AE800000F2AD05BE0B5F1FF3F26D025B1FEF705
:101AF800AFFCC01BA84220D93268536823F0E0032A
:101B080053603268136823F040031360B36AB3F577
:101B1800005F09D13268136823F4005313603268F8
:101B2800136843F400531360012386F851300023EF
:101B380086F850300320BDE8F08133689B68234065
:101B4800A342D0D10020BDE8F081B5F1FF3F26D0F7
:101B580025B1FEF77DFCC01BA84220D93268536826
:101B680023F0E00353603268136823F040031360E6
:101B7800B36AB3F5005F09D13268136823F40053E0
:101B880013603268136843F400531360012386F826
:101B98005130002386F850300320BDE8F0813368C7
:101BA8009B682340A342D0D00020BDE8F08100BF4D
:101BB800704700BF002800F0AC8010B504464368A9
:101BC80033B1B3F5827F03D05348B72100F0AEFF9D
:101BD800A3684BB1B3F5806F06D0B3F5004F03D0BF
:101BE8004D48B82100F0A2FFE368B3F5006F04D0B8
:101BF8001BB14948B92100F099FF23692BB1022B89
:101C080003D04548BA2100F091FF6369012B03D93D
:101C18004148BB2100F08AFFA369B3F5007F07D0D4
:101C280033B1B3F5802F03D03B48BC2100F07EFFD1
:101C3800E3698BB1082B0FD0102B0DD0182B0BD0CC
:101C4800202B09D0282B07D0302B05D0382B03D0D8
:101C58003148BD2100F06AFF236A2BB1802B03D0E5
:101C68002D48BE2100F062FF636A2BB1102B03D010
:101C78002948BF2100F05AFFA36A33B1B3F5005FCA
:101C880003D02548C02100F051FFE36A013B4FF61D
:101C9800FE72934203D92048C12100F047FF94F80F
:101CA800513013F0FF0F02D12046FFF781FF0223C6
:101CB80084F851302268136823F0400313602168C8
:101CC8006268A3681A43E3681A4323691A4363697D
:101CD8001A43A36903F400731343E2691343226AA6
:101CE8001343A26A1A430A602168638B03F0040253
:101CF800636A13434B602368E26A1A612268D369F6
:101D080023F40063D36100206065012384F8513017
:101D180010BD0120704700BF6C660008704700BF07
:101D280078B110B504460268136823F040031360C5
:101D3800FFF7F4FF0020606584F8510084F8500034
:101D480010BD0120704700BFF0B583B004460E46B1
:101D580017461D4690F85130DBB2012B02D0222BDA
:101D680040F08481002E00F08381002F00F08281F2
:101D7800002D00F08181A36823B19E4840F2CD2157
:101D880000F0D4FE94F85030012B00F07781012345
:101D980084F8503094F85130DBB2012B02D1322351
:101DA80084F8513000236365A763A587E587266318
:101DB800A586E586A364E364A36AB3F5005F09D149
:101DC8002268136823F4005313602268136843F4ED
:101DD8000053136023681A6812F0400F03D11A6881
:101DE80042F040021A60E368B3F5006F7DD1636882
:101DF8002BB1B3F5827F0CD1E38E012B09D1236877
:101E0800226B1288DA60236B02332363E38E013B73
:101E1800E386E38E002B4DD1A36AB3F5005F04D1AE
:101E28002268136843F4805313602046012100227E
:101E3800089BFFF74BFE002840F02281A36B226825
:101E4800D2681A80A36B0233A363E38F013BE38755
:101E5800BEE0204602210022089BFFF737FE00283B
:101E680040F010812368226B1288DA60236B0233FA
:101E78002363E38E013B9BB2E38643B9A36AB3F5C0
:101E8800005F04D12268136843F48053136020462E
:101E980001210022089BFFF719FE002840F0F4807A
:101EA800A36B2268D2681A80A36B0233A363E38F03
:101EB800013BE387E38E002BCBD16368002B40F016
:101EC8008780204601210022089BFFF7FFFD00289C
:101ED80040F0DC80A36B2268D2681A80A36B0233BF
:101EE800A363E38F013BE38772E063682BB1B3F52B
:101EF800827F0BD1E38E012B08D12268236B591CFA
:101F080021631B78D360E38E013BE386E38E002BCD
:101F180048D1A36AB3F5005F04D12268136843F47B
:101F280080531360204601210022089BFFF7CEFD55
:101F3800002840F0AD80A36B2268D2681A70E38F46
:101F4800013BE38744E0204602210022089BFFF77B
:101F5800BDFD002840F09E802268236B591C216338
:101F68001B78D360E38E013B9BB2E38643B9A36A37
:101F7800B3F5005F04D12268136843F480531360FB
:101F8800204601210022089BFFF7A0FD002840F011
:101F98008380A36B5A1CA2632268D2681A70E38FED
:101FA800013BE387E38E002BCDD1636883B92046DC
:101FB80001210022089BFFF789FD00286ED1A36B41
:101FC8005A1CA2632268D2681A70E38F013BE38728
:101FD800A36AB3F5005F16D1204601210022089BB1
:101FE800FFF774FD40B1636D43F00203636503239B
:101FF80055E000BF6C6600082368DB689BB2ADF84B
:102008000630BDF80630204680210122089BFFF7E4
:102018005DFD034628B1636D43F010036365032338
:102028003DE0012284F8512021688A6802F01002FC
:10203800A06AB0F5005F15D1A2B1636D43F0020349
:102048006365B0F5005F08D10B6823F400530B609B
:102058002268136843F400531360002384F8503057
:1020680001231CE0002284F8502018E0022316E027
:10207800012314E0012312E0012310E002230EE003
:1020880003230CE003230AE0032308E0032306E00C
:10209800032304E0032302E0032300E0032318469C
:1020A80003B0F0BD90F85100704700BF0C4B01E041
:1020B800013B10D00269002AFADA036943F00103F0
:1020C8000361074B01E0013B07D0026912F0010FE1
:1020D800F9D100207047032070470320704700BFE4
:1020E800400D030084B010B5044603A880E80E0034
:1020F800089B012B18D1A36B23F48033A363E368F7
:1021080023F4840323F04003E360E36823F44013DB
:10211800E3600D9B012B03D1E36843F48013E36074
:102128002046FFF7C3FF09E0E36843F04003E3609C
:102138002046FFF7BBFF4FF48033A363069B012BB8
:1021480007D1A36843F00C03A360A36843F02003FE
:10215800A3600020BDE8104004B07047836843F0D6
:102168000103836000207047836823F001038360C4
:102178000020704708B5C36823F0C043C360012935
:1021880004D1C36843F00053C36004E019B9C368BD
:1021980043F08043C3603220FEF760F9002008BD99
:1021A800490141F020010161054B01E0013B05D0E7
:1021B800026912F0200FF9D1002070470320704700
:1021C800400D030010230361054B01E0013B05D0DE
:1021D800026912F0100FF9D10020704703207047F0
:1021E800400D0300D0F800381943C0F8001800204B
:1021F800704700BF84B0F8B5044607A880E80E0011
:10220800A36B43F40023A3630F9E1EB9A36B43F48F
:102218000013A3630023C4F8003E04F50065D4F856
:102228000038C4F800380C9B012B0BD1099B23B94B
:1022380020460021FFF7D6FF08E020460121FFF7DE
:10224800D1FF03E020460321FFF7CCFF20461021F1
:10225800FFF7A6FF2046FFF7B5FF00232B616B6150
:102268004FF0FF32AA61EB61079848B304F5106399
:10227800002219461F68002F03DA4FF090471F60AD
:1022880001E000271F6000270F61FF278F600132E0
:1022980020338242EDD304F53063002219461F68CB
:1022A800002F03DA4FF090471F6001E000271F60FE
:1022B80000270F61FF278F60013220338242EDD162
:1022C8002B6923F480732B610A9B012B0ED1184BC9
:1022D8002B632B6B43F4803343F003032B632B6B8B
:1022E8000023A3616FF08043636109E00022A261CB
:1022F8006FF0804262611BB9A36943F01003A361C8
:10230800A2690C4B1343A3610D9B1BB1A36943F056
:102318000803A361012E05D1A36943F0804343F06C
:102328000403A3610020BDE8F84004B0704700BF73
:102338000001800000383C80D0F8083800F50060C3
:1023480013F0060F10D0836803F00603022B0DD09C
:10235800836803F00603062B0AD0836803F006039C
:10236800042B07D1022070470020704703207047D4
:10237800032070470020704770B44B78012B1FD1A1
:10238800D0F81C280D78AB409BB21343C0F81C381A
:102398000E78730103F510631A5812F4004F2DD10B
:1023A8001C5844F0805545F400458A68C2F30A0475
:1023B8002C43CA7844EA824242EA86521A501DE007
:1023C800D0F81C280D784FF48033AB401343C0F885
:1023D8001C380B785B0103F530631A5812F4004F70
:1023E8000CD11A5842F0805444F400448A68C2F36D
:1023F8000A022243C97842EA81421A50002070BC7E
:10240800704700BF30B44B78012B1BD1D0F83C5833
:102418000C7803FA04F4A4B225EA0404C0F83C4892
:10242800D0F81C480D78AB409BB224EA0303C0F8EF
:102438001C380B785B0103F510631A5822F400422C
:102448001A5019E0D0F83C480D78012202FA05F537
:1024580024EA0544C0F83C48D0F81C480D78AA4046
:1024680024EA0242C0F81C280B785B0103F53063AC
:102478001A5822F400421A50002030BC704700BF9E
:1024880030B44B78012B68D14B69EBB90B7800EB72
:102498004313D3F8104924F0FF5424F4C014C3F8AC
:1024A80010490B7800EB4313D3F8104944F4002487
:1024B800C3F810490B7800EB4313D3F81049E40C28
:1024C800E404C3F810492CE00B7800EB4313D3F86D
:1024D8001049E40CE404C3F810490B7800EB4313EB
:1024E800D3F8104924F0FF5424F4C014C3F8104959
:1024F8008B684C699C4200D94B610B7800EB431305
:10250800D3F8104944F40024C3F810490B7800EBC1
:102518004313D3F810594C69C4F312042C43C3F87D
:102528001049012A06D10B7800EB43130A69C3F856
:10253800142909E04B693BB1D0F834280D78012300
:10254800AB401343C0F834380B785B0103F51063D4
:10255800C25842F00442C2503BE00B7800EB4313F0
:10256800D3F8104BE40CE404C3F8104B0B7800EBE1
:102578004313D3F8104B24F0FF5424F4C014C3F8C9
:10258800104B4B690BB18B684B610B7800EB431315
:10259800D3F8104B44F40024C3F8104B0B7800EB2D
:1025A8004313D3F8105B8C68C4F312042C43C3F8AC
:1025B800104B012A05D10B7800EB4313CA68C3F806
:1025C800142B0B785B0103F53063C25842F00442C8
:1025D800C250002030BC704730B49DF8084064B940
:1025E80003339B1009D000F5805000EB023251F8FC
:1025F800045B15600134A342F9D1002030BC704758
:1026080070B582B04B78012B40F0A9804B69EBB9CB
:102618000B7800EB4313D3F8104924F0FF5424F44B
:10262800C014C3F810490B7800EB4313D3F81049D2
:1026380044F40024C3F810490B7800EB4313D3F893
:102648001049E40CE404C3F8104945E00B7800EBAA
:102658004313D3F81049E40CE404C3F810490B7889
:1026680000EB4313D3F8104924F0FF5424F4C014AA
:10267800C3F810490C7800EB4414D4F810598E684C
:102688004B693344013BB3FBF6F3724E06EAC3438E
:102698002B43C4F810390B7800EB4313D3F81059C7
:1026A8004C69C4F312042C43C3F81049CB78012BAE
:1026B80040F0C8800B7800EB4313D3F8104924F09E
:1026C800C044C3F810490B7800EB4313D3F8104902
:1026D80044F00054C3F81049012A06D10B7800EBE6
:1026E80043130C69C3F814490CE0CB78012B0CD0C8
:1026F8004B6903B3D0F834480E780123B340234321
:10270800C0F83438CB78012B15D1D0F8083813F439
:10271800807F08D10B785B0103F51063C45844F03F
:102728000054C45007E00B785B0103F51063C458EC
:1027380044F08054C4500B785B0103F51063C4580F
:1027480044F00444C450CB78012B7FD114460B4687
:10275800C9681A789B8A0094FFF73EFF76E00B78E9
:1027680000EB4313D3F8104BE40CE404C3F8104B0C
:102778000B7800EB4313D3F8104B24F0FF5424F4E8
:10278800C014C3F8104B4B69A3B90B7800EB431383
:10279800D3F8105B8C68C4F312042C43C3F8104BB5
:1027A8000B7800EB4313D3F8104B44F40024C3F820
:1027B800104B1DE08D680C7800EB4414D4F8106BB6
:1027C8002B44013BB3FBF5F39BB2224D05EAC3450D
:1027D8003543C4F8105B0C7800EB4414D4F8106B44
:1027E8008D6805FB03F3C3F312033343C4F8103BAE
:1027F800012A05D10B7800EB4313CA68C3F8142BE0
:10280800CB78012B15D1D0F8083813F4807F08D184
:102818000B785B0103F53063C25842F00052C25096
:1028280007E00B785B0103F53063C25842F0805231
:10283800C2500B785B0103F53063C25842F0044282
:10284800C25003E0012A7FF453AF47E7002002B0EB
:1028580070BD00BF0000F81F033292100FD030B4D3
:102868000C46002300F580552D6844F8045B0133BD
:102878009A42F7D101EB8201084630BC70470846FE
:10288800704700BF4B78012B13D10B785B0103F520
:102898001063C258002A03DBC25822F08042C2509B
:1028A8000B785B0103F51063C25842F40012C25062
:1028B80012E00B785B0103F53063C258002A03DB92
:1028C800C25822F08042C2500B785B0103F5306396
:1028D800C25842F40012C250002070474B78012BB6
:1028E80015D10B785B0103F51063C25822F400126E
:1028F800C250CB78023BDBB2012B1DD80B785B01B1
:1029080003F51063C25842F08052C25014E00B78AD
:102918005B0103F53063C25822F40012C250CB7831
:10292800023BDBB2012B07D80B785B0103F5306360
:10293800C25842F08052C25000207047D0F8003888
:1029480023F4FE63C0F80038D0F80038090101F418
:10295800FE610B43C0F800380020704708B5D0F876
:10296800043823F00203C0F804380320FDF776FD8D
:10297800002008BD08B5D0F8043843F00203C0F8B9
:1029880004380320FDF76AFD002008BD436980690B
:1029980018407047D0F8183800F50060C069184032
:1029A800000C704700F50063D0F81808DB69184080
:1029B80080B2704700F5306303EB41118B6800F576
:1029C800006040691840704710B4D0F81048D0F83B
:1029D800343800EB4110D0F80809CB40DB01DBB2FA
:1029E800234318405DF8044B704700BF406900F06E
:1029F80001007047D0F8003923F4FF6323F0070380
:102A0800C0F8003900F500639A6802F00602042A4B
:102A180005D1D0F8002942F00302C0F800295A680D
:102A280042F480725A600020704700BF10B400243E
:102A3800C0F8104BD0F8104B44F40024C0F8104BE9
:102A4800D0F8104B44F01804C0F8104BD0F8104BD5
:102A580044F0C044C0F8104B012905D1C0F8142B2C
:102A68004FF08023C0F8003B00205DF8044B70470E
:102A7800FEE700BF08B5034800F07EF80120FFF725
:102A8800F7FF00BF9C66000808B50D4B1B6813B91B
:102A98000C4A0B4B1A600A4B1A68C31C23F0030339
:102AA800134409498B4206D902F058FC0C230360F1
:102AB8004FF0FF3008BD02490B60104608BD00BF4B
:102AC800BC0100209009002000FC012001230360C4
:102AD800014B0B60704700BF0400002008B502F0EE
:102AE8003DFC582303604FF0FF3008BD08B502F0E5
:102AF80035FC582303604FF0FF3008BD08B502F0DD
:102B08002DFC58230360002008BD00BF08B502F063
:102B180025FC582303604FF0FF3008BD08B502F0CC
:102B28001DFC582303604FF0FF3008BD08B503466D
:102B38000A460348194600F005F8FFF79BFF00BF57
:102B4800F06600080FB400B583B004AB53F8042B4B
:102B580001930848802102F01FFD011E03DD05488E
:102B680000F03EF80146084603B05DF804EB04B0F7
:102B7800704700BFC401002010B5044602F0DAFC1B
:102B88000146204600F02CF80248012100F028F800
:102B980010BD00BFE067000810B400221AE04FF033
:102BA8006043D3F8803E13F0010F06D04FF0604326
:102BB800D3F8003E13F0010F01D110460DE04FF09D
:102BC80060431B68002BFAD004784FF060431C70F8
:102BD800013201308A42E2D308465DF8044B70475F
:102BE80008B5FFF7D9FF08BD08B500F079F808BDAA
:102BF800F8B504460D4617461E462648FFF7A2FFBD
:102C080025482168FFF79EFF24486168FFF79AFF6F
:102C18002348A168FFF796FF2248E168FFF792FF73
:102C280021482169FFF78EFF20486169FFF78AFF75
:102C38001F48A169FFF786FF1E48E169FFF782FF79
:102C48001D48FFF77FFF1D482946FFF77BFF1C4CF7
:102C5800E16A1C48FFF776FF216B1B48FFF772FFFC
:102C6800E16B1A48FFF76EFF15F0800F03D0184884
:102C78003946FFF767FF15F4004F03D01548314672
:102C8800FFF760FF1448FFF75DFF14480699FFF748
:102C980059FFF8BD486700085867000868670008CA
:102CA800786700088867000898670008A867000820
:102CB800B8670008C8670008D8670008E467000814
:102CC80000ED00E0F46700080468000814680008D4
:102CD8002468000834680008446800084C68000844
:102CE8000C4B1A6842F001021A60002199601A68B8
:102CF80022F0847222F480321A60074A5A601A68F5
:102D080022F480221A60D9604FF00062034B9A6067
:102D1800704700BF003802401030002400ED00E08A
:102D280012230B80004870471000002004230B80FA
:102D3800004870472400002008B50A4620B9054815
:102D4800054900F0F7FD03E00448034900F0F2FDEF
:102D5800014808BD90680008B0020020A868000873
:102D680010B50A46034C0448214600F0E3FD20460E
:102D780010BD00BFB0020020C068000808B50A46B0
:102D880020B90548054900F0D5FD03E0044803498A
:102D980000F0D0FD014808BDD4680008B00200204A
:102DA800E468000808B50A4620B90548054900F056
:102DB800C1FD03E00248034900F0BCFD014808BD1D
:102DC800F4680008B002002008B50A4620B9054892
:102DD800054900F0AFFD03E00248034900F0AAFDF1
:102DE800014808BD00690008B002002022230380C2
:102DF80000487047C8000020D0F818320020187327
:102E0800704700BF0A23038000487047BC000020B9
:102E180010B5D0F818220C7814F0600425D0202CB6
:102E28004AD14B78023B092B1BD8DFE803F0140981
:102E38001A1A1A1A1A1A0F058B78136000243CE024
:102E48001146012200F094FD002436E04B881B0A4D
:102E58005360002431E0111D012200F089FD002497
:102E68002BE000F023FB022427E04B780A2B1AD032
:102E78000B2B1ED0062B20D14B881B0A222B05D1E9
:102E8800CA88322A28BF32220D4909E0212B05D1F0
:102E9800CA88092A28BF09220A4901E000210A46EE
:102EA80000F066FD09E002F10801012200F060FD72
:102EB80003E08B78936000E00024204610BD00BF3B
:102EC8007C000020B000002010B50446812100F0ED
:102ED8001FF9D4F8180220B102F04EFA0023C4F802
:102EE8001832002010BD00BF10B50446812103220E
:102EF800042300F003F9102002F036FAC4F818028F
:102F080018B100230373184610BD012010BD00BF7F
:102F180038B5D0F8185290F8FC41032C08D12B7B17
:102F280033B913460A4601212973812100F028F993
:102F3800002038BD0368B3F1A04F43D12DE9F0411B
:102F480086B0214C236B43F0010323634FF4C05335
:102F580001930326049602230293002503954FF05C
:102F68000A08CDF81480194F384601A9FDF712FB5D
:102F78004FF40073019302950395384601A9FDF7B4
:102F880009FB4FF4806301931223029301230393F7
:102F98000496CDF81480384601A9FDF7FBFA636B57
:102FA80043F080036363636C43F4804363644320AA
:102FB80031462A46FDF77EFA4320FDF7BDFA06B0F2
:102FC800BDE8F081704700BF0038024000000240B1
:102FD80008B50146D0F8AC0301F55F7100F036F989
:102FE80008BD00BF08B5C1EBC1039B000344D0F87E
:102FF800AC03D3F8E02100F057F908BD08B5C1EBE0
:10300800C1039B000344D0F8AC03DA6B00F07CF9F1
:1030180008BD00BF08B5D0F8AC0300F0FBF908BD47
:1030280010B50446C3680BB9002100E00121D4F8AB
:10303800AC0300F0DBF9D4F8AC0300F0B7F910BD2D
:1030480008B5D0F8AC0300F0D5F908BD08B5D0F83C
:10305800AC0300F0D9F908BD08B5D0F8AC0300F00E
:10306800E7F908BD08B5D0F8AC0300F0DFF908BDF2
:1030780008B5D0F8AC0300F0DDF908BD08B5D0F804
:10308800AC0300F0D9F908BDF8B50025154B83F855
:103098002350154C4FF0A043236004236360A562BE
:1030A80040276761256125620223A361E561E3602A
:1030B80001266662C4F8AC03C0F820422046FDF73A
:1030C8008FFC20468021FEF7A5F8204629463A467F
:1030D800FEF77CF8204631468022FEF777F828462E
:1030E800F8BD00BF00ED00E0B003002008B5D0F83F
:1030F8002002FDF7F3FC002008BD00BF10B5144600
:10310800D0F820021A462346FDF738FF002010BDEC
:1031180008B5D0F82002FDF765FF002008BD00BF04
:1031280008B5D0F82002FDF7F3FF002008BD00BF66
:1031380008B5D0F82002FEF71DF8002008BD00BF32
:10314800D0F8202211F0800F08D001F07F03C3EBE4
:10315800C3039B00134493F83200704701F07F01CA
:10316800C1EBC1018900114491F8D601704700BF35
:1031780008B5D0F82002FDF7EFFE002008BD00BF1B
:1031880008B5D0F82002FDF78FFF002008BD00BF6A
:1031980008B5D0F82002FDF751FF002008BD00BF98
:1031A80008B550B90E4802F089F90E4802F086F9C0
:1031B8000A2002F09BF9022008BD0346D0F8140249
:1031C80010B10020C3F8140209B1C3F8101201218C
:1031D80083F8FC111A701846FFF756FF002008BD47
:1031E800106900081869000808B519B1C0F8141268
:1031F800002008BD054802F061F9054802F05EF9B3
:103208000A2002F073F9022008BD00BF1069000807
:103218003069000808B5FFF769FF002008BD00BF46
:1032280008B5D0F8143223B11B68984718B10220AA
:1032380008BD022008BD002008BD00BF08B5D0F8B1
:1032480014325B689847002008BD00BF38B50446B3
:1032580000F50275284600F015F90123C4F8F43189
:10326800B4F80E32C4F8F83194F8081201F01F03CC
:10327800012B08D013B1022B0AD00EE020462946B4
:1032880000F08AFA0EE02046294600F0A9FA09E083
:103298002046294600F0C0FA04E0204601F08001EB
:1032A800FFF73EFF002038BD38B5044609BBD0F80B
:1032B800F431032B26D1D0F80C31D0F810118B4201
:1032C8000AD95B1AC0F80C318B4228BF0B4611464D
:1032D8009AB200F065FB15E0D0F814321B6923B1EF
:1032E80090F8FC21032A00D19847204600F062FBA1
:1032F80008E0D0F814329B6923B190F8FC21032A26
:1033080000D19847002038BD38B50446002942D17D
:10331800D0F8F431022B36D1C169036A99420CD92D
:10332800CB1AC36111469AB200F030FB2046002147
:103338000A460B46FFF72CFF25E08169B1FBF3F243
:1033480003FB121292B98B4210D8D0F8F831994287
:103358000CD200210A4600F019FB0023C4F8F8310A
:10336800204619461A46FFF713FF0CE0D4F814322A
:10337800DB682BB194F8FC21032A01D12046984739
:10338800204600F023FB94F80032012B0CD10023D7
:1033980084F8003208E0D0F814325B6923B190F861
:1033A800FC21032A00D19847002038BD38B50446CF
:1033B80000210A464023FFF7A1FE4025C4F810511A
:1033C8002046802100222B46FFF798FE2562012324
:1033D80084F8FC31D4F818322BB1D4F814325B6875
:1033E800204621799847002038BD00BF017400208D
:1033F800704700BF90F8FC3180F8FD31042380F855
:10340800FC310020704700BF90F8FD3180F8FC3196
:103418000020704708B590F8FC31032B04D1D0F890
:103428001432DB6903B19847002008BD00207047BB
:10343800002070470020704708B5012280F8FC2161
:10344800D0F81422526801799047002008BD00BFC7
:103458000346002002E00130C0B201331A78002A86
:10346800F9D170474B88012B0BD110B50446C0F831
:103478000432D0F814329B689847204600F09AFA34
:1034880010BD70470B7803704B7843708B78CA78FF
:1034980003EB022343800B794A7903EB02238380F1
:1034A8008B79CA7903EB0223C380704710B50446B1
:1034B8008021FFF735FE20460021FFF731FE10BDC1
:1034C80030B583B004460D464A88130A013B062BE3
:1034D80000F28580DFE803F0040D23838365730021
:1034E800D0F810321B68007C0DF1060198470146A0
:1034F80079E0037C4BB9D0F814329B6A0DF10600D1
:1035080098470146022343706DE0D0F81432DB6A15
:103518000DF10600984701460223437063E0D2B2DA
:10352800052A3AD8DFE802F0030C151E2730D0F838
:1035380010325B68007C0DF106019847014652E0A5
:10354800D0F810329B68007C0DF1060198470146BF
:1035580049E0D0F81032DB68007C0DF1060198478D
:10356800014640E0D0F810321B69007C0DF10601DD
:103578009847014637E0D0F810325B69007C0DF1BE
:103588000601984701462EE0D0F810329B69007C6E
:103598000DF106019847014625E02946FFF786FF09
:1035A8002EE0037C3BB9D0F814325B6B0DF10600BA
:1035B8009847014617E02946FFF778FF20E0037C8B
:1035C8004BB9D0F814321B6B0DF106009847014631
:1035D8000723437007E02946FFF768FF10E02946F4
:1035E800FFF764FF0CE0BDF806304BB1EA883AB14A
:1035F8009A4228BF1A46ADF80620204600F0B8F9CE
:1036080003B030BD38B504468B88E3B9CB88D3B94D
:103618008D7805F07F0590F8FC31032B02D1FFF778
:1036280045FF38BD80F8FE512946FFF7A1FD204629
:1036380000F0C0F91DB1022384F8FC3138BD012324
:1036480084F8FC3138BD2046FFF730FF38BD00BF95
:1036580038B504460D468978264B1970012903D9D7
:103668002946FFF723FF38BD90F8FC31022B02D022
:10367800032B15D039E081B14160032380F8FC3178
:10368800FFF7CEFD022804D120462946FFF70EFF9A
:1036980038BD204600F08EF938BD00F08BF938BDF2
:1036A80049B9022380F8FC314160FFF7C7FD204685
:1036B80000F080F938BD4368994213D0D9B2FFF7BA
:1036C800BDFD0C4B197861602046FFF7A9FD022863
:1036D80004D120462946FFF7E9FE38BD204600F010
:1036E80069F938BD00F066F938BD2946FFF7DEFEF6
:1036F80038BD00BF4402002008B50346CA88012A25
:1037080002D0FFF7D3FE08BD90F8FC21022A02D0B0
:10371800032A08D00CE00146002241F8082F0122B4
:1037280000F026F908BD191D012200F021F908BD95
:10373800FFF7BCFE08BD00BF08B5034690F8FC21A2
:10374800023A012A0DD80122C260D0F804220AB137
:103758000322C260184603F10C01022200F008F9A6
:1037680008BDFFF7A3FE08BD10B5044690F8FC316C
:10377800023B012B0DD84B88012B0CD10023C0F83C
:103788000432D0F814329B689847204600F012F9AA
:1037980010BDFFF78BFE10BD08B54B78092B1BD861
:1037A800DFE803F011171A141A08051A0E0BFFF7B1
:1037B80087FE13E0FFF726FF10E0FFF749FF0DE053
:1037C800FFF79AFF0AE0FFF7B7FF07E0FFF74AFEA7
:1037D80004E0FFF7C9FF01E0FFF768FE002008BD1D
:1037E80038B504460D4690F8FC31032B0FD10B7900
:1037F800012B09D8D0F814329B689847EB8843B955
:10380800204600F0D7F804E0FFF750FE01E0FFF78C
:103818004DFE002038BD00BF38B505460C468A88E5
:10382800D1B2237803F06003202B05D1D0F81432ED
:103838009B68214698477BE06378012B26D0002BB4
:1038480048D0032B74D190F8FC31022B02D0032B03
:1038580007D017E000296BD0802969D0FFF760FCFA
:1038680066E0638823B919B1802901D0FFF758FCB5
:10387800D5F814329B68284621469847284600F018
:1038880099F855E02146FFF711FE51E090F8FC3118
:10389800022B02D0032B07D018E0002948D080293A
:1038A80046D0FFF73DFC43E06388002B40D111F080
:1038B8007F0F07D0FFF73CFCD5F814329B682846E9
:1038C80021469847284600F075F831E02146FFF771
:1038D800EDFD2DE090F8FC31022B02D0032B06D031
:1038E80023E011F07F0F23D0FFF71AFC20E012F03D
:1038F800800F05D001F07F0400EB0414143405E0B8
:1039080001F07F0400EB041404F582742846FFF7E5
:1039180017FC10B10123236001E00023236028462F
:103928002146022200F024F802E02146FFF7BEFDFE
:10393800002038BDD0B170B50D4616460446FFF7D5
:1039480087FD0130400080B23080287003236B70FF
:10395800022307E05A1CD2B20134E954531CDBB2EB
:103968000021A95421780029F4D170BD704700BF07
:1039780038B50D4613460222C0F8F4218361C361AD
:1039880000212A46FFF7FCFB002038BD10B50C4685
:10399800134600212246FFF7F3FB002010BD00BFAD
:1039A80010B50C46134600212246FFF7F1FB002014
:1039B80010BD00BF08B50423C0F8F43100210A4641
:1039C8000B46FFF7DDFB002008BD00BF08B5052347
:1039D800C0F8F43100210A460B46FFF7D9FB002056
:1039E80008BD00BF10B582B0044600238DF807302B
:1039F80000F03CFC02A800F8014D2021012200F053
:103A080077FC02B010BD00BF10B582B002AC002335
:103A180004F8013D00F02AFC20460F21012200F0A5
:103A280089FC9DF8070002B010BD00BF30B583B017
:103A3800054602AC002304F8013D2046212101225D
:103A480000F078FC9DF8073003F0D0031D438DF893
:103A5800075020462121012200F04AFC03B030BD66
:103A680000B585B004A8002300F8093D39210122DA
:103A780000F060FC02A82721062200F05BFC05B0DC
:103A88005DF804FB00B583B00DF107002121012288
:103A980000F050FC9DF8073043F040038DF80730E4
:103AA8000DF107002121012200F022FC03B05DF88E
:103AB80004FB00BF10B586B004460DF107002021B5
:103AC800012200F037FC04A82921062200F032FC6C
:103AD800002308E006AA02EB430212F9081C22F8A8
:103AE800101C0133DBB2022BF4D99DF8073013F018
:103AF800200F01D1122100E0482100230AE006AA84
:103B080002EB430232F8102C12FB01F224F81320C6
:103B18000133DBB2022BF2D906B010BD30B583B049
:103B2800054602AC002304F8013D20463821012255
:103B380000F000FC2B786A78A97813430B438DF8C2
:103B4800073020463821012200F0D2FB03B030BDF7
:103B580070B582B000238DF8073000F0A7FB402332
:103B68008DF8043010238DF8053020238DF80630A9
:103B780001A8FFF7D3FF3F2502AC04F8015D2046FA
:103B88002221012200F0B4FB50238DF80730204693
:103B98003821012200F0ACFBAA238DF8073020461B
:103BA8003B21012200F0A4FB0A238DF807302046B0
:103BB8003C21012200F09CFB4C238DF80730204665
:103BC8003021012200F094FB03238DF807302046B2
:103BD8003D21012200F08CFB7F268DF807602046EE
:103BE8003E21012200F084FB8DF80760204629461B
:103BF800012200F07DFB02B070BD00BF30B583B07C
:103C0800054600238DF8073000F030FB02AC04F8BD
:103C1800015D20462021012200F06AFB2D0A8DF863
:103C2800075020462421012200F062FB03B030BD7A
:103C380010B582B002AC002304F8013D00F016FB79
:103C480020460F21012200F075FB9DF8070002B005
:103C580010BD00BF00B583B00DF10700252101227A
:103C680000F068FB9DF8073063F07F038DF807309C
:103C78000DF107002521012200F03AFB03B05DF8A1
:103C880004FB00BF70B584B005460DF10700242180
:103C9800012200F04FFB02A82821012200F04AFB74
:103CA8000DF109002921012200F044FB0DF10A0061
:103CB8002A21012200F03EFB0DF10B002B210122ED
:103CC80000F038FB03A82C21012200F033FB0DF192
:103CD8000D002D21012200F02DFB9DF8073003F087
:103CE8003803083B182B0ED8DFE803F0150D0D0D2F
:103CF8000D0D0D0D0F0D0D0D0D0D0D0D110D0D0DE6
:103D08000D0D0D0D1300124E06E0124E04E0124E7A
:103D180002E0124E00E0124E002415E0630004AAEF
:103D28001A4412F9070C04AA134413F9083C03EBCC
:103D3800002001F049F9314601F09AF901F0E8FA5A
:103D480025F814000134E4B2022CE7D904B070BDA0
:103D58008FC2753DEC51383E8FC2753E48E13A3FFF
:103D68008FC2F53D30B583B0044643780278817838
:103D780013430B4302AD05F8013D284623210122D8
:103D880000F0B6FAE278237913438DF80730284615
:103D98002121012200F0ACFA6279A37913438DF84E
:103DA800073028462221012200F0A2FA03B030BDD4
:103DB80030B583B000258DF8075000F077FA8DF8FC
:103DC80001508DF8005040238DF802308DF80350D3
:103DD80001248DF805408DF806506846FFF7C2FFAC
:103DE80002AD032305F8013D28465221224600F082
:103DF8007FFAC8238DF8073028465421224600F060
:103E080077FA45238DF8073028465621224600F0D8
:103E18006FFAFC238DF8073028465A21224600F015
:103E280067FAA1238DF8073028465B21224600F067
:103E38005FFA8DF8074028465C21224600F058FAC0
:103E480028467B21224600F053FA28466021224664
:103E580000F04EFA06238DF80730284661212246E5
:103E680000F046FA28238DF80730284662212246BA
:103E780000F03EFA11238DF80730284663212246C8
:103E880000F036FA03B030BD10B592B0174A136C83
:103E980043F080531364A2F5E432136843F44043BB
:103EA8001360012301930293022407944FF48003C3
:103EB8000893082309934FF4A8730A930B940723D4
:103EC8000C9301A8FDF7AAF90F230D930E94002374
:103ED8000F934FF4A05310934FF4805311930DA8F0
:103EE8000521FDF7F5FB12B010BD00BF00380240F8
:103EF80008B5FEF7F5FEFCF789FAFFF7C5FF08BD20
:103F080008B50138012804D808461146FEF768FEAE
:103F180008BD01F023FA582303604FF0FF3008BDB5
:103F280008B5062001F020FA0D4B1860052001F0B5
:103F38001BFA0C4B18600020014600F055F900F000
:103F48001DFA094C204609490022FFF729F92046A5
:103F58000749FFF749F92046FFF75CF9FEE700BF7C
:103F6800600700208809002064070020280000203E
:103F780044000020D0B5604A116800234B701268D5
:103F880093705E4C22681380226853802068838077
:103F980000F01CFA2368B3F902305B42642B21DD80
:103FA800554A1468564880FB0320DB17C3EB6010A2
:103FB80000F028FC00F048FA0022524B00F088FC80
:103FC8000022514B00F084FC06460F4694F902008B
:103FD80000F018FC32463B4600F0C8FA00F012FF29
:103FE800A07023E013F1640F20DA434A14684448B0
:103FF80080FB0320DB17A3EB601000F003FC00F04C
:1040080023FA00223F4B00F063FC00223E4B00F0F5
:104018005FFC06460F4694F9020000F0F3FB3246B7
:104028003B4600F0A1FA00F0EDFEA070334B1B6890
:10403800188803B2642B23DD2F4B1C6800B2304B69
:1040480083FB0023C017C0EB631000B200F0DAFB5B
:1040580000F0FAF900222B4B00F03AFC00222A4B20
:1040680000F036FC06460F4694F9010000F0CAFB42
:1040780032463B4600F07AFA00F0C4FE607026E053
:1040880003B213F1640F22DA1B4B1C6800B21C4BFD
:1040980083FB0023C017A0EB631000B200F0B2FB53
:1040A80000F0D2F90022174B00F012FC0022164B48
:1040B80000F00EFC06460F4694F9010000F0A2FB42
:1040C80032463B4600F050FA00F09CFE607000203B
:1040D80000F0C2F8012804D1074B1B6801221A70AE
:1040E80003E0054B1B6800221A700848024B196848
:1040F8000322FEF70DFFD0BD8809002060070020CD
:104108001F85EB510000E03F00001C4064070020C1
:1041180000B587B00C4B5A6C42F480525A641A6B43
:1041280042F001021A63E0230193022302930393EE
:104138000123049305230593044801A9FCF72AFAEF
:1041480007B05DF804FB00BF0038024000000240E1
:1041580010B50F48FDF7A6FFC8B90D4C0D4B2360ED
:104168001823E3610023A36063612361A36207222C
:10417800E262E36023624FF40072A26163624FF46B
:1041880082736360FFF7C4FF2046FDF713FD10BD7F
:10419800480200200030014008B50348FDF7C0FD83
:1041A800FFF7D6FF08BD00BF4802002000B587B062
:1041B8008DF80F0000238DF81730094B1B6800930A
:1041C80008480DF10F010DF117020123FDF7BCFDA1
:1041D80008B1FFF7E1FF9DF8170007B05DF804FB91
:1041E800440100204802002030B587B00546174A30
:1041F800136B43F0010313630C4661B90123019368
:1042080000230293039302230493114B53F82000D5
:1042180001A9FCF7BFF9012C15D101230193002452
:104228000394022304930B4B0293094B53F8250084
:1042380001A9FCF7AFF906200F212246FCF73AF94D
:104248000620FCF779F907B030BD00BF00380240FE
:10425800480100200000111008B5034B53F8200056
:104268000121FCF725FB08BD4801002070B586B088
:104278000C4A136B43F010031363082501950124BE
:104288000294002303930494074E304601A9FCF7D7
:1042980081F9304629462246FCF71CFBFFF758FFF8
:1042A80006B070BD003802400010024010B586B05C
:1042B8000C4A136B43F010031363022301930A4A59
:1042C8000292049300240394084801A9FCF762F9B8
:1042D80007200F212246FCF7EDF80720FCF72CF900
:1042E80006B010BD00380240000011100010024056
:1042F80070B505460E461446012A01D941F040061C
:104308000B4808210022FCF7E5FA3046FFF74EFF7C
:1043180005E015F8010BFFF749FF013CA4B2002C9A
:10432800F7D1034808210122FCF7D4FA70BD00BF79
:104338000010024070B505461446012A02D941F022
:10434800C00601E041F080060B4808210022FCF776
:10435800C1FA3046FFF72AFF06E00020FFF726FFE4
:1043680005F8010B013CA4B2002CF6D10248082143
:104378000122FCF7AFFA70BD0010024010B5104BD7
:104388005B6898473B280BD10E4C0D4B23601B688C
:104398004720984723681B6A2D209847002010BDA6
:1043A800094B5B6898473F2807D1074B054A1360BC
:1043B8001B6867209847002010BD012010BD00BF72
:1043C800EC000020A002002018010020094B1B6807
:1043D8009B6A6BB110B504469847064B1A68064BA2
:1043E8009A4204D12388628822805B42638010BD90
:1043F800704700BFA0020020EC000020704700BFFB
:10440800FEE700BFFEE700BFFEE700BFFEE700BF14
:10441800704700BF704700BF704700BF08B5FCF782
:104428000FF8FCF7B3F808BD08B50120FCF76EFAE1
:1044380008BD00BF08B50248FCF766FB08BD00BF11
:10444800B0030020000000002DE9F047C1F30A582E
:10445800A8F2FF36132E0B460D460446024689463F
:1044680007461DDC002E40DBDFF8F08048FA06F82E
:1044780008EA010E5EEA020217D035A3D3E9002349
:1044880000F074F80022002300F0B2FC20B1002DE7
:1044980040DB29EA0805002738462946BDE8F087A9
:1044A800332E06DDB6F5806F2FD020461946BDE8BD
:1044B800F087A8F213424FF0FF3A2AFA02FA1AEAF2
:1044C800000FF2D022A3D3E9002300F04FF8002216
:1044D800002300F08DFC0028DED0002D1FDB4D46A8
:1044E80027EA0A0738462946D8E719A3D3E900235B
:1044F80000F03CF80022002300F07AFC0028CBD022
:10450800002D1ADB00273D46C6E702460B4600F0A1
:104518002DF8CCE74FF4801333419944B9E7142EB2
:1045280008D0C8F5866808F10308012303FA08F3E0
:104538001F19D4D309F10109D1E725F00042064B30
:10454800224318BF1D460027A6E700BFAFF300802F
:104558009C7500883CE4377E0000F0BFFFFF0F0029
:1045680081F0004102E000BF83F0004330B54FEA1C
:1045780041044FEA430594EA050F08BF90EA020F89
:104588001FBF54EA000C55EA020C7FEA645C7FEA1C
:10459800655C00F0E2804FEA5454D4EB5555B8BF3F
:1045A8006D420CDD2C4480EA020281EA030382EAB0
:1045B800000083EA010180EA020281EA0303362D42
:1045C80088BF30BD11F0004F4FEA01314FF4801C15
:1045D8004CEA113102D0404261EB410113F0004F27
:1045E8004FEA03334CEA133302D0524263EB4303DE
:1045F80094EA050F00F0A780A4F10104D5F1200E7C
:104608000DDB02FA0EFC22FA05F2801841F10001D6
:1046180003FA0EF2801843FA05F359410EE0A5F1AA
:1046280020050EF1200E012A03FA0EFC28BF4CF0DB
:10463800020C43FA05F3C01851EBE37101F0004591
:1046480007D54FF0000EDCF1000C7EEB00006EEB9E
:104658000101B1F5801F1BD3B1F5001F0CD3490828
:104668005FEA30004FEA3C0C04F101044FEA44527F
:1046780012F5800F80F09A80BCF1004F08BF5FEA06
:10468800500C50F1000041EB045141EA050130BDE6
:104698005FEA4C0C404141EB010111F4801FA4F189
:1046A8000104E9D191F0000F04BF01460020B1FADE
:1046B80081F308BF2033A3F10B03B3F120020CDA16
:1046C8000C3208DD02F1140CC2F10C0201FA0CF0F4
:1046D80021FA02F10CE002F11402D8BFC2F1200C59
:1046E80001FA02F120FA0CFCDCBF41EA0C0190400F
:1046F800E41AA2BF01EB0451294330BD6FEA040458
:104708001F3C1CDA0C340EDC04F11404C4F1200242
:1047180020FA04F001FA02F340EA030021FA04F354
:1047280045EA030130BDC4F10C04C4F1200220FAAB
:1047380002F001FA04F340EA0300294630BD21FAE9
:1047480004F0294630BD94F0000F83F4801306BFAF
:1047580081F480110134013D4EE77FEA645C18BFA3
:104768007FEA655C29D094EA050F08BF90EA020F3A
:1047780005D054EA000C04BF1946104630BD91EA32
:10478800030F1EBF0021002030BD5FEA545C05D135
:104798004000494128BF41F0004130BD14F5800474
:1047A8003CBF01F5801130BD01F0004545F0FE41E8
:1047B80041F470014FF0000030BD7FEA645C1ABF1D
:1047C800194610467FEA655C1CBF0B46024650EA54
:1047D800013406BF52EA033591EA030F41F4002180
:1047E80030BD00BF90F0000F04BF0021704730B506
:1047F8004FF4806404F132044FF000054FF00001DB
:1048080050E700BF90F0000F04BF0021704730B59B
:104818004FF4806404F1320410F0004548BF404270
:104828004FF000013EE700BF42004FEAE2014FEAC5
:1048380031014FEA02701FBF12F07F4393F07F4FA0
:1048480081F06051704792F0000F14BF93F07F4FD2
:10485800704730B54FF4607401F0004521F0004115
:1048680020E700BF50EA010208BF704730B54FF09B
:1048780000050AE050EA010208BF704730B511F0A0
:10488800004502D5404261EB41014FF4806404F1D8
:1048980032045FEA915C3FF4DCAE4FF003025FEA5A
:1048A800DC0C18BF03325FEADC0C18BF033202EBE2
:1048B800DC02C2F1200300FA03FC20FA02F001FA3C
:1048C80003FE40EA0E0021FA02F11444C1E600BFDB
:1048D80070B54FF0FF0C4CF4E06C1CEA11541DBF8E
:1048E8001CEA135594EA0C0F95EA0C0F00F0DEF859
:1048F8002C4481EA030621EA4C5123EA4C5350EA3E
:10490800013518BF52EA033541F4801143F480138E
:1049180038D0A0FB02CE4FF00005E1FB02E506F01F
:104928000042E0FB03E54FF00006E1FB03569CF074
:10493800000F18BF4EF0010EA4F1FF04B6F5007F7A
:1049480064F5407404D25FEA4E0E6D4146EB0606EC
:1049580042EAC62141EA55514FEAC52040EA5E5075
:104968004FEACE2EB4F1FD0C88BFBCF5E06F1ED81F
:10497800BEF1004F08BF5FEA500E50F1000041EB56
:10498800045170BD06F0004646EA010140EA020003
:1049980081EA0301B4EB5C04C2BFD4EB0C0541EA25
:1049A800045170BD41F480114FF0000E013C00F33A
:1049B800AB8014F1360FDEBF002001F0004170BD5E
:1049C800C4F10004203C35DA0C341BDC04F1140477
:1049D800C4F1200500FA05F320FA04F001FA05F203
:1049E80040EA020001F0004221F0004110EBD370D0
:1049F80021FA04F642EB06015EEA430E08BF20EAFC
:104A0800D37070BDC4F10C04C4F1200500FA04F39E
:104A180020FA05F001FA04F240EA020001F0004130
:104A280010EBD37041F100015EEA430E08BF20EAA3
:104A3800D37070BDC4F1200500FA05F24EEA020EEB
:104A480020FA04F301FA05F243EA020321FA04F01A
:104A580001F0004121FA04F220EA020000EBD370D1
:104A68005EEA430E08BF20EAD37070BD94F0000FD1
:104A78000FD101F00046400041EB010111F4801F05
:104A880008BF013CF7D041EA060195F0000F18BFB6
:104A9800704703F00046520043EB030313F4801FF2
:104AA80008BF013DF7D043EA0603704794EA0C0FAC
:104AB8000CEA135518BF95EA0C0F0CD050EA4106C2
:104AC80018BF52EA4306D1D181EA030101F000413F
:104AD8004FF0000070BD50EA410606BF1046194667
:104AE80052EA430619D094EA0C0F02D150EA013673
:104AF80013D195EA0C0F05D152EA03361CBF1046B4
:104B080019460AD181EA030101F0004141F0FE4152
:104B180041F470014FF0000070BD41F0FE4141F4D6
:104B2800780170BD70B54FF0FF0C4CF4E06C1CEAD6
:104B380011541DBF1CEA135594EA0C0F95EA0C0F8B
:104B480000F0A7F8A4EB050481EA030E52EA033546
:104B58004FEA013100F088804FEA03334FF0805567
:104B680045EA131343EA12634FEA022245EA111594
:104B780045EA10654FEA00260EF000419D4208BF45
:104B8800964244F1FD0404F5407402D25B084FEAF2
:104B98003202B61A65EB03055B084FEA32024FF49E
:104BA80080104FF4002CB6EB020E75EB030E22BFFB
:104BB800B61A754640EA0C005B084FEA3202B6EBBB
:104BC800020E75EB030E22BFB61A754640EA5C006A
:104BD8005B084FEA3202B6EB020E75EB030E22BFFA
:104BE800B61A754640EA9C005B084FEA3202B6EBFB
:104BF800020E75EB030E22BFB61A754640EADC00BA
:104C080055EA060E18D04FEA051545EA16754FEA1B
:104C180006164FEAC30343EA52734FEAC2025FEA39
:104C28001C1CC0D111F4801F0BD141EA00014FF0C8
:104C380000004FF0004CB6E711F4801F04BF014399
:104C48000020B4F1FD0C88BFBCF5E06F3FF6AFAEB5
:104C5800B5EB030C04BFB6EB020C5FEA500C50F145
:104C6800000041EB045170BD0EF0004E4EEA1131C8
:104C780014EB5C04C2BFD4EB0C0541EA045170BDCF
:104C880041F480114FF0000E013C90E645EA060E13
:104C98008DE60CEA135594EA0C0F08BF95EA0C0F41
:104CA8003FF43BAF94EA0C0F0AD150EA01347FF489
:104CB80034AF95EA0C0F7FF425AF104619462CE760
:104CC80095EA0C0F06D152EA03353FF4FDAE1046C3
:104CD800194622E750EA410618BF52EA43067FF414
:104CE800C5AE50EA41047FF40DAF52EA43057FF4A4
:104CF800EBAE12E74FF0FF3C06E000BF4FF0010CAF
:104D080002E000BF4FF0010C4DF804CD4FEA410C12
:104D18007FEA6C5C4FEA430C18BF7FEA6C5C1BD0DF
:104D280001B050EA410C0CBF52EA430C91EA030F60
:104D380002BF90EA020F0020704710F1000F91EABD
:104D4800030F58BF994208BF90422CBFD8176FEA8B
:104D5800E37040F0010070474FEA410C7FEA6C5C59
:104D680002D150EA013C07D14FEA430C7FEA6C5C60
:104D7800D6D152EA033CD3D05DF8040B704700BF8C
:104D88008446104662468C461946634600E000BFDA
:104D980001B5FFF7B7FF002848BF10F1000F01BDAC
:104DA8004DF808EDFFF7F4FF0CBF012000205DF877
:104DB80008FB00BF4DF808EDFFF7EAFF34BF0120FC
:104DC80000205DF808FB00BF4DF808EDFFF7E0FF95
:104DD80094BF012000205DF808FB00BF4DF808EDE6
:104DE800FFF7CEFF94BF012000205DF808FB00BF4D
:104DF8004DF808EDFFF7C4FF34BF012000205DF82F
:104E080008FB00BF4FEA410212F5001215D211D576
:104E18006FF47873B3EB625212D94FEAC12343F0AF
:104E2800004343EA505311F0004F23FA02F018BF31
:104E3800404270474FF00000704750EA013005D1FA
:104E480011F0004008BF6FF0004070474FF00000BD
:104E5800704700BF80F0004002E000BF81F00041D1
:104E680042001FBF5FEA410392EA030F7FEA226C08
:104E78007FEA236C6AD04FEA1262D2EB1363C1BF98
:104E8800D218414048404140B8BF5B42192B88BF07
:104E9800704710F0004F40F4000020F07F4018BF2A
:104EA800404211F0004F41F4000121F07F4118BF4A
:104EB800494292EA030F3FD0A2F1010241FA03FCF2
:104EC80010EB0C00C3F1200301FA03F100F00043DA
:104ED80002D5494260EB4000B0F5000F13D3B0F1A2
:104EE800807F06D340084FEA310102F10102FE2A11
:104EF80051D2B1F1004F40EBC25008BF20F0010081
:104F080040EA03007047490040EB000010F4000F2E
:104F1800A2F10102EDD1B0FA80FCACF1080CB2EBC1
:104F28000C0200FA0CF0AABF00EBC2505242184320
:104F3800BCBFD0401843704792F0000F81F40001C5
:104F480006BF80F400000132013BB5E74FEA410398
:104F58007FEA226C18BF7FEA236C21D092EA030F04
:104F680004D092F0000F08BF0846704790EA010F7E
:104F78001CBF0020704712F07F4F04D1400028BFAB
:104F880040F00040704712F100723CBF00F500008D
:104F9800704700F0004343F0FE4040F400007047C3
:104FA8007FEA226216BF08467FEA2363014642026F
:104FB80006BF5FEA412390EA010F40F48000704782
:104FC8004FF0000304E000BF10F0004348BF404228
:104FD8005FEA000C08BF704743F0964301464FF064
:104FE80000001CE050EA010208BF70474FF00003C0
:104FF8000AE000BF50EA010208BF704711F0004301
:1050080002D5404261EB41015FEA010C02BF8446D0
:105018000146002043F0B64308BFA3F18053A3F52F
:105028000003BCFA8CF2083AA3EBC25310DB01FA76
:1050380002FC634400FA02FCC2F12002BCF1004FFA
:1050480020FA02F243EB020008BF20F0010070478B
:1050580002F1200201FA02FCC2F1200250EA4C00DF
:1050680021FA02F243EB020008BF20EADC70704725
:105078004FF0FF0C1CEAD0521EBF1CEAD15392EA33
:105088000C0F93EA0C0F6FD01A4480EA010C40020F
:1050980018BF5FEA41211ED04FF0006343EA501069
:1050A80043EA5111A0FB01310CF00040B1F5000FAB
:1050B8003EBF490041EAD3715B0040EA010062F15A
:1050C8007F02FD2A1DD8B3F1004F40EBC25008BF44
:1050D80020F00100704790F0000F0CF0004C08BF62
:1050E80049024CEA502040EA51207F3AC2BFD2F12F
:1050F800FF0340EAC250704740F400004FF000033D
:10510800013A5DDC12F1190FDCBF00F00040704776
:10511800C2F10002410021FA02F1C2F1200200FAB4
:1051280002FC5FEA310040F1000053EA4C0308BF7B
:1051380020EADC70704792F0000F00F0004C02BFCC
:10514800400010F4000F013AF9D040EA0C0093F047
:10515800000F01F0004C02BF490011F4000F013BA1
:10516800F9D041EA0C018FE70CEAD15392EA0C0F0F
:1051780018BF93EA0C0F0AD030F0004C18BF31F07A
:10518800004CD8D180EA010000F00040704790F050
:10519800000F17BF90F0004F084691F0000F91F0F4
:1051A800004F14D092EA0C0F01D142020FD193EABA
:1051B8000C0F03D14B0218BF084608D180EA010042
:1051C80000F0004040F0FE4040F40000704740F01E
:1051D800FE4040F4400070474FF0FF0C1CEAD052EC
:1051E8001EBF1CEAD15392EA0C0F93EA0C0F69D048
:1051F800A2EB030280EA010C49024FEA402037D0B3
:105208004FF0805343EA111143EA10130CF00040A9
:105218008B4238BF5B0042F17D024FF4000C8B4299
:1052280024BF5B1A40EA0C00B3EB510F24BFA3EB79
:10523800510340EA5C00B3EB910F24BFA3EB910349
:1052480040EA9C00B3EBD10F24BFA3EBD10340EAA3
:10525800DC001B0118BF5FEA1C1CE0D1FD2A3FF6E9
:1052680050AF8B4240EBC25008BF20F0010070479E
:105278000CF0004C4CEA50207F32C2BFD2F1FF0341
:1052880040EAC250704740F400004FF00003013A72
:1052980037E792F0000F00F0004C02BF400010F416
:1052A800000F013AF9D040EA0C0093F0000F01F02A
:1052B800004C02BF490011F4000F013BF9D041EA4C
:1052C8000C0195E70CEAD15392EA0C0F08D142027F
:1052D8007FF47DAF93EA0C0F7FF470AF084676E752
:1052E80093EA0C0F04D14B023FF44CAF08466EE72B
:1052F80030F0004C18BF31F0004CCAD130F00042F9
:105308007FF45CAF31F000437FF43CAF5FE700BF50
:105318004FEA4002B2F1FE4F0FD34FF09E03B3EBBA
:1053280012620DD94FEA002343F0004310F0004FFA
:1053380023FA02F018BF404270474FF00000704750
:1053480012F1610F01D1420205D110F0004008BFEF
:105358006FF0004070474FF000007047014B18682D
:10536800704700BFAC010020024B0146186800F0EE
:105378004FB800BFAC010020024B0146186800F08E
:1053880003B800BFAC01002030B500293DD051F86A
:10539800042C0B1F1D49002AB8BF9B180A680C462D
:1053A80012B95A600B6030BD93420DD21968581873
:1053B800904201BF5A5852181A6042685A602360D6
:1053C80030BD994203D80A4651680029F9D11468BA
:1053D80015199D420AD11B682344D01888421360CE
:1053E80013D10868034413604B680DE002D90C23FD
:1053F800036030BD1C681819884204BF08684968F2
:10540800596004BF00191860536030BDA80200201D
:1054180070B5CC1C24F0030408340C2C38BF0C24C1
:10542800002C064603DA0C233360002070BD8C4242
:10543800F9D3204A136810461946A1B10A68121B0D
:105448000ED40B2A03D90A608B188C501FE08B42AC
:105458000DBF5A684A685A60026018BF0B4616E0CA
:105468000B464968E9E7144D2B681BB9304600F034
:1054780051F828603046214600F04CF8421C03469B
:10548800D1D0C51C25F0030585420AD11C6003F163
:105498000B001A1D20F00700821A0AD051429950B9
:1054A80070BD3046E91A00F035F80130BBD02B4604
:1054B800ECE770BDA8020020A40200200FB40A4B3C
:1054C80013B51C6824B1A36913B9204600F0B4F8D9
:1054D80005AB2046A168049A019300F0B1FA02B026
:1054E800BDE8104004B07047AC01002038B5084B47
:1054F8001C68054624B1A36913B9204600F09CF83E
:1055080020462946A268BDE8384000F037BD00BFF4
:10551800AC01002038B5064C002305460846236038
:10552800FDF7B2FA431C02D1236803B12B6038BDE2
:10553800AC020020034613F8012B002AFBD1181AED
:105548000138704730B5141E9BB0054604DA8B232A
:1055580003604FF0FF301CE04FF40272ADF80C20EE
:1055680014BF04F1FF322246029205924FF6FF72F1
:1055780000910491ADF80E2069461A461E9B00F072
:1055880045F9431CBCBF8B232B6014B1009B002240
:105598001A701BB030BD000073B50093054B06466A
:1055A8000D461446186831462A462346FFF7CAFFB7
:1055B80002B070BDAC010020014900F0A7B800BFDF
:1055C80051630008002310B50446036043608360FC
:1055D80081814366C28103614361836119465C30FE
:1055E800082200F0B1F8054B6362054BA362054B36
:1055F800E362054B2462236310BD00BFFD5F000812
:105608001F600008576000087B60000870B56823B9
:105618004D1E5D430E4605F17401FFF7F9FE044681
:1056280040B1002180E842000C30A06005F168021A
:1056380000F08AF8204670BD836910B5044633BB74
:105648008364C3640365124B124A1B6882629842E2
:1056580004BF0123836100F01FF86060204600F05A
:105668001BF8A060204600F017F80421E060002233
:105678006068FFF7A7FFA06809210122FFF7A2FFD2
:10568800E06812210222FFF79DFF0123A36110BDEC
:105698004C690008C1550008F8B51B4B1E68B36972
:1056A800074613B93046FFF7C7FF4836B468736832
:1056B800013B04D4B4F90C5075B16834F8E7336889
:1056C8002BB938460421FFF7A1FF306008B13668CE
:1056D800ECE70C233B60F8BD4FF6FF73E381012331
:1056E800A38165662560A560656025616561A56122
:1056F80004F15C002946082200F026F86563A563DA
:10570800A564E5642046F8BD4C6900082DE9F84316
:105718008046894600F14804002694B1A568676868
:10572800013F0CD4AB89012B07D9B5F90E300133F1
:1057380003D040462946C84706436835F0E7246841
:10574800EBE73046BDE8F88302440346934202D0B3
:1057580003F8011BFAE770472DE9F0478E68B3425A
:1057680082460C469046994640D38A8912F4906F37
:105778003AD0256809696F1A6569022305EB450562
:1057880095FBF3F57B1C4B449D4238BF1D465305E2
:105798000FD52946FFF73CFE064698B121693A46DF
:1057A80000F06BFEA38923F4906343F08003A38188
:1057B80013E02A4600F087FE064670B95046216974
:1057C800FFF7E2FD0C23CAF80030A38943F0400339
:1057D800A3814FF0FF30BDE8F087266165613E4444
:1057E800ED1B2660A5604E46B14500D24E463246B6
:1057F8002068414600F04CFEA3689B1BA360236809
:105808001E4426600020BDE8F08700002DE9F04323
:105818009DB0064603938B891C060D4690460CD511
:105828000B6953B94021FFF7F3FD2860286110B9CF
:105838000C233360CCE040236B61002309932023C1
:105848008DF8293030238DF82A3043461C4613F84A
:10585800012B1AB9B4EB08090FD002E0252AF5D1BB
:10586800F8E73046294642464B46FFF775FF0130B8
:1058780000F0A980099B4B4409932378002B00F082
:10588800A28000234FF0FF320493079305920693FA
:105898008DF853301A9304F101084446DFF8489113
:1058A80021784846052200F0D9FD08F10108049B3B
:1058B80030B1C9EB00000122824013430493ECE7A6
:1058C800D80644BF20228DF85320190744BF2B2245
:1058D8008DF8532022782A2A02D0079923460EE011
:1058E800039A111D12680391002ABBBF524243F06C
:1058F800020307920792B8BF049301340AE01C46DA
:1059080001332278303A092A03D80A2000FB012102
:10591800F5E7079123782E2B1AD163782A2B0AD121
:10592800039B1A1D1B680392002BB8BF4FF0FF336F
:10593800023405930CE0611C00220C4601312378E7
:10594800303B092B03D80A2000FB0232F5E7059209
:10595800DFF8988021784046032200F07FFD38B1B7
:10596800049AC8EB00004023834013430493013496
:1059780021781A488DF82810062204F1010800F051
:105988006DFD88B1164B33B9039B073323F007032A
:105998000833039313E003AB0093304604A92A4667
:1059A800104BAFF3008007E003AB0093304604A927
:1059B8002A460C4B00F0C2F9421C074603D0099B4B
:1059C8003B44099341E7AB895B0601D4099801E0A0
:1059D8004FF0FF301DB0BDE8F08300BFBA69000882
:1059E8000000000061570008B0690008B6690008A7
:1059F8009368013B002B10B5936009DA9469A342C0
:105A080002DBCBB20A2B03D1BDE8104000F036BB55
:105A18001368581C10601970C8B210BDF8B5064656
:105A28000F461446D518AC4208D0304614F8011B6E
:105A38003A46FFF7DDFF431CF5D100E00020F8BD32
:105A48002DE9F0439DB00D4690460393064618B1E4
:105A580083690BB9FFF7F0FD754B9D4201D175685D
:105A680008E0744B9D4201D1B56803E0724B9D423A
:105A780008BFF568AB891C070AD52B6943B1002319
:105A8800099320238DF8293030238DF82A3041E0FE
:105A98003046294600F058FB0028F0D04FF0FF3080
:105AA800C2E0039A111D12680391002ABBBF52423B
:105AB80043F0020307920792B8BF04930134237896
:105AC8002E2B7BD0DFF8808121784046032200F01E
