:020000040800F2
:1000000000000220B9020008C1020008C502000871
:100010000D03000811030008590300080000000048
:10002000000000000000000000000000A103000824
:10003000A503000800000000A90300088D44000883
:10004000BD030008BD030008BD030008BD03000890
:10005000BD030008BD030008A5440008BD03000857
:10006000BD030008BD030008BD030008BD03000870
:10007000BD030008BD030008BD030008BD03000860
:10008000BD030008BD030008BD030008BD03000850
:10009000BD030008BD030008BD030008BD03000840
:1000A000BD030008BD030008BD030008BD03000830
:1000B000BD030008BD030008BD030008BD03000820
:1000C000BD030008BD030008BD030008BD03000810
:1000D000BD030008BD030008BD030008BD03000800
:1000E000BD030008BD030008BD030008BD030008F0
:1000F000BD030008BD030008BD030008BD030008E0
:10010000BD030008BD030008BD030008BD030008CF
:10011000BD030008BD030008BD030008BD030008BF
:10012000BD030008BD030008BD030008BD030008AF
:10013000BD030008BD030008BD030008BD0300089F
:10014000BD030008BD030008BD0300089544000876
:10015000BD030008BD030008BD030008BD0300087F
:10016000BD030008BD030008BD030008BD0300086F
:10017000BD030008BD030008BD0300080000000027
:10018000BD030008BD03000800B583B002F0CAFB40
:10019000384B394A1360394A136039490CE00A6810
:1001A0004B6801F10C04886803E01168196004339E
:1001B00004329842F9D82146324B9942EFD32E4B64
:1001C0001A68314B9A4204D12C4B1A682F4B9A4231
:1001D00000D0FEE7274B2E4A13602E4A13602E4BA9
:1001E0000AE0194651F8082B5B6802E00020106015
:1001F00004329A42FAD30B46284A9342F1D3244B55
:100200001B6813B9234B1B6803B1FEE704F0BAF86F
:1002100001A8694602F020FB214C224B1C1BA410B4
:10022000002504E01E4B53F8253098470135AC42B9
:10023000F8DC1D4C1D4B1C1BA410002504E01A4BC0
:1002400053F8253098470135AC42F8DC0198009905
:1002500004F0A0F80546164C164B1C1BA41004E035
:10026000013C134B53F824309847002CF8DC284607
:1002700002F0C4FABABADECA00000020540200201C
:10028000C0030008D8030008785634123254769818
:1002900058020020F0990120D8030008E803000864
:1002A000E8030008E8030008E8030008E803000882
:1002B000E8030008E803000808B5FFF765FF00BF82
:1002C000FEE700BF1EF0040F0CBFEFF30880EFF352
:1002D00009807146364A10472DE9F04182B0074641
:1002E0008846084B5D6B9C6B9E6A074802F0C8FA13
:1002F000CDF80080384631462A46234602F016FBE8
:10030000FEE700BF00ED00E044500008FEE700BF3C
:100310001EF0040F0CBFEFF30880EFF30980714665
:10032000244A10472DE9F04182B007468846084B21
:100330005D6B9C6B9E6A074802F0A2FACDF80080C4
:10034000384631462A46234602F0F0FAFEE700BF5F
:1003500000ED00E0545000081EF0040F0CBFEFF356
:100360000880EFF309807146134A10472DE9F041E8
:1003700082B007468846084B5D6B9C6B9E6A0748B7
:1003800002F07EFACDF80080384631462A462346F0
:1003900002F0CCFAFEE700BF00ED00E0605000087C
:1003A000FEE700BFFEE700BFFEE700BF70470000AA
:1003B000D9020008250300086D030008FEE700BF0E
:1003C0003051000800000020580200203051000881
:1003D000000000100000001058020020F4990120D5
:0803E0000000001000000010F5
:1003E80010B5044601F008FD064BA3FB0030800958
:1003F80000F0B4F84FF0FF302146002200F058F822
:10040800002010BDD34D621008B50B4B1A6842F49A
:1004180000721A601A6842F480621A601A6842F41C
:1004280080721A60032000F025F80F20FFF7D8FF2C
:1004380000F002FC002008BD003C0240024A13689C
:1004480001331360704700BF5C020020014B18683D
:10045800704700BF5C02002010B582B00190FFF722
:10046800F5FF0446FFF7F2FF001B019B9842F9D302
:1004780002B010BD10B50446C31E042B03D90A48A8
:10048800A42102F0EDF904F00700084AD36823F428
:10049800E0631B041B0C43EA002040F0BF6040F4FB
:1004A8000030D06010BD00BF444D000800ED00E0F2
:1004B80070B504460E4615460F2A03D91A48BC21C2
:1004C80002F0CEF90F2E03D91748BD2102F0C8F962
:1004D800164BDB68C3F30223C3F10702042A28BFC3
:1004E8000422191D062901D9D81E00E00020012385
:1004F80003FA02F2013A324002FA00F183405A1E2E
:100508002A400A43002C06DA04F00F041201D2B282
:10051800074B1A5570BD1201D2B204F1604404F5BC
:10052800614484F8002370BD444D000800ED00E0EC
:1005380014ED00E010B5041E03DA0648D02102F0DD
:100548008FF9610904F01F040123A340024A42F80D
:10055800213010BD444D000800E100E00138B0F141
:10056800807F0AD2064B5860F021064A82F8231091
:100578000020986007221A6070470120704700BF6A
:1005880010E000E000ED00E01E4BDB6813F0100FF8
:1005980004D01D4AD36943F01003D361194BDB68BB
:1005A80013F0200F04D0184AD36943F00803D3612D
:1005B800144BDB6813F0400F04D0134AD36943F09F
:1005C8000403D3610F4BDB6813F0800F04D00E4A8D
:1005D800D36943F00203D3610A4BDB6813F4807FCD
:1005E80004D0094AD36943F00103D361054BDB68A2
:1005F80013F0020F04D0044AD36943F02003D361F7
:10060800704700BF003C0240F402002038B50446A1
:100618000D4600F17843B3F5801F04D3084840F233
:10062800C62102F01DF9074B1A6922F440721A61BB
:100638001A691A611A6942F001021A61257038BDF7
:10064800784D0008003C024038B504460D4600F1DC
:100658007843B3F5801F04D3094840F2AD2102F076
:10066800FFF8084B1A6922F440721A611A6942F4B9
:1006780080721A611A6942F001021A61258038BD38
:10068800784D0008003C024038B504460D4600F19C
:100698007843B3F5801F04D309484FF4257102F05D
:1006A800DFF8084B1A6922F440721A611A6942F499
:1006B80000721A611A6942F001021A61256038BD98
:1006C800784D0008003C024070B5064614461D46A9
:1006D80000F17843B3F5801F04D30A4840F27A2129
:1006E80002F0BEF8084B1A6922F440721A611A69BE
:1006F80042F440721A611A6942F001021A61C6E9AD
:10070800004570BD784D0008003C0240064B1B694F
:10071800002B07DA044B054A5A6002F188325A6006
:100728000020704701207047003C024023016745C4
:10073800034A136943F0004313610020704700BF68
:10074800003C024038B504460022114BDA61FFF73D
:100758007DFE054608E0B4F1FF3F05D094B1FFF7F0
:1007680075FE401BA0420FD80A4BDB6813F4803F8C
:10077800F1D1084BDB6813F4F97F07D0FFF704FFCA
:10078800012038BD032038BD032038BD002038BD06
:10079800F4020020003C0240F8B51F461F4B1B7EA8
:1007A800012B39D004460E46154601221B4B1A76FA
:1007B800032803D91A48B72102F052F84CF25030F6
:1007C800FFF7C0FF034610BB24B93046E9B2FFF774
:1007D8001DFF12E0012C04D13046A9B2FFF734FF07
:1007E8000BE0022C04D130462946FFF74DFF04E008
:1007F80030462A463B46FFF767FF4CF25030FFF77A
:10080800A1FF034607490A6922F001020A61002193
:10081800024A11761846F8BD0220F8BDF4020020FD
:10082800784D0008003C024038B504460D460B28B8
:1008380004D91C4840F2134102F012F8032D04D9E0
:10084800184840F2144102F00BF835B1012D06D0DA
:10085800022D07D14FF4007106E0002104E04FF4A7
:10086800807101E04FF440710F4B1A6922F4407215
:100878001A611A690A431A611A6922F0F8021A61A0
:10088800F82292FAA2F2B2FA82F2D2B2944044F07A
:1008980002041A6914431C611A6942F480321A610D
:1008A80038BD00BFA84D0008003C02402DE9F84FB4
:1008B80080460F46A04B984223D003F580639842A8
:1008C8001FD003F5806398421BD003F580639842DC
:1008D80017D003F58063984213D003F580639842DC
:1008E8000FD003F5806398420BD003F580639842DC
:1008F80007D003F58063984203D09048C52101F0E2
:10090800AFFF3B881BB98D48C62101F0A9FF7B6862
:10091800012B22D9112B20D0022B1ED0122B1CD038
:10092800874A934219D002F58012934215D002F5F6
:100938008012934211D0A2F5F81293420DD002F51D
:100948008012934209D002F58012934205D0032BFE
:1009580003D07A48C72101F083FFBB68022B03D973
:100968007648C82101F07CFF002423E1A146012537
:10097800A5403B6803EA050AAA4540F01A817B684E
:10098800022B01D0122B4AD13B69C3B3092B36D0B5
:10099800ABB3A3B39BB393B3012B30D02FD0022BAF
:1009A8002DD02CD02BD0032B29D0042B27D026D008
:1009B80025D0052B23D022D0092B20D0062B1ED0E2
:1009C800092B1CD0072B1AD019D018D0082B16D0F9
:1009D80015D014D0092B12D011D00A2B0FD00ED05D
:1009E8000B2B0CD00C2B0AD009D00D2B07D00C2BBD
:1009F80005D00F2B03D05148D92101F031FFE6086B
:100A0800083658F8261004F0070080000F238340AA
:100A180021EA03023B698340134348F82630D8F89B
:100A280000304FEA440B032606FA0BF6F64306EAB3
:100A380003027B6803F0030303FA0BF31343C8F8BC
:100A480000307B685A1E012A03D9112B01D0122BC2
:100A58001CD1FB68032B03D93848EC2101F000FFB7
:100A6800D8F8083006EA0302FB6803FA0BF31343CD
:100A7800C8F80830D8F8043023EA05037D68C5F3C0
:100A8800001505FA09F51D43C8F80450D8F80C30CC
:100A98003340BE6806FA0BF61E43C8F80C607B6844
:100AA80013F0805F00F08580264A536C43F480433E
:100AB8005364A308991CA2F5803252F8211004F05F
:100AC800030080000F22824021EA02011A4A904561
:100AD8003AD002F5806290452BD002F580629045AD
:100AE80025D002F5806290451FD002F580629045BE
:100AF80019D002F58062904513D002F580629045C6
:100B08000DD002F58062904507D002F580629045CD
:100B180001D1082219E0092217E0072215E0062270
:100B280013E0052211E004220FE003220DE0022267
:100B38000BE0012209E000BF00000240DC4D000884
:100B48000000111000380240002282400A4302339C
:100B58001B4941F823201B4B1A686FEA0A0303EA72
:100B68000201786810F4803F01D04AEA0201154A70
:100B78001160526803EA0201786810F4003F01D05E
:100B88004AEA02010F4A5160926803EA0201786852
:100B980010F4801F01D04AEA02010A4A9160D26823
:100BA8001340796811F4001F01D04AEA0203054A8C
:100BB800D36001340F2C7FF6D9AEBDE8F88F00BFA3
:100BC80000380140003C014070B5064615460C4609
:100BD80021B909484FF4D67101F042FE012D04D91C
:100BE800054840F2AD1101F03BFE0DB1B46170BD96
:100BF8002404B46170BD00BFDC4D000838B505465B
:100C08000C4621B9044840F2C31101F029FE6B6972
:100C18005C406C6138BD00BFDC4D0008704700BF08
:100C280008B5044B5B69034203D0024B5861FFF7D8
:100C3800F5FF08BD003C0140704700BF2DE9F047B3
:100C480082B007460D46D0F80080CB005B1A9B00A7
:100C580003445E6C9A6CB61A9B6B9E4200D91E4682
:100C680016F1030901D509F103094FEAA90921E0A1
:100C78005E1AC5EBC5039B003B449B6B9E4200D9A3
:100C88001E4616F1030901D509F103094FEAA9091E
:100C9800EC00641BA4003C44E16B3B7C00934046A1
:100CA800EAB2B3B201F05AFBE36B3344E363A36CDB
:100CB8003344A364424608EB451303F510639B696C
:100CC8009BB24B4509D9EB005B1B9B003B44996CDD
:100CD8005B6C994201D2002BCAD1002E07DC01239C
:100CE800AB40D2F8341821EA0303C2F834380020A4
:100CF80002B0BDE8F08700BF002872D0F0B589B017
:100D080004460368B3F1A04F06D0384A934203D093
:100D18003748992101F0A4FD032384F8793320464C
:100D280002F0BAFD206801F0E1F8254655F8107B7D
:100D38006E460FCD0FC695E80F0086E80F00231DFD
:100D48000ECB384601F090F82068002101F0D4F865
:100D5800002210E0D3009B1A9B002344012183F852
:100D6800311083F83020DA86002183F83310996334
:100D7800D963596401320E2AECD9002218E0D30055
:100D88009B1A9B002344002183F8D51183F8D421B2
:100D9800DA8683F8D711C3F8DC11C3F8E011C3F879
:100DA800E811236802F1400003EB80035960013227
:100DB8000E2AE4D9254655F8107B6E460FCD0FC68E
:100DC80095E80F0086E80F00231D0ECB384601F08A
:100DD800D3F8012384F87933206801F08DFC0020D2
:100DE80001E00120704709B0F0BD00BF00000440D9
:100DF8000C4E000890F87833012B0ED010B504463D
:100E0800012380F87833006801F06AFC206801F05B
:100E180067F8002084F8780310BD0220704700BFEF
:100E28002DE9F84F04460668304601F0A1FC002879
:100E380040F01B82206801F06BFC002800F015824E
:100E4800206801F065FC10F0020F02D0236802222E
:100E58005A61206801F05CFC10F4002F5CD0206817
:100E680001F05AFC0746002553E017F0010F4ED059
:100E78005FFA85F92068494601F05EFC804610F06B
:100E8800010F31D006EB45130122C3F8082B03F5F7
:100E980030632269012A12D1EA00521B92002244CF
:100EA80002F5EC71D2F8DC011B69C3F31203C01A16
:100EB800C2F8EC01D2F8E0214B6813448B6020465D
:100EC800494602F041FD2369012B0DD165B9C5EBF7
:100ED800C5039B002344D3F8E8312BB920680121CE
:100EE80004F55F7201F064FC18F0080F07D0204683
:100EF80002F020FD06EB45130822C3F8082B18F072
:100F0800100F04D006EB45131022C3F8082B013547
:100F18007F08002FA9D100E00025206801F0F8FB28
:100F280010F4802F6BD0206801F0FEFB07460025E7
:100F380063E017F0010F5ED05FFA85F92068494633
:100F480001F004FC804610F0010F2DD0012202FAB6
:100F580005F0D6F8343823EA0003C6F8343806EB2F
:100F68004513C3F808292369934209D1EB005B1B99
:100F78009B00234403F13802D96B9B6B0B445360ED
:100F88002046494602F0ECFC2369012B0CD15DB9DF
:100F9800C5EBC5039B0023445B6C2BB9206801217A
:100FA80004F55F7201F004FC18F0080F04D006EB9A
:100FB80045130822C3F8082918F0100F04D006EBCF
:100FC80045131022C3F8082918F0400F04D006EB87
:100FD80045134022C3F8082918F0020F04D006EB85
:100FE80045130222C3F8082918F0800F03D02046C1
:100FF8002946FFF723FE01357F08002F99D1206885
:1010080001F086FB00280CDAD6F8043823F0010337
:10101800C6F80438204602F0CBFC23684FF00042A3
:101028005A61206801F074FB10F4006F0BD0D6F8F9
:10103800083813F0010F02D0204602F0B3FC2368F1
:101048004FF400625A61206801F062FB10F4805F7F
:101058004ED0374606F50068D8F8043023F001036F
:10106800C8F804302068002100F05CFF002207E087
:1010780007EB4213FF21C3F80819C3F8081B013214
:1010880063689342F4D84FF0FF33C8F81830D8F8A3
:101098001C3043F00113C8F81C30A36A63B1D8F8B8
:1010A800843043F00B03C8F88430D8F8443043F058
:1010B8000B03C8F844300BE0D8F8143043F00B03A6
:1010C800C8F81430D8F8103043F00B03C8F81030C3
:1010D800D6F8003823F4FE63C6F800382068217C6F
:1010E80004F55F7201F064FB23684FF480525A6183
:1010F800206801F00DFB10F4005F26D0206801F095
:101108003BFB2268D36823F47053D360206800F057
:10111800D5FF50B90023E3604FF400736361226880
:10112800D36843F41053D36008E00323E3604023FB
:1011380063612268D36843F4A053D360204602F069
:1011480021FC23684FF400525A61206801F0E0FA4C
:1011580010F0100F42D02268936923F010039361B6
:10116800376A07F00F08C7F34343022B1CD147F631
:10117800F0731F402DD03F094FEAC809C8EB090A90
:101188004FEA8A0AA2443046DAF8E0113A4601F0FA
:1011980025FADAF8E0313B44CAF8E031DAF8EC3104
:1011A8001F44CAF8EC7114E0062B12D1304604F53E
:1011B8005F71082201F012FAC7F30A174FEAC80351
:1011C800C8EB030292002244D2F8EC313B44C2F847
:1011D800EC312268936943F010039361206801F0B1
:1011E80097FA10F0080F05D0204602F0C5FB2368D7
:1011F80008225A61206801F08BFA10F4801F07D08A
:101208002046E9B202F0E0FB23684FF480125A61ED
:10121800206801F07DFA10F4001F07D02046E9B2DB
:1012280002F0CCFB23684FF400125A61206801F0E9
:101238006FFA10F0804F06D0204602F0CBFB2368EF
:101248004FF080425A61206801F062FA10F0040FF2
:101258000BD023685D6815F0040F02D0204602F019
:10126800BFFB23685A6815435D60BDE8F88F00BF6F
:1012780090F87833012B0BD010B50446012380F881
:101288007833006801F01CFA002084F8780310BD58
:101298000220704738B50546C8B210F0800F07D055
:1012A80001F07F04C4EBC404A40030342C4407E0EC
:1012B80001F07F04C4EBC404A4002C4404F5EA74D0
:1012C80001F07F012170C0096070A260E37000B175
:1012D800E180022B01D10023237195F87833012B8B
:1012E8000AD0012385F878332868214600F006FFE4
:1012F800002085F8780338BD022038BD10B50446B3
:10130800CAB212F0800F07D001F07F03C3EBC3030A
:101318009B003033034407E001F07F03C3EBC303B2
:101328009B00034403F5EA7301F07F011970D209A9
:101338005A7094F87823012A0AD0012284F8782375
:101348002068194600F020FF002084F8780310BDBB
:10135800022010BD70B501F07F06F400A51BAD009A
:10136800054405F5EA712C46C5F8E021C5F8E831D1
:101378000023C4F8EC3184F8D53184F8D4610369CA
:10138800012B05D1C6EBC604A4000444C4F8E4212B
:1013980090F87823012A11D00446012280F8782396
:1013A80026B90068DAB200F02DFF03E00068DAB26F
:1013B80000F0E8FF002084F8780370BD022070BDBB
:1013C80001F07F01C1EBC10189000844B0F8EC01CC
:1013D800704700BF70B501F07F06F400A51BAD0093
:1013E80030354119A41BA4000444E263636400235C
:1013F800A364012384F8313084F830600369012B39
:1014080004D1C6EBC604A4000444226490F87823EF
:10141800012A11D00446012280F8782326B90068F1
:10142800DAB200F0EFFE03E00068DAB200F0AAFFDB
:10143800002084F8780370BD022070BD38B50446DA
:10144800CAB212F0800F07D001F07F03C3EBC303C9
:101458009B003033034405E0C1EBC1039B00034408
:1014680003F5EA730120987001F07F051D70D20919
:101478005A7094F87823824210D084F87803206850
:10148800194601F0C1F82DB92068217C04F55F7276
:1014980001F08EF9002084F8780338BD022038BDA9
:1014A80010B50446CAB212F0800F07D001F07F03CE
:1014B800C3EBC3039B003033034405E0C1EBC10316
:1014C8009B00034403F5EA730020987001F07F0144
:1014D8001970D2095A7094F87823012A0AD0012287
:1014E80084F878232068194601F0BAF8002084F8B7
:1014F800780310BD022010BD90F87833012B14D06A
:1015080010B50446012380F8783311F0800F05D018
:10151800006801F07F0100F005FD02E0006800F0BE
:1015280013FD002084F8780310BD0220704700BF27
:1015380030B40468636A19B943EA0240A06218E04B
:101548000D46A06A03EB1040002308E003F14001B8
:1015580004EB8101496800EB11400133DBB2691EDD
:101568008B42F3DB40EA024005F13F0104EB8101C5
:101578004860002030BC70470368596200207047FB
:1015880038B5044603680F2B04D9B34840F21B1141
:1015980001F066F9236813F0010F5FD06368012B2F
:1015A80006D9052B04D0AC484FF4907101F058F9D6
:1015B800AA4B9B6803F00C03042B0AD0A74B9B682B
:1015C80003F00C03082B0DD1A44B5B6813F4800FB8
:1015D80008D0A24B1B6813F4003F3FD06368002B70
:1015E8003CD1FCE100229E4B1A70FEF72FFF054606
:1015F80007E0FEF72BFF401B41F28833984200F2C8
:10160800F081964B1B6813F4003FF2D12279944B7A
:101618001A7063688BB1FEF719FF054607E0FEF7FD
:1016280015FF401B41F28833984200F2DC818B4B56
:101638001B6813F4003FF2D010E0FEF707FF0546E1
:1016480007E0FEF703FF401B41F28833984200F29F
:10165800CC81824B1B6813F4003FF2D1236813F04E
:10166800020F6DD0E368012B04D97B484FF4B071A9
:1016780001F0F6F823691F2B04D9774840F261116D
:1016880001F0EEF8754B9B6813F00C0F0AD0734B02
:101698009B6803F00C03082B1CD1704B5B6813F498
:1016A800800F17D16D4B1B6813F0020F03D0E3684E
:1016B800012B40F09C816948026822F0F8012269F8
:1016C800F82393FAA3F3B3FA83F3DBB29A400A43FD
:1016D800026035E0E3680BB30122624B1A60FEF743
:1016E800B5FE054605E0FEF7B1FE401B642800F292
:1016F80080815A4B1B6813F0020FF4D057480368D7
:1017080023F0F8012269F82393FAA3F3B3FA83F3D9
:10171800DBB29A4041EA0203036011E00022514B18
:101728001A60FEF793FE054605E0FEF78FFE401BA4
:10173800642800F26081494B1B6813F0020FF4D152
:10174800236813F0080F2ED06369012B04D942488F
:101758004FF4D07101F084F8636993B10122424BD0
:101768001A60FEF773FE054605E0FEF76FFE401BA4
:10177800642800F24281394B5B6F13F0020FF4D0FA
:1017880011E00022384B1A60FEF760FE054605E0BE
:10179800FEF75CFE401B642800F231812F4B5B6F23
:1017A80013F0020FF4D1236813F0040F6FD0A3686D
:1017B800012B06D9052B04D027484FF4E57101F019
:1017C8004FF8264A136C43F080531364A2F5E432B1
:1017D800136843F480731360FEF738FE054605E08E
:1017E800FEF734FE401B642800F20B811F4B1B6878
:1017F80013F4807FF4D000221D4B1A70FEF726FEEA
:10180800054607E0FEF722FE401B41F28833984266
:1018180000F2F980114B1B6F13F0020FF2D1227AFC
:10182800134B1A70A368012B11D1FEF70FFE054662
:1018380007E0FEF70BFE401B41F28833984200F2A6
:10184800E480064B1B6F13F0020FF2D01FE0FEF787
:10185800FDFD054616E000BF4C4E0008003802406A
:101868000238024000004742800E474200700040A4
:1018780070380240FEF7EAFD401B41F28833984277
:1018880000F2C580684B1B6F13F0020FF2D1A369F9
:10189800022B04D9654840F20E2100F0E1FFA3694C
:1018A800002B00F0B680604A926802F00C02082A09
:1018B80000F0B180022B7FD1E3693BB1B3F5800F13
:1018C80004D05A4840F2172100F0CAFF236A3F2B80
:1018D80004D956484FF4067100F0C2FF636AC03B52
:1018E800F02B04D9514840F2192100F0B9FFA36A3E
:1018F800022B0AD0042B08D0062B06D0082B04D0C4
:101908004A4840F21A2100F0ABFFE36A043B0B2B74
:1019180004D9464840F21B2100F0A2FF0022444BA4
:101928001A60FEF793FD054604E0FEF78FFD401BA5
:10193800642872D83C4B1B6813F0007FF5D1216AEC
:10194800626A47F6C07393FAA3F3B3FA83F3DBB280
:101958009A401143A36A5B08013B4FF4403292FA64
:10196800A2F2B2FA82F2D2B293400B43E26943EA9E
:101978000201E36A4FF0706292FAA2F2B2FA82F2BE
:10198800D2B203FA02F241EA020343F00053264AB4
:1019980053600122264B1A60FEF758FD044604E006
:1019A800FEF754FD001B642839D81F4B1B6813F041
:1019B800007FF5D0002038BD00221D4B1A60FEF7CD
:1019C80045FD044604E0FEF741FD001B642828D8C5
:1019D800154B1B6813F0007FF5D1002038BD01209E
:1019E80038BD032038BD032038BD032038BD012091
:1019F80038BD032038BD032038BD032038BD03207F
:101A080038BD032038BD032038BD032038BD03206E
:101A180038BD002038BD012038BD032038BD032063
:101A280038BD032038BD00BF003802404C4E0008C6
:101A38006000474270B504460D460368013B0E2B13
:101A480004D9884840F27E2100F00AFF072D04D906
:101A5800844840F27F2100F003FF834B1B6803F0AA
:101A68000F03AB4280F08B80EAB27F4B1A701B6881
:101A780003F00F03AB4240F05181236813F0020FCB
:101A88001DD0A368A3B1802B12D0902B10D0A02B0F
:101A98000ED0B02B0CD0C02B0AD0D02B08D0E02B06
:101AA80006D0F02B04D06F4840F2952100F0D8FE04
:101AB8006E498B6823F0F002A36813438B60236898
:101AC80013F0010F00F0E8806368022B04D9654821
:101AD8004FF4277100F0C4FE6268012A05D1634BF8
:101AE8001B6813F4003F0ED11AE1022A05D15F4B9F
:101AF8001B6813F0007F06D114E15C4B1B6813F0E0
:101B0800020F00F0118159498B6823F00303134336
:101B18008B60FEF79BFC05466368012B0FD107E03D
:101B2800FEF794FC401B41F28833984200F2FE8095
:101B38004E4B9B6803F00C03042BF1D1ACE0022B55
:101B480017D107E0FEF782FC401B41F28833984228
:101B580000F2EE80454B9B6803F00C03082BF1D193
:101B68009AE0FEF773FC401B41F28833984200F27A
:101B7800E1803E4B9B6813F00C0FF2D18CE0236898
:101B880013F0020F1DD0A368A3B1802B12D0902BA5
:101B980010D0A02B0ED0B02B0CD0C02B0AD0D02B3D
:101BA80008D0E02B06D0F02B04D02E484FF4397122
:101BB80000F056FE2D498B6823F0F002A36813430A
:101BC8008B60236813F0010F5ED06368022B04D981
:101BD800244840F2EB2100F043FE6268012A05D157
:101BE800224B1B6813F4003F0ED1A5E0022A05D151
:101BF8001E4B1B6813F0007F06D19FE01B4B1B6830
:101C080013F0020F00F09C8018498B6823F003033F
:101C180013438B60FEF71AFC06466368012B0FD14D
:101C280007E0FEF713FC801B41F28833984200F26C
:101C380089800E4B9B6803F00C03042BF1D123E041
:101C4800022B1CD106E0FEF701FC801B41F2883311
:101C5800984279D8054B9B6803F00C03082BF2D106
:101C680012E000BF4C4E0008003C02400038024021
:101C7800FEF7ECFB801B41F28833984266D8354B5F
:101C88009B6813F00C0FF3D1EAB2334B1A701B6840
:101C980003F00F03AB425BD1236813F0040F19D094
:101CA800E36883B1B3F5805F0DD0B3F5A05F0AD0C8
:101CB800B3F5C05F07D0B3F5E05F04D0274840F222
:101CC8003B3100F0CDFD23498B6823F4E052E368F3
:101CD80013438B60236813F0080F1AD0236983B16C
:101CE800B3F5805F0DD0B3F5A05F0AD0B3F5C05F40
:101CF80007D0B3F5E05F04D0184840F2423100F055
:101D0800AFFD144A936823F46043216943EAC10391
:101D180093600F20FEF764FB002070BD012070BDAA
:101D2800012070BD012070BD012070BD032070BD71
:101D3800032070BD032070BD012070BD012070BD5F
:101D4800012070BD032070BD032070BD032070BD4D
:101D5800012070BD00380240003C02404C4E000893
:101D6800224B9B6803F00C03042B3DD0082B01D0B9
:101D78001F4870471D4B586800F03F005B6813F41C
:101D8800800F10D01B4BB3FBF0F3184A506847F68E
:101D9800C072104092FAA2F2B2FA82F2D2B2D040E5
:101DA80000FB03F30FE0124BB3FBF0F30F4A50684C
:101DB80047F6C072104092FAA2F2B2FA82F2D2B298
:101DC800D04000FB03F3094A506800F440304FF458
:101DD800403292FAA2F2B2FA82F2D2B2D040013084
:101DE8004000B3FBF0F070470248704700380240EB
:101DF8000024F40000127A0008B5FFF7B1FF094B80
:101E08009B6803F0F002F02393FAA3F3B3FA83F389
:101E1800DBB222FA03F3044AD35CD840034B1860C0
:101E280008BD00BF003802403C4E00080C000020EE
:101E38000C4B01E0013B10D00269002AFADA036971
:101E480043F001030361074B01E0013B07D002693E
:101E580012F0010FF9D100207047032070470320CA
:101E6800704700BF400D030084B010B5044603A8B6
:101E780080E80E00089B012B18D1A36B23F4803354
:101E8800A363E36823F4840323F04003E360E36877
:101E980023F44013E3600D9B012B03D1E36843F463
:101EA8008013E3602046FFF7C3FF09E0E36843F0CF
:101EB8004003E3602046FFF7BBFF4FF48033A36382
:101EC800069B012B07D1A36843F00C03A360A3680A
:101ED80043F02003A3600020BDE8104004B0704721
:101EE800836843F00103836000207047836823F010
:101EF800010383600020704708B5C36823F0C0431E
:101F0800C360012904D1C36843F00053C36004E0EF
:101F180019B9C36843F08043C3603220FEF79CFAC6
:101F2800002008BD490141F020010161054B01E095
:101F3800013B05D0026912F0200FF9D1002070474B
:101F480003207047400D030010230361054B01E097
:101F5800013B05D0026912F0100FF9D1002070473B
:101F680003207047400D0300D0F800381943C0F82B
:101F780000180020704700BF84B0F8B5044607A8D1
:101F880080E80E00A36B43F40023A3630F9E1EB9E1
:101F9800A36B43F40013A3630023C4F8003E04F5C5
:101FA8000065D4F80038C4F800380C9B012B0BD11D
:101FB800099B23B920460021FFF7D6FF08E02046F9
:101FC8000121FFF7D1FF03E020460321FFF7CCFFF3
:101FD80020461021FFF7A6FF2046FFF7B5FF002394
:101FE8002B616B614FF0FF32AA61EB61079848B330
:101FF80004F51063002219461F68002F03DA4FF01A
:1020080090471F6001E000271F6000270F61FF272E
:102018008F60013220338242EDD304F53063002211
:1020280019461F68002F03DA4FF090471F6001E040
:1020380000271F6000270F61FF278F6001322033C0
:102048008242EDD12B6923F480732B610A9B012B0B
:102058000ED1184B2B632B6B43F4803343F00303EF
:102068002B632B6B0023A3616FF08043636109E04E
:102078000022A2616FF0804262611BB9A36943F03C
:102088001003A361A2690C4B1343A3610D9B1BB101
:10209800A36943F00803A361012E05D1A36943F0A6
:1020A800804343F00403A3610020BDE8F84004B076
:1020B800704700BF0001800000383C80D0F8083825
:1020C80000F5006013F0060F10D0836803F00603D4
:1020D800022B0DD0836803F00603062B0AD0836811
:1020E80003F00603042B07D1022070470020704735
:1020F80003207047032070470020704770B44B7866
:10210800012B1FD1D0F81C280D78AB409BB213438C
:10211800C0F81C380E78730103F510631A5812F4CE
:10212800004F2DD11C5844F0805545F400458A686D
:10213800C2F30A042C43CA7844EA824242EA86522D
:102148001A501DE0D0F81C280D784FF48033AB40AE
:102158001343C0F81C380B785B0103F530631A5839
:1021680012F4004F0CD11A5842F0805444F4004441
:102178008A68C2F30A022243C97842EA81421A50A5
:10218800002070BC704700BF30B44B78012B1BD1C6
:10219800D0F83C580C7803FA04F4A4B225EA0404F5
:1021A800C0F83C48D0F81C480D78AB409BB224EAF4
:1021B8000303C0F81C380B785B0103F510631A5849
:1021C80022F400421A5019E0D0F83C480D78012258
:1021D80002FA05F524EA0544C0F83C48D0F81C4842
:1021E8000D78AA4024EA0242C0F81C280B785B014B
:1021F80003F530631A5822F400421A50002030BC0C
:10220800704700BF30B44B78012B68D14B69EBB9EC
:102218000B7800EB4313D3F8104924F0FF5424F44F
:10222800C014C3F810490B7800EB4313D3F81049D6
:1022380044F40024C3F810490B7800EB4313D3F897
:102248001049E40CE404C3F810492CE00B7800EBC7
:102258004313D3F81049E40CE404C3F810490B788D
:1022680000EB4313D3F8104924F0FF5424F4C014AE
:10227800C3F810498B684C699C4200D94B610B78B4
:1022880000EB4313D3F8104944F40024C3F8104971
:102298000B7800EB4313D3F810594C69C4F31204BC
:1022A8002C43C3F81049012A06D10B7800EB4313DD
:1022B8000A69C3F8142909E04B693BB1D0F83428FE
:1022C8000D780123AB401343C0F834380B785B0119
:1022D80003F51063C25842F00442C2503BE00B7849
:1022E80000EB4313D3F8104BE40CE404C3F8104B91
:1022F8000B7800EB4313D3F8104B24F0FF5424F46D
:10230800C014C3F8104B4B690BB18B684B610B7849
:1023180000EB4313D3F8104B44F40024C3F8104BDC
:102328000B7800EB4313D3F8105B8C68C4F31204EA
:102338002C43C3F8104B012A05D10B7800EB43134B
:10234800CA68C3F8142B0B785B0103F53063C258D5
:1023580042F00442C250002030BC704730B49DF8AF
:10236800084064B903339B1009D000F5805000EB96
:10237800023251F8045B15600134A342F9D1002000
:1023880030BC704770B582B04B78012B40F0A98003
:102398004B69EBB90B7800EB4313D3F8104924F0E1
:1023A800FF5424F4C014C3F810490B7800EB43130E
:1023B800D3F8104944F40024C3F810490B7800EB13
:1023C8004313D3F81049E40CE404C3F8104945E07A
:1023D8000B7800EB4313D3F81049E40CE404C3F87A
:1023E80010490B7800EB4313D3F8104924F0FF543D
:1023F80024F4C014C3F810490C7800EB4414D4F842
:1024080010598E684B693344013BB3FBF6F3724EA7
:1024180006EAC3432B43C4F810390B7800EB431387
:10242800D3F810594C69C4F312042C43C3F810496B
:10243800CB78012B40F0C8800B7800EB4313D3F81E
:10244800104924F0C044C3F810490B7800EB43133B
:10245800D3F8104944F00054C3F81049012A06D1B2
:102468000B7800EB43130C69C3F814490CE0CB78E4
:10247800012B0CD04B6903B3D0F834480E780123F4
:10248800B3402343C0F83438CB78012B15D1D0F8AA
:10249800083813F4807F08D10B785B0103F51063CB
:1024A800C45844F00054C45007E00B785B0103F5AE
:1024B8001063C45844F08054C4500B785B0103F592
:1024C8001063C45844F00444C450CB78012B7FD126
:1024D80014460B46C9681A789B8A0094FFF73EFF9A
:1024E80076E00B7800EB4313D3F8104BE40CE404CC
:1024F800C3F8104B0B7800EB4313D3F8104B24F0C0
:10250800FF5424F4C014C3F8104B4B69A3B90B78DB
:1025180000EB4313D3F8105B8C68C4F312042C430C
:10252800C3F8104B0B7800EB4313D3F8104B44F46B
:102538000024C3F8104B1DE08D680C7800EB4414A0
:10254800D4F8106B2B44013BB3FBF5F39BB2224D3F
:1025580005EAC3453543C4F8105B0C7800EB441416
:10256800D4F8106B8D6805FB03F3C3F312033343F0
:10257800C4F8103B012A05D10B7800EB4313CA6855
:10258800C3F8142BCB78012B15D1D0F8083813F4E5
:10259800807F08D10B785B0103F53063C25842F0A5
:1025A8000052C25007E00B785B0103F53063C25854
:1025B80042F08052C2500B785B0103F53063C25879
:1025C80042F00442C25003E0012A7FF453AF47E7C8
:1025D800002002B070BD00BF0000F81F0332921047
:1025E8000FD030B40C46002300F580552D6844F810
:1025F800045B01339A42F7D101EB8201084630BCF3
:1026080070470846704700BF4B78012B13D10B78F1
:102618005B0103F51063C258002A03DBC25822F09D
:102628008042C2500B785B0103F51063C25842F434
:102638000012C25012E00B785B0103F53063C258F8
:10264800002A03DBC25822F08042C2500B785B019B
:1026580003F53063C25842F40012C250002070479C
:102668004B78012B15D10B785B0103F51063C25829
:1026780022F40012C250CB78023BDBB2012B1DD8EA
:102688000B785B0103F51063C25842F08052C250C8
:1026980014E00B785B0103F53063C25822F4001292
:1026A800C250CB78023BDBB2012B07D80B785B0119
:1026B80003F53063C25842F08052C2500020704780
:1026C800D0F8003823F4FE63C0F80038D0F800389A
:1026D800090101F4FE610B43C0F80038002070477F
:1026E80008B5D0F8043823F00203C0F804380320F2
:1026F800FDF7B2FE002008BD08B5D0F8043843F055
:102708000203C0F804380320FDF7A6FE002008BD28
:102718004369806918407047D0F8183800F50060A0
:10272800C0691840000C704700F50063D0F818081D
:10273800DB69184080B2704700F5306303EB411144
:102748008B6800F5006040691840704710B4D0F8F5
:102758001048D0F8343800EB4110D0F80809CB40C5
:10276800DB01DBB2234318405DF8044B704700BF20
:10277800406900F001007047D0F8003923F4FF6386
:1027880023F00703C0F8003900F500639A6802F0E7
:102798000602042A05D1D0F8002942F00302C0F845
:1027A80000295A6842F480725A600020704700BFBE
:1027B80010B40024C0F8104BD0F8104B44F4002497
:1027C800C0F8104BD0F8104B44F01804C0F8104B68
:1027D800D0F8104B44F0C044C0F8104B012905D183
:1027E800C0F8142B4FF08023C0F8003B00205DF8A0
:1027F800044B7047FEE700BF08B5034800F056F8E1
:102808000120FFF7F7FF00BF7C4E000808B50D4B0D
:102818001B6813B90C4A0B4B1A600A4B1A68C31C85
:1028280023F00303134409498B4206D901F03CFE07
:102838000C2303604FF0FF3008BD02490B601046BF
:1028480008BD00BF60020020F499012000FC0120AF
:1028580001230360014B0B60704700BF0400002098
:1028680008B503460A460348194600F005F8FFF77D
:10287800C3FF00BFD04E00080FB400B583B004AB4F
:1028880053F8042B01930848802101F0FFFE011E34
:1028980003DD054800F03EF80146084603B05DF840
:1028A80004EB04B0704700BF6802002010B504466E
:1028B80001F0BAFE0146204600F02CF8024801213A
:1028C80000F028F810BD00BFC04F000810B4002267
:1028D8001AE04FF06043D3F8803E13F0010F06D0A2
:1028E8004FF06043D3F8003E13F0010F01D11046BA
:1028F8000DE04FF060431B68002BFAD004784FF0CE
:1029080060431C70013201308A42E2D308465DF808
:10291800044B704708B5FFF7D9FF08BD08B500F0AC
:1029280079F808BDF8B504460D4617461E462648F0
:10293800FFF7A2FF25482168FFF79EFF244861683A
:10294800FFF79AFF2348A168FFF796FF2248E1683E
:10295800FFF792FF21482169FFF78EFF2048616940
:10296800FFF78AFF1F48A169FFF786FF1E48E16944
:10297800FFF782FF1D48FFF77FFF1D482946FFF735
:102988007BFF1C4CE16A1C48FFF776FF216B1B4854
:10299800FFF772FFE16B1A48FFF76EFF15F0800F23
:1029A80003D018483946FFF767FF15F4004F03D0E6
:1029B80015483146FFF760FF1448FFF75DFF1448DC
:1029C8000699FFF759FFF8BD284F0008384F00084F
:1029D800484F0008584F0008684F0008784F000813
:1029E800884F0008984F0008A84F0008B84F000803
:1029F800C44F000800ED00E0D44F0008E44F000881
:102A0800F44F00080450000814500008245000082F
:102A18002C5000080C4B1A6842F001021A60002181
:102A280099601A6822F0847222F480321A60074A88
:102A38005A601A6822F480221A60D9604FF0006246
:102A4800034B9A60704700BF0038024010300024E2
:102A580000ED00E012230B80004870473000002092
:102A680004230B80004870472C00002030B400235A
:102A780010E0040F092C03D8303401F8134002E0A9
:102A8800373401F8134000015C00013400250D556E
:102A98000133DBB29342ECD330BC704738B50A4BF4
:102AA8001B680A4A14680432106818180AD0084DBE
:102AB800A91C0822FFF7DAFF204605F112010422BB
:102AC800FFF7D4FF38BD00BF107AFF1F147AFF1F2D
:102AD8004400002008B51B230B80FFF7DFFF0148E7
:102AE80008BD00BF4400002008B50A4620B90548C3
:102AF800054901F0B7FB03E00448034901F0B2FBC4
:102B0800014808BD70500008180300208C500008C8
:102B180010B50A46034C0448214601F0A3FB2046A1
:102B280010BD00BF18030020A850000808B50A46C9
:102B380020B90548054901F095FB03E0024803491F
:102B480001F090FB014808BDBC50000818030020A4
:102B580008B50A4620B90548054901F083FB03E09A
:102B68000248034901F07EFB014808BDC85000082F
:102B7800180300203923038000487047A80000206C
:102B880039230380004870475C0100203923038003
:102B980000487047600000200A23038000487047FF
:102BA8009C00002038B50446037C6BB90121022241
:102BB8004FF4007300F05CFF2046822102224FF49C
:102BC800007300F055FF0AE001210222202300F0E3
:102BD8004FFF204682210222202300F049FF204691
:102BE80081210322042300F043FF41F27C0001F01D
:102BF80061FCC4F8180240B100F5835300251D7626
:102C0800204600F0E7F9284638BD012038BD00BF4E
:102C180010B50446012100F035FF2046822100F05E
:102C280031FF2046812100F02DFF204600F002FAF6
:102C3800D4F8180220B101F045FC0023C4F818327A
:102C4800002010BDF8B506460D46D0F818720B786E
:102C580013F0600467D0202C40F0DB800C79012C45
:102C68002BD14B78023B092B23D8DFE803F01A0B52
:102C780022222222222213058A7841F26C03FA507A
:102C88000024C9E007F583510C31012201F008FB4B
:102C98000024C1E04B881B0A07F583573B610024D9
:102CA800BAE007F583511031012201F0F9FA002446
:102CB800B2E001F09DF80224AEE0002C40F0AB80B9
:102CC8004A78FE2A02D0FF2A19D028E04A8882B919
:102CD800CA88012A0DD113F0800F0AD1D0F81C320E
:102CE800DB699847386030463946012201F0D8FA46
:102CF80092E03046294601F07BF802248CE04A88AD
:102D08003AB9CA882AB913F0800F02D100F084F9C1
:102D180082E03046294601F06BF802247CE001F09D
:102D280067F8022478E04B78013B0A2B74D8DFE877
:102D380003F03C73737373067373731E2F004B8811
:102D48001B0A222B05D1CA88322A28BF32223349CE
:102D580009E0212B05D1CA88092A28BF0922304950
:102D680001E000210A46304601F09AFA54E00D7954
:102D78002DB9391D012201F093FA2C464CE0012DA2
:102D88004AD107F583511431012201F089FA43E051
:102D98000B791BB98A787A601C463DE0012B3BD140
:102DA8008B7807F583577B6136E00F79A7BB3946E7
:102DB80000F070FE3046297900F064FE95F9043081
:102DC800002B10DA337C3BB93046822102224FF4C3
:102DD800007300F04DFE16E03046822102222023C7
:102DE80000F046FE0FE0337C3BB930460121022259
:102DF8004FF4007300F03CFE05E03046012102224A
:102E0800202300F035FE3046297900F0D5F93C46FC
:102E180002E0002400E000242046F8BDF000002075
:102E2800E400002008B5012906D1D0F8183203F5CE
:102E3800835300221A7603E0022901D100F022F917
:102E4800002008BD08B500F09BF9002008BD00BFB0
:102E580009B1C0F81C120020704700BFC8230B60DE
:102E68004FF4007313800020704700BF00207047A4
:102E7800002070470020704708B5002303E00021B8
:102E88000F4AD1540133B3F5C83FF8D3FDF73EFCE0
:102E9800002304E00B4AD15C094AD1540133B3F54D
:102EA800C83FF7D3FDF744FC002001F0DBFA02200D
:102EB80001F0D8FA032001F0D5FA002008BD00BFC0
:102EC800180400200000040838B552025B020020F4
:102ED80004E01418054D2C5D0C5401309842F8D3C9
:102EE800002001F0BFFA002038BD00BF1804002000
:102EF80070B552025B02002004E014180E5C054D08
:102F08002E5501309842F8D3022001F0ABFA002088
:102F180070BD00BF1804002010B5FDF7F7FB0620B0
:102F28000221FDF781FC002408E000200849214423
:102F3800084B1A5D0023FDF72FFC0134B4F5C83F98
:102F4800F3D3FDF7F5FB012001F08CFA002010BD4A
:102F5800000004081804002038B50546D0F81842C7
:102F680041F21803E35C43B941F21403E35823B177
:102F7800637A13B9012100F095FD2846822100F0FB
:102F880091FD637A022B07D12846012104F580526E
:102F98000C321F2300F0BEFD38BD00BF38B50D460A
:102FA800D0F8181241F21403CB589A4228BF1A4697
:102FB80093B241F234040A59D21A0A51002441F258
:102FC80038028C5404220A7282212A4600F09AFDA3
:102FD80038BD00BF38B50546D0F818420020207229
:102FE800607241F25D03E05441F25C03E054D5F8AD
:102FF8001C321B6898472846012100F04BFD2846E3
:10300800822100F047FD2846012104F580520C3248
:103018001F2300F07FFD38BD08B5D0F81822002323
:1030280013720121517202F580520C321F2300F0F5
:1030380071FD08BD10B5D0F81842D0F81C325B6895
:1030480098470023237210BD38B50546D0F81842BA
:1030580041F22C020A4BA35041F23803E1540023F9
:103068002372822122440D2300F04CFD28460121C1
:1030780004F580520C321F2300F04CFD38BD00BF10
:103088005553425310B50446D0F81822137A022B30
:1030980003D014D3042B0FD910BD41F21903D15C0E
:1030A80002F580521B3200F097FB002807DA204611
:1030B8000121FFF7C9FF10BD0021FFF7C5FF10BDB3
:1030C80038B50546D0F8184241F21003E25841F2EB
:1030D8003003E25041F21403E25841F23403E25063
:1030E800012100F01FFD1F2814D141F20C03E25802
:1030F80003F1432303F5840349339A420AD141F289
:103108001903E15C012905D841F21A03E35C0BB10C
:10311800102B0DD9284641F21903E15C0522202322
:1031280000F0E8F8022363722846FFF715FF38BD60
:10313800284604F580521B3200F04EFB00280BDABB
:10314800237A052B04D128460121FFF77DFF38BDDE
:103158002846FFF701FF38BD237A013BDBB2022B7B
:103168000CD962892AB1284604F10C01FFF716FF31
:1031780038BD1AB928460021FFF766FF38BD00BFE1
:1031880010B50446D0F81822137A13B1012B03D0D6
:1031980010BDFFF795FF10BD41F21903D15C02F590
:1031A80080521B3200F018FB002803DA2046012168
:1031B800FFF74AFF10BD00BF10B5D0F81842637A78
:1031C800022B05D1822100F06DFC0023637210BD33
:1031D80011F0800F04D0012B02D00121FFF734FF3A
:1031E80010BD00BF10B4D0F81842537813F0010F87
:1031F8000DD1D0F81C32186A01EBC10189000844CE
:103208000179053113798B4203D90B4601E0072375
:103218000648638104E0013B9BB2C15CE21811736C
:10322800002BF8D100205DF8044B7047D8500008F7
:10323800D0F818020823438105E0013B9BB2044AF9
:10324800D15CC2181173002BF7D10020704700BF62
:10325800E8500008D0F818020823438105E0013B34
:103268009BB2044AD15CC2181173002BF7D100201D
:10327800704700BFE050000810B4D0F8184200238F
:1032880004E0E118002008730133DBB2112BF8D9F0
:10329800702323730C23E37441F25C03E35C41F273
:1032A8005D01615C8B4214D003F2072104EBC1017C
:1032B8000879A073487A2076097A61760133DBB2FF
:1032C80041F25C016354042B03D1002141F25C03F9
:1032D800E154122363811379122B00D863810020F3
:1032E8005DF8044B704700BFD0F8183200205881B1
:1032F800704700BF30B4D0F8184241F25D05615DF7
:1033080001F2072004EBC00002711B028360013147
:10331800C9B26155042901D10022625530BC7047F9
:1033280070B50446D0F8185241F21403EB5843B173
:1033380041F21903E95C05222023FFF7DBFFFF2395
:1033480013E00E46D0F81C32DB680846984703465F
:1033580048B12046314602223A23FFF7CBFF052326
:103368002B72FF2301E000226A8158B270BD00BFB2
:1033780070B582B005460E46D0F81842002304E026
:10338800E2180021117301339BB20B2BF8D9D5F841
:103398001C329B68304669460DF106029847014683
:1033A80038B12846314602223A23FFF7A3FFFF210E
:1033B80018E00823E373009A531E180E2074C3F311
:1033C80007406074C3F30723A374013AE27402232D
:1033D8002375BDF80630002262751A0AA275E375D6
:1033E8000C23638148B202B070BD00BF70B50546BA
:1033F8000E46D0F81842D0F81C329B68084604F5EF
:10340800835104F582521E32984738B12846314616
:1034180002223A23FFF76EFFFF2119E0014604F567
:1034280083531A68531E180E2073C3F30740607342
:10343800C3F30723A373013AE27341F25E03E35A2D
:103448000022227462741A0AA274E3740823638146
:1034580048B270BD10B5D0F81842134404F583542F
:103468002468A34205D905222123FFF743FFFF2043
:1034780000E0002040B210BD2DE9F0410646884624
:10348800D0F8184241F26803E558B5F5805F28BFC7
:103498004FF48055D0F81C32D3F814C004F10C074F
:1034A80041F2640354F803E041F25E03E25AB5FBCB
:1034B800F2F308463946BEFBF2F29BB2E047002819
:1034C80007DA3046414604221123FFF713FFFF2095
:1034D8001AE0304682213A46ABB200F013FB41F2C3
:1034E8006402A3582B44A35041F26802A3585B1B03
:1034F800A35041F234016258551B65501BB9032390
:103508002372002000E0002040B2BDE8F08100BF37
:10351800F8B506460F46D0F81842237A002B56D144
:10352800154641F21803E356002B08DB41F2190354
:10353800E15C05222023FFF7DDFEFF2050E0D0F8F4
:103548001C32DB680846984738B1304639460222B3
:103558003A23FFF7CFFEFF2042E0AA78EB781B045E
:1035680043EA02632A7943EA02236A791A4341F259
:103578006403E250EB79297A41EA032341F26801B6
:10358800635030463946FFF765FF002827DB0223E2
:10359800237241F25E03E15A41F26403E25801FBEF
:1035A80002F2E25041F26802A35803FB01F3A35070
:1035B80041F21402A258934209D0304641F219034D
:1035C800E15C05222023FFF795FEFF2008E04FF479
:1035D8008053638130463946FFF74EFF00E0FF20F5
:1035E80040B2F8BD2DE9F04106468846D0F81842A9
:1035F80041F26803E558B5F5805F28BF4FF4805560
:10360800D0F81C32D3F818C004F10C0741F2640357
:1036180054F803E041F25E03E25AB5FBF2F30846C0
:103628003946BEFBF2F29BB2E047002807DA304683
:10363800414604220323FFF75DFEFF2021E041F20B
:103648006402A3582B44A35041F26802A3585B1BA1
:10365800A35041F234016258551B65502BB93046CE
:103668000021FFF7F1FC00200BE0B3F5805F28BFD5
:103678004FF48053304601213A469BB200F04AFA93
:10368800002040B2BDE8F0812DE9F04105460F4623
:10369800D0F81842237A002B75D1164641F2180348
:1036A800E356002B09DA41F21903E15C05222023D5
:1036B800FFF720FE4FF0FF086BE0D0F81C32DB6804
:1036C8000846984740B12846394602223A23FFF770
:1036D80011FE4FF0FF085CE0D5F81C321B69384634
:1036E8009847804640B12846394602222723FFF7EB
:1036F80001FE4FF0FF084CE0B278F3781B0443EA70
:103708000263327943EA022372791A4341F264036D
:10371800E250F379317A41EA032341F268016350B8
:1037280028463946FFF796FE002830DB41F25E0353
:10373800E15A41F26403E25801FB02F2E25041F21D
:103748006802A35803FB01F3A35041F21402A258E4
:1037580093420AD0284641F21903E15C052220234E
:10376800FFF7C8FD4FF0FF0813E001212172B3F500
:10377800805F28BF4FF48053284604F10C029BB2A7
:1037880000F0C8F905E0FFF72DFF804601E04FF093
:10379800FF084FFA88F0BDE8F08100BF10B5D0F8F7
:1037A8001842537813F0020F05D005222423FFF79F
:1037B800A1FDFF200DE041F26403E25841F26803E5
:1037C800E35AFFF747FE002802DB0020608100E093
:1037D800FF2040B210BD00BF08B513785A2B53D84C
:1037E800DFE803F02E525231525252525252525284
:1037F80052525252525234525252525252523D37EF
:1038080052523A52525252435246525249524C52D2
:103818005252524F52525252525252525252525283
:103828005252525252525252525252525252525270
:1038380052525252525252525252525252524000C4
:10384800FFF76EFD25E0FFF717FD22E0FFF7CAFC42
:103858001FE0FFF749FD1CE0FFF746FD19E0FFF701
:10386800E7FC16E0FFF7F6FC13E0FFF781FD10E038
:10387800FFF7BCFD0DE0FFF74BFE0AE0FFF704FF82
:1038880007E0FFF78BFF04E005222023FFF732FD56
:10389800FF2040B208BD00BF0368B3F1A04F43D179
:1038A8002DE9F04186B0214C236B43F001032363DB
:1038B8004FF4C05301930326049602230293002574
:1038C80003954FF00A08CDF81480194F384601A91E
:1038D800FCF7ECFF4FF4007301930295039538460B
:1038E80001A9FCF7E3FF4FF48063019312230293CD
:1038F800012303930496CDF81480384601A9FCF7F8
:10390800D5FF636B43F080036363636C43F48043C8
:103918006364432031462A46FCF7CAFD4320FCF77E
:1039280009FE06B0BDE8F081704700BF00380240CC
:103938000000024008B50146D0F8AC0301F55F71FC
:1039480000F032F908BD00BF08B5C1EBC1039B0008
:103958000344D0F8AC03D3F8E02100F053F908BDD4
:1039680008B5C1EBC1039B000344D0F8AC03DA6B84
:1039780000F078F908BD00BF08B5D0F8AC0300F036
:10398800EBF908BD10B50446C3680BB9002100E087
:103998000121D4F8AC0300F0CBF9D4F8AC0300F063
:1039A800A7F910BD08B5D0F8AC0300F0C5F908BDFB
:1039B80008B5D0F8AC0300F0C9F908BD08B5D0F8CF
:1039C800AC0300F0D7F908BD08B5D0F8AC0300F097
:1039D800CFF908BD08B5D0F8AC0300F0CDF908BDA3
:1039E80008B5D0F8AC0300F0C9F908BDF8B5002552
:1039F800194B83F82350194C4FF0A043236004233C
:103A08006360A56240236361256125620226A66181
:103A1800E561E66001276762C4F8AC03C0F820429C
:103A28002046FDF769F920464FF40071FDF7A4FD23
:103A3800204629464FF48072FDF77AFD2046394624
:103A48004FF48072FDF774FD204631468022FDF761
:103A58006FFD2846F8BD00BF00ED00E01894012076
:103A680008B5D0F82002FDF7C5F9002008BD00BF51
:103A780010B51446D0F820021A462346FDF70AFC72
:103A8800002010BD08B5D0F82002FDF737FC002053
:103A980008BD00BF08B5D0F82002FDF72DFD0020B5
:103AA80008BD00BF08B5D0F82002FDF7C7FC00200C
:103AB80008BD00BF08B5D0F82002FDF7F1FC0020D2
:103AC80008BD00BFD0F8202211F0800F08D001F007
:103AD8007F03C3EBC3039B00134493F83200704782
:103AE80001F07F01C1EBC1018900114491F8D601B1
:103AF800704700BF08B5D0F82002FDF7B9FB0020D9
:103B080008BD00BF08B5D0F82002FDF763FC00200F
:103B180008BD00BF08B5D0F82002FDF71BFC002047
:103B280008BD00BF08B5D0F82002FDF749FC08BD64
:103B380098B108B50346D0F8140210B10020C3F8B4
:103B4800140209B1C3F81012012183F8FC111A708C
:103B58001846FFF74BFF002008BD0220704700BF42
:103B680019B1C0F81412002070470220704700BF36
:103B780008B5FFF775FF002008BD00BF08B5D0F8ED
:103B8800143223B11B68984718B1022008BD0220DF
:103B980008BD002008BD00BF08B5D0F814325B6826
:103BA8009847002008BD00BF38B5044600F50275E7
:103BB800284600F009F90123C4F8F431B4F80E32AC
:103BC800C4F8F83194F8081201F01F03012B08D04B
:103BD80013B1022B0AD00EE02046294600F07EFAE7
:103BE8000EE02046294600F09DFA09E020462946C5
:103BF80000F0B4FA04E0204601F08001FFF752FF1C
:103C0800002038BD38B5044609BBD0F8F431032B81
:103C180026D1D0F80C31D0F810118B420AD95B1A92
:103C2800C0F80C318B4228BF0B4611469AB200F0FF
:103C38004FFB15E0D0F814321B6923B190F8FC2132
:103C4800032A00D19847204600F04CFB08E0D0F842
:103C580014329B6923B190F8FC21032A00D19847BC
:103C6800002038BD38B50446B9BBD0F8F431022B72
:103C78002BD1C169036A994206D9CB1AC36111468F
:103C88009AB200F01BFB20E08169B1FBF3F203FB61
:103C980012126AB98B420BD8D0F8F831994207D280
:103CA80000210A4600F00AFB0023C4F8F8310CE0B2
:103CB800D4F81432DB682BB194F8FC21032A01D123
:103CC80020469847204600F019FB94F80032012B53
:103CD8000CD1002384F8003208E0D0F814325B6974
:103CE80023B190F8FC21032A00D19847002038BD61
:103CF80038B5044600210A464023FFF7B9FE40259F
:103D0800C4F810512046802100222B46FFF7B0FE50
:103D18002562012384F8FC31D4F818322BB1D4F889
:103D280014325B68204621799847002038BD00BFCF
:103D380001740020704700BF90F8FC3180F8FD3115
:103D4800042380F8FC310020704700BF90F8FD3153
:103D580080F8FC310020704708B590F8FC31032B3F
:103D680004D1D0F81432DB6903B19847002008BDAC
:103D780000207047002070470020704708B50122D6
:103D880080F8FC21D0F8142252680179904700206D
:103D980008BD00BF0346002002E00130C0B2013375
:103DA8001A78002AF9D170474B88012B0BD110B52E
:103DB8000446C0F80432D0F814329B68984720466D
:103DC80000F090FA10BD70470B7803704B78437081
:103DD8008B78CA7803EB022343800B794A7903EB8B
:103DE800022383808B79CA7903EB0223C38070474F
:103DF80010B504468021FFF755FE20460021FFF745
:103E080051FE10BD30B583B004460D464A88130AEA
:103E1800013B062B00F28580DFE803F0040D2383C5
:103E280083657300D0F810321B68007C0DF1060121
:103E38009847014679E0037C4BB9D0F814329B6A65
:103E48000DF1060098470146022343706DE0D0F853
:103E58001432DB6A0DF106009847014602234370CD
:103E680063E0D2B2052A3AD8DFE802F0030C151E47
:103E78002730D0F810325B68007C0DF106019847B6
:103E8800014652E0D0F810329B68007C0DF1060123
:103E98009847014649E0D0F81032DB68007C0DF104
:103EA80006019847014640E0D0F810321B69007CB3
:103EB8000DF106019847014637E0D0F810325B69EA
:103EC800007C0DF10601984701462EE0D0F810322B
:103ED8009B69007C0DF106019847014625E02946BB
:103EE800FFF786FF2EE0037C3BB9D0F814325B6BFA
:103EF8000DF106009847014617E02946FFF778FFBD
:103F080020E0037C4BB9D0F814321B6B0DF106008E
:103F1800984701460723437007E02946FFF768FFE3
:103F280010E02946FFF764FF0CE0BDF806304BB1FE
:103F3800EA883AB19A4228BF1A46ADF806202046C8
:103F480000F0AEF903B030BD38B504468B88E3B94C
:103F5800CB88D3B98D7805F07F0590F8FC31032B19
:103F680002D1FFF745FF38BD80F8FE512946FFF71B
:103F7800C1FD204600F0B6F91DB1022384F8FC31DA
:103F880038BD012384F8FC3138BD2046FFF730FFE7
:103F980038BD00BF38B504460D468978264B1970E0
:103FA800012903D92946FFF723FF38BD90F8FC31D2
:103FB800022B02D0032B15D039E081B141600323D5
:103FC80080F8FC31FFF7DAFD022804D120462946A3
:103FD800FFF70EFF38BD204600F084F938BD00F029
:103FE80081F938BD49B9022380F8FC314160FFF7F7
:103FF800D3FD204600F076F938BD4368994213D0C6
:10400800D9B2FFF7C9FD0C4B197861602046FFF75C
:10401800B5FD022804D120462946FFF7E9FE38BD40
:10402800204600F05FF938BD00F05CF938BD29463C
:10403800FFF7DEFE38BD00BFE802002008B50346E2
:10404800CA88012A02D0FFF7D3FE08BD90F8FC21E8
:10405800022A02D0032A08D00CE00146002241F8C7
:10406800082F012200F01CF908BD191D012200F0DB
:1040780017F908BDFFF7BCFE08BD00BF08B5034629
:1040880090F8FC21023A012A0DD80122C260D0F82A
:1040980004220AB10322C260184603F10C0102226D
:1040A80000F0FEF808BDFFF7A3FE08BD10B50446F2
:1040B80090F8FC31023B012B0DD84B88012B0CD119
:1040C8000023C0F80432D0F814329B689847204681
:1040D80000F008F910BDFFF78BFE10BD08B54B784E
:1040E800092B1BD8DFE803F011171A141A08051A50
:1040F8000E0BFFF787FE13E0FFF726FF10E0FFF730
:1041080049FF0DE0FFF79AFF0AE0FFF7B7FF07E066
:10411800FFF74AFE04E0FFF7C9FF01E0FFF768FE7A
:10412800002008BD38B504460D4690F8FC31032B35
:104138000FD10B79022B09D8D0F814329B68984715
:10414800EB8843B9204600F0CDF804E0FFF750FEB5
:1041580001E0FFF74DFE002038BD00BF38B5054629
:104168000C468A88D1B26378012B26D0002B48D020
:10417800032B74D190F8FC31022B02D0032B07D00B
:1041880017E000296BD0802969D0FFF78BFC66E027
:10419800638823B919B1802901D0FFF783FCD5F8CA
:1041A80014329B68284621469847284600F09AF81A
:1041B80055E02146FFF71CFE51E090F8FC31022B38
:1041C80002D0032B07D018E0002948D0802946D018
:1041D800FFF768FC43E06388002B40D111F07F0FA4
:1041E80007D0FFF767FCD5F814329B6828462146AC
:1041F8009847284600F076F831E02146FFF7F8FDA9
:104208002DE090F8FC31022B02D0032B06D023E0DE
:1042180011F07F0F23D0FFF745FC20E012F0800F4C
:1042280005D001F07F0400EB0414143405E001F01C
:104238007F0400EB041404F582742846FFF742FC5F
:1042480010B10123236001E00023236028462146A2
:10425800022200F025F802E02146FFF7C9FD002000
:1042680038BD00BFD0B170B50D4616460446FFF7FD
:1042780091FD0130400080B23080287003236B70BC
:10428800022307E05A1CD2B20134E954531CDBB2B2
:104298000021A95421780029F4D170BD704700BFCE
:1042A80038B50D4613460222C0F8F4218361C36174
:1042B80000212A46FFF726FC002038BD10B50C4621
:1042C800134600212246FFF71DFC002010BD00BF49
:1042D80010B50C46134600212246FFF71BFC0020B0
:1042E80010BD00BF08B50423C0F8F43100210A4608
:1042F8000B46FFF707FC002008BD00BF08B50523E3
:10430800C0F8F43100210A460B46FFF703FC0020F1
:1043180008BD00BF10B592B0174A136C43F0805324
:104328001364A2F5E432136843F440431360012395
:1043380001930293022407944FF4800308930823FF
:1043480009934FF4A8730A930B9407230C9301A8BD
:10435800FDF716F90F230D930E9400230F934FF4D6
:10436800A05310934FF4805311930DA80521FDF726
:1043780061FB12B010BD00BF0038024008B5FEF75F
:1043880049FBFCF741F8FFF7C5FF08BD38B5012028
:1043980000F02CF8002000F029F8022000F026F8A0
:1043A800032000F023F80C4C0125257420460B4906
:1043B8000022FFF7BDFB20460949FFF7D1FB204645
:1043C8000849FEF745FD2046FFF7D2FB064B0022C1
:1043D8001A705A709D70FEE7CC97012010000020DB
:1043E8002401002098010020C897012070B586B0EC
:1043F800044628B9184A136B43F00803136314E002
:10440800012805D1144A136B43F0080313630CE029
:10441800022805D1104A136B43F00803136304E024
:104428000D4A136B43F0080313630C4B33F8145015
:10443800019501230293039302230493084E56F82F
:10444800240001A9FCF732FA56F824002946002274
:10445800FCF7BAFB06B070BD00380240F050000807
:10446800E001002008B50346044A52F82000044A37
:1044780032F81310FCF7C2FB08BD00BFE0010020B2
:10448800F050000808B5FBF7D9FF08BD08B5024889
:10449800FCF7C6FC08BD00BF1894012008B5012030
:1044A800FCF7BEFB08BD00BF014B1868704700BF92
:1044B80050020020024B0146186800F04FB800BFB8
:1044C80050020020024B0146186800F003B800BFF4
:1044D8005002002030B500293DD051F8042C0B1FA4
:1044E8001D49002AB8BF9B180A680C4612B95A60C1
:1044F8000B6030BD93420DD219685818904201BF25
:104508005A5852181A6042685A60236030BD99425E
:1045180003D80A4651680029F9D1146815199D4233
:104528000AD11B682344D0188842136013D1086845
:10453800034413604B680DE002D90C23036030BDBF
:104548001C681819884204BF08684968596004BF84
:1045580000191860536030BDF002002070B5CC1C03
:1045680024F0030408340C2C38BF0C24002C064615
:1045780003DA0C233360002070BD8C42F9D3204A43
:10458800136810461946A1B10A68121B0ED40B2AEB
:1045980003D90A608B188C501FE08B420DBF5A68F4
:1045A8004A685A60026018BF0B4616E00B46496815
:1045B800E9E7144D2B681BB9304600F025F8286050
:1045C8003046214600F020F8421C0346D1D0C51CD5
:1045D80025F0030585420AD11C6003F10B001A1D62
:1045E80020F00700821A0AD05142995070BD304617
:1045F800E91A00F009F80130BBD02B46ECE770BD92
:10460800F0020020EC02002038B5064C00230546D5
:1046180008462360FEF7FAF8431C02D1236803B169
:104628002B6038BD14030020034613F8012B002A21
:10463800FBD1181A0138704730B5141E9BB00546D7
:1046480004DA8B2303604FF0FF301CE04FF4027252
:10465800ADF80C2014BF04F1FF32224602920592F5
:104668004FF6FF7200910491ADF80E2069461A4684
:104678001E9B00F075F8431CBCBF8B232B6014B144
:10468800009B00221A701BB030BD000073B5009368
:10469800054B06460D461446186831462A462346F9
:1046A800FFF7CAFF02B070BD500200202DE9F047A5
:1046B8008E68B34282460C469046994640D38A8912
:1046C80012F4906F3AD0256809696F1A6569022358
:1046D80005EB450595FBF3F57B1C4B449D4238BF24
:1046E8001D4653050FD52946FFF738FF064698B1F2
:1046F80021693A4600F0CBFAA38923F4906343F08A
:104708008003A38113E02A4600F0E7FA064670B951
:1047180050462169FFF7DEFE0C23CAF80030A38952
:1047280043F04003A3814FF0FF30BDE8F0872661D6
:1047380065613E44ED1B2660A5604E46B14500D23A
:104748004E4632462068414600F0ACFAA3689B1BEF
:10475800A36023681E4426600020BDE8F08700009F
:104768002DE9F0439DB0064603938B891C060D4640
:1047780090460CD50B6953B94021FFF7EFFE28602E
:10478800286110B90C233360CCE040236B6100230F
:10479800099320238DF8293030238DF82A30434699
:1047A8001C4613F8012B1AB9B4EB08090FD002E024
:1047B800252AF5D1F8E73046294642464B46FFF709
:1047C80075FF013000F0A980099B4B4409932378B9
:1047D800002B00F0A28000234FF0FF3204930793D0
:1047E800059206938DF853301A9304F10108444654
:1047F800DFF8489121784846052200F039FA08F197
:104808000108049B30B1C9EB000001228240134328
:104818000493ECE7D80644BF20228DF853201907EB
:1048280044BF2B228DF8532022782A2A02D00799D8
:1048380023460EE0039A111D12680391002ABBBF9C
:10484800524243F0020307920792B8BF049301341F
:104858000AE01C4601332278303A092A03D80A2094
:1048680000FB0121F5E7079123782E2B1AD16378F5
:104878002A2B0AD1039B1A1D1B680392002BB8BF71
:104888004FF0FF33023405930CE0611C00220C4604
:1048980001312378303B092B03D80A2000FB023270
:1048A800F5E70592DFF8988021784046032200F06A
:1048B800DFF938B1049AC8EB000040238340134362
:1048C8000493013421781A488DF82810062204F13F
:1048D800010800F0CDF988B1164B33B9039B0733B3
:1048E80023F007030833039313E003AB0093304628
:1048F80004A92A46104BAFF3008007E003AB0093EE
:10490800304604A92A460C4B00F092F8421C074690
:1049180003D0099B3B44099341E7AB895B0601D46B
:10492800099801E04FF0FF301DB0BDE8F08300BFEB
:104938000451000800000000B5460008FA500008BD
:10494800005100082DE9F84391461F468A680B6913
:10495800DDF820809342B8BF1346C9F8003091F8BB
:10496800432006460C4612B10133C9F800302368CB
:10497800990642BFD9F800300233C9F800302568DB
:1049880015F006051CD094F843302268003318BF90
:10499800012392061FD5E1185A1C302081F84300E4
:1049A800224494F8451082F84310023313E030464D
:1049B800394604F119020123C047013007D00135F7
:1049C800E368D9F800209B1A9D42F0DBDBE74FF043
:1049D800FF30BDE8F8833046394604F14302C0474A
:1049E8000130F4D02268D9F80050E36802F00602DA
:1049F800042A08BF5D1B2269A3680CBF25EAE57578
:104A080000259342C4BF9B1AED184FF00009A94531
:104A18000ADA3046394604F11A020123C047013048
:104A2800D5D009F10109F2E70020BDE8F8830000BC
:104A38002DE9FF410C461746227E6E2A9846064607
:104A48000A9B01F1430100F0AF8012D8632A23D0FA
:104A58000AD8002A00F0BC80582A40F0CB8084F89D
:104A68004520DFF804E257E0642A1ED0692A1CD0EA
:104A7800C0E0732A00F0B08009D86F2A2ED0702ABF
:104A880040F0B880226842F0200222603FE0752A98
:104A980024D0782A3BD0ADE01A68111D196013683C
:104AA80084F8423004F14205A8E020681A6810F042
:104AB800800F02D0101D186008E010F0400F02F1BE
:104AC8000400186002D0B2F9003000E01368002B2F
:104AD8003EDA2D225B4284F8432039E020681A68C8
:104AE80010F0800F02D0101D186007E010F0400F82
:104AF80002F10400186001D0138800E01368227ED8
:104B0800DFF864E16F2A0CBF08220A221CE0782231
:104B1800DFF858E184F845202268186812F0800F01
:104B280000F104051D6003D1550601D5038800E096
:104B38000368D00744BF42F0200222601BB92268F4
:104B480022F0200222601022002084F8430002E0B4
:104B5800DFF814E10A226568A560002DA2BF20686D
:104B680020F00400206003B965B10D46B3FBF2F0F4
:104B780002FB10331EF8033005F8013D03460028F8
:104B8800F4D100E00D46082A0BD12368DA0708D5CE
:104B9800236962689A42DEBF302305F8013C05F1BB
:104BA800FF35491B21612EE025681A68606915F0F8
:104BB800800F03D0151D1D60136808E015F0400F25
:104BC80002F104051D60136801D0188000E0186028
:104BD800002323610D4616E01A68111D1960156837
:104BE80062682846002100F043F808B1401B606065
:104BF800636804E004F1420584F84220012323613C
:104C0800002384F84330CDF800803046214603AABB
:104C18003B46FFF797FE013002D14FF0FF301FE00F
:104C2800304639462A462369C0470130F5D0236803
:104C38009B0705D4E068039B9842B8BF18460FE06D
:104C48000025E368039A9B1A9D42F3DA30463946F9
:104C580004F119020123C0470130DED00135F0E725
:104C680004B0BDE8F08100BF0B5100081C510008DA
:104C780010B5C9B202449042034606D01C788C4253
:104C880000F10100F7D1184610BD002010BD10B585
:104C9800431E0A44914204D011F8014B03F8014F16
:104CA800F8E710BD814210B501EB020301D3421EA3
:104CB8000BE09842FBD28118D21AD34204D013F8E1
:104CC800014D01F8014DF8E710BD994204D011F8E3
:104CD800014B02F8014FF8E710BDF8B50746154635
:104CE8000E4621B91146BDE8F840FFF737BC1AB99E
:104CF800FFF7F0FB2846F8BD00F015F8A8420ED2E1
:104D080038462946FFF72AFC044650B131462A4660
:104D1800FFF7BDFF38463146FFF7DCFB01E03046C0
:104D2800F8BD2046F8BD51F8040C0028BEBF09188C
:104D380051F8043CC0180438704700002E2E2F7319
:104D4800797374656D2F7372632F73746D33326664
:104D5800342D68616C2F73746D3332663478785FE4
:104D680068616C5F636F727465782E630000000081
:104D78002E2E2F73797374656D2F7372632F73746E
:104D88006D333266342D68616C2F73746D333266FF
:104D98003478785F68616C5F666C6173682E630055
:104DA8002E2E2F73797374656D2F7372632F73743E
:104DB8006D333266342D68616C2F73746D333266CF
:104DC8003478785F68616C5F666C6173685F65787A
:104DD8002E6300002E2E2F73797374656D2F7372F6
:104DE800632F73746D333266342D68616C2F73745E
:104DF8006D3332663478785F68616C5F6770696FAD
:104E08002E6300002E2E2F73797374656D2F7372C5
:104E1800632F73746D333266342D68616C2F73742D
:104E28006D3332663478785F68616C5F7063642EC6
:104E380063000000000000000102030401020304F3
:104E4800060708092E2E2F73797374656D2F7372F8
:104E5800632F73746D333266342D68616C2F7374ED
:104E68006D3332663478785F68616C5F7263632E85
:104E78006300000061626F727428292C20657869CC
:104E880074696E672E2E2E002C2066756E63746909
:104E98006F6E3A2000000000617373657274696F69
:104EA8006E2022257322206661696C65643A20664B
:104EB800696C6520222573222C206C696E6520257B
:104EC80064257325730A00006173736572745F70DB
:104ED8006172616D2829206661696C65643A206693
:104EE800696C6520222573222C206C696E6520254B
:104EF800640A00006D61696E28617267633D25640C
:104F08002C20617267763D5B000000002C200000B9
:104F180022257322000000005D293B0A00000000E2
:104F2800537461636B206672616D653A0A00000014
:104F3800205230203D2020253038580A000000003B
:104F4800205231203D2020253038580A000000002A
:104F5800205232203D2020253038580A0000000019
:104F6800205233203D2020253038580A0000000008
:104F780020523132203D20253038580A00000000E8
:104F8800204C52203D2020253038580A00000000CF
:104F9800205043203D2020253038580A00000000CA
:104FA80020505352203D20253038580A0000000078
:104FB8004653522F4641523A0A00000020434653B6
:104FC80052203D2020253038580A000020484653FA
:104FD80052203D2020253038580A000020444653EE
:104FE80052203D2020253038580A000020414653E1
:104FF80052203D2020253038580A0000204D4D46CB
:105008004152203D20253038580A000020424641B0
:1050180052203D2020253038580A00004D6973631E
:105028000A000000204C522F4558435F5245545502
:10503800524E3D20253038580A0000005B48617206
:10504800644661756C745D0A000000005B4275730C
:105058004661756C745D0A005B55736167654661EE
:10506800756C745D0A00000053544D3332204D5363
:10507800442044657669636520696E204853204D55
:105088006F64650053544D3332204D5344204465BA
:105098007669636520696E204653204D6F6465000C
:1050A80053544D6963726F656C656374726F6E6992
:1050B8006373000056435020436F6E6669670000B3
:1050C80056435020496E746572666163650000003E
:1050D80000000003008083000006000000000000BC
:1050E80000000000000000000010002000400080C8
:1050F8004300232D302B2000686C4C006566674503
:105108004647003031323334353637383941424337
:1051180044454600303132333435363738396162E8
:055128006364656600F0
:105130007856341264020020000000000024F400BD
:105140005D2A0008692A0008192B0008F12A0008C6
:10515000DD2A0008352B0008592B00080403090438
:1051600012010002000000408304405700020102C7
:10517000030100001B03000000000000000000000D
:10518000000000000000000000000000000000001F
:1051900009073900020104C03209040000020806B0
:1051A000500507058202400000070501024000008B
:1051B000090401000103010200092111010001227B
:1051C00032000705810304000A0000000A060002FD
:1051D000000000200100000009023900020104C0A3
:1051E0003209040000020806500507058202000289
:1051F0000007050102000200090401000103010289
:105200000009211101000122320007058103040079
:105210000A000000092111010001223200000000F3
:1052200005010902A1010901A100050919012901CE
:105230001500250195017501810295017507810110
:105240000501093009311581257F75089502810610
:10525000C0C00000AD2B0008192C00084D2C000820
:1052600000000000000000002D2E00084D2E000858
:105270000000000000000000000000007D2B00087E
:10528000892B0008952B0008A12B00080902390082
:10529000020104C032090400000208065005070597
:1052A000820220000007050102200000090401001D
:1052B000010301020009211101000122320007054A
:1052C000810304000A000000812E0008212F00083D
:1052D000652E0008752E0008792E0008D12E0008D2
:1052E000F92E00087D2E0008BC010020008002017C
:1052F0001F80000053544D202020202050726F64E6
:10530000756374202020202020202020302E303172
:10531000000C0240000C0240000C0240000C024055
:10532000000000000000000000000000000000007D
:10533000000000000000000000000000000000006D
:10534000F85000080000000000000000000000000D
:10535000000000000000000000000000000000004D
:10536000000000000000000000000000000000003D
:10537000000000000000000000000000000000002D
:08538000F00100203254769880
:020000040804EE
:1000000000000000000000000000000000000000F0
:1000100000000000000000000000000000000000E0
:1000200000000000000000000000000000000000D0
:1000300000000000000000000000000000000000C0
:020000040805ED
:040000050800018965
:00000001FF
