:020000040800F2
:1000000000000220B9020008C1020008C502000871
:100010000D03000811030008590300080000000048
:10002000000000000000000000000000A103000824
:10003000A503000800000000A9030008094000080B
:10004000BD030008BD030008BD030008BD03000890
:10005000BD030008BD030008BD030008BD03000880
:10006000BD030008BD030008BD030008BD03000870
:10007000BD030008BD030008BD030008BD03000860
:10008000BD030008BD030008BD030008BD03000850
:10009000BD030008BD030008BD030008BD03000840
:1000A000BD030008BD030008BD030008BD03000830
:1000B000BD030008BD030008BD030008BD03000820
:1000C000BD030008BD030008BD030008BD03000810
:1000D000BD030008BD030008BD030008BD03000800
:1000E000BD030008BD030008BD030008BD030008F0
:1000F000BD030008BD030008BD030008BD030008E0
:10010000BD030008BD030008BD030008BD030008CF
:10011000BD030008BD030008BD030008BD030008BF
:10012000BD030008BD030008BD030008BD030008AF
:10013000BD030008BD030008BD030008BD0300089F
:10014000BD030008BD030008BD03000815400008FA
:10015000BD030008BD030008BD030008BD0300087F
:10016000BD030008BD030008BD030008BD0300086F
:10017000BD030008BD030008BD0300080000000027
:10018000BD030008BD03000800B583B002F0F6FC13
:10019000384B394A1360394A136039490CE00A6810
:1001A0004B6801F10C04886803E01168196004339E
:1001B00004329842F9D82146324B9942EFD32E4B64
:1001C0001A68314B9A4204D12C4B1A682F4B9A4231
:1001D00000D0FEE7274B2E4A13602E4A13602E4BA9
:1001E0000AE0194651F8082B5B6802E00020106015
:1001F00004329A42FAD30B46284A9342F1D3244B55
:100200001B6813B9234B1B6803B1FEE703F06EFCB8
:1002100001A8694602F04CFC214C224B1C1BA41087
:10022000002504E01E4B53F8253098470135AC42B9
:10023000F8DC1D4C1D4B1C1BA410002504E01A4BC0
:1002400053F8253098470135AC42F8DC0198009905
:1002500003F0C6FC0546164C164B1C1BA41004E00C
:10026000013C134B53F824309847002CF8DC284607
:1002700002F0F0FBBABADECA00000020F401002050
:10028000C0030008D8030008785634123254769818
:10029000F8010020DC090020D8030008E80300086A
:1002A000E8030008E8030008E8030008E803000882
:1002B000E8030008E803000808B5FFF765FF00BF82
:1002C000FEE700BF1EF0040F0CBFEFF30880EFF352
:1002D00009807146364A10472DE9F04182B0074641
:1002E0008846084B5D6B9C6B9E6A074802F0F4FBE6
:1002F000CDF80080384631462A46234602F042FCBB
:10030000FEE700BF00ED00E00C540008FEE700BF70
:100310001EF0040F0CBFEFF30880EFF30980714665
:10032000244A10472DE9F04182B007468846084B21
:100330005D6B9C6B9E6A074802F0CEFBCDF8008097
:10034000384631462A46234602F01CFCFEE700BF31
:1003500000ED00E01C5400081EF0040F0CBFEFF38A
:100360000880EFF309807146134A10472DE9F041E8
:1003700082B007468846084B5D6B9C6B9E6A0748B7
:1003800002F0AAFBCDF80080384631462A462346C3
:1003900002F0F8FBFEE700BF00ED00E02854000883
:1003A000FEE700BFFEE700BFFEE700BF70470000AA
:1003B000D9020008250300086D030008FEE700BF0E
:1003C000E054000800000020F8010020E05400087C
:1003D0000000001000000010F8010020E0090020DB
:0803E0000000001000000010F5
:1003E80010B5044601F044FB064BA3FB003080091E
:1003F80000F0C2F84FF0FF302146002200F066F806
:10040800002010BDD34D621008B50B4B1A6842F49A
:1004180000721A601A6842F480621A601A6842F41C
:1004280080721A60032000F033F80F20FFF7D8FF1E
:1004380000F064FA002008BD003C0240024A13683C
:1004480001331360704700BFFC010020014B18689E
:10045800704700BFFC01002010B582B00190FFF783
:10046800F5FF0446FFF7F2FF001B019B9842F9D302
:1004780002B010BD024A136823F0020313607047EC
:1004880010E000E0014B1868000C7047002004E001
:1004980010B50446C31E042B03D90A48A42102F050
:1004A8000BFB04F00700084AD36823F4E0631B043D
:1004B8001B0C43EA002040F0BF6040F40030D060DD
:1004C80010BD00BF4051000800ED00E070B50446C3
:1004D8000E4615460F2A03D91A48BC2102F0ECFA39
:1004E8000F2E03D91748BD2102F0E6FA164BDB6838
:1004F800C3F30223C3F10702042A28BF0422191DEB
:10050800062901D9D81E00E00020012303FA02F2CF
:10051800013A324002FA00F183405A1E2A400A4347
:10052800002C06DA04F00F041201D2B2074B1A5558
:1005380070BD1201D2B204F1604404F5614484F83C
:10054800002370BD4051000800ED00E014ED00E00C
:1005580010B5041E03DA0648D02102F0ADFA61098D
:1005680004F01F040123A340024A42F8213010BDC1
:100578004051000800E100E00138B0F1807F0AD264
:10058800064B5860F021064A82F823100020986034
:1005980007221A6070470120704700BF10E000E092
:1005A80000ED00E008B503F053FB08BD2DE9F84F56
:1005B80080460F46A04B984223D003F580639842AB
:1005C8001FD003F5806398421BD003F580639842DF
:1005D80017D003F58063984213D003F580639842DF
:1005E8000FD003F5806398420BD003F580639842DF
:1005F80007D003F58063984203D09048C52102F0E4
:100608005BFA3B881BB98D48C62102F055FA7B6816
:10061800012B22D9112B20D0022B1ED0122B1CD03B
:10062800874A934219D002F58012934215D002F5F9
:100638008012934211D0A2F5F81293420DD002F520
:100648008012934209D002F58012934205D0032B01
:1006580003D07A48C72102F02FFABB68022B03D9CE
:100668007648C82102F028FA002423E1A146012592
:10067800A5403B6803EA050AAA4540F01A817B6851
:10068800022B01D0122B4AD13B69C3B3092B36D0B8
:10069800ABB3A3B39BB393B3012B30D02FD0022BB2
:1006A8002DD02CD02BD0032B29D0042B27D026D00B
:1006B80025D0052B23D022D0092B20D0062B1ED0E5
:1006C800092B1CD0072B1AD019D018D0082B16D0FC
:1006D80015D014D0092B12D011D00A2B0FD00ED060
:1006E8000B2B0CD00C2B0AD009D00D2B07D00C2BC0
:1006F80005D00F2B03D05148D92102F0DDF9E608C7
:10070800083658F8261004F0070080000F238340AD
:1007180021EA03023B698340134348F82630D8F89E
:1007280000304FEA440B032606FA0BF6F64306EAB6
:1007380003027B6803F0030303FA0BF31343C8F8BF
:1007480000307B685A1E012A03D9112B01D0122BC5
:100758001CD1FB68032B03D93848EC2102F0ACF913
:10076800D8F8083006EA0302FB6803FA0BF31343D0
:10077800C8F80830D8F8043023EA05037D68C5F3C3
:10078800001505FA09F51D43C8F80450D8F80C30CF
:100798003340BE6806FA0BF61E43C8F80C607B6847
:1007A80013F0805F00F08580264A536C43F4804341
:1007B8005364A308991CA2F5803252F8211004F062
:1007C800030080000F22824021EA02011A4A904564
:1007D8003AD002F5806290452BD002F580629045B0
:1007E80025D002F5806290451FD002F580629045C1
:1007F80019D002F58062904513D002F580629045C9
:100808000DD002F58062904507D002F580629045D0
:1008180001D1082219E0092217E0072215E0062273
:1008280013E0052211E004220FE003220DE002226A
:100838000BE0012209E000BF0000024074510008EB
:100848000000111000380240002282400A4302339F
:100858001B4941F823201B4B1A686FEA0A0303EA75
:100868000201786810F4803F01D04AEA0201154A73
:100878001160526803EA0201786810F4003F01D061
:100888004AEA02010F4A5160926803EA0201786855
:1008980010F4801F01D04AEA02010A4A9160D26826
:1008A8001340796811F4001F01D04AEA0203054A8F
:1008B800D36001340F2C7FF6D9AEBDE8F88F00BFA6
:1008C80000380140003C014070B5064615460C460C
:1008D80021B909484FF4D67102F0EEF8012D04D978
:1008E800054840F2AD1102F0E7F80DB1B46170BDF2
:1008F8002404B46170BD00BF74510008704700BF84
:100908002DE9F04782B007460D46D0F80080CB00AD
:100918005B1A9B0003445E6C9A6CB61A9B6B9E42F2
:1009280000D91E4616F1030901D509F103094FEA5A
:10093800A90921E05E1AC5EBC5039B003B449B6BEC
:100948009E4200D91E4616F1030901D509F1030993
:100958004FEAA909EC00641BA4003C44E16B3B7C12
:1009680000934046EAB2B3B201F024FEE36B33448D
:10097800E363A36C3344A364424608EB451303F5D1
:1009880010639B699BB24B4509D9EB005B1B9B002D
:100998003B44996C5B6C994201D2002BCAD1002E62
:1009A80007DC0123AB40D2F8341821EA0303C2F86C
:1009B8003438002002B0BDE8F08700BF002872D0AC
:1009C800F0B589B004460368B3F1A04F06D0384AA1
:1009D800934203D03748992102F06EF8032384F834
:1009E8007933204603F01AFB206801F0ABFB25465B
:1009F80055F8107B6E460FCD0FC695E80F0086E8B8
:100A08000F00231D0ECB384601F05AFB2068002149
:100A180001F09EFB002210E0D3009B1A9B002344A8
:100A2800012183F8311083F83020DA86002183F819
:100A380033109963D963596401320E2AECD9002224
:100A480018E0D3009B1A9B002344002183F8D5119A
:100A580083F8D421DA8683F8D711C3F8DC11C3F8F8
:100A6800E011C3F8E811236802F1400003EB8003AA
:100A7800596001320E2AE4D9254655F8107B6E4696
:100A88000FCD0FC695E80F0086E80F00231D0ECB8B
:100A9800384601F09DFB012384F87933206801F082
:100AA80057FF002001E00120704709B0F0BD00BFEA
:100AB80000000440A451000890F87833012B0ED0B0
:100AC80010B50446012380F87833006801F034FF3C
:100AD800206801F031FB002084F8780310BD022063
:100AE800704700BF2DE9F84F04460668304601F00C
:100AF8006BFF002840F01B82206801F035FF0028BA
:100B080000F01582206801F02FFF10F0020F02D0CC
:100B1800236802225A61206801F026FF10F4002F92
:100B28005CD0206801F024FF0746002553E017F049
:100B3800010F4ED05FFA85F92068494601F028FF79
:100B4800804610F0010F31D006EB45130122C3F89F
:100B5800082B03F530632269012A12D1EA00521BDF
:100B68009200224402F5EC71D2F8DC011B69C3F350
:100B78001203C01AC2F8EC01D2F8E0214B68134402
:100B88008B602046494603F0A1FA2369012B0DD159
:100B980065B9C5EBC5039B002344D3F8E8312BB9ED
:100BA8002068012104F55F7201F02EFF18F0080F8C
:100BB80007D0204603F080FA06EB45130822C3F855
:100BC800082B18F0100F04D006EB45131022C3F8B9
:100BD800082B01357F08002FA9D100E000252068E7
:100BE80001F0C2FE10F4802F6BD0206801F0C8FE1F
:100BF8000746002563E017F0010F5ED05FFA85F91C
:100C08002068494601F0CEFE804610F0010F2DD035
:100C1800012202FA05F0D6F8343823EA0003C6F8B0
:100C2800343806EB4513C3F808292369934209D1E0
:100C3800EB005B1B9B00234403F13802D96B9B6BD1
:100C48000B4453602046494603F04CFA2369012BB4
:100C58000CD15DB9C5EBC5039B0023445B6C2BB974
:100C68002068012104F55F7201F0CEFE18F0080F2C
:100C780004D006EB45130822C3F8082918F0100F12
:100C880004D006EB45131022C3F8082918F0400FCA
:100C980004D006EB45134022C3F8082918F0020FC8
:100CA80004D006EB45130222C3F8082918F0800F78
:100CB80003D020462946FFF723FE01357F08002F81
:100CC80099D1206801F050FE00280CDAD6F80438D3
:100CD80023F00103C6F80438204603F02BFA2368F2
:100CE8004FF000425A61206801F03EFE10F4006F98
:100CF8000BD0D6F8083813F0010F02D0204603F0C5
:100D080013FA23684FF400625A61206801F02CFE40
:100D180010F4805F4ED0374606F50068D8F80430E6
:100D280023F00103C8F804302068002101F026FAF6
:100D3800002207E007EB4213FF21C3F80819C3F8A4
:100D4800081B013263689342F4D84FF0FF33C8F8A8
:100D58001830D8F81C3043F00113C8F81C30A36AC7
:100D680063B1D8F8843043F00B03C8F88430D8F85E
:100D7800443043F00B03C8F844300BE0D8F8143083
:100D880043F00B03C8F81430D8F8103043F00B03C5
:100D9800C8F81030D6F8003823F4FE63C6F80038D7
:100DA8002068217C04F55F7201F02EFE23684FF461
:100DB80080525A61206801F0D7FD10F4005F26D0F8
:100DC800206801F005FE2268D36823F47053D360CD
:100DD800206801F09FFA50B90023E3604FF40073D4
:100DE80063612268D36843F41053D36008E0032397
:100DF800E360402363612268D36843F4A053D3605F
:100E0800204603F081F923684FF400525A612068A4
:100E180001F0AAFD10F0100F42D02268936923F068
:100E280010039361376A07F00F08C7F34343022B97
:100E38001CD147F6F0731F402DD03F094FEAC8096F
:100E4800C8EB090A4FEA8A0AA2443046DAF8E011E8
:100E58003A4601F0EFFCDAF8E0313B44CAF8E031F9
:100E6800DAF8EC311F44CAF8EC7114E0062B12D101
:100E7800304604F55F71082201F0DCFCC7F30A175D
:100E88004FEAC803C8EB030292002244D2F8EC31BF
:100E98003B44C2F8EC312268936943F01003936134
:100EA800206801F061FD10F0080F05D0204603F01E
:100EB80025F9236808225A61206801F055FD10F4CD
:100EC800801F07D02046E9B203F040F923684FF4A9
:100ED80080125A61206801F047FD10F4001F07D006
:100EE8002046E9B203F02CF923684FF400125A6146
:100EF800206801F039FD10F0804F06D0204603F03D
:100F08002BF923684FF080425A61206801F02CFDCC
:100F180010F0040F0BD023685D6815F0040F02D0A1
:100F2800204603F01FF923685A6815435D60BDE841
:100F3800F88F00BF90F87833012B0BD010B504461A
:100F4800012380F87833006801F0E6FC002084F87B
:100F5800780310BD0220704738B50546C8B210F0B6
:100F6800800F07D001F07F04C4EBC404A400303420
:100F78002C4407E001F07F04C4EBC404A4002C4413
:100F880004F5EA7401F07F012170C0096070A26065
:100F9800E37000B1E180022B01D10023237195F8A1
:100FA8007833012B0AD0012385F878332868214645
:100FB80001F0D0F9002085F8780338BD022038BD4B
:100FC80010B50446CAB212F0800F07D001F07F03B3
:100FD800C3EBC3039B003033034407E001F07F03F6
:100FE800C3EBC3039B00034403F5EA7301F07F01DD
:100FF8001970D2095A7094F87823012A0AD001226C
:1010080084F878232068194601F0EAF9002084F86A
:10101800780310BD022010BD70B501F07F06F40002
:10102800A51BAD00054405F5EA712C46C5F8E0217D
:10103800C5F8E8310023C4F8EC3184F8D53184F8D8
:10104800D4610369012B05D1C6EBC604A40004448E
:10105800C4F8E42190F87823012A11D0044601222B
:1010680080F8782326B90068DAB201F0F7F903E0CE
:101078000068DAB201F0B2FA002084F8780370BD93
:10108800022070BD70B501F07F06F400A51BAD000D
:1010980030354119A41BA4000444E26363640023AF
:1010A800A364012384F8313084F830600369012B8C
:1010B80004D1C6EBC604A4000444226490F8782343
:1010C800012A11D00446012280F8782326B9006845
:1010D800DAB201F0C3F903E00068DAB201F07EFA8F
:1010E800002084F8780370BD022070BD38B504462E
:1010F800CAB212F0800F07D001F07F03C3EBC3031D
:101108009B003033034405E0C1EBC1039B0003445B
:1011180003F5EA730120987001F07F051D70D2096C
:101128005A7094F87823824210D084F878032068A3
:10113800194601F095FB2DB92068217C04F55F72F2
:1011480001F062FC002084F8780338BD022038BD25
:1011580010B50446CAB212F0800F07D001F07F0321
:10116800C3EBC3039B003033034405E0C1EBC10369
:101178009B00034403F5EA730020987001F07F0197
:101188001970D2095A7094F87823012A0AD00122DA
:1011980084F878232068194601F08EFB002084F833
:1011A800780310BD022010BD30B40468636A19B911
:1011B80043EA0240A06218E00D46A06A03EB104023
:1011C800002308E003F1400104EB8101496800EBCA
:1011D80011400133DBB2691E8B42F3DB40EA024067
:1011E80005F13F0104EB81014860002030BC7047E5
:1011F800036859620020704738B5044603680F2B0E
:1012080004D9B34840F21B1101F056FC236813F0CF
:10121800010F5FD06368012B06D9052B04D0AC48B9
:101228004FF4907101F048FCAA4B9B6803F00C0343
:10123800042B0AD0A74B9B6803F00C03082B0DD195
:10124800A44B5B6813F4800F08D0A24B1B6813F4FF
:10125800003F3FD06368002B3CD1FCE100229E4B4D
:101268001A70FFF7F3F8054607E0FFF7EFF8401BA1
:1012780041F28833984200F2F081964B1B6813F4D0
:10128800003FF2D12279944B1A7063688BB1FFF753
:10129800DDF8054607E0FFF7D9F8401B41F288332F
:1012A800984200F2DC818B4B1B6813F4003FF2D0AC
:1012B80010E0FFF7CBF8054607E0FFF7C7F8401B3B
:1012C80041F28833984200F2CC81824B1B6813F4B8
:1012D800003FF2D1236813F0020F6DD0E368012BB1
:1012E80004D97B484FF4B07101F0E6FB23691F2B4A
:1012F80004D9774840F2611101F0DEFB754B9B6819
:1013080013F00C0F0AD0734B9B6803F00C03082BE7
:101318001CD1704B5B6813F4800F17D16D4B1B68A1
:1013280013F0020F03D0E368012B40F09C81694859
:10133800026822F0F8012269F82393FAA3F3B3FABA
:1013480083F3DBB29A400A43026035E0E3680BB3EB
:101358000122624B1A60FFF779F8054605E0FFF7AE
:1013680075F8401B642800F280815A4B1B6813F003
:10137800020FF4D05748036823F0F8012269F823D4
:1013880093FAA3F3B3FA83F3DBB29A4041EA020378
:10139800036011E00022514B1A60FFF757F8054629
:1013A80005E0FFF753F8401B642800F26081494BC1
:1013B8001B6813F0020FF4D1236813F0080F2ED026
:1013C8006369012B04D942484FF4D07101F074FBD2
:1013D800636993B10122424B1A60FFF737F805465B
:1013E80005E0FFF733F8401B642800F24281394BCF
:1013F8005B6F13F0020FF4D011E00022384B1A6033
:10140800FFF724F8054605E0FFF720F8401B64289D
:1014180000F231812F4B5B6F13F0020FF4D1236878
:1014280013F0040F6FD0A368012B06D9052B04D045
:1014380027484FF4E57101F03FFB264A136C43F04F
:1014480080531364A2F5E432136843F48073136085
:10145800FEF7FCFF054605E0FEF7F8FF401B642891
:1014680000F20B811F4B1B6813F4807FF4D000221D
:101478001D4B1A70FEF7EAFF054607E0FEF7E6FF88
:10148800401B41F28833984200F2F980114B1B6FE0
:1014980013F0020FF2D1227A134B1A70A368012BB2
:1014A80011D1FEF7D3FF054607E0FEF7CFFF401B3B
:1014B80041F28833984200F2E480064B1B6F13F028
:1014C800020FF2D01FE0FEF7C1FF054616E000BF8D
:1014D800E451000800380240023802400000474248
:1014E800800E47420070004070380240FEF7AEFFA1
:1014F800401B41F28833984200F2C580684B1B6F4D
:1015080013F0020FF2D1A369022B04D9654840F207
:101518000E2101F0D1FAA369002B00F0B680604AD1
:10152800926802F00C02082A00F0B180022B7FD1E9
:10153800E3693BB1B3F5800F04D05A4840F2172154
:1015480001F0BAFA236A3F2B04D956484FF40671C2
:1015580001F0B2FA636AC03BF02B04D9514840F25B
:10156800192101F0A9FAA36A022B0AD0042B08D08A
:10157800062B06D0082B04D04A4840F21A2101F065
:101588009BFAE36A043B0B2B04D9464840F21B2123
:1015980001F092FA0022444B1A60FEF757FF054605
:1015A80004E0FEF753FF401B642872D83C4B1B68CD
:1015B80013F0007FF5D1216A626A47F6C07393FA87
:1015C800A3F3B3FA83F3DBB29A401143A36A5B082F
:1015D800013B4FF4403292FAA2F2B2FA82F2D2B24E
:1015E80093400B43E26943EA0201E36A4FF07062F9
:1015F80092FAA2F2B2FA82F2D2B203FA02F241EA03
:10160800020343F00053264A53600122264B1A6016
:10161800FEF71CFF044604E0FEF718FF001B6428D1
:1016280039D81F4B1B6813F0007FF5D0002038BD58
:1016380000221D4B1A60FEF709FF044604E0FEF77E
:1016480005FF001B642828D8154B1B6813F0007F82
:10165800F5D1002038BD012038BD032038BD032056
:1016680038BD032038BD012038BD032038BD032014
:1016780038BD032038BD032038BD032038BD032002
:1016880038BD032038BD032038BD002038BD0120F7
:1016980038BD032038BD032038BD032038BD00BF46
:1016A80000380240E45100086000474270B5044623
:1016B8000D460368013B0E2B04D9884840F27E2171
:1016C80001F0FAF9072D04D9844840F27F2101F08E
:1016D800F3F9834B1B6803F00F03AB4280F08B8058
:1016E800EAB27F4B1A701B6803F00F03AB4240F05D
:1016F8005181236813F0020F1DD0A368A3B1802B7A
:1017080012D0902B10D0A02B0ED0B02B0CD0C02B09
:101718000AD0D02B08D0E02B06D0F02B04D06F488D
:1017280040F2952101F0C8F96E498B6823F0F00268
:10173800A36813438B60236813F0010F00F0E8805F
:101748006368022B04D965484FF4277101F0B4F996
:101758006268012A05D1634B1B6813F4003F0ED160
:101768001AE1022A05D15F4B1B6813F0007F06D1EE
:1017780014E15C4B1B6813F0020F00F0118159490A
:101788008B6823F0030313438B60FEF75FFE054667
:101798006368012B0FD107E0FEF758FE401B41F2AA
:1017A8008833984200F2FE804E4B9B6803F00C038E
:1017B800042BF1D1ACE0022B17D107E0FEF746FE6F
:1017C800401B41F28833984200F2EE80454B9B68FB
:1017D80003F00C03082BF1D19AE0FEF737FE401B0B
:1017E80041F28833984200F2E1803E4B9B6813F047
:1017F8000C0FF2D18CE0236813F0020F1DD0A36800
:10180800A3B1802B12D0902B10D0A02B0ED0B02BD0
:101818000CD0C02B0AD0D02B08D0E02B06D0F02B50
:1018280004D02E484FF4397101F046F92D498B68E0
:1018380023F0F002A36813438B60236813F0010FB1
:101848005ED06368022B04D9244840F2EB2101F0F2
:1018580033F96268012A05D1224B1B6813F4003F53
:101868000ED1A5E0022A05D11E4B1B6813F0007F9C
:1018780006D19FE01B4B1B6813F0020F00F09C8001
:1018880018498B6823F0030313438B60FEF7DEFDD2
:1018980006466368012B0FD107E0FEF7D7FD801BD2
:1018A80041F28833984200F289800E4B9B6803F01E
:1018B8000C03042BF1D123E0022B1CD106E0FEF728
:1018C800C5FD801B41F28833984279D8054B9B6847
:1018D80003F00C03082BF2D112E000BFE45100081A
:1018E800003C024000380240FEF7B0FD801B41F288
:1018F8008833984266D8354B9B6813F00C0FF3D1A8
:10190800EAB2334B1A701B6803F00F03AB425BD18A
:10191800236813F0040F19D0E36883B1B3F5805F2F
:101928000DD0B3F5A05F0AD0B3F5C05F07D0B3F50B
:10193800E05F04D0274840F23B3101F0BDF823496D
:101948008B6823F4E052E36813438B60236813F039
:10195800080F1AD0236983B1B3F5805F0DD0B3F5B2
:10196800A05F0AD0B3F5C05F07D0B3F5E05F04D03D
:10197800184840F2423101F09FF8144A936823F462
:101988006043216943EAC10393600F20FEF728FDF5
:10199800002070BD012070BD012070BD012070BD08
:1019A800012070BD032070BD032070BD032070BDF1
:1019B800012070BD012070BD012070BD032070BDE5
:1019C800032070BD032070BD012070BD00380240A7
:1019D800003C0240E4510008224B9B6803F00C03D2
:1019E800042B3DD0082B01D01F4870471D4B586869
:1019F80000F03F005B6813F4800F10D01B4BB3FB63
:101A0800F0F3184A506847F6C072104092FAA2F2F2
:101A1800B2FA82F2D2B2D04000FB03F30FE0124BCD
:101A2800B3FBF0F30F4A506847F6C072104092FAC1
:101A3800A2F2B2FA82F2D2B2D04000FB03F3094A12
:101A4800506800F440304FF4403292FAA2F2B2FAF1
:101A580082F2D2B2D04001304000B3FBF0F07047C0
:101A680002487047003802400024F40000127A004F
:101A780008B5FFF7B1FF094B9B6803F0F002F023AC
:101A880093FAA3F3B3FA83F3DBB222FA03F3044A1B
:101A9800D35CD840034B186008BD00BF0038024033
:101AA800D45100080C0000202DE9F04106460C46F0
:101AB80090461D46FEF7CAFC0746B8F1000F2AD02B
:101AC8005BE0B5F1FF3F26D025B1FEF7BFFCC01B98
:101AD800A84220D93268536823F0E0035360326883
:101AE800136823F040031360B36AB3F5005F09D1AC
:101AF8003268136823F4005313603268136843F4A0
:101B080000531360012386F85130002386F85030C3
:101B18000320BDE8F08133689B682340A342D0D1FD
:101B28000020BDE8F081B5F1FF3F26D025B1FEF7D2
:101B38008DFCC01BA84220D93268536823F0E0030B
:101B480053603268136823F040031360B36AB3F537
:101B5800005F09D13268136823F4005313603268B8
:101B6800136843F400531360012386F851300023AF
:101B780086F850300320BDE8F08133689B68234025
:101B8800A342D0D00020BDE8F08100BF704700BF5D
:101B9800002800F0AC8010B50446436833B1B3F5B3
:101BA800827F03D05348B72100F086FFA3684BB16A
:101BB800B3F5806F06D0B3F5004F03D04D48B82178
:101BC80000F07AFFE368B3F5006F04D01BB1494811
:101BD800B92100F071FF23692BB1022B03D04548CE
:101BE800BA2100F069FF6369012B03D94148BB2181
:101BF80000F062FFA369B3F5007F07D033B1B3F5F6
:101C0800802F03D03B48BC2100F056FFE3698BB11D
:101C1800082B0FD0102B0DD0182B0BD0202B09D050
:101C2800282B07D0302B05D0382B03D03148BD21C5
:101C380000F042FF236A2BB1802B03D02D48BE2130
:101C480000F03AFF636A2BB1102B03D02948BF215B
:101C580000F032FFA36A33B1B3F5005F03D0254823
:101C6800C02100F029FFE36A013B4FF6FE72934260
:101C780003D92048C12100F01FFF94F8513013F018
:101C8800FF0F02D12046FFF781FF022384F851306D
:101C98002268136823F04003136021686268A36810
:101CA8001A43E3681A4323691A4363691A43A36909
:101CB80003F400731343E2691343226A1343A26ACD
:101CC8001A430A602168638B03F00402636A1343B2
:101CD8004B602368E26A1A612268D36923F40063BF
:101CE800D36100206065012384F8513010BD0120C4
:101CF800704700BF14520008704700BF78B110B594
:101D080004460268136823F040031360FFF7F4FFEA
:101D18000020606584F8510084F8500010BD01204F
:101D2800704700BFF0B583B004460E4617461D46FF
:101D380090F85130DBB2012B02D0222B40F0848185
:101D4800002E00F08381002F00F08281002D00F02A
:101D58008181A36823B19E4840F2CD2100F0ACFEFA
:101D680094F85030012B00F07781012384F850302B
:101D780094F85130DBB2012B02D1322384F8513070
:101D880000236365A763A587E5872663A586E5869F
:101D9800A364E364A36AB3F5005F09D122681368FA
:101DA80023F4005313602268136843F4005313604C
:101DB80023681A6812F0400F03D11A6842F04002F3
:101DC8001A60E368B3F5006F7DD163682BB1B3F592
:101DD800827F0CD1E38E012B09D12368226B1288F4
:101DE800DA60236B02332363E38E013BE386E38EE1
:101DF800002B4DD1A36AB3F5005F04D122681368A4
:101E080043F480531360204601210022089BFFF70A
:101E18004BFE002840F02281A36B2268D2681A800A
:101E2800A36B0233A363E38F013BE387BEE0204645
:101E380002210022089BFFF737FE002840F010819E
:101E48002368226B1288DA60236B02332363E38EE4
:101E5800013B9BB2E38643B9A36AB3F5005F04D1A3
:101E68002268136843F4805313602046012100223E
:101E7800089BFFF719FE002840F0F480A36B226846
:101E8800D2681A80A36B0233A363E38F013BE38715
:101E9800E38E002BCBD16368002B40F0878020466F
:101EA80001210022089BFFF7FFFD002840F0DC809D
:101EB800A36B2268D2681A80A36B0233A363E38FF3
:101EC800013BE38772E063682BB1B3F5827F0BD1E6
:101ED800E38E012B08D12268236B591C21631B78E0
:101EE800D360E38E013BE386E38E002B48D1A36ADF
:101EF800B3F5005F04D12268136843F4805313607C
:101F0800204601210022089BFFF7CEFD002840F063
:101F1800AD80A36B2268D2681A70E38F013BE38718
:101F280044E0204602210022089BFFF7BDFD00285F
:101F380040F09E802268236B591C21631B78D36074
:101F4800E38E013B9BB2E38643B9A36AB3F5005F16
:101F580004D12268136843F480531360204601219A
:101F68000022089BFFF7A0FD002840F08380A36BA8
:101F78005A1CA2632268D2681A70E38F013BE38778
:101F8800E38E002BCDD1636883B92046012100225E
:101F9800089BFFF789FD00286ED1A36B5A1CA2632A
:101FA8002268D2681A70E38F013BE387A36AB3F50E
:101FB800005F16D1204601210022089BFFF774FD1F
:101FC80040B1636D43F002036365032355E000BF2E
:101FD800145200082368DB689BB2ADF80630BDF8E0
:101FE8000630204680210122089BFFF75DFD03464D
:101FF80028B1636D43F01003636503233DE00122BC
:1020080084F8512021688A6802F01002A06AB0F5AD
:10201800005F15D1A2B1636D43F002036365B0F5AB
:10202800005F08D10B6823F400530B602268136823
:1020380043F400531360002384F8503001231CE05C
:10204800002284F8502018E0022316E0012314E04F
:10205800012312E0012310E002230EE003230CE029
:1020680003230AE0032308E0032306E0032304E034
:10207800032302E0032300E00323184603B0F0BD66
:1020880090F85100704700BF0C4B01E0013B10D0A5
:102098000269002AFADA036943F001030361074B76
:1020A80001E0013B07D0026912F0010FF9D10020CD
:1020B8007047032070470320704700BF400D03009E
:1020C80084B010B5044603A880E80E00089B012BD5
:1020D80018D1A36B23F48033A363E36823F4840348
:1020E80023F04003E360E36823F44013E3600D9BAF
:1020F800012B03D1E36843F48013E3602046FFF724
:10210800C3FF09E0E36843F04003E3602046FFF7BC
:10211800BBFF4FF48033A363069B012B07D1A36851
:1021280043F00C03A360A36843F02003A3600020DE
:10213800BDE8104004B07047836843F00103836032
:1021480000207047836823F00103836000207047F4
:1021580008B5C36823F0C043C360012904D1C3682C
:1021680043F00053C36004E019B9C36843F08043E7
:10217800C3603220FEF770F9002008BD490141F024
:1021880020010161054B01E0013B05D0026912F015
:10219800200FF9D10020704703207047400D03003D
:1021A80010230361054B01E0013B05D0026912F0E1
:1021B800100FF9D10020704703207047400D03002D
:1021C800D0F800381943C0F800180020704700BF45
:1021D80084B0F8B5044607A880E80E00A36B43F462
:1021E8000023A3630F9E1EB9A36B43F40013A363DC
:1021F8000023C4F8003E04F50065D4F80038C4F89C
:1022080000380C9B012B0BD1099B23B920460021D8
:10221800FFF7D6FF08E020460121FFF7D1FF03E0D2
:1022280020460321FFF7CCFF20461021FFF7A6FF29
:102238002046FFF7B5FF00232B616B614FF0FF329B
:10224800AA61EB61079848B304F5106300221946A8
:102258001F68002F03DA4FF090471F6001E0002746
:102268001F6000270F61FF278F60013220338242F1
:10227800EDD304F53063002219461F68002F03DAF6
:102288004FF090471F6001E000271F6000270F6193
:10229800FF278F60013220338242EDD12B6923F46E
:1022A80080732B610A9B012B0ED1184B2B632B6B70
:1022B80043F4803343F003032B632B6B0023A361A8
:1022C8006FF08043636109E00022A2616FF08042F1
:1022D80062611BB9A36943F01003A361A2690C4BA7
:1022E8001343A3610D9B1BB1A36943F00803A361CA
:1022F800012E05D1A36943F0804343F00403A36191
:102308000020BDE8F84004B0704700BF000180001D
:1023180000383C80D0F8083800F5006013F0060F4C
:1023280010D0836803F00603022B0DD0836803F0F6
:102338000603062B0AD0836803F00603042B07D193
:102348000220704700207047032070470320704721
:102358000020704770B44B78012B1FD1D0F81C288F
:102368000D78AB409BB21343C0F81C380E7873014C
:1023780003F510631A5812F4004F2DD11C5844F07D
:10238800805545F400458A68C2F30A042C43CA788C
:1023980044EA824242EA86521A501DE0D0F81C28CC
:1023A8000D784FF48033AB401343C0F81C380B78DA
:1023B8005B0103F530631A5812F4004F0CD11A5818
:1023C80042F0805444F400448A68C2F30A0222436B
:1023D800C97842EA81421A50002070BC704700BF99
:1023E80030B44B78012B1BD1D0F83C580C7803FA49
:1023F80004F4A4B225EA0404C0F83C48D0F81C4808
:102408000D78AB409BB224EA0303C0F81C380B7864
:102418005B0103F510631A5822F400421A5019E0C0
:10242800D0F83C480D78012202FA05F524EA054463
:10243800C0F83C48D0F81C480D78AA4024EA02426B
:10244800C0F81C280B785B0103F530631A5822F496
:1024580000421A50002030BC704700BF30B44B789F
:10246800012B68D14B69EBB90B7800EB4313D3F818
:10247800104924F0FF5424F4C014C3F810490B7811
:1024880000EB4313D3F8104944F40024C3F810496F
:102498000B7800EB4313D3F81049E40CE404C3F8B9
:1024A80010492CE00B7800EB4313D3F81049E40CE7
:1024B800E404C3F810490B7800EB4313D3F8104930
:1024C80024F0FF5424F4C014C3F810498B684C69F5
:1024D8009C4200D94B610B7800EB4313D3F81049A9
:1024E80044F40024C3F810490B7800EB4313D3F8E5
:1024F80010594C69C4F312042C43C3F81049012A3B
:1025080006D10B7800EB43130A69C3F8142909E0D4
:102518004B693BB1D0F834280D780123AB40134305
:10252800C0F834380B785B0103F51063C25842F0E9
:102538000442C2503BE00B7800EB4313D3F8104B36
:10254800E40CE404C3F8104B0B7800EB4313D3F806
:10255800104B24F0FF5424F4C014C3F8104B4B69FB
:102568000BB18B684B610B7800EB4313D3F8104B1E
:1025780044F40024C3F8104B0B7800EB4313D3F852
:10258800105B8C68C4F312042C43C3F8104B012A67
:1025980005D10B7800EB4313CA68C3F8142B0B78EA
:1025A8005B0103F53063C25842F00442C250002078
:1025B80030BC704730B49DF8084064B903339B10B1
:1025C80009D000F5805000EB023251F8045B156029
:1025D8000134A342F9D1002030BC704770B582B0F5
:1025E8004B78012B40F0A9804B69EBB90B7800EBD5
:1025F8004313D3F8104924F0FF5424F4C014C3F84B
:1026080010490B7800EB4313D3F8104944F4002425
:10261800C3F810490B7800EB4313D3F81049E40CC6
:10262800E404C3F8104945E00B7800EB4313D3F8F2
:102638001049E40CE404C3F810490B7800EB431389
:10264800D3F8104924F0FF5424F4C014C3F81049F7
:102658000C7800EB4414D4F810598E684B69334455
:10266800013BB3FBF6F3724E06EAC3432B43C4F8AF
:1026780010390B7800EB4313D3F810594C69C4F3A5
:1026880012042C43C3F81049CB78012B40F0C880C2
:102698000B7800EB4313D3F8104924F0C044C3F877
:1026A80010490B7800EB4313D3F8104944F0005459
:1026B800C3F81049012A06D10B7800EB43130C69C3
:1026C800C3F814490CE0CB78012B0CD04B6903B349
:1026D800D0F834480E780123B3402343C0F8343887
:1026E800CB78012B15D1D0F8083813F4807F08D1A6
:1026F8000B785B0103F51063C45844F00054C450D0
:1027080007E00B785B0103F51063C45844F080546C
:10271800C4500B785B0103F51063C45844F00444BB
:10272800C450CB78012B7FD114460B46C9681A7860
:102738009B8A0094FFF73EFF76E00B7800EB43138B
:10274800D3F8104BE40CE404C3F8104B0B7800EBFF
:102758004313D3F8104B24F0FF5424F4C014C3F8E7
:10276800104B4B69A3B90B7800EB4313D3F8105BFC
:102778008C68C4F312042C43C3F8104B0B7800EB9D
:102788004313D3F8104B44F40024C3F8104B1DE056
:102798008D680C7800EB4414D4F8106B2B44013B83
:1027A800B3FBF5F39BB2224D05EAC3453543C4F8A4
:1027B800105B0C7800EB4414D4F8106B8D6805FBA3
:1027C80003F3C3F312033343C4F8103B012A05D1C2
:1027D8000B7800EB4313CA68C3F8142BCB78012B92
:1027E80015D1D0F8083813F4807F08D10B785B0135
:1027F80003F53063C25842F00052C25007E00B782C
:102808005B0103F53063C25842F08052C2500B7826
:102818005B0103F53063C25842F00442C25003E042
:10282800012A7FF453AF47E7002002B070BD00BF14
:102838000000F81F033292100FD030B40C4600236A
:1028480000F580552D6844F8045B01339A42F7D1AE
:1028580001EB8201084630BC70470846704700BF4C
:102868004B78012B13D10B785B0103F51063C25829
:10287800002A03DBC25822F08042C2500B785B0169
:1028880003F51063C25842F40012C25012E00B78EC
:102898005B0103F53063C258002A03DBC25822F0FB
:1028A8008042C2500B785B0103F53063C25842F492
:1028B8000012C250002070474B78012B15D10B78BD
:1028C8005B0103F51063C25822F40012C250CB78A2
:1028D800023BDBB2012B1DD80B785B0103F51063BB
:1028E800C25842F08052C25014E00B785B0103F5E5
:1028F8003063C25822F40012C250CB78023BDBB2DC
:10290800012B07D80B785B0103F53063C25842F0FE
:102918008052C25000207047D0F8003823F4FE637C
:10292800C0F80038D0F80038090101F4FE610B4303
:10293800C0F800380020704708B5D0F8043823F0F4
:102948000203C0F804380320FDF786FD002008BD07
:1029580008B5D0F8043843F00203C0F8043803205F
:10296800FDF77AFD002008BD43698069184070476B
:10297800D0F8183800F50060C0691840000C70479E
:1029880000F50063D0F81808DB69184080B270477A
:1029980000F5306303EB41118B6800F50060406976
:1029A8001840704710B4D0F81048D0F8343800EB0D
:1029B8004110D0F80809CB40DB01DBB223431840B3
:1029C8005DF8044B704700BF406900F00100704794
:1029D800D0F8003923F4FF6323F00703C0F8003967
:1029E80000F500639A6802F00602042A05D1D0F8BF
:1029F800002942F00302C0F800295A6842F48072A4
:102A08005A600020704700BF10B40024C0F8104B73
:102A1800D0F8104B44F40024C0F8104BD0F8104BF9
:102A280044F01804C0F8104BD0F8104B44F0C044E0
:102A3800C0F8104B012905D1C0F8142B4FF08023A2
:102A4800C0F8003B00205DF8044B7047FEE700BF6C
:102A580008B5034800F056F80120FFF7F7FF00BF5C
:102A68004452000808B50D4B1B6813B90C4A0B4BB0
:102A78001A600A4B1A68C31C23F00303134409495C
:102A88008B4206D901F014FF0C2303604FF0FF308E
:102A980008BD02490B60104608BD00BF00020020B7
:102AA800E009002000FC012001230360014B0B60BA
:102AB800704700BF0400002008B503460A460348D3
:102AC800194600F005F8FFF7C3FF00BF9852000849
:102AD8000FB400B583B004AB53F8042B0193084836
:102AE800802101F0D7FF011E03DD054800F03EF804
:102AF8000146084603B05DF804EB04B0704700BF18
:102B08000802002010B5044601F092FF0146204655
:102B180000F02CF80248012100F028F810BD00BF91
:102B28008853000810B400221AE04FF06043D3F82D
:102B3800803E13F0010F06D04FF06043D3F8003EFB
:102B480013F0010F01D110460DE04FF060431B68F0
:102B5800002BFAD004784FF060431C70013201302A
:102B68008A42E2D308465DF8044B704708B5FFF780
:102B7800D9FF08BD08B500F079F808BDF8B50446D6
:102B88000D4617461E462648FFF7A2FF254821682E
:102B9800FFF79EFF24486168FFF79AFF2348A16862
:102BA800FFF796FF2248E168FFF792FF2148216965
:102BB800FFF78EFF20486169FFF78AFF1F48A16968
:102BC800FFF786FF1E48E169FFF782FF1D48FFF700
:102BD8007FFF1D482946FFF77BFF1C4CE16A1C4814
:102BE800FFF776FF216B1B48FFF772FFE16B1A486E
:102BF800FFF76EFF15F0800F03D018483946FFF72E
:102C080067FF15F4004F03D015483146FFF760FF02
:102C18001448FFF75DFF14480699FFF759FFF8BD00
:102C2800F052000800530008105300082053000811
:102C38003053000840530008505300086053000800
:102C480070530008805300088C53000800ED00E022
:102C58009C530008AC530008BC530008CC53000830
:102C6800DC530008EC530008F45300080C4B1A68B6
:102C780042F001021A60002199601A6822F08472F9
:102C880022F480321A60074A5A601A6822F48022B5
:102C98001A60D9604FF00062034B9A60704700BF1A
:102CA800003802401030002400ED00E022230380A9
:102CB80000487047AC000020D0F818320020187384
:102CC800704700BF0A23038000487047A000002017
:102CD80010B5D0F818220C7814F0600425D0202CF8
:102CE8004AD14B78023B092B1BD8DFE803F01409C3
:102CF8001A1A1A1A1A1A0F058B78136000243CE066
:102D08001146012200F02EFC002436E04B881B0AF5
:102D18005360002431E0111D012200F023FC00243F
:102D28002BE000F0C7F9022427E04B780A2B1AD0D1
:102D38000B2B1ED0062B20D14B881B0A222B05D12A
:102D4800CA884A2A28BF4A220D4909E0212B05D101
:102D5800CA88092A28BF09220A4901E000210A462F
:102D680000F000FC09E002F10801012200F0FAFB82
:102D780003E08B78936000E00024204610BD00BF7C
:102D8800480000209400002010B50446812101F07D
:102D980033FAD4F8180220B101F098FD0023C4F8E2
:102DA8001832002010BD00BF10B50446812103224F
:102DB800042301F017FA102001F080FDC4F818026E
:102DC80018B100230373184610BD012010BD00BFC1
:102DD80038B5D0F8185290F8FC41032C08D12B7B59
:102DE80033B913460A4601212973812101F03CFABF
:102DF800002038BD98B108B50346D0F8140210B1C8
:102E08000020C3F8140209B1C3F81012012183F895
:102E1800FC111A70184601F0ABF9002008BD022019
:102E2800704700BF19B1C0F8141200207047022083
:102E3800704700BF08B501F0CDF9002008BD00BFFC
:102E480008B5D0F8143223B11B68984718B102208E
:102E580008BD022008BD002008BD00BF08B5D0F895
:102E680014325B689847002008BD00BF38B5044697
:102E780000F50275284600F009F90123C4F8F43179
:102E8800B4F80E32C4F8F83194F8081201F01F03B0
:102E9800012B08D013B1022B0AD00EE02046294698
:102EA80000F07EFA0EE02046294600F09DFA09E07F
:102EB8002046294600F0B4FA04E0204601F08001DB
:102EC80001F0A2F9002038BD38B5044609BBD0F896
:102ED800F431032B26D1D0F80C31D0F810118B42E5
:102EE8000AD95B1AC0F80C318B4228BF0B46114631
:102EF8009AB200F04FFB15E0D0F814321B6923B1E9
:102F080090F8FC21032A00D19847204600F04CFB9A
:102F180008E0D0F814329B6923B190F8FC21032A09
:102F280000D19847002038BD38B50446B9BBD0F861
:102F3800F431022B2BD1C169036A994206D9CB1A05
:102F4800C36111469AB200F01BFB20E08169B1FB16
:102F5800F3F203FB12126AB98B420BD8D0F8F8319E
:102F6800994207D200210A4600F00AFB0023C4F860
:102F7800F8310CE0D4F81432DB682BB194F8FC215A
:102F8800032A01D120469847204600F019FB94F8FF
:102F98000032012B0CD1002384F8003208E0D0F86D
:102FA80014325B6923B190F8FC21032A00D19847B9
:102FB800002038BD38B5044600210A46402301F0F8
:102FC80011F94025C4F810512046802100222B46D3
:102FD80001F008F92562012384F8FC31D4F818328D
:102FE8002BB1D4F814325B68204621799847002029
:102FF80038BD00BF01740020704700BF90F8FC3155
:1030080080F8FD31042380F8FC310020704700BFB0
:1030180090F8FD3180F8FC310020704708B590F831
:10302800FC31032B04D1D0F81432DB6903B1984783
:10303800002008BD0020704700207047002070471E
:1030480008B5012280F8FC21D0F8142252680179D1
:103058009047002008BD00BF0346002002E0013071
:10306800C0B201331A78002AF9D170474B88012B76
:103078000BD110B50446C0F80432D0F814329B685E
:103088009847204600F090FA10BD70470B780370FF
:103098004B7843708B78CA7803EB022343800B7913
:1030A8004A7903EB022383808B79CA7903EB0223E5
:1030B800C380704710B50446802101F0A5F820466A
:1030C800002101F0A1F810BD30B583B004460D46CB
:1030D8004A88130A013B062B00F28580DFE803F0DB
:1030E800040D238383657300D0F810321B68007CBD
:1030F8000DF106019847014679E0037C4BB9D0F8F9
:1031080014329B6A0DF1060098470146022343706A
:103118006DE0D0F81432DB6A0DF1060098470146DD
:103128000223437063E0D2B2052A3AD8DFE802F0FE
:10313800030C151E2730D0F810325B68007C0DF1A7
:1031480006019847014652E0D0F810329B68007C8F
:103158000DF106019847014649E0D0F81032DB68C6
:10316800007C0DF106019847014640E0D0F8103286
:103178001B69007C0DF106019847014637E0D0F83D
:1031880010325B69007C0DF10601984701462EE07C
:10319800D0F810329B69007C0DF106019847014672
:1031A80025E02946FFF786FF2EE0037C3BB9D0F8DF
:1031B80014325B6B0DF106009847014617E029466B
:1031C800FFF778FF20E0037C4BB9D0F814321B6B73
:1031D8000DF10600984701460723437007E029468A
:1031E800FFF768FF10E02946FFF764FF0CE0BDF821
:1031F80006304BB1EA883AB19A4228BF1A46ADF870
:103208000620204600F0AEF903B030BD38B50446BC
:103218008B88E3B9CB88D3B98D7805F07F0590F812
:10322800FC31032B02D1FFF745FF38BD80F8FE5172
:10323800294601F011F8204600F0B6F91DB1022325
:1032480084F8FC3138BD012384F8FC3138BD2046B0
:10325800FFF730FF38BD00BF38B504460D46897802
:10326800264B1970012903D92946FFF723FF38BDDA
:1032780090F8FC31022B02D0032B15D039E081B134
:103288004160032380F8FC31FFF7DAFD022804D1FE
:1032980020462946FFF70EFF38BD204600F084F986
:1032A80038BD00F081F938BD49B9022380F8FC31F6
:1032B8004160FFF7D3FD204600F076F938BD43683A
:1032C800994213D0D9B2FFF7C9FD0C4B1978616048
:1032D8002046FFF7B5FD022804D120462946FFF70E
:1032E800E9FE38BD204600F05FF938BD00F05CF912
:1032F80038BD2946FFF7DEFE38BD00BF8802002032
:1033080008B50346CA88012A02D0FFF7D3FE08BDD4
:1033180090F8FC21022A02D0032A08D00CE00146CA
:10332800002241F8082F012200F01CF908BD191DE0
:10333800012200F017F908BDFFF7BCFE08BD00BF69
:1033480008B5034690F8FC21023A012A0DD801225B
:10335800C260D0F804220AB10322C260184603F101
:103368000C01022200F0FEF808BDFFF7A3FE08BD1D
:1033780010B5044690F8FC31023B012B0DD84B8860
:10338800012B0CD10023C0F80432D0F814329B680A
:103398009847204600F008F910BDFFF78BFE10BDD6
:1033A80008B54B78092B1BD8DFE803F011171A145E
:1033B8001A08051A0E0BFFF787FE13E0FFF726FF22
:1033C80010E0FFF749FF0DE0FFF79AFF0AE0FFF76B
:1033D800B7FF07E0FFF74AFE04E0FFF7C9FF01E087
:1033E800FFF768FE002008BD38B504460D4690F882
:1033F800FC31032B0FD10B79012B09D8D0F81432EB
:103408009B689847EB8843B9204600F0CDF804E064
:10341800FFF750FE01E0FFF74DFE002038BD00BF6A
:1034280038B505460C468A88D1B26378012B26D078
:10343800002B48D0032B74D190F8FC31022B02D01A
:10344800032B07D017E000296BD0802969D000F042
:10345800DBFE66E0638823B919B1802901D000F04A
:10346800D3FED5F814329B6828462146984728464B
:1034780000F09AF855E02146FFF71CFE51E090F85D
:10348800FC31022B02D0032B07D018E0002948D0CA
:10349800802946D000F0B8FE43E06388002B40D175
:1034A80011F07F0F07D000F0B7FED5F814329B68F3
:1034B800284621469847284600F076F831E021460C
:1034C800FFF7F8FD2DE090F8FC31022B02D0032B1A
:1034D80006D023E011F07F0F23D000F095FE20E006
:1034E80012F0800F05D001F07F0400EB04141434AF
:1034F80005E001F07F0400EB041404F5827428460B
:1035080000F092FE10B10123236001E00023236044
:1035180028462146022200F025F802E02146FFF75E
:10352800C9FD002038BD00BFD0B170B50D461646A4
:103538000446FFF791FD0130400080B230802870CA
:1035480003236B70022307E05A1CD2B20134E954FA
:10355800531CDBB20021A95421780029F4D170BD95
:10356800704700BF38B50D4613460222C0F8F42153
:103578008361C36100212A4600F076FE002038BD31
:1035880010B50C4613460021224600F06DFE0020BF
:1035980010BD00BF10B50C4613460021224600F0AE
:1035A8006BFE002010BD00BF08B50423C0F8F4313D
:1035B80000210A460B4600F057FE002008BD00BF58
:1035C80008B50523C0F8F43100210A460B4600F07F
:1035D80053FE002008BD00BF10B582B0044600238A
:1035E8008DF8073000F044FC02A800F8014D2021B6
:1035F800012200F07FFC02B010BD00BF10B582B000
:1036080002AC002304F8013D00F032FC20460F21F3
:10361800012200F091FC9DF8070002B010BD00BF28
:1036280030B583B0054602AC002304F8013D2046BE
:103638002121012200F080FC9DF8073003F0D0031F
:103648001D438DF8075020462121012200F052FC2D
:1036580003B030BD00B585B004A8002300F8093DCB
:103668003921012200F068FC02A82721062200F077
:1036780063FC05B05DF804FB00B583B00DF10700ED
:103688002121012200F058FC9DF8073043F0400347
:103698008DF807300DF107002121012200F02AFCE6
:1036A80003B05DF804FB00BF10B586B004460DF109
:1036B80007002021012200F03FFC04A8292106224E
:1036C80000F03AFC002308E006AA02EB430212F9D4
:1036D800081C22F8101C0133DBB2022BF4D99DF828
:1036E800073013F0200F01D1122100E048210023F8
:1036F8000AE006AA02EB430232F8102C12FB01F290
:1037080024F813200133DBB2022BF2D906B010BD26
:1037180030B583B0054602AC002304F8013D2046CD
:103728003821012200F008FC2B786A78A978134325
:103738000B438DF8073020463821012200F0DAFBD0
:1037480003B030BD70B582B000238DF8073000F0AB
:10375800AFFB40238DF8043010238DF8053020236B
:103768008DF8063001A8FFF7D3FF3F2502AC04F817
:10377800015D20462221012200F0BCFB50238DF878
:10378800073020463821012200F0B4FBAA238DF827
:10379800073020463B21012200F0ACFB0A238DF8BC
:1037A800073020463C21012200F0A4FB4C238DF871
:1037B800073020463021012200F09CFB03238DF8BE
:1037C800073020463D21012200F094FB7F268DF82A
:1037D800076020463E21012200F08CFB8DF807602F
:1037E80020462946012200F085FB02B070BD00BFCB
:1037F80030B583B0054600238DF8073000F038FB5C
:1038080002AC04F8015D20462021012200F072FB81
:103818002D0A8DF8075020462421012200F06AFB6A
:1038280003B030BD10B582B002AC002304F8013DEE
:1038380000F01EFB20460F21012200F07DFB9DF8C1
:10384800070002B010BD00BF00B583B00DF107003E
:103858002521012200F070FB9DF8073063F07F03FB
:103868008DF807300DF107002521012200F042FBF9
:1038780003B05DF804FB00BF70B584B005460DF1D8
:1038880007002421012200F057FB02A82821012269
:1038980000F052FB0DF109002921012200F04CFB38
:1038A8000DF10A002A21012200F046FB0DF10B0060
:1038B8002B21012200F040FB03A82C21012200F05B
:1038C8003BFB0DF10D002D21012200F035FB9DF889
:1038D800073003F03803083B182B0ED8DFE803F055
:1038E800150D0D0D0D0D0D0D0F0D0D0D0D0D0D0DF6
:1038F800110D0D0D0D0D0D0D1300124E06E0124E9B
:1039080004E0124E02E0124E00E0124E002415E0D0
:10391800630004AA1A4412F9070C04AA134413F901
:10392800083C03EB002000F0F9FD314600F04AFEA8
:1039380000F098FF25F814000134E4B2022CE7D90E
:1039480004B070BD8FC2753DEC51383E8FC2753ED4
:1039580048E13A3F8FC2F53D30B583B0044643781D
:103968000278817813430B4302AD05F8013D2846E0
:103978002321012200F0BEFAE278237913438DF85F
:10398800073028462121012200F0B4FA6279A37990
:1039980013438DF8073028462221012200F0AAFAA5
:1039A80003B030BD30B583B000258DF8075000F066
:1039B8007FFA8DF801508DF8005040238DF80230C1
:1039C8008DF8035001248DF805408DF8065068469F
:1039D800FFF7C2FF02AD032305F8013D2846522137
:1039E800224600F087FAC8238DF80730284654216C
:1039F800224600F07FFA45238DF8073028465621E5
:103A0800224600F077FAFC238DF8073028465A2121
:103A1800224600F06FFAA1238DF8073028465B2173
:103A2800224600F067FA8DF8074028465C212246B6
:103A380000F060FA28467B21224600F05BFA28460F
:103A48006021224600F056FA06238DF807302846F2
:103A58006121224600F04EFA28238DF807302846C7
:103A68006221224600F046FA11238DF807302846D5
:103A78006321224600F03EFA03B030BD10B592B083
:103A8800174A136C43F080531364A2F5E4321368A9
:103A980043F44043136001230193029302240794E3
:103AA8004FF480030893082309934FF4A8730A93EB
:103AB8000B9407230C9301A8FDF79EFB0F230D938E
:103AC8000E9400230F934FF4A05310934FF4805398
:103AD80011930DA80521FDF7E9FD12B010BD00BF37
:103AE8000038024008B5FFF7C1F8FCF78DFCFCF779
:103AF800C1FCFFF7C3FF08BD144B00225A709A702F
:103B0800134B1B881BB213F16E0F02DAF9220F4B0D
:103B18005A700F4B1B881BB26E2B03DD0B4A537870
:103B2800073353700B4B1B881BB213F16E0F02DA6D
:103B38000722064B9A70074B1B881BB26E2B03DDBE
:103B4800024A9378073B9370004870478C02002024
:103B580020050020F802002010B592B01C4A136C12
:103B680043F080531364A2F5E432136843F44043EE
:103B78001360012301930293022407944FF48003F6
:103B88000893082309934FF4A8730A930B94072307
:103B98000C9301A8FDF730FB0F230D930E9400231F
:103BA8000F934FF4A05310934FF4805311930DA823
:103BB8000521FDF77BFDFCF765FC41F20103984206
:103BC80004D1044A136843F48073136012B010BD23
:103BD80000380240003C024008B5FCF715FC012003
:103BE80000F0C2F8002000F0BFF8022000F0BCF896
:103BF800032000F0B9F80020012100F001F900F0DD
:103C0800BFF9FFF7A9FF0F4C20460F490022FFF725
:103C1800F1F820460D49FFF705F92046FFF70AF9A4
:103C28004FF47A60FCF718FC012000F0D9F8002066
:103C380000F0D6F8022000F0D3F8032000F0D0F806
:103C4800FEE700BFFC0200207401002010000020E5
:103C580010B5FFF751FF014643780BB983781BB1C4
:103C680007480422FFF7B4F8064C204600F0B0F9E4
:103C78002288054B1A806288044B1A8010BD00BF49
:103C8800FC0200202405002020050020F802002066
:103C980000B587B00C4B5A6C42F480525A641A6BC8
:103CA80042F001021A63E023019302230293039373
:103CB8000123049305230593044801A9FCF776FC26
:103CC80007B05DF804FB00BF003802400000024066
:103CD80010B50F48FEF7D4F9C8B90D4C0D4B236049
:103CE8001823E3610023A36063612361A3620722B1
:103CF800E262E36023624FF40072A26163624FF4F0
:103D080082736360FFF7C4FF2046FDF741FF10BDD3
:103D1800900200200030014008B50348FDF7EEFF8F
:103D2800FFF7D6FF08BD00BF9002002000B587B09E
:103D38008DF80F0000238DF81730094B1B6800938E
:103D480008480DF10F010DF117020123FDF7EAFFF5
:103D580008B1FFF7E1FF9DF8170007B05DF804FB15
:103D6800380100209002002070B586B0044628B9BA
:103D7800184A136B43F00803136314E0012805D1B4
:103D8800144A136B43F0080313630CE0022805D1AF
:103D9800104A136B43F00803136304E00D4A136BD6
:103DA80043F0080313630C4B33F8145001950123B7
:103DB8000293039302230493084E56F8240001A9A2
:103DC800FCF7F4FB56F8240029460022FCF77CFD9A
:103DD80006B070BD003802403854000828010020A1
:103DE80008B50346044A52F82000044A32F8131072
:103DF8000122FCF769FD08BD28010020385400089D
:103E080030B587B00546174A136B43F001031363B7
:103E18000C4661B901230193002302930393022303
:103E28000493114B53F8200001A9FCF7BFFB012CA8
:103E380015D10123019300240394022304930B4B0F
:103E48000293094B53F8250001A9FCF7AFFB0620A4
:103E58000F212246FCF73AFB0620FCF779FB07B056
:103E680030BD00BF003802403C01002000001110A6
:103E780070B586B00C4A136B43F010031363082522
:103E8800019501240294002303930494074E3046BD
:103E980001A9FCF78BFB304629462246FCF714FDA6
:103EA800FFF716FF06B070BD003802400010024050
:103EB80010B586B00C4A136B43F01003136302234A
:103EC80001930A4A0292049300240394084801A922
:103ED800FCF76CFB07200F212246FCF7F7FA0720B6
:103EE800FCF736FB06B010BD003802400000111088
:103EF8000010024070B505460E461446012A01D945
:103F080041F040060B4808210022FCF7DDFC304652
:103F1800FFF70CFF05E015F8010BFFF707FF013C61
:103F2800A4B2002CF7D1034808210122FCF7CCFCED
:103F380070BD00BF0010024070B505461446012A46
:103F480002D941F0C00601E041F080060B48082183
:103F58000022FCF7B9FC3046FFF7E8FE06E0002037
:103F6800FFF7E4FE05F8010B013CA4B2002CF6D1E2
:103F7800024808210122FCF7A7FC70BD001002408E
:103F880010B5104B5B6898473B280BD10E4C0D4B76
:103F980023601B684720984723681B6A2D20984791
:103FA800002010BD094B5B6898473F2807D1074B95
:103FB800054A13601B6867209847002010BD012040
:103FC80010BD00BFD0000020E8020020FC00002047
:103FD800094B1B689B6A6BB110B504469847064BA2
:103FE8001A68064B9A4204D12388628822805B4271
:103FF800638010BD704700BFE8020020D000002099
:1040080008B5FCF71BFAFCF7CDFA08BD08B502485D
:10401800FCF768FD08BD00BF2C0500200368B3F15C
:10402800A04F43D12DE9F04186B0214C236B43F0DA
:10403800010323634FF4C05301930326049602231C
:104048000293002503954FF00A08CDF81480194F04
:10405800384601A9FCF7AAFA4FF4007301930295B8
:104068000395384601A9FCF7A1FA4FF48063019340
:1040780012230293012303930496CDF81480384643
:1040880001A9FCF793FA636B43F080036363636CE5
:1040980043F480436364432031462A46FCF716FA0A
:1040A8004320FCF755FA06B0BDE8F081704700BF21
:1040B800003802400000024008B50146D0F8AC03C1
:1040C80001F55F71FEF7D2FE08BD00BF08B5C1EB70
:1040D800C1039B000344D0F8AC03D3F8E021FEF7FA
:1040E800F3FE08BD08B5C1EBC1039B000344D0F83B
:1040F800AC03DA6BFEF718FF08BD00BF08B5D0F8AF
:10410800AC03FEF78BFF08BD10B50446C3680BB9B6
:10411800002100E00121D4F8AC03FEF76BFFD4F8CE
:10412800AC03FEF747FF10BD08B5D0F8AC03FEF7A7
:1041380065FF08BD08B5D0F8AC03FEF769FF08BDF8
:1041480008B5D0F8AC03FEF777FF08BD08B5D0F87E
:10415800AC03FEF76FFF08BD08B5D0F8AC03FEF757
:104168006DFF08BD08B5D0F8AC03FEF769FF08BDC0
:10417800F8B50025154B83F82350154C4FF0A04394
:10418800236004236360A562402767612561256277
:104198000223A361E561E36001266662C4F8AC030B
:1041A800C0F820422046FCF709FC20468021FDF794
:1041B8001FF8204629463A46FCF7F6FF20463146C6
:1041C8008022FCF7F1FF2846F8BD00BF00ED00E0B3
:1041D8002C05002008B5D0F82002FCF76DFC002063
:1041E80008BD00BF10B51446D0F820021A46234671
:1041F800FCF7B2FE002010BD08B5D0F82002FCF78D
:10420800DFFE002008BD00BF08B5D0F82002FCF78B
:104218006DFF002008BD00BF08B5D0F82002FCF7EC
:1042280097FF002008BD00BFD0F8202211F0800FB2
:1042380008D001F07F03C3EBC3039B00134493F83A
:104248003200704701F07F01C1EBC10189001144C0
:1042580091F8D601704700BF08B5D0F82002FCF7E6
:1042680069FE002008BD00BF08B5D0F82002FCF7A1
:1042780009FF002008BD00BF08B5D0F82002FCF7F0
:10428800CBFE002008BD00BF12230B8000487047FA
:104298004401002004230B8000487047400100209F
:1042A80030B4002310E0040F092C03D8303401F88F
:1042B800134002E0373401F8134000015C00013478
:1042C80000250D550133DBB29342ECD330BC704767
:1042D80038B50A4B1B680A4A146804321068181863
:1042E8000AD0084DA91C0822FFF7DAFF204605F17D
:1042F80012010422FFF7D4FF38BD00BF107AFF1F58
:10430800147AFF1F5801002008B51A230B80FFF705
:10431800DFFF014808BD00BF5801002008B50A4664
:1043280020B905480549FFF7FFF803E004480349A9
:10433800FFF7FAF8014808BD40540008DC080020DF
:104348005C54000810B50A46034C04482146FFF7A0
:10435800EBF8204610BD00BFDC08002078540008A8
:1043680008B50A4620B905480549FFF7DDF803E016
:1043780002480349FFF7D8F8014808BD8C540008E3
:10438800DC08002008B50A4620B905480549FFF7AA
:10439800CBF803E002480349FFF7C6F8014808BD17
:1043A80098540008DC08002080F0004002E000BFBC
:1043B80081F0004142001FBF5FEA410392EA030F08
:1043C8007FEA226C7FEA236C6AD04FEA1262D2EB52
:1043D8001363C1BFD218414048404140B8BF5B4257
:1043E800192B88BF704710F0004F40F4000020F0F0
:1043F8007F4018BF404211F0004F41F4000121F006
:104408007F4118BF494292EA030F3FD0A2F101024F
:1044180041FA03FC10EB0C00C3F1200301FA03F18D
:1044280000F0004302D5494260EB4000B0F5000FB0
:1044380013D3B0F1807F06D340084FEA310102F16F
:104448000102FE2A51D2B1F1004F40EBC25008BF21
:1044580020F0010040EA03007047490040EB0000EB
:1044680010F4000FA2F10102EDD1B0FA80FCACF11A
:10447800080CB2EB0C0200FA0CF0AABF00EBC25019
:1044880052421843BCBFD0401843704792F0000F07
:1044980081F4000106BF80F400000132013BB5E75A
:1044A8004FEA41037FEA226C18BF7FEA236C21D0D0
:1044B80092EA030F04D092F0000F08BF0846704735
:1044C80090EA010F1CBF0020704712F07F4F04D103
:1044D800400028BF40F00040704712F100723CBF16
:1044E80000F50000704700F0004343F0FE4040F440
:1044F800000070477FEA226216BF08467FEA2363FE
:104508000146420206BF5FEA412390EA010F40F4E8
:10451800800070474FF0000304E000BF10F0004334
:1045280048BF40425FEA000C08BF704743F096431B
:1045380001464FF000001CE050EA010208BF704736
:104548004FF000030AE000BF50EA010208BF7047BD
:1045580011F0004302D5404261EB41015FEA010CD2
:1045680002BF84460146002043F0B64308BFA3F1CA
:104578008053A3F50003BCFA8CF2083AA3EBC253AC
:1045880010DB01FA02FC634400FA02FCC2F12002CB
:10459800BCF1004F20FA02F243EB020008BF20F002
:1045A8000100704702F1200201FA02FCC2F1200268
:1045B80050EA4C0021FA02F243EB020008BF20EA5D
:1045C800DC7070474FF0FF0C1CEAD0521EBF1CEA8B
:1045D800D15392EA0C0F93EA0C0F6FD01A4480EA79
:1045E800010C400218BF5FEA41211ED04FF0006362
:1045F80043EA501043EA5111A0FB01310CF000408E
:10460800B1F5000F3EBF490041EAD3715B0040EAB3
:10461800010062F17F02FD2A1DD8B3F1004F40EB83
:10462800C25008BF20F00100704790F0000F0CF056
:10463800004C08BF49024CEA502040EA51207F3A1A
:10464800C2BFD2F1FF0340EAC250704740F40000F5
:104658004FF00003013A5DDC12F1190FDCBF00F0E6
:1046680000407047C2F10002410021FA02F1C2F194
:10467800200200FA02FC5FEA310040F1000053EA30
:104688004C0308BF20EADC70704792F0000F00F07E
:10469800004C02BF400010F4000F013AF9D040EA84
:1046A8000C0093F0000F01F0004C02BF490011F418
:1046B800000F013BF9D041EA0C018FE70CEAD15316
:1046C80092EA0C0F18BF93EA0C0F0AD030F0004C96
:1046D80018BF31F0004CD8D180EA010000F000404A
:1046E800704790F0000F17BF90F0004F084691F008
:1046F800000F91F0004F14D092EA0C0F01D1420242
:104708000FD193EA0C0F03D14B0218BF084608D10A
:1047180080EA010000F0004040F0FE4040F4000054
:10472800704740F0FE4040F4400070474FF0FF0CE7
:104738001CEAD0521EBF1CEAD15392EA0C0F93EA2E
:104748000C0F69D0A2EB030280EA010C49024FEA80
:10475800402037D04FF0805343EA111143EA101339
:104768000CF000408B4238BF5B0042F17D024FF4F1
:10477800000C8B4224BF5B1A40EA0C00B3EB510FCC
:1047880024BFA3EB510340EA5C00B3EB910F24BFB5
:10479800A3EB910340EA9C00B3EBD10F24BFA3EB3A
:1047A800D10340EADC001B0118BF5FEA1C1CE0D102
:1047B800FD2A3FF650AF8B4240EBC25008BF20F0B5
:1047C800010070470CF0004C4CEA50207F32C2BF09
:1047D800D2F1FF0340EAC250704740F400004FF0A6
:1047E8000003013A37E792F0000F00F0004C02BFD7
:1047F800400010F4000F013AF9D040EA0C0093F0A1
:10480800000F01F0004C02BF490011F4000F013BFA
:10481800F9D041EA0C0195E70CEAD15392EA0C0F62
:1048280008D142027FF47DAF93EA0C0F7FF470AF9A
:10483800084676E793EA0C0F04D14B023FF44CAFDD
:1048480008466EE730F0004C18BF31F0004CCAD172
:1048580030F000427FF45CAF31F000437FF43CAFAE
:104868005FE700BF4FEA4002B2F1FE4F0FD34FF0AF
:104878009E03B3EB12620DD94FEA002343F00043C5
:1048880010F0004F23FA02F018BF404270474FF073
:104898000000704712F1610F01D1420205D110F0FA
:1048A800004008BF6FF0004070474FF000007047AD
:1048B800014B1868704700BFF0010020024B014609
:1048C800186800F04FB800BFF0010020024B014605
:1048D800186800F003B800BFF001002030B50029C7
:1048E8003DD051F8042C0B1F1D49002AB8BF9B1856
:1048F8000A680C4612B95A600B6030BD93420DD25B
:1049080019685818904201BF5A5852181A604268DC
:104918005A60236030BD994203D80A46516800297D
:10492800F9D1146815199D420AD11B682344D0187F
:104938008842136013D10868034413604B680DE084
:1049480002D90C23036030BD1C681819884204BFC3
:1049580008684968596004BF00191860536030BD81
:10496800F002002070B5CC1C24F0030408340C2C91
:1049780038BF0C24002C064603DA0C2333600020D1
:1049880070BD8C42F9D3204A136810461946A1B16C
:104998000A68121B0ED40B2A03D90A608B188C5094
:1049A8001FE08B420DBF5A684A685A60026018BF00
:1049B8000B4616E00B464968E9E7144D2B681BB90E
:1049C800304600F025F828603046214600F020F8EF
:1049D800421C0346D1D0C51C25F0030585420AD1E7
:1049E8001C6003F10B001A1D20F00700821A0AD080
:1049F8005142995070BD3046E91A00F009F801306B
:104A0800BBD02B46ECE770BDF0020020EC02002082
:104A180038B5064C0023054608462360FEF722F801
:104A2800431C02D1236803B12B6038BDF402002077
:104A3800034613F8012B002AFBD1181A01387047D6
:104A480030B5141E9BB0054604DA8B2303604FF083
:104A5800FF301CE04FF40272ADF80C2014BF04F1D3
:104A6800FF322246029205924FF6FF72009104919E
:104A7800ADF80E2069461A461E9B00F075F8431CD7
:104A8800BCBF8B232B6014B1009B00221A701BB093
:104A980030BD000073B50093054B06460D4614461D
:104AA800186831462A462346FFF7CAFF02B070BD90
:104AB800F00100202DE9F0478E68B34282460C468B
:104AC8009046994640D38A8912F4906F3AD0256867
:104AD80009696F1A6569022305EB450595FBF3F52E
:104AE8007B1C4B449D4238BF1D4653050FD52946B4
:104AF800FFF738FF064698B121693A4600F0C5FA33
:104B0800A38923F4906343F08003A38113E02A462A
:104B180000F0E1FA064670B950462169FFF7DEFE5B
:104B28000C23CAF80030A38943F04003A3814FF057
:104B3800FF30BDE8F087266165613E44ED1B2660C5
:104B4800A5604E46B14500D24E46324620684146E1
:104B580000F0A6FAA3689B1BA36023681E44266086
:104B68000020BDE8F08700002DE9F0439DB006461F
:104B780003938B891C060D4690460CD50B6953B9D7
:104B88004021FFF7EFFE2860286110B90C2333603D
:104B9800CCE040236B610023099320238DF8293052
:104BA80030238DF82A3043461C4613F8012B1AB9D6
:104BB800B4EB08090FD002E0252AF5D1F8E7304612
:104BC800294642464B46FFF775FF013000F0A980A1
:104BD800099B4B4409932378002B00F0A280002303
:104BE8004FF0FF3204930793059206938DF85330E4
:104BF8001A9304F101084446DFF8489121784846A1
:104C0800052200F033FA08F10108049B30B1C9EB22
:104C180000000122824013430493ECE7D80644BF06
:104C280020228DF85320190744BF2B228DF85320DA
:104C380022782A2A02D0079923460EE0039A111DEA
:104C480012680391002ABBBF524243F00203079245
:104C58000792B8BF049301340AE01C460133227856
:104C6800303A092A03D80A2000FB0121F5E7079109
:104C780023782E2B1AD163782A2B0AD1039B1A1D6D
:104C88001B680392002BB8BF4FF0FF330234059323
:104C98000CE0611C00220C4601312378303B092BC3
:104CA80003D80A2000FB0232F5E70592DFF8988066
:104CB80021784046032200F0D9F938B1049AC8EBAC
:104CC80000004023834013430493013421781A4899
:104CD8008DF82810062204F1010800F0C7F988B100
:104CE800164B33B9039B073323F0070308330393A9
:104CF80013E003AB0093304604A92A46104BAFF3E8
:104D0800008007E003AB0093304604A92A460C4B09
:104D180000F092F8421C074603D0099B3B440993D4
:104D280041E7AB895B0601D4099801E04FF0FF30F9
:104D38001DB0BDE8F08300BFB454000800000000B7
:104D4800BD4A0008AA540008B05400082DE9F843E9
:104D580091461F468A680B69DDF820809342B8BFE8
:104D68001346C9F8003091F8432006460C4612B1A4
:104D78000133C9F800302368990642BFD9F80030DA
:104D88000233C9F80030256815F006051CD094F8E0
:104D980043302268003318BF012392061FD5E1185B
:104DA8005A1C302081F84300224494F8451082F8B8
:104DB8004310023313E03046394604F11902012347
:104DC800C047013007D00135E368D9F800209B1AA5
:104DD8009D42F0DBDBE74FF0FF30BDE8F88330465B
:104DE800394604F14302C0470130F4D02268D9F8AB
:104DF8000050E36802F00602042A08BF5D1B22691E
:104E0800A3680CBF25EAE57500259342C4BF9B1A29
:104E1800ED184FF00009A9450ADA3046394604F181
:104E28001A020123C0470130D5D009F10109F2E780
:104E38000020BDE8F88300002DE9FF410C46174625
:104E4800227E6E2A984606460A9B01F1430100F02D
:104E5800A98012D8632A23D00AD8002A00F0B68085
:104E6800582A40F0C58084F84520DFF8F8E151E081
:104E7800642A1ED0692A1CD0BAE0732A00F0AA80DE
:104E880009D86F2A2BD0702A40F0B280226842F0ED
:104E98002002226039E0752A21D0782A35D0A7E08F
:104EA8001A68111D1960136884F8423004F142052C
:104EB800A2E020681A6810F0800F03D0101D186057
:104EC800136805E04506F9D5101D1860B2F90030E1
:104ED800002B3BDA2D225B4284F8432036E0206821
:104EE8001A6810F0800F03D0101D1860136804E0D2
:104EF8004006F9D5101D18601388227EDFF864E19A
:104F08006F2A0CBF08220A221CE07822DFF858E139
:104F180084F845202268186812F0800F00F1040513
:104F28001D6001D0036802E05506FBD50388D00751
:104F380044BF42F0200222601BB9226822F02002FE
:104F480022601022002084F8430002E0DFF814E118
:104F58000A226568A560002DA2BF206820F0040021
:104F6800206003B965B10D46B3FBF2F002FB1033C4
:104F78001EF8033005F8013D03460028F4D100E08F
:104F88000D46082A0BD12368DA0708D52369626819
:104F98009A42DEBF302305F8013C05F1FF35491B75
:104FA80021612EE025681A68606915F0800F03D02A
:104FB800151D1D60136808E015F0400F02F1040587
:104FC8001D60136801D0188000E018600023236179
:104FD8000D4616E01A68111D1960156862682846A2
:104FE800002100F043F808B1401B6060636804E0EA
:104FF80004F1420584F8422001232361002384F848
:105008004330CDF800803046214603AA3B46FFF7DF
:105018009DFE013002D14FF0FF301FE03046394687
:105028002A462369C0470130F5D023689B0705D479
:10503800E068039B9842B8BF18460FE00025E36874
:10504800039A9B1A9D42F3DA3046394604F1190255
:105058000123C0470130DED00135F0E704B0BDE8D8
:10506800F08100BFBB540008CC54000810B5C9B289
:1050780002449042034606D01C788C4200F101009D
:10508800F7D1184610BD002010BD10B5431E0A44C4
:10509800914204D011F8014B03F8014FF8E710BD15
:1050A800814210B501EB020301D3421E0BE0984286
:1050B800FBD28118D21AD34204D013F8014D01F85B
:1050C800014DF8E710BD994204D011F8014B02F8E0
:1050D800014FF8E710BDF8B5074615460E4621B949
:1050E8001146BDE8F840FFF73DBC1AB9FFF7F6FBDB
:1050F8002846F8BD00F015F8A8420ED238462946D1
:10510800FFF730FC044650B131462A46FFF7BDFF91
:1051180038463146FFF7E2FB01E03046F8BD20464D
:10512800F8BD51F8040C0028BEBF091851F8043C1A
:10513800C0180438704700002E2E2F7379737465D9
:105148006D2F7372632F73746D333266342D6861FB
:105158006C2F73746D3332663478785F68616C5F76
:10516800636F727465782E63000000002E2E2F7313
:10517800797374656D2F7372632F73746D33326630
:10518800342D68616C2F73746D3332663478785FB0
:1051980068616C5F6770696F2E6300002E2E2F7335
:1051A800797374656D2F7372632F73746D33326600
:1051B800342D68616C2F73746D3332663478785F80
:1051C80068616C5F7063642E63000000000000007B
:1051D8000102030401020304060708092E2E2F7397
:1051E800797374656D2F7372632F73746D333266C0
:1051F800342D68616C2F73746D3332663478785F40
:1052080068616C5F7263632E630000002E2E2F733B
:10521800797374656D2F7372632F73746D3332668F
:10522800342D68616C2F73746D3332663478785F0F
:1052380068616C5F7370692E6300000061626F7251
:105248007428292C2065786974696E672E2E2E00C3
:105258002C2066756E6374696F6E3A20000000003A
:10526800617373657274696F6E20222573222066DC
:1052780061696C65643A2066696C65202225732231
:105288002C206C696E65202564257325730A00003F
:105298006173736572745F706172616D282920662D
:1052A80061696C65643A2066696C65202225732201
:1052B8002C206C696E652025640A00006D61696E9A
:1052C80028617267633D25642C20617267763D5BB7
:1052D800000000002C20000022257322000000009E
:1052E8005D293B0A00000000537461636B206672FD
:1052F800616D653A0A000000205230203D202025CB
:105308003038580A00000000205231203D20202566
:105318003038580A00000000205232203D20202555
:105328003038580A00000000205233203D20202544
:105338003038580A0000000020523132203D202524
:105348003038580A00000000204C52203D2020250B
:105358003038580A00000000205043203D20202506
:105368003038580A0000000020505352203D2025B4
:105378003038580A000000004653522F4641523A2E
:105388000A0000002043465352203D202025303893
:10539800580A00002048465352203D202025303826
:1053A800580A00002044465352203D20202530381A
:1053B800580A00002041465352203D20202530380D
:1053C800580A0000204D4D464152203D20253038D6
:1053D800580A00002042464152203D2020253038FE
:1053E800580A00004D6973630A000000204C522FD0
:1053F8004558435F52455455524E3D202530385844
:105408000A0000005B486172644661756C745D0A4D
:10541800000000005B4275734661756C745D0A009C
:105428005B55736167654661756C745D0A000000C1
:10543800001000200040008053544D33322048496A
:10544800442044657669636520696E204853204D81
:105458006F64650053544D333220484944204465F5
:105468007669636520696E204653204D6F64650038
:1054780053544D6963726F656C656374726F6E69BE
:105488006373000056435020436F6E6669670000DF
:1054980056435020496E746572666163650000006A
:1054A8004300232D302B2000686C4C00656667454F
:1054B8004647003031323334353637383941424384
:1054C8004445460030313233343536373839616235
:0554D80063646566003D
:1054E0007856341204020020000000000024F4006A
:1054F000B12D0008912D0008D92C000800000000F3
:1055000000000000C12C00080000000000000000A6
:105510000000000000000000B52C0008B52C0008B9
:10552000B52C0008CD2C000805010902A1010901D4
:10553000A10005091901290315002501950375012D
:10554000810295017505810105010930093109388C
:105550001581257F750895038106C0093C05FF0963
:10556000011500250175019502B12275069501B15D
:1055700001C00000092111010001224A00000000C1
:105580000A0600020000004001000000090222009B
:10559000010100E0320904000001030102000921B9
:1055A00011010001224A000705810304000A0000DE
:1055B000E135000805360008813600084D3700083F
:1055C0000000000000000000000000005D36000840
:1055D0002936000800000000B1360008F93700083D
:1055E0002D38000851380008AD39000800000000CF
:1055F00000000000000000000000000000000000AB
:105600000000000081380008000C0240000C02403D
:10561000000C0240000C024000100000000002409C
:1056200004030904120100020000004083044057F3
:1056300000020102030100001A0300000000000044
:10564000000000000000000000000000000000005A
:1056500000000000914200089D4200084D430008F0
:105660002543000811430008694300088D430008E2
:10567000000000000000000000000000000000002A
:10568000000000000000000000000000000000001A
:10569000A854000800000000000000000000000006
:1056A00000000000000000000000000000000000FA
:1056B00000000000000000000000000000000000EA
:1056C00000000000000000000000000000000000DA
:0856D00090010020325476988D
:040000050800018965
:00000001FF
